{
  "_format": "hh-sol-artifact-1",
  "contractName": "PropertyFactory",
  "sourceName": "contracts/PropertyFactory.sol",
  "abi": [
    {
      "inputs": [],
      "stateMutability": "nonpayable",
      "type": "constructor"
    },
    {
      "inputs": [
        {
          "internalType": "address",
          "name": "account",
          "type": "address"
        }
      ],
      "name": "NotValidator",
      "type": "error"
    },
    {
      "inputs": [
        {
          "internalType": "address",
          "name": "account",
          "type": "address"
        }
      ],
      "name": "NotWhitelisted",
      "type": "error"
    },
    {
      "anonymous": false,
      "inputs": [
        {
          "indexed": false,
          "internalType": "address",
          "name": "previousAdmin",
          "type": "address"
        },
        {
          "indexed": false,
          "internalType": "address",
          "name": "newAdmin",
          "type": "address"
        }
      ],
      "name": "AdminChanged",
      "type": "event"
    },
    {
      "anonymous": false,
      "inputs": [
        {
          "indexed": true,
          "internalType": "address",
          "name": "beacon",
          "type": "address"
        }
      ],
      "name": "BeaconUpgraded",
      "type": "event"
    },
    {
      "anonymous": false,
      "inputs": [
        {
          "indexed": false,
          "internalType": "uint8",
          "name": "version",
          "type": "uint8"
        }
      ],
      "name": "Initialized",
      "type": "event"
    },
    {
      "anonymous": false,
      "inputs": [
        {
          "indexed": true,
          "internalType": "address",
          "name": "previousOwner",
          "type": "address"
        },
        {
          "indexed": true,
          "internalType": "address",
          "name": "newOwner",
          "type": "address"
        }
      ],
      "name": "OwnershipTransferred",
      "type": "event"
    },
    {
      "anonymous": false,
      "inputs": [
        {
          "indexed": true,
          "internalType": "address",
          "name": "propertyToken",
          "type": "address"
        }
      ],
      "name": "PropertyApproved",
      "type": "event"
    },
    {
      "anonymous": false,
      "inputs": [
        {
          "indexed": true,
          "internalType": "address",
          "name": "propertyToken",
          "type": "address"
        },
        {
          "indexed": true,
          "internalType": "address",
          "name": "creator",
          "type": "address"
        }
      ],
      "name": "PropertyCreated",
      "type": "event"
    },
    {
      "anonymous": false,
      "inputs": [
        {
          "indexed": true,
          "internalType": "address",
          "name": "implementation",
          "type": "address"
        }
      ],
      "name": "Upgraded",
      "type": "event"
    },
    {
      "inputs": [
        {
          "internalType": "address",
          "name": "propertyToken",
          "type": "address"
        }
      ],
      "name": "approveProperty",
      "outputs": [],
      "stateMutability": "nonpayable",
      "type": "function"
    },
    {
      "inputs": [
        {
          "internalType": "string",
          "name": "_tokenName",
          "type": "string"
        },
        {
          "internalType": "string",
          "name": "_tokenSymbol",
          "type": "string"
        },
        {
          "internalType": "string",
          "name": "_title",
          "type": "string"
        },
        {
          "internalType": "string",
          "name": "_description",
          "type": "string"
        },
        {
          "internalType": "string",
          "name": "_location",
          "type": "string"
        },
        {
          "internalType": "string",
          "name": "_imageUrl",
          "type": "string"
        },
        {
          "internalType": "uint256",
          "name": "_price",
          "type": "uint256"
        },
        {
          "internalType": "uint256",
          "name": "_totalSupply",
          "type": "uint256"
        }
      ],
      "name": "createProperty",
      "outputs": [
        {
          "internalType": "address",
          "name": "",
          "type": "address"
        }
      ],
      "stateMutability": "nonpayable",
      "type": "function"
    },
    {
      "inputs": [],
      "name": "eurcTokenAddress",
      "outputs": [
        {
          "internalType": "address",
          "name": "",
          "type": "address"
        }
      ],
      "stateMutability": "view",
      "type": "function"
    },
    {
      "inputs": [],
      "name": "getProperties",
      "outputs": [
        {
          "components": [
            {
              "internalType": "address",
              "name": "tokenAddress",
              "type": "address"
            },
            {
              "internalType": "bool",
              "name": "isApproved",
              "type": "bool"
            }
          ],
          "internalType": "struct PropertyFactory.Property[]",
          "name": "",
          "type": "tuple[]"
        }
      ],
      "stateMutability": "view",
      "type": "function"
    },
    {
      "inputs": [],
      "name": "getPropertyCount",
      "outputs": [
        {
          "internalType": "uint256",
          "name": "",
          "type": "uint256"
        }
      ],
      "stateMutability": "view",
      "type": "function"
    },
    {
      "inputs": [
        {
          "internalType": "address",
          "name": "_validator",
          "type": "address"
        },
        {
          "internalType": "address",
          "name": "_whitelistContract",
          "type": "address"
        },
        {
          "internalType": "address",
          "name": "_eurcTokenAddress",
          "type": "address"
        }
      ],
      "name": "initialize",
      "outputs": [],
      "stateMutability": "nonpayable",
      "type": "function"
    },
    {
      "inputs": [],
      "name": "owner",
      "outputs": [
        {
          "internalType": "address",
          "name": "",
          "type": "address"
        }
      ],
      "stateMutability": "view",
      "type": "function"
    },
    {
      "inputs": [
        {
          "internalType": "uint256",
          "name": "",
          "type": "uint256"
        }
      ],
      "name": "properties",
      "outputs": [
        {
          "internalType": "address",
          "name": "tokenAddress",
          "type": "address"
        },
        {
          "internalType": "bool",
          "name": "isApproved",
          "type": "bool"
        }
      ],
      "stateMutability": "view",
      "type": "function"
    },
    {
      "inputs": [],
      "name": "proxiableUUID",
      "outputs": [
        {
          "internalType": "bytes32",
          "name": "",
          "type": "bytes32"
        }
      ],
      "stateMutability": "view",
      "type": "function"
    },
    {
      "inputs": [],
      "name": "renounceOwnership",
      "outputs": [],
      "stateMutability": "nonpayable",
      "type": "function"
    },
    {
      "inputs": [
        {
          "internalType": "address",
          "name": "newOwner",
          "type": "address"
        }
      ],
      "name": "transferOwnership",
      "outputs": [],
      "stateMutability": "nonpayable",
      "type": "function"
    },
    {
      "inputs": [
        {
          "internalType": "address",
          "name": "newImplementation",
          "type": "address"
        }
      ],
      "name": "upgradeTo",
      "outputs": [],
      "stateMutability": "nonpayable",
      "type": "function"
    },
    {
      "inputs": [
        {
          "internalType": "address",
          "name": "newImplementation",
          "type": "address"
        },
        {
          "internalType": "bytes",
          "name": "data",
          "type": "bytes"
        }
      ],
      "name": "upgradeToAndCall",
      "outputs": [],
      "stateMutability": "payable",
      "type": "function"
    },
    {
      "inputs": [],
      "name": "validator",
      "outputs": [
        {
          "internalType": "address",
          "name": "",
          "type": "address"
        }
      ],
      "stateMutability": "view",
      "type": "function"
    },
    {
      "inputs": [],
      "name": "whitelistContract",
      "outputs": [
        {
          "internalType": "address",
          "name": "",
          "type": "address"
        }
      ],
      "stateMutability": "view",
      "type": "function"
    }
  ],
  "bytecode": "0x60a06040523073ffffffffffffffffffffffffffffffffffffffff1660809073ffffffffffffffffffffffffffffffffffffffff168152503480156200004457600080fd5b5062000061671004b12a0e0b886660c01b620000af60201b60201c565b6200007d67af5a8c4bea5d4c7360c01b620000af60201b60201c565b62000099677bd2bcfd98d25f7d60c01b620000af60201b60201c565b620000a9620000b260201b60201c565b6200025c565b50565b600060019054906101000a900460ff161562000105576040517f08c379a0000000000000000000000000000000000000000000000000000000008152600401620000fc90620001ff565b60405180910390fd5b60ff801660008054906101000a900460ff1660ff1614620001765760ff6000806101000a81548160ff021916908360ff1602179055507f7f26b83ff96e1f2b6a682f133852f6798a09c465da95921460cefb384740249860ff6040516200016d91906200023f565b60405180910390a15b565b600082825260208201905092915050565b7f496e697469616c697a61626c653a20636f6e747261637420697320696e69746960008201527f616c697a696e6700000000000000000000000000000000000000000000000000602082015250565b6000620001e760278362000178565b9150620001f48262000189565b604082019050919050565b600060208201905081810360008301526200021a81620001d8565b9050919050565b600060ff82169050919050565b620002398162000221565b82525050565b60006020820190506200025660008301846200022e565b92915050565b608051619f9b6200029460003960008181610a7701528181610b0801528181610c3501528181610cc60152610d7f0152619f9b6000f3fe608060405260043610620000fe5760003560e01c806384900b041162000097578063c0c53b8b1162000061578063c0c53b8b14620002fd578063ec0cfd0b146200032b578063f2fde38b146200035b578063f7b10808146200038957620000fe565b806384900b0414620002295780638cdb1c6d14620002595780638da5cb5b1462000289578063b57dd4df14620002b957620000fe565b80634f1ef28611620000d95780634f1ef286146200018f57806352d1902d14620001af578063715018a614620001df5780637326b90114620001f957620000fe565b806311798bd114620001035780633659cfe614620001315780633a5381b5146200015f575b600080fd5b3480156200011057600080fd5b506200012f600480360381019062000129919062002437565b620003ce565b005b3480156200013e57600080fd5b506200015d600480360381019062000157919062002437565b62000a75565b005b3480156200016c57600080fd5b506200017762000c0d565b6040516200018691906200247a565b60405180910390f35b620001ad6004803603810190620001a79190620025f9565b62000c33565b005b348015620001bc57600080fd5b50620001c762000d7b565b604051620001d691906200267a565b60405180910390f35b348015620001ec57600080fd5b50620001f762000e37565b005b3480156200020657600080fd5b506200021162000e4f565b604051620002209190620026b2565b60405180910390f35b3480156200023657600080fd5b506200024162000e9e565b6040516200025091906200247a565b60405180910390f35b3480156200026657600080fd5b506200027162000ec4565b6040516200028091906200247a565b60405180910390f35b3480156200029657600080fd5b50620002a162000eea565b604051620002b091906200247a565b60405180910390f35b348015620002c657600080fd5b50620002e56004803603810190620002df9190620027b4565b62000f14565b604051620002f491906200247a565b60405180910390f35b3480156200030a57600080fd5b5062000329600480360381019062000323919062002937565b620014b5565b005b3480156200033857600080fd5b506200034362001a0b565b60405162000352919062002ab1565b60405180910390f35b3480156200036857600080fd5b5062000387600480360381019062000381919062002437565b62001b1b565b005b3480156200039657600080fd5b50620003b56004803603810190620003af919062002ad5565b62001ba5565b604051620003c592919062002b18565b60405180910390f35b620003e4679398869ca52db62160c01b62001c03565b620003fa67ea9c5d3377ed2a4b60c01b62001c03565b6200041067bd0cea9d5c5282b160c01b62001c03565b620004266788d642ac8f9282b260c01b62001c03565b60c960009054906101000a900473ffffffffffffffffffffffffffffffffffffffff1673ffffffffffffffffffffffffffffffffffffffff163373ffffffffffffffffffffffffffffffffffffffff1614620004b9576040517f08c379a0000000000000000000000000000000000000000000000000000000008152600401620004b09062002bcc565b60405180910390fd5b620004cf67995a93cb922a97e260c01b62001c03565b620004e56701adc11e7124eab760c01b62001c03565b620004fb6769bfb71471cb437060c01b62001c03565b60006200051367388b95d94582cda160c01b62001c03565b6200052967e29771dcd6b28f9060c01b62001c03565b60006200054167836e1d7fec7d1e3460c01b62001c03565b6200055767265a77147d0e75f960c01b62001c03565b60005b60cc80549050811015620009d4576200057e678bdfe4aaa233d8c960c01b62001c03565b6200059467214fa0bda47ae71e60c01b62001c03565b8373ffffffffffffffffffffffffffffffffffffffff1660cc8281548110620005c257620005c162002bee565b5b9060005260206000200160000160009054906101000a900473ffffffffffffffffffffffffffffffffffffffff1673ffffffffffffffffffffffffffffffffffffffff1603620009a8576200062267fcd7c31cd0de6b6b60c01b62001c03565b6200063867bcbd71305be5f87c60c01b62001c03565b6200064e67bcc5c7a27c7a827360c01b62001c03565b620006646730bc47ca6c41966a60c01b62001c03565b60cc81815481106200067b576200067a62002bee565b5b9060005260206000200160000160149054906101000a900460ff1615620006d9576040517f08c379a0000000000000000000000000000000000000000000000000000000008152600401620006d09062002c6d565b60405180910390fd5b620006ef67b03c3022ad6b2ed060c01b62001c03565b62000705676f8e29617d6df06860c01b62001c03565b600160cc82815481106200071e576200071d62002bee565b5b9060005260206000200160000160146101000a81548160ff021916908315150217905550620007586751354fa8c8a9be6b60c01b62001c03565b6001925062000772677d642f3e5bb942b360c01b62001c03565b6200078867d94480e41a3b732f60c01b62001c03565b8373ffffffffffffffffffffffffffffffffffffffff166328ee551b60016040518263ffffffff1660e01b8152600401620007c4919062002c8f565b600060405180830381600087803b158015620007df57600080fd5b505af1158015620007f4573d6000803e3d6000fd5b505050506200080e678beb82b1e25a515360c01b62001c03565b8373ffffffffffffffffffffffffffffffffffffffff16638da5cb5b6040518163ffffffff1660e01b8152600401602060405180830381865afa1580156200085a573d6000803e3d6000fd5b505050506040513d601f19601f8201168201806040525081019062000880919062002cc3565b915062000898675dc6b831bae3473460c01b62001c03565b620008ae6794c0951b01aebc1860c01b62001c03565b8373ffffffffffffffffffffffffffffffffffffffff1663f2fde38b836040518263ffffffff1660e01b8152600401620008e991906200247a565b600060405180830381600087803b1580156200090457600080fd5b505af115801562000919573d6000803e3d6000fd5b505050506200093367f77ff4b34ada645760c01b62001c03565b6200094967c46377226d6313aa60c01b62001c03565b8373ffffffffffffffffffffffffffffffffffffffff167f471a6ffe019f8c983f020cef87372b7df53511fed02de5dc861b7fb8cc19d17f60405160405180910390a2620009a267d263be0c2e5a921260c01b62001c03565b620009d4565b620009be6794e14a13eb0bc47560c01b62001c03565b8080620009cb9062002d24565b9150506200055a565b50620009eb67fe74432ace0046b460c01b62001c03565b62000a01671a9304c7285f4dd960c01b62001c03565b62000a1767531f8a7eebab4c0960c01b62001c03565b8162000a5a576040517f08c379a000000000000000000000000000000000000000000000000000000000815260040162000a519062002dc1565b60405180910390fd5b62000a7067c6dbefa9c252849060c01b62001c03565b505050565b7f000000000000000000000000000000000000000000000000000000000000000073ffffffffffffffffffffffffffffffffffffffff163073ffffffffffffffffffffffffffffffffffffffff160362000b06576040517f08c379a000000000000000000000000000000000000000000000000000000000815260040162000afd9062002e59565b60405180910390fd5b7f000000000000000000000000000000000000000000000000000000000000000073ffffffffffffffffffffffffffffffffffffffff1662000b4762001c06565b73ffffffffffffffffffffffffffffffffffffffff161462000ba0576040517f08c379a000000000000000000000000000000000000000000000000000000000815260040162000b979062002ef1565b60405180910390fd5b62000bab8162001c5f565b62000c0a81600067ffffffffffffffff81111562000bce5762000bcd620024b2565b5b6040519080825280601f01601f19166020018201604052801562000c015781602001600182028036833780820191505090505b50600062001cae565b50565b60c960009054906101000a900473ffffffffffffffffffffffffffffffffffffffff1681565b7f000000000000000000000000000000000000000000000000000000000000000073ffffffffffffffffffffffffffffffffffffffff163073ffffffffffffffffffffffffffffffffffffffff160362000cc4576040517f08c379a000000000000000000000000000000000000000000000000000000000815260040162000cbb9062002e59565b60405180910390fd5b7f000000000000000000000000000000000000000000000000000000000000000073ffffffffffffffffffffffffffffffffffffffff1662000d0562001c06565b73ffffffffffffffffffffffffffffffffffffffff161462000d5e576040517f08c379a000000000000000000000000000000000000000000000000000000000815260040162000d559062002ef1565b60405180910390fd5b62000d698262001c5f565b62000d778282600162001cae565b5050565b60007f000000000000000000000000000000000000000000000000000000000000000073ffffffffffffffffffffffffffffffffffffffff163073ffffffffffffffffffffffffffffffffffffffff161462000e0e576040517f08c379a000000000000000000000000000000000000000000000000000000000815260040162000e059062002f89565b60405180910390fd5b7f360894a13ba1a3210667c828492db98dca3e2076cc3735a920a3ca505d382bbc60001b905090565b62000e4162001e2d565b62000e4d600062001eb2565b565b600062000e676767ce7e0c106bcd3460c01b62001c03565b62000e7d678880c08c8e2b2e4c60c01b62001c03565b62000e9367b905b0d1b5c4f24460c01b62001c03565b60cc80549050905090565b60ca60009054906101000a900473ffffffffffffffffffffffffffffffffffffffff1681565b60cb60009054906101000a900473ffffffffffffffffffffffffffffffffffffffff1681565b6000603360009054906101000a900473ffffffffffffffffffffffffffffffffffffffff16905090565b600062000f2c6721fe46586fdfabd060c01b62001c03565b62000f4267fce97d334bf9c6ba60c01b62001c03565b62000f586740260edef1d2ecb860c01b62001c03565b600060ca60009054906101000a900473ffffffffffffffffffffffffffffffffffffffff1673ffffffffffffffffffffffffffffffffffffffff16633af32abf336040518263ffffffff1660e01b815260040162000fb791906200247a565b602060405180830381865afa15801562000fd5573d6000803e3d6000fd5b505050506040513d601f19601f8201168201806040525081019062000ffb919062002fdc565b9050620010136763c13bb5ce72f91760c01b62001c03565b6200102967e3f61cb27a135f4360c01b62001c03565b806200109a57620010456714b1ef8b74ba26c260c01b62001c03565b6200105b678604f753d97959f760c01b62001c03565b336040517fdf17e3160000000000000000000000000000000000000000000000000000000081526004016200109191906200247a565b60405180910390fd5b620010b0679eda8a09e82d4c6860c01b62001c03565b620010c6672f5430bdff099f2560c01b62001c03565b620010dc67d0f0e3cd4a34a88a60c01b62001c03565b60006040518061014001604052808c81526020018b81526020018a815260200189815260200188815260200187815260200186815260200185815260200160cb60009054906101000a900473ffffffffffffffffffffffffffffffffffffffff1673ffffffffffffffffffffffffffffffffffffffff16815260200160ca60009054906101000a900473ffffffffffffffffffffffffffffffffffffffff1673ffffffffffffffffffffffffffffffffffffffff168152509050620011ac671348bd33cda48d4760c01b62001c03565b620011c26780206e537df3222c60c01b62001c03565b6000604051620011d290620023a2565b604051809103906000f080158015620011ef573d6000803e3d6000fd5b50905062001208678c75e96bef0b9def60c01b62001c03565b6200121e6748e92bdd047256d860c01b62001c03565b600063cab668b160e01b836040516024016200123b9190620031b9565b604051602081830303815290604052907bffffffffffffffffffffffffffffffffffffffffffffffffffffffff19166020820180517bffffffffffffffffffffffffffffffffffffffffffffffffffffffff83818316178352505050509050620012b0677771b60a776865a260c01b62001c03565b620012c6674e94767f72a65a7c60c01b62001c03565b60008282604051620012d890620023b0565b620012e59291906200323a565b604051809103906000f08015801562001302573d6000803e3d6000fd5b5090506200131b670a060e85315a0b8260c01b62001c03565b62001331674eb19f3d867512de60c01b62001c03565b60cc60405180604001604052808373ffffffffffffffffffffffffffffffffffffffff168152602001600015158152509080600181540180825580915050600190039060005260206000200160009091909190915060008201518160000160006101000a81548173ffffffffffffffffffffffffffffffffffffffff021916908373ffffffffffffffffffffffffffffffffffffffff16021790555060208201518160000160146101000a81548160ff02191690831515021790555050506200140567b37e74f761b362e260c01b62001c03565b6200141b6736ce2fdf599ab0b660c01b62001c03565b3373ffffffffffffffffffffffffffffffffffffffff168173ffffffffffffffffffffffffffffffffffffffff167f4a743f9cfd435653e5ce31aa99ac3d4140af2413791addec975ccefc22de10c460405160405180910390a36200148b67b13534343684399560c01b62001c03565b620014a1677d50a06d7011726560c01b62001c03565b809550505050505098975050505050505050565b620014cb679503d4274356c2d060c01b62001c03565b60008060019054906101000a900460ff16159050808015620014fd5750600160008054906101000a900460ff1660ff16105b806200152e57506200150f3062001f78565b1580156200152d5750600160008054906101000a900460ff1660ff16145b5b62001570576040517f08c379a00000000000000000000000000000000000000000000000000000000081526004016200156790620032e4565b60405180910390fd5b60016000806101000a81548160ff021916908360ff1602179055508015620015ae576001600060016101000a81548160ff0219169083151502179055505b620015c467ed69b0b7fa79617b60c01b62001c03565b620015da67e2ae642b7444fd6460c01b62001c03565b620015f0673dbe10c57c9fcc0560c01b62001c03565b6200160667ba54c4c7017a856660c01b62001c03565b6200161c67103d8b524f01780460c01b62001c03565b600073ffffffffffffffffffffffffffffffffffffffff168473ffffffffffffffffffffffffffffffffffffffff16036200168e576040517f08c379a0000000000000000000000000000000000000000000000000000000008152600401620016859062003356565b60405180910390fd5b620016a4675298dc4932b243dd60c01b62001c03565b620016ba67f3023a2d68efad9860c01b62001c03565b620016d0676c43c79188c61ce860c01b62001c03565b620016e66778f03b1df9fb5ac760c01b62001c03565b600073ffffffffffffffffffffffffffffffffffffffff168373ffffffffffffffffffffffffffffffffffffffff160362001758576040517f08c379a00000000000000000000000000000000000000000000000000000000081526004016200174f90620033c8565b60405180910390fd5b6200176e67cb3838378bc94a5760c01b62001c03565b62001784675b8504185e219aa960c01b62001c03565b6200179a6703ff0dfd6ab5df7960c01b62001c03565b620017b067b5a4f0a2d064789660c01b62001c03565b600073ffffffffffffffffffffffffffffffffffffffff168273ffffffffffffffffffffffffffffffffffffffff160362001822576040517f08c379a0000000000000000000000000000000000000000000000000000000008152600401620018199062003460565b60405180910390fd5b6200183867b394beda5b8effee60c01b62001c03565b6200184e672ac60fab344df17160c01b62001c03565b620018646725e78ae11dfdf84860c01b62001c03565b6200186e62001f9b565b620018846765430aeaed1eba7360c01b62001c03565b6200189a679e788d279cc1aa7f60c01b62001c03565b620018a462001ff9565b620018ba67180a08657682d60360c01b62001c03565b8360c960006101000a81548173ffffffffffffffffffffffffffffffffffffffff021916908373ffffffffffffffffffffffffffffffffffffffff160217905550620019116786c286613f4fb8fa60c01b62001c03565b8260ca60006101000a81548173ffffffffffffffffffffffffffffffffffffffff021916908373ffffffffffffffffffffffffffffffffffffffff160217905550620019686794cd1516c7435efb60c01b62001c03565b8160cb60006101000a81548173ffffffffffffffffffffffffffffffffffffffff021916908373ffffffffffffffffffffffffffffffffffffffff160217905550801562001a055760008060016101000a81548160ff0219169083151502179055507f7f26b83ff96e1f2b6a682f133852f6798a09c465da95921460cefb38474024986001604051620019fc9190620034dc565b60405180910390a15b50505050565b606062001a23671f52269b3f6ae37360c01b62001c03565b62001a396775e2a7ce8799a93e60c01b62001c03565b62001a4f679525c0510974447b60c01b62001c03565b60cc805480602002602001604051908101604052809291908181526020016000905b8282101562001b12578382906000526020600020016040518060400160405290816000820160009054906101000a900473ffffffffffffffffffffffffffffffffffffffff1673ffffffffffffffffffffffffffffffffffffffff1673ffffffffffffffffffffffffffffffffffffffff1681526020016000820160149054906101000a900460ff1615151515815250508152602001906001019062001a71565b50505050905090565b62001b2562001e2d565b600073ffffffffffffffffffffffffffffffffffffffff168173ffffffffffffffffffffffffffffffffffffffff160362001b97576040517f08c379a000000000000000000000000000000000000000000000000000000000815260040162001b8e906200356f565b60405180910390fd5b62001ba28162001eb2565b50565b60cc818154811062001bb657600080fd5b906000526020600020016000915090508060000160009054906101000a900473ffffffffffffffffffffffffffffffffffffffff16908060000160149054906101000a900460ff16905082565b50565b600062001c367f360894a13ba1a3210667c828492db98dca3e2076cc3735a920a3ca505d382bbc60001b6200204d565b60000160009054906101000a900473ffffffffffffffffffffffffffffffffffffffff16905090565b62001c756737eaba3dd11716f860c01b62001c03565b62001c7f62001e2d565b62001c956763edeba09557b4de60c01b62001c03565b62001cab6750d89962d9deab7760c01b62001c03565b50565b62001cdc7f4910fdfa16fed3260ed0e7147f7cc6da11a60208b5b9406d12a635614ffd914360001b62002057565b60000160009054906101000a900460ff161562001d045762001cfe8362002061565b62001e28565b8273ffffffffffffffffffffffffffffffffffffffff166352d1902d6040518163ffffffff1660e01b8152600401602060405180830381865afa92505050801562001d6f57506040513d601f19601f8201168201806040525081019062001d6c9190620035c2565b60015b62001db1576040517f08c379a000000000000000000000000000000000000000000000000000000000815260040162001da8906200366a565b60405180910390fd5b7f360894a13ba1a3210667c828492db98dca3e2076cc3735a920a3ca505d382bbc60001b811462001e19576040517f08c379a000000000000000000000000000000000000000000000000000000000815260040162001e109062003702565b60405180910390fd5b5062001e2783838362002121565b5b505050565b62001e3762002153565b73ffffffffffffffffffffffffffffffffffffffff1662001e5762000eea565b73ffffffffffffffffffffffffffffffffffffffff161462001eb0576040517f08c379a000000000000000000000000000000000000000000000000000000000815260040162001ea79062003774565b60405180910390fd5b565b6000603360009054906101000a900473ffffffffffffffffffffffffffffffffffffffff16905081603360006101000a81548173ffffffffffffffffffffffffffffffffffffffff021916908373ffffffffffffffffffffffffffffffffffffffff1602179055508173ffffffffffffffffffffffffffffffffffffffff168173ffffffffffffffffffffffffffffffffffffffff167f8be0079c531659141344cd1fd0a4f28419497f9722a3daafe3b4186f6b6457e060405160405180910390a35050565b6000808273ffffffffffffffffffffffffffffffffffffffff163b119050919050565b600060019054906101000a900460ff1662001fed576040517f08c379a000000000000000000000000000000000000000000000000000000000815260040162001fe4906200380c565b60405180910390fd5b62001ff76200215b565b565b600060019054906101000a900460ff166200204b576040517f08c379a000000000000000000000000000000000000000000000000000000000815260040162002042906200380c565b60405180910390fd5b565b6000819050919050565b6000819050919050565b6200206c8162001f78565b620020ae576040517f08c379a0000000000000000000000000000000000000000000000000000000008152600401620020a590620038a4565b60405180910390fd5b80620020dd7f360894a13ba1a3210667c828492db98dca3e2076cc3735a920a3ca505d382bbc60001b6200204d565b60000160006101000a81548173ffffffffffffffffffffffffffffffffffffffff021916908373ffffffffffffffffffffffffffffffffffffffff16021790555050565b6200212c83620021c3565b6000825111806200213a5750805b156200214e576200214c838362002214565b505b505050565b600033905090565b600060019054906101000a900460ff16620021ad576040517f08c379a0000000000000000000000000000000000000000000000000000000008152600401620021a4906200380c565b60405180910390fd5b620021c1620021bb62002153565b62001eb2565b565b620021ce8162002061565b8073ffffffffffffffffffffffffffffffffffffffff167fbc7cd75a20ee27fd9adebab32041f755214dbc6bffa90cc0225b39da2e5c2d3b60405160405180910390a250565b60606200223c838360405180606001604052806027815260200162009f3f6027913962002244565b905092915050565b60606000808573ffffffffffffffffffffffffffffffffffffffff168560405162002270919062003908565b600060405180830381855af49150503d8060008114620022ad576040519150601f19603f3d011682016040523d82523d6000602084013e620022b2565b606091505b5091509150620022c586838387620022d0565b925050509392505050565b606083156200233a5760008351036200233157620022ee8562001f78565b62002330576040517f08c379a0000000000000000000000000000000000000000000000000000000008152600401620023279062003971565b60405180910390fd5b5b82905062002347565b6200234683836200234f565b5b949350505050565b600082511115620023635781518083602001fd5b806040517f08c379a0000000000000000000000000000000000000000000000000000000008152600401620023999190620039d4565b60405180910390fd5b615ccd80620039f983390190565b61087980620096c683390190565b6000604051905090565b600080fd5b600080fd5b600073ffffffffffffffffffffffffffffffffffffffff82169050919050565b6000620023ff82620023d2565b9050919050565b6200241181620023f2565b81146200241d57600080fd5b50565b600081359050620024318162002406565b92915050565b60006020828403121562002450576200244f620023c8565b5b6000620024608482850162002420565b91505092915050565b6200247481620023f2565b82525050565b600060208201905062002491600083018462002469565b92915050565b600080fd5b600080fd5b6000601f19601f8301169050919050565b7f4e487b7100000000000000000000000000000000000000000000000000000000600052604160045260246000fd5b620024ec82620024a1565b810181811067ffffffffffffffff821117156200250e576200250d620024b2565b5b80604052505050565b600062002523620023be565b9050620025318282620024e1565b919050565b600067ffffffffffffffff821115620025545762002553620024b2565b5b6200255f82620024a1565b9050602081019050919050565b82818337600083830152505050565b6000620025926200258c8462002536565b62002517565b905082815260208101848484011115620025b157620025b06200249c565b5b620025be8482856200256c565b509392505050565b600082601f830112620025de57620025dd62002497565b5b8135620025f08482602086016200257b565b91505092915050565b60008060408385031215620026135762002612620023c8565b5b6000620026238582860162002420565b925050602083013567ffffffffffffffff811115620026475762002646620023cd565b5b6200265585828601620025c6565b9150509250929050565b6000819050919050565b62002674816200265f565b82525050565b600060208201905062002691600083018462002669565b92915050565b6000819050919050565b620026ac8162002697565b82525050565b6000602082019050620026c96000830184620026a1565b92915050565b600067ffffffffffffffff821115620026ed57620026ec620024b2565b5b620026f882620024a1565b9050602081019050919050565b60006200271c6200271684620026cf565b62002517565b9050828152602081018484840111156200273b576200273a6200249c565b5b620027488482856200256c565b509392505050565b600082601f83011262002768576200276762002497565b5b81356200277a84826020860162002705565b91505092915050565b6200278e8162002697565b81146200279a57600080fd5b50565b600081359050620027ae8162002783565b92915050565b600080600080600080600080610100898b031215620027d857620027d7620023c8565b5b600089013567ffffffffffffffff811115620027f957620027f8620023cd565b5b620028078b828c0162002750565b985050602089013567ffffffffffffffff8111156200282b576200282a620023cd565b5b620028398b828c0162002750565b975050604089013567ffffffffffffffff8111156200285d576200285c620023cd565b5b6200286b8b828c0162002750565b965050606089013567ffffffffffffffff8111156200288f576200288e620023cd565b5b6200289d8b828c0162002750565b955050608089013567ffffffffffffffff811115620028c157620028c0620023cd565b5b620028cf8b828c0162002750565b94505060a089013567ffffffffffffffff811115620028f357620028f2620023cd565b5b620029018b828c0162002750565b93505060c0620029148b828c016200279d565b92505060e0620029278b828c016200279d565b9150509295985092959890939650565b600080600060608486031215620029535762002952620023c8565b5b6000620029638682870162002420565b9350506020620029768682870162002420565b9250506040620029898682870162002420565b9150509250925092565b600081519050919050565b600082825260208201905092915050565b6000819050602082019050919050565b620029ca81620023f2565b82525050565b60008115159050919050565b620029e781620029d0565b82525050565b60408201600082015162002a056000850182620029bf565b50602082015162002a1a6020850182620029dc565b50505050565b600062002a2e8383620029ed565b60408301905092915050565b6000602082019050919050565b600062002a548262002993565b62002a6081856200299e565b935062002a6d83620029af565b8060005b8381101562002aa457815162002a88888262002a20565b975062002a958362002a3a565b92505060018101905062002a71565b5085935050505092915050565b6000602082019050818103600083015262002acd818462002a47565b905092915050565b60006020828403121562002aee5762002aed620023c8565b5b600062002afe848285016200279d565b91505092915050565b62002b1281620029d0565b82525050565b600060408201905062002b2f600083018562002469565b62002b3e602083018462002b07565b9392505050565b600082825260208201905092915050565b7f4f6e6c792076616c696461746f722063616e20617070726f76652070726f706560008201527f7274696573000000000000000000000000000000000000000000000000000000602082015250565b600062002bb460258362002b45565b915062002bc18262002b56565b604082019050919050565b6000602082019050818103600083015262002be78162002ba5565b9050919050565b7f4e487b7100000000000000000000000000000000000000000000000000000000600052603260045260246000fd5b7f50726f706572747920616c726561647920617070726f76656400000000000000600082015250565b600062002c5560198362002b45565b915062002c628262002c1d565b602082019050919050565b6000602082019050818103600083015262002c888162002c46565b9050919050565b600060208201905062002ca6600083018462002b07565b92915050565b60008151905062002cbd8162002406565b92915050565b60006020828403121562002cdc5762002cdb620023c8565b5b600062002cec8482850162002cac565b91505092915050565b7f4e487b7100000000000000000000000000000000000000000000000000000000600052601160045260246000fd5b600062002d318262002697565b91507fffffffffffffffffffffffffffffffffffffffffffffffffffffffffffffffff820362002d665762002d6562002cf5565b5b600182019050919050565b7f50726f7065727479206e6f7420666f756e640000000000000000000000000000600082015250565b600062002da960128362002b45565b915062002db68262002d71565b602082019050919050565b6000602082019050818103600083015262002ddc8162002d9a565b9050919050565b7f46756e6374696f6e206d7573742062652063616c6c6564207468726f7567682060008201527f64656c656761746563616c6c0000000000000000000000000000000000000000602082015250565b600062002e41602c8362002b45565b915062002e4e8262002de3565b604082019050919050565b6000602082019050818103600083015262002e748162002e32565b9050919050565b7f46756e6374696f6e206d7573742062652063616c6c6564207468726f7567682060008201527f6163746976652070726f78790000000000000000000000000000000000000000602082015250565b600062002ed9602c8362002b45565b915062002ee68262002e7b565b604082019050919050565b6000602082019050818103600083015262002f0c8162002eca565b9050919050565b7f555550535570677261646561626c653a206d757374206e6f742062652063616c60008201527f6c6564207468726f7567682064656c656761746563616c6c0000000000000000602082015250565b600062002f7160388362002b45565b915062002f7e8262002f13565b604082019050919050565b6000602082019050818103600083015262002fa48162002f62565b9050919050565b62002fb681620029d0565b811462002fc257600080fd5b50565b60008151905062002fd68162002fab565b92915050565b60006020828403121562002ff55762002ff4620023c8565b5b6000620030058482850162002fc5565b91505092915050565b600081519050919050565b600082825260208201905092915050565b60005b838110156200304a5780820151818401526020810190506200302d565b60008484015250505050565b600062003063826200300e565b6200306f818562003019565b9350620030818185602086016200302a565b6200308c81620024a1565b840191505092915050565b620030a28162002697565b82525050565b6000610140830160008301518482036000860152620030c8828262003056565b91505060208301518482036020860152620030e4828262003056565b9150506040830151848203604086015262003100828262003056565b915050606083015184820360608601526200311c828262003056565b9150506080830151848203608086015262003138828262003056565b91505060a083015184820360a086015262003154828262003056565b91505060c08301516200316b60c086018262003097565b5060e08301516200318060e086018262003097565b5061010083015162003197610100860182620029bf565b50610120830151620031ae610120860182620029bf565b508091505092915050565b60006020820190508181036000830152620031d58184620030a8565b905092915050565b600081519050919050565b600082825260208201905092915050565b60006200320682620031dd565b620032128185620031e8565b9350620032248185602086016200302a565b6200322f81620024a1565b840191505092915050565b600060408201905062003251600083018562002469565b8181036020830152620032658184620031f9565b90509392505050565b7f496e697469616c697a61626c653a20636f6e747261637420697320616c72656160008201527f647920696e697469616c697a6564000000000000000000000000000000000000602082015250565b6000620032cc602e8362002b45565b9150620032d9826200326e565b604082019050919050565b60006020820190508181036000830152620032ff81620032bd565b9050919050565b7f56616c696461746f722063616e6e6f74206265207a65726f2061646472657373600082015250565b60006200333e60208362002b45565b91506200334b8262003306565b602082019050919050565b6000602082019050818103600083015262003371816200332f565b9050919050565b7f57686974656c6973742063616e6e6f74206265207a65726f2061646472657373600082015250565b6000620033b060208362002b45565b9150620033bd8262003378565b602082019050919050565b60006020820190508181036000830152620033e381620033a1565b9050919050565b7f4555524320746f6b656e2063616e6e6f74206265207a65726f2061646472657360008201527f7300000000000000000000000000000000000000000000000000000000000000602082015250565b60006200344860218362002b45565b91506200345582620033ea565b604082019050919050565b600060208201905081810360008301526200347b8162003439565b9050919050565b6000819050919050565b600060ff82169050919050565b6000819050919050565b6000620034c4620034be620034b88462003482565b62003499565b6200348c565b9050919050565b620034d681620034a3565b82525050565b6000602082019050620034f36000830184620034cb565b92915050565b7f4f776e61626c653a206e6577206f776e657220697320746865207a65726f206160008201527f6464726573730000000000000000000000000000000000000000000000000000602082015250565b60006200355760268362002b45565b91506200356482620034f9565b604082019050919050565b600060208201905081810360008301526200358a8162003548565b9050919050565b6200359c816200265f565b8114620035a857600080fd5b50565b600081519050620035bc8162003591565b92915050565b600060208284031215620035db57620035da620023c8565b5b6000620035eb84828501620035ab565b91505092915050565b7f45524331393637557067726164653a206e657720696d706c656d656e7461746960008201527f6f6e206973206e6f742055555053000000000000000000000000000000000000602082015250565b600062003652602e8362002b45565b91506200365f82620035f4565b604082019050919050565b60006020820190508181036000830152620036858162003643565b9050919050565b7f45524331393637557067726164653a20756e737570706f727465642070726f7860008201527f6961626c65555549440000000000000000000000000000000000000000000000602082015250565b6000620036ea60298362002b45565b9150620036f7826200368c565b604082019050919050565b600060208201905081810360008301526200371d81620036db565b9050919050565b7f4f776e61626c653a2063616c6c6572206973206e6f7420746865206f776e6572600082015250565b60006200375c60208362002b45565b9150620037698262003724565b602082019050919050565b600060208201905081810360008301526200378f816200374d565b9050919050565b7f496e697469616c697a61626c653a20636f6e7472616374206973206e6f74206960008201527f6e697469616c697a696e67000000000000000000000000000000000000000000602082015250565b6000620037f4602b8362002b45565b9150620038018262003796565b604082019050919050565b600060208201905081810360008301526200382781620037e5565b9050919050565b7f455243313936373a206e657720696d706c656d656e746174696f6e206973206e60008201527f6f74206120636f6e747261637400000000000000000000000000000000000000602082015250565b60006200388c602d8362002b45565b915062003899826200382e565b604082019050919050565b60006020820190508181036000830152620038bf816200387d565b9050919050565b600081905092915050565b6000620038de82620031dd565b620038ea8185620038c6565b9350620038fc8185602086016200302a565b80840191505092915050565b6000620039168284620038d1565b915081905092915050565b7f416464726573733a2063616c6c20746f206e6f6e2d636f6e7472616374000000600082015250565b600062003959601d8362002b45565b9150620039668262003921565b602082019050919050565b600060208201905081810360008301526200398c816200394a565b9050919050565b6000620039a0826200300e565b620039ac818562002b45565b9350620039be8185602086016200302a565b620039c981620024a1565b840191505092915050565b60006020820190508181036000830152620039f0818462003993565b90509291505056fe60a06040523073ffffffffffffffffffffffffffffffffffffffff1660809073ffffffffffffffffffffffffffffffffffffffff168152503480156200004457600080fd5b506200006167a74c80ef7ec7dcc760c01b620000af60201b60201c565b6200007d673d51ad3eb729a84660c01b620000af60201b60201c565b62000099673376f79dc327ca0e60c01b620000af60201b60201c565b620000a9620000b260201b60201c565b6200025c565b50565b600060019054906101000a900460ff161562000105576040517f08c379a0000000000000000000000000000000000000000000000000000000008152600401620000fc90620001ff565b60405180910390fd5b60ff801660008054906101000a900460ff1660ff1614620001765760ff6000806101000a81548160ff021916908360ff1602179055507f7f26b83ff96e1f2b6a682f133852f6798a09c465da95921460cefb384740249860ff6040516200016d91906200023f565b60405180910390a15b565b600082825260208201905092915050565b7f496e697469616c697a61626c653a20636f6e747261637420697320696e69746960008201527f616c697a696e6700000000000000000000000000000000000000000000000000602082015250565b6000620001e760278362000178565b9150620001f48262000189565b604082019050919050565b600060208201905081810360008301526200021a81620001d8565b9050919050565b600060ff82169050919050565b620002398162000221565b82525050565b60006020820190506200025660008301846200022e565b92915050565b608051615a396200029460003960008181610bc001528181610c4e01528181610da601528181610e340152610ee40152615a396000f3fe6080604052600436106101805760003560e01c80636f1a5b72116100d157806395d89b411161008a578063cab668b111610064578063cab668b11461057b578063dd62ed3e146105a4578063f2fde38b146105e1578063f3b0f3b91461060a57610180565b806395d89b41146104d6578063a457c2d714610501578063a9059cbb1461053e57610180565b80636f1a5b72146103da57806370a0823114610403578063715018a6146104405780637b97008d1461045757806384900b04146104805780638da5cb5b146104ab57610180565b8063313ce5671161013e578063420a83e711610118578063420a83e71461033f5780634f1ef2861461036a57806352d1902d146103865780636c11bcd3146103b157610180565b8063313ce567146102ae5780633659cfe6146102d9578063395093511461030257610180565b80627dc3721461018557806306fdde03146101b5578063095ea7b3146101e057806318160ddd1461021d57806323b872dd1461024857806328ee551b14610285575b600080fd5b34801561019157600080fd5b5061019a610635565b6040516101ac96959493929190613f6f565b60405180910390f35b3480156101c157600080fd5b506101ca61088c565b6040516101d79190613fec565b60405180910390f35b3480156101ec57600080fd5b50610207600480360381019061020291906140ac565b61091e565b60405161021491906140ec565b60405180910390f35b34801561022957600080fd5b50610232610aa5565b60405161023f9190614107565b60405180910390f35b34801561025457600080fd5b5061026f600480360381019061026a9190614122565b610aaf565b60405161027c91906140ec565b60405180910390f35b34801561029157600080fd5b506102ac60048036038101906102a791906141a1565b610ade565b005b3480156102ba57600080fd5b506102c3610bb5565b6040516102d091906141ea565b60405180910390f35b3480156102e557600080fd5b5061030060048036038101906102fb9190614205565b610bbe565b005b34801561030e57600080fd5b50610329600480360381019061032491906140ac565b610d46565b60405161033691906140ec565b60405180910390f35b34801561034b57600080fd5b50610354610d7d565b6040516103619190614241565b60405180910390f35b610384600480360381019061037f9190614391565b610da4565b005b34801561039257600080fd5b5061039b610ee0565b6040516103a89190614406565b60405180910390f35b3480156103bd57600080fd5b506103d860048036038101906103d39190614421565b610f99565b005b3480156103e657600080fd5b5061040160048036038101906103fc9190614205565b611710565b005b34801561040f57600080fd5b5061042a60048036038101906104259190614205565b611aee565b6040516104379190614107565b60405180910390f35b34801561044c57600080fd5b50610455611b37565b005b34801561046357600080fd5b5061047e60048036038101906104799190614421565b611b4b565b005b34801561048c57600080fd5b506104956123d2565b6040516104a29190614241565b60405180910390f35b3480156104b757600080fd5b506104c06123f9565b6040516104cd9190614241565b60405180910390f35b3480156104e257600080fd5b506104eb612423565b6040516104f89190613fec565b60405180910390f35b34801561050d57600080fd5b50610528600480360381019061052391906140ac565b6124b5565b60405161053591906140ec565b60405180910390f35b34801561054a57600080fd5b50610565600480360381019061056091906140ac565b61252c565b60405161057291906140ec565b60405180910390f35b34801561058757600080fd5b506105a2600480360381019061059d9190614473565b61254f565b005b3480156105b057600080fd5b506105cb60048036038101906105c691906144bc565b612b90565b6040516105d89190614107565b60405180910390f35b3480156105ed57600080fd5b5061060860048036038101906106039190614205565b612c17565b005b34801561061657600080fd5b5061061f612c9a565b60405161062c919061455b565b60405180910390f35b60fb806000018054610646906145a5565b80601f0160208091040260200160405190810160405280929190818152602001828054610672906145a5565b80156106bf5780601f10610694576101008083540402835291602001916106bf565b820191906000526020600020905b8154815290600101906020018083116106a257829003601f168201915b5050505050908060010180546106d4906145a5565b80601f0160208091040260200160405190810160405280929190818152602001828054610700906145a5565b801561074d5780601f106107225761010080835404028352916020019161074d565b820191906000526020600020905b81548152906001019060200180831161073057829003601f168201915b505050505090806002018054610762906145a5565b80601f016020809104026020016040519081016040528092919081815260200182805461078e906145a5565b80156107db5780601f106107b0576101008083540402835291602001916107db565b820191906000526020600020905b8154815290600101906020018083116107be57829003601f168201915b5050505050908060030180546107f0906145a5565b80601f016020809104026020016040519081016040528092919081815260200182805461081c906145a5565b80156108695780601f1061083e57610100808354040283529160200191610869565b820191906000526020600020905b81548152906001019060200180831161084c57829003601f168201915b5050505050908060040154908060050160009054906101000a900460ff16905086565b60606036805461089b906145a5565b80601f01602080910402602001604051908101604052809291908181526020018280546108c7906145a5565b80156109145780601f106108e957610100808354040283529160200191610914565b820191906000526020600020905b8154815290600101906020018083116108f757829003601f168201915b5050505050905090565b60006109346783dee11e8c487ca860c01b612cc1565b61094867b7bd1fb0020a9bd360c01b612cc1565b61095c67e3d4bbc9f97035dc60c01b612cc1565b61010260009054906101000a900473ffffffffffffffffffffffffffffffffffffffff1673ffffffffffffffffffffffffffffffffffffffff16633af32abf336040518263ffffffff1660e01b81526004016109b89190614241565b602060405180830381865afa1580156109d5573d6000803e3d6000fd5b505050506040513d601f19601f820116820180604052508101906109f991906145eb565b610a5757610a116750b7226e715d1d9260c01b612cc1565b610a2567c0fc7403f7ce942860c01b612cc1565b6040517f584a793800000000000000000000000000000000000000000000000000000000815260040160405180910390fd5b610a6b67af093b3b642432e060c01b612cc1565b610a7f675dabc15dc9bc4e6b60c01b612cc1565b610a9367cf0bf9d651f95f0060c01b612cc1565b610a9d8383612cc4565b905092915050565b6000603554905090565b600080610aba612ce7565b9050610ac7858285612cef565b610ad2858585612d7b565b60019150509392505050565b610af267d5b85df7aec0d9fa60c01b612cc1565b610afa612ff4565b610b0e6716bf54e3e8b9231560c01b612cc1565b610b22670af41894524af26860c01b612cc1565b610b3667a486ef6eace05a1660c01b612cc1565b8060fb60050160006101000a81548160ff021916908315150217905550610b6767ed84b2827901d1c760c01b612cc1565b610b7b6779c24d050592ba4060c01b612cc1565b7f1e81423b1603560e005d81cc6a58048ba71561f17405b3de24e1119ffb71b27781604051610baa91906140ec565b60405180910390a150565b60006012905090565b7f000000000000000000000000000000000000000000000000000000000000000073ffffffffffffffffffffffffffffffffffffffff163073ffffffffffffffffffffffffffffffffffffffff1603610c4c576040517f08c379a0000000000000000000000000000000000000000000000000000000008152600401610c439061468a565b60405180910390fd5b7f000000000000000000000000000000000000000000000000000000000000000073ffffffffffffffffffffffffffffffffffffffff16610c8b613072565b73ffffffffffffffffffffffffffffffffffffffff1614610ce1576040517f08c379a0000000000000000000000000000000000000000000000000000000008152600401610cd89061471c565b60405180910390fd5b610cea816130c9565b610d4381600067ffffffffffffffff811115610d0957610d08614266565b5b6040519080825280601f01601f191660200182016040528015610d3b5781602001600182028036833780820191505090505b506000613110565b50565b600080610d51612ce7565b9050610d72818585610d638589612b90565b610d6d919061476b565b61327e565b600191505092915050565b61010360009054906101000a900473ffffffffffffffffffffffffffffffffffffffff1681565b7f000000000000000000000000000000000000000000000000000000000000000073ffffffffffffffffffffffffffffffffffffffff163073ffffffffffffffffffffffffffffffffffffffff1603610e32576040517f08c379a0000000000000000000000000000000000000000000000000000000008152600401610e299061468a565b60405180910390fd5b7f000000000000000000000000000000000000000000000000000000000000000073ffffffffffffffffffffffffffffffffffffffff16610e71613072565b73ffffffffffffffffffffffffffffffffffffffff1614610ec7576040517f08c379a0000000000000000000000000000000000000000000000000000000008152600401610ebe9061471c565b60405180910390fd5b610ed0826130c9565b610edc82826001613110565b5050565b60007f000000000000000000000000000000000000000000000000000000000000000073ffffffffffffffffffffffffffffffffffffffff163073ffffffffffffffffffffffffffffffffffffffff1614610f70576040517f08c379a0000000000000000000000000000000000000000000000000000000008152600401610f6790614811565b60405180910390fd5b7f360894a13ba1a3210667c828492db98dca3e2076cc3735a920a3ca505d382bbc60001b905090565b610fad67a799eb855c8fc32e60c01b612cc1565b610fc167336cafb22f125d7560c01b612cc1565b610fd56728e3ac3692a511d360c01b612cc1565b3373ffffffffffffffffffffffffffffffffffffffff167f6120bab160bd7cc9a68d7f1b82cb412a44c3c5a545f63f91f3ae4ef3f13a4a8882611016610bb5565b600a6110229190614964565b60fb600401548561103391906149af565b61103d9190614a20565b61010260009054906101000a900473ffffffffffffffffffffffffffffffffffffffff1673ffffffffffffffffffffffffffffffffffffffff16633af32abf336040518263ffffffff1660e01b81526004016110999190614241565b602060405180830381865afa1580156110b6573d6000803e3d6000fd5b505050506040513d601f19601f820116820180604052508101906110da91906145eb565b60fb60050160009054906101000a900460ff16866110f733611aee565b101560405161110a959493929190614a51565b60405180910390a2611126679bda6975a30a56ef60c01b612cc1565b61113a67b31790dc209b886560c01b612cc1565b8061114433611aee565b10156111a45761115e679dca2cc62efbf3c360c01b612cc1565b61117267b33f9518039150e560c01b612cc1565b6040517ff4d678b800000000000000000000000000000000000000000000000000000000815260040160405180910390fd5b6111b867cfd205dfe0cfc01160c01b612cc1565b6111cc675e6f9bacd79ab88d60c01b612cc1565b6111e06780b95981ff7a726b60c01b612cc1565b61010260009054906101000a900473ffffffffffffffffffffffffffffffffffffffff1673ffffffffffffffffffffffffffffffffffffffff16633af32abf336040518263ffffffff1660e01b815260040161123c9190614241565b602060405180830381865afa158015611259573d6000803e3d6000fd5b505050506040513d601f19601f8201168201806040525081019061127d91906145eb565b6112db57611295679a380ad637ef110d60c01b612cc1565b6112a967e205d1e489fcabd560c01b612cc1565b6040517f584a793800000000000000000000000000000000000000000000000000000000815260040160405180910390fd5b6112ef67d1f44cb5c108cdd660c01b612cc1565b61130367de443370e1d4244c60c01b612cc1565b611317671d8c302fdd82abcf60c01b612cc1565b6000611321610bb5565b600a61132d9190614964565b60fb600401548361133e91906149af565b6113489190614a20565b905061135e67fa43dd94d68321af60c01b612cc1565b61137267b38e75799d1ddf5860c01b612cc1565b8061010160009054906101000a900473ffffffffffffffffffffffffffffffffffffffff1673ffffffffffffffffffffffffffffffffffffffff166370a082316113ba6123f9565b6040518263ffffffff1660e01b81526004016113d69190614241565b602060405180830381865afa1580156113f3573d6000803e3d6000fd5b505050506040513d601f19601f820116820180604052508101906114179190614ab9565b10156114775761143167b774777fb35838bd60c01b612cc1565b611445674348300cb20f59ef60c01b612cc1565b6040517f85cc639600000000000000000000000000000000000000000000000000000000815260040160405180910390fd5b61148b67a0a7cbbced70b97a60c01b612cc1565b61149f67e18e371c8690c48660c01b612cc1565b6114b367a3e38da5ccc7c8f960c01b612cc1565b6114bb6123f9565b73ffffffffffffffffffffffffffffffffffffffff163373ffffffffffffffffffffffffffffffffffffffff167fdf8b872f7cbe2a6d786781beb327e7b105423de0af9873dfeb9496db719a84cd8484604051611519929190614ae6565b60405180910390a3611535674c351d1337b6737560c01b612cc1565b61154967aa0fd2cdfbf9236860c01b612cc1565b61155b336115556123f9565b84612d7b565b61156f67a6c046ea0b58288860c01b612cc1565b61158367b28c9c09faa7f34260c01b612cc1565b611597674b0a706c0fc08f9960c01b612cc1565b61010160009054906101000a900473ffffffffffffffffffffffffffffffffffffffff1673ffffffffffffffffffffffffffffffffffffffff166323b872dd6115de6123f9565b33846040518463ffffffff1660e01b81526004016115fe93929190614b0f565b6020604051808303816000875af115801561161d573d6000803e3d6000fd5b505050506040513d601f19601f8201168201806040525081019061164191906145eb565b611680576040517f08c379a000000000000000000000000000000000000000000000000000000000815260040161167790614b92565b60405180910390fd5b61169467e19c2911caa9628260c01b612cc1565b6116a867b2220f3642350f4860c01b612cc1565b6116bc6740cfb779d8252bde60c01b612cc1565b3373ffffffffffffffffffffffffffffffffffffffff167f2dcf9433d75db0d8b1c172641f85e319ffe4ad22e108a95d1847ceb906e5195d8383604051611704929190614ae6565b60405180910390a25050565b611724677d308812f2b4574860c01b612cc1565b6117386722cb2d5ffbc9de7d60c01b612cc1565b61174c67818e0db8a225c86560c01b612cc1565b61176067ade066b2ba72df3860c01b612cc1565b61010360009054906101000a900473ffffffffffffffffffffffffffffffffffffffff1673ffffffffffffffffffffffffffffffffffffffff163373ffffffffffffffffffffffffffffffffffffffff16146117f1576040517f08c379a00000000000000000000000000000000000000000000000000000000081526004016117e890614c24565b60405180910390fd5b61180567aa93aa8d69d3348460c01b612cc1565b61181967c62366272b01e6e560c01b612cc1565b61182d674c7ac46f3eb58a0860c01b612cc1565b61184167bf78845fdd13ea3f60c01b612cc1565b600073ffffffffffffffffffffffffffffffffffffffff168173ffffffffffffffffffffffffffffffffffffffff16036118b0576040517f08c379a00000000000000000000000000000000000000000000000000000000081526004016118a790614c90565b60405180910390fd5b6118c4677a19145e8ca54fae60c01b612cc1565b6118d867659b4bb0861e394560c01b612cc1565b6118ec6765ee6f75eee66a7460c01b612cc1565b611900679080e6b9b621dd9d60c01b612cc1565b61010260009054906101000a900473ffffffffffffffffffffffffffffffffffffffff1673ffffffffffffffffffffffffffffffffffffffff16633af32abf826040518263ffffffff1660e01b815260040161195c9190614241565b602060405180830381865afa158015611979573d6000803e3d6000fd5b505050506040513d601f19601f8201168201806040525081019061199d91906145eb565b6119dc576040517f08c379a00000000000000000000000000000000000000000000000000000000081526004016119d390614cfc565b60405180910390fd5b6119f0673071f30c86302ab360c01b612cc1565b611a0467b85cd375ec73ac9e60c01b612cc1565b611a186771ca9ccee082aaa160c01b612cc1565b8073ffffffffffffffffffffffffffffffffffffffff1661010360009054906101000a900473ffffffffffffffffffffffffffffffffffffffff1673ffffffffffffffffffffffffffffffffffffffff167f32943c5406203270979e0cd5eb8bae47521d78465f5f4a965d9e263bba016e6160405160405180910390a3611aa96798adeaa380318a7560c01b612cc1565b8061010360006101000a81548173ffffffffffffffffffffffffffffffffffffffff021916908373ffffffffffffffffffffffffffffffffffffffff16021790555050565b6000603360008373ffffffffffffffffffffffffffffffffffffffff1673ffffffffffffffffffffffffffffffffffffffff168152602001908152602001600020549050919050565b611b3f612ff4565b611b496000613447565b565b611b5f67ecba4257da2c627c60c01b612cc1565b611b7367330358ba8db8190c60c01b612cc1565b611b87678322524e5a56bf0460c01b612cc1565b3373ffffffffffffffffffffffffffffffffffffffff167f2118a53821a4279beeaf695dd9ade48c02887d48d69a8a6a60154da73f4dfc2882611bc8610bb5565b600a611bd49190614964565b60fb6004015485611be591906149af565b611bef9190614a20565b61010260009054906101000a900473ffffffffffffffffffffffffffffffffffffffff1673ffffffffffffffffffffffffffffffffffffffff16633af32abf336040518263ffffffff1660e01b8152600401611c4b9190614241565b602060405180830381865afa158015611c68573d6000803e3d6000fd5b505050506040513d601f19601f82011682018060405250810190611c8c91906145eb565b60fb60050160009054906101000a900460ff16604051611caf9493929190614d1c565b60405180910390a2611ccb672c04d2235037a38d60c01b612cc1565b611cdf677f09b46978c0d03460c01b612cc1565b61010260009054906101000a900473ffffffffffffffffffffffffffffffffffffffff1673ffffffffffffffffffffffffffffffffffffffff16633af32abf336040518263ffffffff1660e01b8152600401611d3b9190614241565b602060405180830381865afa158015611d58573d6000803e3d6000fd5b505050506040513d601f19601f82011682018060405250810190611d7c91906145eb565b611dda57611d94672df45ea162e042a360c01b612cc1565b611da8670613b63a17f59cab60c01b612cc1565b6040517f584a793800000000000000000000000000000000000000000000000000000000815260040160405180910390fd5b611dee67fb83df8f66bee4e060c01b612cc1565b611e026709b7e5a02a1d346b60c01b612cc1565b611e1667f59ae6d52e82b38960c01b612cc1565b60fb60050160009054906101000a900460ff16611e8757611e4167744e929bc02027c760c01b612cc1565b611e5567c1ed1f025ea286d560c01b612cc1565b6040517f43e0ae0d00000000000000000000000000000000000000000000000000000000815260040160405180910390fd5b611e9b676e85780cd167f9f160c01b612cc1565b611eaf675b1e1078a376e66f60c01b612cc1565b611ec367ea39843f14dc686c60c01b612cc1565b6000611ecd610bb5565b600a611ed99190614964565b60fb6004015483611eea91906149af565b611ef49190614a20565b9050611f0a6706e45e47e3e6e4e060c01b612cc1565b611f1e675621814117f4019760c01b612cc1565b8061010160009054906101000a900473ffffffffffffffffffffffffffffffffffffffff1673ffffffffffffffffffffffffffffffffffffffff166370a08231336040518263ffffffff1660e01b8152600401611f7b9190614241565b602060405180830381865afa158015611f98573d6000803e3d6000fd5b505050506040513d601f19601f82011682018060405250810190611fbc9190614ab9565b101561201c57611fd6679a22f24d0ba683e460c01b612cc1565b611fea6704bd0d74b770efbe60c01b612cc1565b6040517ff4d678b800000000000000000000000000000000000000000000000000000000815260040160405180910390fd5b612030678bd992534d5dcece60c01b612cc1565b61204467a26a3b265c9c7ea660c01b612cc1565b6120586747d6720145ac1d3e60c01b612cc1565b8161208561010360009054906101000a900473ffffffffffffffffffffffffffffffffffffffff16611aee565b10156120e55761209f672a4509f71083af7f60c01b612cc1565b6120b36701f5ffe0e4fac4d860c01b612cc1565b6040517fe27e7cf300000000000000000000000000000000000000000000000000000000815260040160405180910390fd5b6120f967bcfdc9793d6b24d160c01b612cc1565b61210d6749d29ec3fe09f1af60c01b612cc1565b61212167ecdebb95e84f599060c01b612cc1565b3373ffffffffffffffffffffffffffffffffffffffff1661010360009054906101000a900473ffffffffffffffffffffffffffffffffffffffff1673ffffffffffffffffffffffffffffffffffffffff167fdf8b872f7cbe2a6d786781beb327e7b105423de0af9873dfeb9496db719a84cd84846040516121a3929190614ae6565b60405180910390a36121bf67cef98df14830491960c01b612cc1565b6121d367345ba298f23a88c060c01b612cc1565b6121e767a258991af41b26d360c01b612cc1565b61010160009054906101000a900473ffffffffffffffffffffffffffffffffffffffff1673ffffffffffffffffffffffffffffffffffffffff166323b872dd3361010360009054906101000a900473ffffffffffffffffffffffffffffffffffffffff16846040518463ffffffff1660e01b815260040161226a93929190614b0f565b6020604051808303816000875af1158015612289573d6000803e3d6000fd5b505050506040513d601f19601f820116820180604052508101906122ad91906145eb565b6122ec576040517f08c379a00000000000000000000000000000000000000000000000000000000081526004016122e390614b92565b60405180910390fd5b61230067e9559f1027e3916860c01b612cc1565b61231467cc39ea6a37a6e49b60c01b612cc1565b612328674bc34e0d25d556a160c01b612cc1565b61235661010360009054906101000a900473ffffffffffffffffffffffffffffffffffffffff163384612d7b565b61236a67344eeaafb802ac4f60c01b612cc1565b61237e6761208914eaf7e78960c01b612cc1565b3373ffffffffffffffffffffffffffffffffffffffff167f8fafebcaf9d154343dad25669bfa277f4fbacd7ac6b0c4fed522580e040a0f3383836040516123c6929190614ae6565b60405180910390a25050565b61010260009054906101000a900473ffffffffffffffffffffffffffffffffffffffff1681565b6000606560009054906101000a900473ffffffffffffffffffffffffffffffffffffffff16905090565b606060378054612432906145a5565b80601f016020809104026020016040519081016040528092919081815260200182805461245e906145a5565b80156124ab5780601f10612480576101008083540402835291602001916124ab565b820191906000526020600020905b81548152906001019060200180831161248e57829003601f168201915b5050505050905090565b6000806124c0612ce7565b905060006124ce8286612b90565b905083811015612513576040517f08c379a000000000000000000000000000000000000000000000000000000000815260040161250a90614dd3565b60405180910390fd5b612520828686840361327e565b60019250505092915050565b600080612537612ce7565b9050612544818585612d7b565b600191505092915050565b612563672b6ea3864ab4da0460c01b612cc1565b60008060019054906101000a900460ff161590508080156125945750600160008054906101000a900460ff1660ff16105b806125c157506125a33061350d565b1580156125c05750600160008054906101000a900460ff1660ff16145b5b612600576040517f08c379a00000000000000000000000000000000000000000000000000000000081526004016125f790614e65565b60405180910390fd5b60016000806101000a81548160ff021916908360ff160217905550801561263d576001600060016101000a81548160ff0219169083151502179055505b6126516768fd9f5bcb84c3be60c01b612cc1565b6126656719ed5dcc31539f5960c01b612cc1565b61267967f5588a0418774f7560c01b612cc1565b61268d67a3e47273169cce1060c01b612cc1565b61273b8280600001906126a09190614e94565b8080601f016020809104026020016040519081016040528093929190818152602001838380828437600081840152601f19601f820116905080830192505050505050508380602001906126f39190614e94565b8080601f016020809104026020016040519081016040528093929190818152602001838380828437600081840152601f19601f82011690508083019250505050505050613530565b61274f67497502768bb50dca60c01b612cc1565b61276367ff3b43191aa1fa2d60c01b612cc1565b61276b61358d565b61277f67b07192f2143430a860c01b612cc1565b61279367d68e3d6a9f95948960c01b612cc1565b61279b6135e6565b6127af67495e14e2748ec49e60c01b612cc1565b6040518060c001604052808380604001906127ca9190614e94565b8080601f016020809104026020016040519081016040528093929190818152602001838380828437600081840152601f19601f8201169050808301925050505050505081526020018380606001906128229190614e94565b8080601f016020809104026020016040519081016040528093929190818152602001838380828437600081840152601f19601f82011690508083019250505050505050815260200183806080019061287a9190614e94565b8080601f016020809104026020016040519081016040528093929190818152602001838380828437600081840152601f19601f820116905080830192505050505050508152602001838060a001906128d29190614e94565b8080601f016020809104026020016040519081016040528093929190818152602001838380828437600081840152601f19601f8201169050808301925050505050505081526020018360c0013581526020016001151581525060fb60008201518160000190816129429190615099565b5060208201518160010190816129589190615099565b50604082015181600201908161296e9190615099565b5060608201518160030190816129849190615099565b506080820151816004015560a08201518160050160006101000a81548160ff0219169083151502179055509050506129c667ca0f43a4269338cd60c01b612cc1565b816101000160208101906129da9190614205565b61010160006101000a81548173ffffffffffffffffffffffffffffffffffffffff021916908373ffffffffffffffffffffffffffffffffffffffff160217905550612a2f67d7e2db1a14f672ca60c01b612cc1565b81610120016020810190612a439190614205565b61010260006101000a81548173ffffffffffffffffffffffffffffffffffffffff021916908373ffffffffffffffffffffffffffffffffffffffff160217905550612a98675d9e7986ff78981960c01b612cc1565b3261010360006101000a81548173ffffffffffffffffffffffffffffffffffffffff021916908373ffffffffffffffffffffffffffffffffffffffff160217905550612aee670f37f91fe630f15560c01b612cc1565b612b02671ce8bf4dee448eb560c01b612cc1565b612b3361010360009054906101000a900473ffffffffffffffffffffffffffffffffffffffff168360e00135613637565b8015612b8c5760008060016101000a81548160ff0219169083151502179055507f7f26b83ff96e1f2b6a682f133852f6798a09c465da95921460cefb38474024986001604051612b8391906151a6565b60405180910390a15b5050565b6000603460008473ffffffffffffffffffffffffffffffffffffffff1673ffffffffffffffffffffffffffffffffffffffff16815260200190815260200160002060008373ffffffffffffffffffffffffffffffffffffffff1673ffffffffffffffffffffffffffffffffffffffff16815260200190815260200160002054905092915050565b612c1f612ff4565b600073ffffffffffffffffffffffffffffffffffffffff168173ffffffffffffffffffffffffffffffffffffffff1603612c8e576040517f08c379a0000000000000000000000000000000000000000000000000000000008152600401612c8590615233565b60405180910390fd5b612c9781613447565b50565b61010160009054906101000a900473ffffffffffffffffffffffffffffffffffffffff1681565b50565b600080612ccf612ce7565b9050612cdc81858561327e565b600191505092915050565b600033905090565b6000612cfb8484612b90565b90507fffffffffffffffffffffffffffffffffffffffffffffffffffffffffffffffff8114612d755781811015612d67576040517f08c379a0000000000000000000000000000000000000000000000000000000008152600401612d5e9061529f565b60405180910390fd5b612d74848484840361327e565b5b50505050565b600073ffffffffffffffffffffffffffffffffffffffff168373ffffffffffffffffffffffffffffffffffffffff1603612dea576040517f08c379a0000000000000000000000000000000000000000000000000000000008152600401612de190615331565b60405180910390fd5b600073ffffffffffffffffffffffffffffffffffffffff168273ffffffffffffffffffffffffffffffffffffffff1603612e59576040517f08c379a0000000000000000000000000000000000000000000000000000000008152600401612e50906153c3565b60405180910390fd5b612e6483838361378e565b6000603360008573ffffffffffffffffffffffffffffffffffffffff1673ffffffffffffffffffffffffffffffffffffffff16815260200190815260200160002054905081811015612eeb576040517f08c379a0000000000000000000000000000000000000000000000000000000008152600401612ee290615455565b60405180910390fd5b818103603360008673ffffffffffffffffffffffffffffffffffffffff1673ffffffffffffffffffffffffffffffffffffffff1681526020019081526020016000208190555081603360008573ffffffffffffffffffffffffffffffffffffffff1673ffffffffffffffffffffffffffffffffffffffff168152602001908152602001600020600082825401925050819055508273ffffffffffffffffffffffffffffffffffffffff168473ffffffffffffffffffffffffffffffffffffffff167fddf252ad1be2c89b69c2b068fc378daa952ba7f163c4a11628f55a4df523b3ef84604051612fdb9190614107565b60405180910390a3612fee848484613b0d565b50505050565b612ffc612ce7565b73ffffffffffffffffffffffffffffffffffffffff1661301a6123f9565b73ffffffffffffffffffffffffffffffffffffffff1614613070576040517f08c379a0000000000000000000000000000000000000000000000000000000008152600401613067906154c1565b60405180910390fd5b565b60006130a07f360894a13ba1a3210667c828492db98dca3e2076cc3735a920a3ca505d382bbc60001b613b12565b60000160009054906101000a900473ffffffffffffffffffffffffffffffffffffffff16905090565b6130dd67e5d73edc2760f56460c01b612cc1565b6130e5612ff4565b6130f967e9508d6541838a4760c01b612cc1565b61310d67786384ec2562575860c01b612cc1565b50565b61313c7f4910fdfa16fed3260ed0e7147f7cc6da11a60208b5b9406d12a635614ffd914360001b613b1c565b60000160009054906101000a900460ff16156131605761315b83613b26565b613279565b8273ffffffffffffffffffffffffffffffffffffffff166352d1902d6040518163ffffffff1660e01b8152600401602060405180830381865afa9250505080156131c857506040513d601f19601f820116820180604052508101906131c5919061550d565b60015b613207576040517f08c379a00000000000000000000000000000000000000000000000000000000081526004016131fe906155ac565b60405180910390fd5b7f360894a13ba1a3210667c828492db98dca3e2076cc3735a920a3ca505d382bbc60001b811461326c576040517f08c379a00000000000000000000000000000000000000000000000000000000081526004016132639061563e565b60405180910390fd5b50613278838383613bdf565b5b505050565b600073ffffffffffffffffffffffffffffffffffffffff168373ffffffffffffffffffffffffffffffffffffffff16036132ed576040517f08c379a00000000000000000000000000000000000000000000000000000000081526004016132e4906156d0565b60405180910390fd5b600073ffffffffffffffffffffffffffffffffffffffff168273ffffffffffffffffffffffffffffffffffffffff160361335c576040517f08c379a000000000000000000000000000000000000000000000000000000000815260040161335390615762565b60405180910390fd5b80603460008573ffffffffffffffffffffffffffffffffffffffff1673ffffffffffffffffffffffffffffffffffffffff16815260200190815260200160002060008473ffffffffffffffffffffffffffffffffffffffff1673ffffffffffffffffffffffffffffffffffffffff168152602001908152602001600020819055508173ffffffffffffffffffffffffffffffffffffffff168373ffffffffffffffffffffffffffffffffffffffff167f8c5be1e5ebec7d5bd14f71427d1e84f3dd0314c0f7b2291e5b200ac8c7c3b9258360405161343a9190614107565b60405180910390a3505050565b6000606560009054906101000a900473ffffffffffffffffffffffffffffffffffffffff16905081606560006101000a81548173ffffffffffffffffffffffffffffffffffffffff021916908373ffffffffffffffffffffffffffffffffffffffff1602179055508173ffffffffffffffffffffffffffffffffffffffff168173ffffffffffffffffffffffffffffffffffffffff167f8be0079c531659141344cd1fd0a4f28419497f9722a3daafe3b4186f6b6457e060405160405180910390a35050565b6000808273ffffffffffffffffffffffffffffffffffffffff163b119050919050565b600060019054906101000a900460ff1661357f576040517f08c379a0000000000000000000000000000000000000000000000000000000008152600401613576906157f4565b60405180910390fd5b6135898282613c0b565b5050565b600060019054906101000a900460ff166135dc576040517f08c379a00000000000000000000000000000000000000000000000000000000081526004016135d3906157f4565b60405180910390fd5b6135e4613c7e565b565b600060019054906101000a900460ff16613635576040517f08c379a000000000000000000000000000000000000000000000000000000000815260040161362c906157f4565b60405180910390fd5b565b600073ffffffffffffffffffffffffffffffffffffffff168273ffffffffffffffffffffffffffffffffffffffff16036136a6576040517f08c379a000000000000000000000000000000000000000000000000000000000815260040161369d90615860565b60405180910390fd5b6136b26000838361378e565b80603560008282546136c4919061476b565b9250508190555080603360008473ffffffffffffffffffffffffffffffffffffffff1673ffffffffffffffffffffffffffffffffffffffff168152602001908152602001600020600082825401925050819055508173ffffffffffffffffffffffffffffffffffffffff16600073ffffffffffffffffffffffffffffffffffffffff167fddf252ad1be2c89b69c2b068fc378daa952ba7f163c4a11628f55a4df523b3ef836040516137769190614107565b60405180910390a361378a60008383613b0d565b5050565b6137a267d7e46ee5675254fa60c01b612cc1565b6137b667f8215500e995a3e360c01b612cc1565b6137ca67727361de50d5464260c01b612cc1565b6137d5838383613cdf565b6137e9678c1fafa5949eade660c01b612cc1565b6137fd67cf35276c76ad8f6160c01b612cc1565b600073ffffffffffffffffffffffffffffffffffffffff168373ffffffffffffffffffffffffffffffffffffffff16141580156138675750600073ffffffffffffffffffffffffffffffffffffffff168273ffffffffffffffffffffffffffffffffffffffff1614155b15613af35761388067c15ab7885c5aa21460c01b612cc1565b61389467195b4705c05ff96c60c01b612cc1565b6138a86707f12ca0335cc35c60c01b612cc1565b61010260009054906101000a900473ffffffffffffffffffffffffffffffffffffffff1673ffffffffffffffffffffffffffffffffffffffff16633af32abf846040518263ffffffff1660e01b81526004016139049190614241565b602060405180830381865afa158015613921573d6000803e3d6000fd5b505050506040513d601f19601f8201168201806040525081019061394591906145eb565b6139a35761395d67ad8b16f70b7facf760c01b612cc1565b61397167a9b59adc755b8e9160c01b612cc1565b6040517f584a793800000000000000000000000000000000000000000000000000000000815260040160405180910390fd5b6139b767c23a06f27c92534a60c01b612cc1565b6139cb67ee7bd929450fdc6460c01b612cc1565b6139df67bd47af95c15185b460c01b612cc1565b61010260009054906101000a900473ffffffffffffffffffffffffffffffffffffffff1673ffffffffffffffffffffffffffffffffffffffff16633af32abf836040518263ffffffff1660e01b8152600401613a3b9190614241565b602060405180830381865afa158015613a58573d6000803e3d6000fd5b505050506040513d601f19601f82011682018060405250810190613a7c91906145eb565b613ada57613a9467f33c56cc2bc4fcd960c01b612cc1565b613aa8675308768bacdc386b60c01b612cc1565b6040517f584a793800000000000000000000000000000000000000000000000000000000815260040160405180910390fd5b613aee674b4e4f9a30fcc69b60c01b612cc1565b613b08565b613b07672d02874aa744c73a60c01b612cc1565b5b505050565b505050565b6000819050919050565b6000819050919050565b613b2f8161350d565b613b6e576040517f08c379a0000000000000000000000000000000000000000000000000000000008152600401613b65906158f2565b60405180910390fd5b80613b9b7f360894a13ba1a3210667c828492db98dca3e2076cc3735a920a3ca505d382bbc60001b613b12565b60000160006101000a81548173ffffffffffffffffffffffffffffffffffffffff021916908373ffffffffffffffffffffffffffffffffffffffff16021790555050565b613be883613ce4565b600082511180613bf55750805b15613c0657613c048383613d33565b505b505050565b600060019054906101000a900460ff16613c5a576040517f08c379a0000000000000000000000000000000000000000000000000000000008152600401613c51906157f4565b60405180910390fd5b8160369081613c699190615099565b508060379081613c799190615099565b505050565b600060019054906101000a900460ff16613ccd576040517f08c379a0000000000000000000000000000000000000000000000000000000008152600401613cc4906157f4565b60405180910390fd5b613cdd613cd8612ce7565b613447565b565b505050565b613ced81613b26565b8073ffffffffffffffffffffffffffffffffffffffff167fbc7cd75a20ee27fd9adebab32041f755214dbc6bffa90cc0225b39da2e5c2d3b60405160405180910390a250565b6060613d5883836040518060600160405280602781526020016159dd60279139613d60565b905092915050565b60606000808573ffffffffffffffffffffffffffffffffffffffff1685604051613d8a9190615959565b600060405180830381855af49150503d8060008114613dc5576040519150601f19603f3d011682016040523d82523d6000602084013e613dca565b606091505b5091509150613ddb86838387613de6565b925050509392505050565b60608315613e48576000835103613e4057613e008561350d565b613e3f576040517f08c379a0000000000000000000000000000000000000000000000000000000008152600401613e36906159bc565b60405180910390fd5b5b829050613e53565b613e528383613e5b565b5b949350505050565b600082511115613e6e5781518083602001fd5b806040517f08c379a0000000000000000000000000000000000000000000000000000000008152600401613ea29190613fec565b60405180910390fd5b600081519050919050565b600082825260208201905092915050565b60005b83811015613ee5578082015181840152602081019050613eca565b60008484015250505050565b6000601f19601f8301169050919050565b6000613f0d82613eab565b613f178185613eb6565b9350613f27818560208601613ec7565b613f3081613ef1565b840191505092915050565b6000819050919050565b613f4e81613f3b565b82525050565b60008115159050919050565b613f6981613f54565b82525050565b600060c0820190508181036000830152613f898189613f02565b90508181036020830152613f9d8188613f02565b90508181036040830152613fb18187613f02565b90508181036060830152613fc58186613f02565b9050613fd46080830185613f45565b613fe160a0830184613f60565b979650505050505050565b600060208201905081810360008301526140068184613f02565b905092915050565b6000604051905090565b600080fd5b600080fd5b600073ffffffffffffffffffffffffffffffffffffffff82169050919050565b600061404d82614022565b9050919050565b61405d81614042565b811461406857600080fd5b50565b60008135905061407a81614054565b92915050565b61408981613f3b565b811461409457600080fd5b50565b6000813590506140a681614080565b92915050565b600080604083850312156140c3576140c2614018565b5b60006140d18582860161406b565b92505060206140e285828601614097565b9150509250929050565b60006020820190506141016000830184613f60565b92915050565b600060208201905061411c6000830184613f45565b92915050565b60008060006060848603121561413b5761413a614018565b5b60006141498682870161406b565b935050602061415a8682870161406b565b925050604061416b86828701614097565b9150509250925092565b61417e81613f54565b811461418957600080fd5b50565b60008135905061419b81614175565b92915050565b6000602082840312156141b7576141b6614018565b5b60006141c58482850161418c565b91505092915050565b600060ff82169050919050565b6141e4816141ce565b82525050565b60006020820190506141ff60008301846141db565b92915050565b60006020828403121561421b5761421a614018565b5b60006142298482850161406b565b91505092915050565b61423b81614042565b82525050565b60006020820190506142566000830184614232565b92915050565b600080fd5b600080fd5b7f4e487b7100000000000000000000000000000000000000000000000000000000600052604160045260246000fd5b61429e82613ef1565b810181811067ffffffffffffffff821117156142bd576142bc614266565b5b80604052505050565b60006142d061400e565b90506142dc8282614295565b919050565b600067ffffffffffffffff8211156142fc576142fb614266565b5b61430582613ef1565b9050602081019050919050565b82818337600083830152505050565b600061433461432f846142e1565b6142c6565b9050828152602081018484840111156143505761434f614261565b5b61435b848285614312565b509392505050565b600082601f8301126143785761437761425c565b5b8135614388848260208601614321565b91505092915050565b600080604083850312156143a8576143a7614018565b5b60006143b68582860161406b565b925050602083013567ffffffffffffffff8111156143d7576143d661401d565b5b6143e385828601614363565b9150509250929050565b6000819050919050565b614400816143ed565b82525050565b600060208201905061441b60008301846143f7565b92915050565b60006020828403121561443757614436614018565b5b600061444584828501614097565b91505092915050565b600080fd5b6000610140828403121561446a5761446961444e565b5b81905092915050565b60006020828403121561448957614488614018565b5b600082013567ffffffffffffffff8111156144a7576144a661401d565b5b6144b384828501614453565b91505092915050565b600080604083850312156144d3576144d2614018565b5b60006144e18582860161406b565b92505060206144f28582860161406b565b9150509250929050565b6000819050919050565b600061452161451c61451784614022565b6144fc565b614022565b9050919050565b600061453382614506565b9050919050565b600061454582614528565b9050919050565b6145558161453a565b82525050565b6000602082019050614570600083018461454c565b92915050565b7f4e487b7100000000000000000000000000000000000000000000000000000000600052602260045260246000fd5b600060028204905060018216806145bd57607f821691505b6020821081036145d0576145cf614576565b5b50919050565b6000815190506145e581614175565b92915050565b60006020828403121561460157614600614018565b5b600061460f848285016145d6565b91505092915050565b7f46756e6374696f6e206d7573742062652063616c6c6564207468726f7567682060008201527f64656c656761746563616c6c0000000000000000000000000000000000000000602082015250565b6000614674602c83613eb6565b915061467f82614618565b604082019050919050565b600060208201905081810360008301526146a381614667565b9050919050565b7f46756e6374696f6e206d7573742062652063616c6c6564207468726f7567682060008201527f6163746976652070726f78790000000000000000000000000000000000000000602082015250565b6000614706602c83613eb6565b9150614711826146aa565b604082019050919050565b60006020820190508181036000830152614735816146f9565b9050919050565b7f4e487b7100000000000000000000000000000000000000000000000000000000600052601160045260246000fd5b600061477682613f3b565b915061478183613f3b565b92508282019050808211156147995761479861473c565b5b92915050565b7f555550535570677261646561626c653a206d757374206e6f742062652063616c60008201527f6c6564207468726f7567682064656c656761746563616c6c0000000000000000602082015250565b60006147fb603883613eb6565b91506148068261479f565b604082019050919050565b6000602082019050818103600083015261482a816147ee565b9050919050565b60008160011c9050919050565b6000808291508390505b6001851115614888578086048111156148645761486361473c565b5b60018516156148735780820291505b808102905061488185614831565b9450614848565b94509492505050565b6000826148a1576001905061495d565b816148af576000905061495d565b81600181146148c557600281146148cf576148fe565b600191505061495d565b60ff8411156148e1576148e061473c565b5b8360020a9150848211156148f8576148f761473c565b5b5061495d565b5060208310610133831016604e8410600b84101617156149335782820a90508381111561492e5761492d61473c565b5b61495d565b614940848484600161483e565b925090508184048111156149575761495661473c565b5b81810290505b9392505050565b600061496f82613f3b565b915061497a836141ce565b92506149a77fffffffffffffffffffffffffffffffffffffffffffffffffffffffffffffffff8484614891565b905092915050565b60006149ba82613f3b565b91506149c583613f3b565b92508282026149d381613f3b565b915082820484148315176149ea576149e961473c565b5b5092915050565b7f4e487b7100000000000000000000000000000000000000000000000000000000600052601260045260246000fd5b6000614a2b82613f3b565b9150614a3683613f3b565b925082614a4657614a456149f1565b5b828204905092915050565b600060a082019050614a666000830188613f45565b614a736020830187613f45565b614a806040830186613f60565b614a8d6060830185613f60565b614a9a6080830184613f60565b9695505050505050565b600081519050614ab381614080565b92915050565b600060208284031215614acf57614ace614018565b5b6000614add84828501614aa4565b91505092915050565b6000604082019050614afb6000830185613f45565b614b086020830184613f45565b9392505050565b6000606082019050614b246000830186614232565b614b316020830185614232565b614b3e6040830184613f45565b949350505050565b7f45555243207472616e73666572206661696c6564000000000000000000000000600082015250565b6000614b7c601483613eb6565b9150614b8782614b46565b602082019050919050565b60006020820190508181036000830152614bab81614b6f565b9050919050565b7f4f6e6c792063757272656e7420746f6b656e20686f6c6465722063616e20757060008201527f6461746500000000000000000000000000000000000000000000000000000000602082015250565b6000614c0e602483613eb6565b9150614c1982614bb2565b604082019050919050565b60006020820190508181036000830152614c3d81614c01565b9050919050565b7f496e76616c696420616464726573730000000000000000000000000000000000600082015250565b6000614c7a600f83613eb6565b9150614c8582614c44565b602082019050919050565b60006020820190508181036000830152614ca981614c6d565b9050919050565b7f4e657720686f6c646572206d7573742062652077686974656c69737465640000600082015250565b6000614ce6601e83613eb6565b9150614cf182614cb0565b602082019050919050565b60006020820190508181036000830152614d1581614cd9565b9050919050565b6000608082019050614d316000830187613f45565b614d3e6020830186613f45565b614d4b6040830185613f60565b614d586060830184613f60565b95945050505050565b7f45524332303a2064656372656173656420616c6c6f77616e63652062656c6f7760008201527f207a65726f000000000000000000000000000000000000000000000000000000602082015250565b6000614dbd602583613eb6565b9150614dc882614d61565b604082019050919050565b60006020820190508181036000830152614dec81614db0565b9050919050565b7f496e697469616c697a61626c653a20636f6e747261637420697320616c72656160008201527f647920696e697469616c697a6564000000000000000000000000000000000000602082015250565b6000614e4f602e83613eb6565b9150614e5a82614df3565b604082019050919050565b60006020820190508181036000830152614e7e81614e42565b9050919050565b600080fd5b600080fd5b600080fd5b60008083356001602003843603038112614eb157614eb0614e85565b5b80840192508235915067ffffffffffffffff821115614ed357614ed2614e8a565b5b602083019250600182023603831315614eef57614eee614e8f565b5b509250929050565b60008190508160005260206000209050919050565b60006020601f8301049050919050565b600082821b905092915050565b600060088302614f597fffffffffffffffffffffffffffffffffffffffffffffffffffffffffffffffff82614f1c565b614f638683614f1c565b95508019841693508086168417925050509392505050565b6000614f96614f91614f8c84613f3b565b6144fc565b613f3b565b9050919050565b6000819050919050565b614fb083614f7b565b614fc4614fbc82614f9d565b848454614f29565b825550505050565b600090565b614fd9614fcc565b614fe4818484614fa7565b505050565b5b8181101561500857614ffd600082614fd1565b600181019050614fea565b5050565b601f82111561504d5761501e81614ef7565b61502784614f0c565b81016020851015615036578190505b61504a61504285614f0c565b830182614fe9565b50505b505050565b600082821c905092915050565b600061507060001984600802615052565b1980831691505092915050565b6000615089838361505f565b9150826002028217905092915050565b6150a282613eab565b67ffffffffffffffff8111156150bb576150ba614266565b5b6150c582546145a5565b6150d082828561500c565b600060209050601f83116001811461510357600084156150f1578287015190505b6150fb858261507d565b865550615163565b601f19841661511186614ef7565b60005b8281101561513957848901518255600182019150602085019450602081019050615114565b868310156151565784890151615152601f89168261505f565b8355505b6001600288020188555050505b505050505050565b6000819050919050565b600061519061518b6151868461516b565b6144fc565b6141ce565b9050919050565b6151a081615175565b82525050565b60006020820190506151bb6000830184615197565b92915050565b7f4f776e61626c653a206e6577206f776e657220697320746865207a65726f206160008201527f6464726573730000000000000000000000000000000000000000000000000000602082015250565b600061521d602683613eb6565b9150615228826151c1565b604082019050919050565b6000602082019050818103600083015261524c81615210565b9050919050565b7f45524332303a20696e73756666696369656e7420616c6c6f77616e6365000000600082015250565b6000615289601d83613eb6565b915061529482615253565b602082019050919050565b600060208201905081810360008301526152b88161527c565b9050919050565b7f45524332303a207472616e736665722066726f6d20746865207a65726f20616460008201527f6472657373000000000000000000000000000000000000000000000000000000602082015250565b600061531b602583613eb6565b9150615326826152bf565b604082019050919050565b6000602082019050818103600083015261534a8161530e565b9050919050565b7f45524332303a207472616e7366657220746f20746865207a65726f206164647260008201527f6573730000000000000000000000000000000000000000000000000000000000602082015250565b60006153ad602383613eb6565b91506153b882615351565b604082019050919050565b600060208201905081810360008301526153dc816153a0565b9050919050565b7f45524332303a207472616e7366657220616d6f756e742065786365656473206260008201527f616c616e63650000000000000000000000000000000000000000000000000000602082015250565b600061543f602683613eb6565b915061544a826153e3565b604082019050919050565b6000602082019050818103600083015261546e81615432565b9050919050565b7f4f776e61626c653a2063616c6c6572206973206e6f7420746865206f776e6572600082015250565b60006154ab602083613eb6565b91506154b682615475565b602082019050919050565b600060208201905081810360008301526154da8161549e565b9050919050565b6154ea816143ed565b81146154f557600080fd5b50565b600081519050615507816154e1565b92915050565b60006020828403121561552357615522614018565b5b6000615531848285016154f8565b91505092915050565b7f45524331393637557067726164653a206e657720696d706c656d656e7461746960008201527f6f6e206973206e6f742055555053000000000000000000000000000000000000602082015250565b6000615596602e83613eb6565b91506155a18261553a565b604082019050919050565b600060208201905081810360008301526155c581615589565b9050919050565b7f45524331393637557067726164653a20756e737570706f727465642070726f7860008201527f6961626c65555549440000000000000000000000000000000000000000000000602082015250565b6000615628602983613eb6565b9150615633826155cc565b604082019050919050565b600060208201905081810360008301526156578161561b565b9050919050565b7f45524332303a20617070726f76652066726f6d20746865207a65726f2061646460008201527f7265737300000000000000000000000000000000000000000000000000000000602082015250565b60006156ba602483613eb6565b91506156c58261565e565b604082019050919050565b600060208201905081810360008301526156e9816156ad565b9050919050565b7f45524332303a20617070726f766520746f20746865207a65726f20616464726560008201527f7373000000000000000000000000000000000000000000000000000000000000602082015250565b600061574c602283613eb6565b9150615757826156f0565b604082019050919050565b6000602082019050818103600083015261577b8161573f565b9050919050565b7f496e697469616c697a61626c653a20636f6e7472616374206973206e6f74206960008201527f6e697469616c697a696e67000000000000000000000000000000000000000000602082015250565b60006157de602b83613eb6565b91506157e982615782565b604082019050919050565b6000602082019050818103600083015261580d816157d1565b9050919050565b7f45524332303a206d696e7420746f20746865207a65726f206164647265737300600082015250565b600061584a601f83613eb6565b915061585582615814565b602082019050919050565b600060208201905081810360008301526158798161583d565b9050919050565b7f455243313936373a206e657720696d706c656d656e746174696f6e206973206e60008201527f6f74206120636f6e747261637400000000000000000000000000000000000000602082015250565b60006158dc602d83613eb6565b91506158e782615880565b604082019050919050565b6000602082019050818103600083015261590b816158cf565b9050919050565b600081519050919050565b600081905092915050565b600061593382615912565b61593d818561591d565b935061594d818560208601613ec7565b80840191505092915050565b60006159658284615928565b915081905092915050565b7f416464726573733a2063616c6c20746f206e6f6e2d636f6e7472616374000000600082015250565b60006159a6601d83613eb6565b91506159b182615970565b602082019050919050565b600060208201905081810360008301526159d581615999565b905091905056fe416464726573733a206c6f772d6c6576656c2064656c65676174652063616c6c206661696c6564a264697066735822122066edfcd1c1eae527425e2d68ef95433b9d2267dbe943d78a89db6e5e4b5a132064736f6c63430008150033608060405260405161087938038061087983398181016040528101906100259190610520565b6100378282600061003e60201b60201c565b505061074f565b61004d8361007660201b60201c565b60008251118061005a5750805b156100715761006f83836100cb60201b60201c565b505b505050565b610085816100fe60201b60201c565b8073ffffffffffffffffffffffffffffffffffffffff167fbc7cd75a20ee27fd9adebab32041f755214dbc6bffa90cc0225b39da2e5c2d3b60405160405180910390a250565b60606100f68383604051806060016040528060278152602001610852602791396101c360201b60201c565b905092915050565b61010d8161024f60201b60201c565b61014c576040517f08c379a0000000000000000000000000000000000000000000000000000000008152600401610143906105ff565b60405180910390fd5b8061017f7f360894a13ba1a3210667c828492db98dca3e2076cc3735a920a3ca505d382bbc60001b61027260201b60201c565b60000160006101000a81548173ffffffffffffffffffffffffffffffffffffffff021916908373ffffffffffffffffffffffffffffffffffffffff16021790555050565b60606000808573ffffffffffffffffffffffffffffffffffffffff16856040516101ed9190610666565b600060405180830381855af49150503d8060008114610228576040519150601f19603f3d011682016040523d82523d6000602084013e61022d565b606091505b50915091506102448683838761027c60201b60201c565b925050509392505050565b6000808273ffffffffffffffffffffffffffffffffffffffff163b119050919050565b6000819050919050565b606083156102e45760008351036102dc5761029c8561024f60201b60201c565b6102db576040517f08c379a00000000000000000000000000000000000000000000000000000000081526004016102d2906106c9565b60405180910390fd5b5b8290506102f5565b6102f483836102fd60201b60201c565b5b949350505050565b6000825111156103105781518083602001fd5b806040517f08c379a0000000000000000000000000000000000000000000000000000000008152600401610344919061072d565b60405180910390fd5b6000604051905090565b600080fd5b600080fd5b600073ffffffffffffffffffffffffffffffffffffffff82169050919050565b600061038c82610361565b9050919050565b61039c81610381565b81146103a757600080fd5b50565b6000815190506103b981610393565b92915050565b600080fd5b600080fd5b6000601f19601f8301169050919050565b7f4e487b7100000000000000000000000000000000000000000000000000000000600052604160045260246000fd5b610412826103c9565b810181811067ffffffffffffffff82111715610431576104306103da565b5b80604052505050565b600061044461034d565b90506104508282610409565b919050565b600067ffffffffffffffff8211156104705761046f6103da565b5b610479826103c9565b9050602081019050919050565b60005b838110156104a4578082015181840152602081019050610489565b60008484015250505050565b60006104c36104be84610455565b61043a565b9050828152602081018484840111156104df576104de6103c4565b5b6104ea848285610486565b509392505050565b600082601f830112610507576105066103bf565b5b81516105178482602086016104b0565b91505092915050565b6000806040838503121561053757610536610357565b5b6000610545858286016103aa565b925050602083015167ffffffffffffffff8111156105665761056561035c565b5b610572858286016104f2565b9150509250929050565b600082825260208201905092915050565b7f455243313936373a206e657720696d706c656d656e746174696f6e206973206e60008201527f6f74206120636f6e747261637400000000000000000000000000000000000000602082015250565b60006105e9602d8361057c565b91506105f48261058d565b604082019050919050565b60006020820190508181036000830152610618816105dc565b9050919050565b600081519050919050565b600081905092915050565b60006106408261061f565b61064a818561062a565b935061065a818560208601610486565b80840191505092915050565b60006106728284610635565b915081905092915050565b7f416464726573733a2063616c6c20746f206e6f6e2d636f6e7472616374000000600082015250565b60006106b3601d8361057c565b91506106be8261067d565b602082019050919050565b600060208201905081810360008301526106e2816106a6565b9050919050565b600081519050919050565b60006106ff826106e9565b610709818561057c565b9350610719818560208601610486565b610722816103c9565b840191505092915050565b6000602082019050818103600083015261074781846106f4565b905092915050565b60f58061075d6000396000f3fe608060405236601057600e6018565b005b60166018565b005b601e602c565b602a6026602e565b603b565b565b565b600060366060565b905090565b3660008037600080366000845af43d6000803e8060008114605b573d6000f35b3d6000fd5b6000608c7f360894a13ba1a3210667c828492db98dca3e2076cc3735a920a3ca505d382bbc60001b60b5565b60000160009054906101000a900473ffffffffffffffffffffffffffffffffffffffff16905090565b600081905091905056fea26469706673582212209a94180c2ad589bc71c52fb4f279ed33174c78c2f21ee55054b68e2a8d1c7c4964736f6c63430008150033416464726573733a206c6f772d6c6576656c2064656c65676174652063616c6c206661696c6564416464726573733a206c6f772d6c6576656c2064656c65676174652063616c6c206661696c6564a2646970667358221220028e74177da7b961d63ae36145e50ff402ebb5981a71c086b901b24bcef4a86f64736f6c63430008150033",
  "linkReferences": {},
  "deployedLinkReferences": {}
}