{
  "_format": "hh-sol-artifact-1",
  "contractName": "Whitelist",
  "sourceName": "contracts/Whitelist.sol",
  "abi": [
    {
      "inputs": [],
      "stateMutability": "nonpayable",
      "type": "constructor"
    },
    {
      "inputs": [],
      "name": "AddressAlreadyWhitelisted",
      "type": "error"
    },
    {
      "inputs": [],
      "name": "AddressNotWhitelisted",
      "type": "error"
    },
    {
      "inputs": [],
      "name": "InvalidAddress",
      "type": "error"
    },
    {
      "anonymous": false,
      "inputs": [
        {
          "indexed": true,
          "internalType": "address",
          "name": "account",
          "type": "address"
        }
      ],
      "name": "AddressRemovedFromWhitelist",
      "type": "event"
    },
    {
      "anonymous": false,
      "inputs": [
        {
          "indexed": true,
          "internalType": "address",
          "name": "account",
          "type": "address"
        }
      ],
      "name": "AddressWhitelisted",
      "type": "event"
    },
    {
      "anonymous": false,
      "inputs": [
        {
          "indexed": false,
          "internalType": "address[]",
          "name": "accounts",
          "type": "address[]"
        }
      ],
      "name": "BatchWhitelistAdded",
      "type": "event"
    },
    {
      "anonymous": false,
      "inputs": [
        {
          "indexed": false,
          "internalType": "address[]",
          "name": "accounts",
          "type": "address[]"
        }
      ],
      "name": "BatchWhitelistRemoved",
      "type": "event"
    },
    {
      "anonymous": false,
      "inputs": [
        {
          "indexed": false,
          "internalType": "uint8",
          "name": "version",
          "type": "uint8"
        }
      ],
      "name": "Initialized",
      "type": "event"
    },
    {
      "anonymous": false,
      "inputs": [
        {
          "indexed": true,
          "internalType": "address",
          "name": "previousOwner",
          "type": "address"
        },
        {
          "indexed": true,
          "internalType": "address",
          "name": "newOwner",
          "type": "address"
        }
      ],
      "name": "OwnershipTransferred",
      "type": "event"
    },
    {
      "inputs": [
        {
          "internalType": "address[]",
          "name": "accounts",
          "type": "address[]"
        }
      ],
      "name": "addBatchToWhitelist",
      "outputs": [],
      "stateMutability": "nonpayable",
      "type": "function"
    },
    {
      "inputs": [
        {
          "internalType": "address",
          "name": "account",
          "type": "address"
        }
      ],
      "name": "addToWhitelist",
      "outputs": [],
      "stateMutability": "nonpayable",
      "type": "function"
    },
    {
      "inputs": [],
      "name": "getWhitelistedAddresses",
      "outputs": [
        {
          "internalType": "address[]",
          "name": "",
          "type": "address[]"
        }
      ],
      "stateMutability": "view",
      "type": "function"
    },
    {
      "inputs": [
        {
          "internalType": "address",
          "name": "initialOwner",
          "type": "address"
        }
      ],
      "name": "initialize",
      "outputs": [],
      "stateMutability": "nonpayable",
      "type": "function"
    },
    {
      "inputs": [
        {
          "internalType": "address",
          "name": "account",
          "type": "address"
        }
      ],
      "name": "isWhitelisted",
      "outputs": [
        {
          "internalType": "bool",
          "name": "",
          "type": "bool"
        }
      ],
      "stateMutability": "view",
      "type": "function"
    },
    {
      "inputs": [],
      "name": "owner",
      "outputs": [
        {
          "internalType": "address",
          "name": "",
          "type": "address"
        }
      ],
      "stateMutability": "view",
      "type": "function"
    },
    {
      "inputs": [
        {
          "internalType": "address[]",
          "name": "accounts",
          "type": "address[]"
        }
      ],
      "name": "removeBatchFromWhitelist",
      "outputs": [],
      "stateMutability": "nonpayable",
      "type": "function"
    },
    {
      "inputs": [
        {
          "internalType": "address",
          "name": "account",
          "type": "address"
        }
      ],
      "name": "removeFromWhitelist",
      "outputs": [],
      "stateMutability": "nonpayable",
      "type": "function"
    },
    {
      "inputs": [],
      "name": "renounceOwnership",
      "outputs": [],
      "stateMutability": "nonpayable",
      "type": "function"
    },
    {
      "inputs": [
        {
          "internalType": "address",
          "name": "newOwner",
          "type": "address"
        }
      ],
      "name": "transferOwnership",
      "outputs": [],
      "stateMutability": "nonpayable",
      "type": "function"
    }
  ],
  "bytecode": "0x60806040523480156200001157600080fd5b506200002e675647c284e15ae5f660c01b6200007c60201b60201c565b6200004a6772d46e35ee87019760c01b6200007c60201b60201c565b6200006667d7d4343c5e625a5860c01b6200007c60201b60201c565b620000766200007f60201b60201c565b62000229565b50565b600060019054906101000a900460ff1615620000d2576040517f08c379a0000000000000000000000000000000000000000000000000000000008152600401620000c990620001cc565b60405180910390fd5b60ff801660008054906101000a900460ff1660ff1614620001435760ff6000806101000a81548160ff021916908360ff1602179055507f7f26b83ff96e1f2b6a682f133852f6798a09c465da95921460cefb384740249860ff6040516200013a91906200020c565b60405180910390a15b565b600082825260208201905092915050565b7f496e697469616c697a61626c653a20636f6e747261637420697320696e69746960008201527f616c697a696e6700000000000000000000000000000000000000000000000000602082015250565b6000620001b460278362000145565b9150620001c18262000156565b604082019050919050565b60006020820190508181036000830152620001e781620001a5565b9050919050565b600060ff82169050919050565b6200020681620001ee565b82525050565b6000602082019050620002236000830184620001fb565b92915050565b6126d380620002396000396000f3fe608060405234801561001057600080fd5b506004361061009e5760003560e01c80638da5cb5b116100665780638da5cb5b14610133578063a3d19d8c14610151578063c4d66de81461016d578063e43252d714610189578063f2fde38b146101a55761009e565b8063123a6a82146100a35780633af32abf146100bf5780636d028027146100ef578063715018a61461010d5780638ab1d68114610117575b600080fd5b6100bd60048036038101906100b89190611e87565b6101c1565b005b6100d960048036038101906100d49190611f32565b61079c565b6040516100e69190611f7a565b60405180910390f35b6100f761092a565b6040516101049190612053565b60405180910390f35b6101156109f4565b005b610131600480360381019061012c9190611f32565b610a08565b005b61013b610eb5565b6040516101489190612084565b60405180910390f35b61016b60048036038101906101669190611e87565b610edf565b005b61018760048036038101906101829190611f32565b6113be565b005b6101a3600480360381019061019e9190611f32565b6115ab565b005b6101bf60048036038101906101ba9190611f32565b611945565b005b6101d5679f6492c037ea036760c01b6119c8565b6101dd6119cb565b6101f1679ed7e1e30e33afcb60c01b6119c8565b6102056756f89766f7d429d060c01b6119c8565b610219670d63e037ab1d139c60c01b6119c8565b61022d670843a1c26aa8732260c01b6119c8565b60005b828290508110156106e95761024f677862dd4181a19ad360c01b6119c8565b610263674e13e91fd423642f60c01b6119c8565b6065600084848481811061027a5761027961209f565b5b905060200201602081019061028f9190611f32565b73ffffffffffffffffffffffffffffffffffffffff1673ffffffffffffffffffffffffffffffffffffffff16815260200190815260200160002060009054906101000a900460ff16610321576102ef675073c6bd73cb3a4060c01b6119c8565b6040517fad7acb4700000000000000000000000000000000000000000000000000000000815260040160405180910390fd5b61033567c203c113a7db809f60c01b6119c8565b610349677df945739bc46f5e60c01b6119c8565b6000606560008585858181106103625761036161209f565b5b90506020020160208101906103779190611f32565b73ffffffffffffffffffffffffffffffffffffffff1673ffffffffffffffffffffffffffffffffffffffff16815260200190815260200160002060006101000a81548160ff0219169083151502179055506103dc67a224f8c4dcf89ae160c01b6119c8565b6103f067094e4bb15e772d8860c01b6119c8565b60005b6066805490508110156106435761041467241923b33557f23460c01b6119c8565b610428675142f7108781196d60c01b6119c8565b83838381811061043b5761043a61209f565b5b90506020020160208101906104509190611f32565b73ffffffffffffffffffffffffffffffffffffffff166066828154811061047a5761047961209f565b5b9060005260206000200160009054906101000a900473ffffffffffffffffffffffffffffffffffffffff1673ffffffffffffffffffffffffffffffffffffffff160361061c576104d467846a7dfd6102451c60c01b6119c8565b6104e86744d9bffd20aa18c160c01b6119c8565b606660016066805490506104fc9190612107565b8154811061050d5761050c61209f565b5b9060005260206000200160009054906101000a900473ffffffffffffffffffffffffffffffffffffffff166066828154811061054c5761054b61209f565b5b9060005260206000200160006101000a81548173ffffffffffffffffffffffffffffffffffffffff021916908373ffffffffffffffffffffffffffffffffffffffff1602179055506105a867c76c46d500beaa9c60c01b6119c8565b6105bc678a4b138c8d1a4eb160c01b6119c8565b60668054806105ce576105cd61213b565b5b6001900381819060005260206000200160006101000a81549073ffffffffffffffffffffffffffffffffffffffff02191690559055610617677a63dea8ad79237560c01b6119c8565b610643565b61063067468a11a1941d4f8d60c01b6119c8565b808061063b9061216a565b9150506103f3565b506106586711883b5b621a689860c01b6119c8565b61066c67feac4694c45955e060c01b6119c8565b82828281811061067f5761067e61209f565b5b90506020020160208101906106949190611f32565b73ffffffffffffffffffffffffffffffffffffffff167f535611fb62fa2a833988f283b779e417e996813e44046f521d76c17b5943b08c60405160405180910390a280806106e19061216a565b915050610230565b506106fe67744ce6cae04f14e360c01b6119c8565b610712674ede13e9d144f37c60c01b6119c8565b7f34e872427ae9de26be42433090db5c64f60ae3921171e335045d7735077b3017828260405161074392919061223d565b60405180910390a161075f67e2e5ca4c05016db160c01b6119c8565b61077367134d8f41ebd50e4d60c01b6119c8565b61079860405180606001604052806024815260200161264f6024913983839050611a49565b5050565b60006107b267e1290272256c20b360c01b6119c8565b6107c667e0ba3b2e49fd18b360c01b6119c8565b6107da6722b498d0c44c5f6560c01b6119c8565b6108196040518060400160405280601e81526020017f436865636b696e672077686974656c6973742073746174757320666f723a000081525083611ae5565b61082d6769e5d43693c7d2a160c01b6119c8565b610841671874163980608d1060c01b6119c8565b6000606560008473ffffffffffffffffffffffffffffffffffffffff1673ffffffffffffffffffffffffffffffffffffffff16815260200190815260200160002060009054906101000a900460ff1690506108a6679447c156453f275760c01b6119c8565b6108ba679b623509db8b12bd60c01b6119c8565b6108f96040518060400160405280601181526020017f57686974656c697374207374617475733a00000000000000000000000000000081525082611b81565b61090d676cdcd0a3d4b01fb860c01b6119c8565b610921678cefd0187a1fa4fd60c01b6119c8565b80915050919050565b6060610940670affc6c0925eff8f60c01b6119c8565b6109546781999c616d30a26060c01b6119c8565b61096867ce5aeb08af4c175f60c01b6119c8565b60668054806020026020016040519081016040528092919081815260200182805480156109ea57602002820191906000526020600020905b8160009054906101000a900473ffffffffffffffffffffffffffffffffffffffff1673ffffffffffffffffffffffffffffffffffffffff16815260200190600101908083116109a0575b5050505050905090565b6109fc6119cb565b610a066000611c1d565b565b610a1c672a766ab65d508d3360c01b6119c8565b610a246119cb565b610a3867816c5b43a422d34860c01b6119c8565b610a4c670b70d0daffb3868f60c01b6119c8565b610a6067c3aa6756f178727960c01b6119c8565b610a74670b632931e0bda77f60c01b6119c8565b606560008273ffffffffffffffffffffffffffffffffffffffff1673ffffffffffffffffffffffffffffffffffffffff16815260200190815260200160002060009054906101000a900460ff16610b0b57610ad967c80726e088b1176c60c01b6119c8565b6040517fad7acb4700000000000000000000000000000000000000000000000000000000815260040160405180910390fd5b610b1f671105ab5c9d01adb560c01b6119c8565b610b33679d2e23405f2eedf960c01b6119c8565b6000606560008373ffffffffffffffffffffffffffffffffffffffff1673ffffffffffffffffffffffffffffffffffffffff16815260200190815260200160002060006101000a81548160ff021916908315150217905550610b9f677ee9d64a19de29f760c01b6119c8565b610bb3674f1cc1803bca91b460c01b6119c8565b60005b606680549050811015610ddf57610bd767deb5d5e2f955c2ac60c01b6119c8565b610beb672260efd01f6d5ba560c01b6119c8565b8173ffffffffffffffffffffffffffffffffffffffff1660668281548110610c1657610c1561209f565b5b9060005260206000200160009054906101000a900473ffffffffffffffffffffffffffffffffffffffff1673ffffffffffffffffffffffffffffffffffffffff1603610db857610c70674e2661184253cff560c01b6119c8565b610c8467d49757c5fb3aa50c60c01b6119c8565b60666001606680549050610c989190612107565b81548110610ca957610ca861209f565b5b9060005260206000200160009054906101000a900473ffffffffffffffffffffffffffffffffffffffff1660668281548110610ce857610ce761209f565b5b9060005260206000200160006101000a81548173ffffffffffffffffffffffffffffffffffffffff021916908373ffffffffffffffffffffffffffffffffffffffff160217905550610d446718f950ab3b45a8af60c01b6119c8565b610d586708ce3c24a23c070660c01b6119c8565b6066805480610d6a57610d6961213b565b5b6001900381819060005260206000200160006101000a81549073ffffffffffffffffffffffffffffffffffffffff02191690559055610db36768fb4d56d1d353ec60c01b6119c8565b610ddf565b610dcc67a7d7914d33d1444660c01b6119c8565b8080610dd79061216a565b915050610bb6565b50610df467b566366eb57f98e360c01b6119c8565b610e086717e435a127fc75c260c01b6119c8565b8073ffffffffffffffffffffffffffffffffffffffff167f535611fb62fa2a833988f283b779e417e996813e44046f521d76c17b5943b08c60405160405180910390a2610e5f67d8fe50450fd0e2e160c01b6119c8565b610e736795d0f573cdb327e160c01b6119c8565b610eb26040518060400160405280601781526020017f52656d6f7665642066726f6d2077686974656c6973743a00000000000000000081525082611ae5565b50565b6000603360009054906101000a900473ffffffffffffffffffffffffffffffffffffffff16905090565b610ef36722c7fa12ea9e8c1c60c01b6119c8565b610efb6119cb565b610f0f67021d551d1eba0da160c01b6119c8565b610f23672d4687cc3ce64a2460c01b6119c8565b610f376765d09ffae79b7f4f60c01b6119c8565b610f4b6715e4e0fa5f741cbd60c01b6119c8565b60005b828290508110156112ee57610f6d67780d91a29834217760c01b6119c8565b610f8167a5a93cf62860452b60c01b6119c8565b600073ffffffffffffffffffffffffffffffffffffffff16838383818110610fac57610fab61209f565b5b9050602002016020810190610fc19190611f32565b73ffffffffffffffffffffffffffffffffffffffff160361102257610ff067da43601c7619a21f60c01b6119c8565b6040517fe6c4247b00000000000000000000000000000000000000000000000000000000815260040160405180910390fd5b61103667cd76da043f845a6d60c01b6119c8565b61104a67c7f9c83af114673360c01b6119c8565b61105e67e2667e540fe8349f60c01b6119c8565b606560008484848181106110755761107461209f565b5b905060200201602081019061108a9190611f32565b73ffffffffffffffffffffffffffffffffffffffff1673ffffffffffffffffffffffffffffffffffffffff16815260200190815260200160002060009054906101000a900460ff166112c6576110ea67f4e20e791bb60bf460c01b6119c8565b6110fe67e0605b2744742bfe60c01b6119c8565b6001606560008585858181106111175761111661209f565b5b905060200201602081019061112c9190611f32565b73ffffffffffffffffffffffffffffffffffffffff1673ffffffffffffffffffffffffffffffffffffffff16815260200190815260200160002060006101000a81548160ff02191690831515021790555061119167718705d98d12a26760c01b6119c8565b6111a567ecb0b4f803282ecb60c01b6119c8565b60668383838181106111ba576111b961209f565b5b90506020020160208101906111cf9190611f32565b9080600181540180825580915050600190039060005260206000200160009091909190916101000a81548173ffffffffffffffffffffffffffffffffffffffff021916908373ffffffffffffffffffffffffffffffffffffffff16021790555061124367e0cd3bec7cb2e4ce60c01b6119c8565b61125767aeabff4b4f35de3860c01b6119c8565b82828281811061126a5761126961209f565b5b905060200201602081019061127f9190611f32565b73ffffffffffffffffffffffffffffffffffffffff167f4f783c179409b4127238bc9c990bc99b9a651666a0d20b51d6c42849eb88466d60405160405180910390a26112db565b6112da67e75ca745f80279ee60c01b6119c8565b5b80806112e69061216a565b915050610f4e565b5061130367443cd9957427768c60c01b6119c8565b6113176766e33889284ae0c060c01b6119c8565b7fa09f1ccb0ba846ba005ce07a059b203c45bfb582864d4e66b2f54e8f7d01eb32828260405161134892919061223d565b60405180910390a16113646723622928064e205e60c01b6119c8565b611378671e10dfa89123e87560c01b6119c8565b6113ba6040518060400160405280602081526020017f416464656420626174636820746f2077686974656c6973742c20636f756e743a81525083839050611a49565b5050565b6113d267418b27c663a5b17560c01b6119c8565b60008060019054906101000a900460ff161590508080156114035750600160008054906101000a900460ff1660ff16105b80611430575061141230611ce3565b15801561142f5750600160008054906101000a900460ff1660ff16145b5b61146f576040517f08c379a0000000000000000000000000000000000000000000000000000000008152600401611466906122e4565b60405180910390fd5b60016000806101000a81548160ff021916908360ff16021790555080156114ac576001600060016101000a81548160ff0219169083151502179055505b6114c0677c2d4319c04ec54160c01b6119c8565b6114d467e07f4b763a8755ba60c01b6119c8565b6114e86772ef47f6e1cec54b60c01b6119c8565b6114fc67686e17c5300912ec60c01b6119c8565b611504611d06565b611518677e53e0acf8240efc60c01b6119c8565b61152c6759b25518961df2ec60c01b6119c8565b61154e6040518060600160405280602b8152602001612673602b913983611ae5565b80156115a75760008060016101000a81548160ff0219169083151502179055507f7f26b83ff96e1f2b6a682f133852f6798a09c465da95921460cefb3847402498600160405161159e9190612356565b60405180910390a15b5050565b6115bf67c2a51e907bebdeaf60c01b6119c8565b6115c76119cb565b6115db67547eb231551ea37860c01b6119c8565b6115ef6701b667c5f2e69c4a60c01b6119c8565b611603675dfe442ba699682960c01b6119c8565b61161767664987e3f04c3b0c60c01b6119c8565b600073ffffffffffffffffffffffffffffffffffffffff168173ffffffffffffffffffffffffffffffffffffffff16036116915761165f6761a948988efc866f60c01b6119c8565b6040517fe6c4247b00000000000000000000000000000000000000000000000000000000815260040160405180910390fd5b6116a567ea517b6976d5291760c01b6119c8565b6116b967c61a5319a062ba2460c01b6119c8565b6116cd6759e5216c1a679f5960c01b6119c8565b606560008273ffffffffffffffffffffffffffffffffffffffff1673ffffffffffffffffffffffffffffffffffffffff16815260200190815260200160002060009054906101000a900460ff16156117655761173367681283ee9c3e358f60c01b6119c8565b6040517f78426ef800000000000000000000000000000000000000000000000000000000815260040160405180910390fd5b61177967b82732c180201f0360c01b6119c8565b61178d6770fa0b2ff69601c060c01b6119c8565b6001606560008373ffffffffffffffffffffffffffffffffffffffff1673ffffffffffffffffffffffffffffffffffffffff16815260200190815260200160002060006101000a81548160ff0219169083151502179055506117f96771363ed5283c18dd60c01b6119c8565b61180d6705cd99f30afdcc1960c01b6119c8565b6066819080600181540180825580915050600190039060005260206000200160009091909190916101000a81548173ffffffffffffffffffffffffffffffffffffffff021916908373ffffffffffffffffffffffffffffffffffffffff1602179055506118846726298a3baa8078e760c01b6119c8565b61189867b954a542fbea58eb60c01b6119c8565b8073ffffffffffffffffffffffffffffffffffffffff167f4f783c179409b4127238bc9c990bc99b9a651666a0d20b51d6c42849eb88466d60405160405180910390a26118ef672d788ebab70c8d0e60c01b6119c8565b611903672ffcdc59734dfc5c60c01b6119c8565b6119426040518060400160405280601381526020017f416464656420746f2077686974656c6973743a0000000000000000000000000081525082611ae5565b50565b61194d6119cb565b600073ffffffffffffffffffffffffffffffffffffffff168173ffffffffffffffffffffffffffffffffffffffff16036119bc576040517f08c379a00000000000000000000000000000000000000000000000000000000081526004016119b3906123e3565b60405180910390fd5b6119c581611c1d565b50565b50565b6119d3611d5f565b73ffffffffffffffffffffffffffffffffffffffff166119f1610eb5565b73ffffffffffffffffffffffffffffffffffffffff1614611a47576040517f08c379a0000000000000000000000000000000000000000000000000000000008152600401611a3e9061244f565b60405180910390fd5b565b611ae18282604051602401611a5f9291906124fd565b6040516020818303038152906040527fb60e72cc000000000000000000000000000000000000000000000000000000007bffffffffffffffffffffffffffffffffffffffffffffffffffffffff19166020820180517bffffffffffffffffffffffffffffffffffffffffffffffffffffffff8381831617835250505050611d67565b5050565b611b7d8282604051602401611afb92919061252d565b6040516020818303038152906040527f319af333000000000000000000000000000000000000000000000000000000007bffffffffffffffffffffffffffffffffffffffffffffffffffffffff19166020820180517bffffffffffffffffffffffffffffffffffffffffffffffffffffffff8381831617835250505050611d67565b5050565b611c198282604051602401611b9792919061255d565b6040516020818303038152906040527fc3b55635000000000000000000000000000000000000000000000000000000007bffffffffffffffffffffffffffffffffffffffffffffffffffffffff19166020820180517bffffffffffffffffffffffffffffffffffffffffffffffffffffffff8381831617835250505050611d67565b5050565b6000603360009054906101000a900473ffffffffffffffffffffffffffffffffffffffff16905081603360006101000a81548173ffffffffffffffffffffffffffffffffffffffff021916908373ffffffffffffffffffffffffffffffffffffffff1602179055508173ffffffffffffffffffffffffffffffffffffffff168173ffffffffffffffffffffffffffffffffffffffff167f8be0079c531659141344cd1fd0a4f28419497f9722a3daafe3b4186f6b6457e060405160405180910390a35050565b6000808273ffffffffffffffffffffffffffffffffffffffff163b119050919050565b600060019054906101000a900460ff16611d55576040517f08c379a0000000000000000000000000000000000000000000000000000000008152600401611d4c906125ff565b60405180910390fd5b611d5d611d81565b565b600033905090565b611d7e81611d76611de2611e03565b63ffffffff16565b50565b600060019054906101000a900460ff16611dd0576040517f08c379a0000000000000000000000000000000000000000000000000000000008152600401611dc7906125ff565b60405180910390fd5b611de0611ddb611d5f565b611c1d565b565b60006a636f6e736f6c652e6c6f679050600080835160208501845afa505050565b611e0e819050919050565b611e1661261f565b565b600080fd5b600080fd5b600080fd5b600080fd5b600080fd5b60008083601f840112611e4757611e46611e22565b5b8235905067ffffffffffffffff811115611e6457611e63611e27565b5b602083019150836020820283011115611e8057611e7f611e2c565b5b9250929050565b60008060208385031215611e9e57611e9d611e18565b5b600083013567ffffffffffffffff811115611ebc57611ebb611e1d565b5b611ec885828601611e31565b92509250509250929050565b600073ffffffffffffffffffffffffffffffffffffffff82169050919050565b6000611eff82611ed4565b9050919050565b611f0f81611ef4565b8114611f1a57600080fd5b50565b600081359050611f2c81611f06565b92915050565b600060208284031215611f4857611f47611e18565b5b6000611f5684828501611f1d565b91505092915050565b60008115159050919050565b611f7481611f5f565b82525050565b6000602082019050611f8f6000830184611f6b565b92915050565b600081519050919050565b600082825260208201905092915050565b6000819050602082019050919050565b611fca81611ef4565b82525050565b6000611fdc8383611fc1565b60208301905092915050565b6000602082019050919050565b600061200082611f95565b61200a8185611fa0565b935061201583611fb1565b8060005b8381101561204657815161202d8882611fd0565b975061203883611fe8565b925050600181019050612019565b5085935050505092915050565b6000602082019050818103600083015261206d8184611ff5565b905092915050565b61207e81611ef4565b82525050565b60006020820190506120996000830184612075565b92915050565b7f4e487b7100000000000000000000000000000000000000000000000000000000600052603260045260246000fd5b6000819050919050565b7f4e487b7100000000000000000000000000000000000000000000000000000000600052601160045260246000fd5b6000612112826120ce565b915061211d836120ce565b9250828203905081811115612135576121346120d8565b5b92915050565b7f4e487b7100000000000000000000000000000000000000000000000000000000600052603160045260246000fd5b6000612175826120ce565b91507fffffffffffffffffffffffffffffffffffffffffffffffffffffffffffffffff82036121a7576121a66120d8565b5b600182019050919050565b6000819050919050565b60006121cb6020840184611f1d565b905092915050565b6000602082019050919050565b60006121ec8385611fa0565b93506121f7826121b2565b8060005b858110156122305761220d82846121bc565b6122178882611fd0565b9750612222836121d3565b9250506001810190506121fb565b5085925050509392505050565b600060208201905081810360008301526122588184866121e0565b90509392505050565b600082825260208201905092915050565b7f496e697469616c697a61626c653a20636f6e747261637420697320616c72656160008201527f647920696e697469616c697a6564000000000000000000000000000000000000602082015250565b60006122ce602e83612261565b91506122d982612272565b604082019050919050565b600060208201905081810360008301526122fd816122c1565b9050919050565b6000819050919050565b600060ff82169050919050565b6000819050919050565b600061234061233b61233684612304565b61231b565b61230e565b9050919050565b61235081612325565b82525050565b600060208201905061236b6000830184612347565b92915050565b7f4f776e61626c653a206e6577206f776e657220697320746865207a65726f206160008201527f6464726573730000000000000000000000000000000000000000000000000000602082015250565b60006123cd602683612261565b91506123d882612371565b604082019050919050565b600060208201905081810360008301526123fc816123c0565b9050919050565b7f4f776e61626c653a2063616c6c6572206973206e6f7420746865206f776e6572600082015250565b6000612439602083612261565b915061244482612403565b602082019050919050565b600060208201905081810360008301526124688161242c565b9050919050565b600081519050919050565b60005b8381101561249857808201518184015260208101905061247d565b60008484015250505050565b6000601f19601f8301169050919050565b60006124c08261246f565b6124ca8185612261565b93506124da81856020860161247a565b6124e3816124a4565b840191505092915050565b6124f7816120ce565b82525050565b6000604082019050818103600083015261251781856124b5565b905061252660208301846124ee565b9392505050565b6000604082019050818103600083015261254781856124b5565b90506125566020830184612075565b9392505050565b6000604082019050818103600083015261257781856124b5565b90506125866020830184611f6b565b9392505050565b7f496e697469616c697a61626c653a20636f6e7472616374206973206e6f74206960008201527f6e697469616c697a696e67000000000000000000000000000000000000000000602082015250565b60006125e9602b83612261565b91506125f48261258d565b604082019050919050565b60006020820190508181036000830152612618816125dc565b9050919050565b7f4e487b7100000000000000000000000000000000000000000000000000000000600052605160045260246000fdfe52656d6f7665642062617463682066726f6d2077686974656c6973742c20636f756e743a496e697469616c697a696e672057686974656c69737420636f6e74726163742077697468206f776e65723aa26469706673582212207cf47e8c7645ddf76642332831854e75ec755fd27514c0dff96d3479a24a6a2964736f6c63430008150033",
  "linkReferences": {},
  "deployedLinkReferences": {}
}