{
  "_format": "hh-sol-artifact-1",
  "contractName": "Whitelist",
  "sourceName": "contracts/Whitelist.sol",
  "abi": [
    {
      "inputs": [],
      "stateMutability": "nonpayable",
      "type": "constructor"
    },
    {
      "inputs": [],
      "name": "AddressAlreadyWhitelisted",
      "type": "error"
    },
    {
      "inputs": [],
      "name": "AddressNotWhitelisted",
      "type": "error"
    },
    {
      "inputs": [],
      "name": "InvalidAddress",
      "type": "error"
    },
    {
      "anonymous": false,
      "inputs": [
        {
          "indexed": true,
          "internalType": "address",
          "name": "account",
          "type": "address"
        }
      ],
      "name": "AddressRemovedFromWhitelist",
      "type": "event"
    },
    {
      "anonymous": false,
      "inputs": [
        {
          "indexed": true,
          "internalType": "address",
          "name": "account",
          "type": "address"
        }
      ],
      "name": "AddressWhitelisted",
      "type": "event"
    },
    {
      "anonymous": false,
      "inputs": [
        {
          "indexed": false,
          "internalType": "address[]",
          "name": "accounts",
          "type": "address[]"
        }
      ],
      "name": "BatchWhitelistAdded",
      "type": "event"
    },
    {
      "anonymous": false,
      "inputs": [
        {
          "indexed": false,
          "internalType": "address[]",
          "name": "accounts",
          "type": "address[]"
        }
      ],
      "name": "BatchWhitelistRemoved",
      "type": "event"
    },
    {
      "anonymous": false,
      "inputs": [
        {
          "indexed": false,
          "internalType": "uint8",
          "name": "version",
          "type": "uint8"
        }
      ],
      "name": "Initialized",
      "type": "event"
    },
    {
      "anonymous": false,
      "inputs": [
        {
          "indexed": true,
          "internalType": "address",
          "name": "previousOwner",
          "type": "address"
        },
        {
          "indexed": true,
          "internalType": "address",
          "name": "newOwner",
          "type": "address"
        }
      ],
      "name": "OwnershipTransferred",
      "type": "event"
    },
    {
      "inputs": [
        {
          "internalType": "address[]",
          "name": "accounts",
          "type": "address[]"
        }
      ],
      "name": "addBatchToWhitelist",
      "outputs": [],
      "stateMutability": "nonpayable",
      "type": "function"
    },
    {
      "inputs": [
        {
          "internalType": "address",
          "name": "account",
          "type": "address"
        }
      ],
      "name": "addToWhitelist",
      "outputs": [],
      "stateMutability": "nonpayable",
      "type": "function"
    },
    {
      "inputs": [],
      "name": "getWhitelistedAddresses",
      "outputs": [
        {
          "internalType": "address[]",
          "name": "",
          "type": "address[]"
        }
      ],
      "stateMutability": "view",
      "type": "function"
    },
    {
      "inputs": [
        {
          "internalType": "address",
          "name": "initialOwner",
          "type": "address"
        }
      ],
      "name": "initialize",
      "outputs": [],
      "stateMutability": "nonpayable",
      "type": "function"
    },
    {
      "inputs": [
        {
          "internalType": "address",
          "name": "account",
          "type": "address"
        }
      ],
      "name": "isWhitelisted",
      "outputs": [
        {
          "internalType": "bool",
          "name": "",
          "type": "bool"
        }
      ],
      "stateMutability": "view",
      "type": "function"
    },
    {
      "inputs": [],
      "name": "owner",
      "outputs": [
        {
          "internalType": "address",
          "name": "",
          "type": "address"
        }
      ],
      "stateMutability": "view",
      "type": "function"
    },
    {
      "inputs": [
        {
          "internalType": "address[]",
          "name": "accounts",
          "type": "address[]"
        }
      ],
      "name": "removeBatchFromWhitelist",
      "outputs": [],
      "stateMutability": "nonpayable",
      "type": "function"
    },
    {
      "inputs": [
        {
          "internalType": "address",
          "name": "account",
          "type": "address"
        }
      ],
      "name": "removeFromWhitelist",
      "outputs": [],
      "stateMutability": "nonpayable",
      "type": "function"
    },
    {
      "inputs": [],
      "name": "renounceOwnership",
      "outputs": [],
      "stateMutability": "nonpayable",
      "type": "function"
    },
    {
      "inputs": [
        {
          "internalType": "address",
          "name": "newOwner",
          "type": "address"
        }
      ],
      "name": "transferOwnership",
      "outputs": [],
      "stateMutability": "nonpayable",
      "type": "function"
    }
  ],
  "bytecode": "0x608060405234801561001057600080fd5b5061001961001e565b6100dd565b600054610100900460ff161561008a5760405162461bcd60e51b815260206004820152602760248201527f496e697469616c697a61626c653a20636f6e747261637420697320696e697469604482015266616c697a696e6760c81b606482015260840160405180910390fd5b60005460ff908116146100db576000805460ff191660ff9081179091556040519081527f7f26b83ff96e1f2b6a682f133852f6798a09c465da95921460cefb38474024989060200160405180910390a15b565b61118f806100ec6000396000f3fe608060405234801561001057600080fd5b506004361061009e5760003560e01c80638da5cb5b116100665780638da5cb5b14610110578063a3d19d8c1461012b578063c4d66de81461013e578063e43252d714610151578063f2fde38b1461016457600080fd5b8063123a6a82146100a35780633af32abf146100b85780636d028027146100e0578063715018a6146100f55780638ab1d681146100fd575b600080fd5b6100b66100b1366004610e4f565b610177565b005b6100cb6100c6366004610ee0565b610442565b60405190151581526020015b60405180910390f35b6100e86104dc565b6040516100d79190610f02565b6100b661053e565b6100b661010b366004610ee0565b610552565b6033546040516001600160a01b0390911681526020016100d7565b6100b6610139366004610e4f565b610730565b6100b661014c366004610ee0565b610976565b6100b661015f366004610ee0565b610aae565b6100b6610172366004610ee0565b610bd5565b61017f610c4b565b60005b818110156103e257606560008484848181106101a0576101a0610f4f565b90506020020160208101906101b59190610ee0565b6001600160a01b0316815260208101919091526040016000205460ff166101ef5760405163ad7acb4760e01b815260040160405180910390fd5b60006065600085858581811061020757610207610f4f565b905060200201602081019061021c9190610ee0565b6001600160a01b0316815260208101919091526040016000908120805460ff1916921515929092179091555b6066548110156103735783838381811061026457610264610f4f565b90506020020160208101906102799190610ee0565b6001600160a01b03166066828154811061029557610295610f4f565b6000918252602090912001546001600160a01b03160361036157606680546102bf90600190610f7b565b815481106102cf576102cf610f4f565b600091825260209091200154606680546001600160a01b0390921691839081106102fb576102fb610f4f565b9060005260206000200160006101000a8154816001600160a01b0302191690836001600160a01b03160217905550606680548061033a5761033a610f8e565b600082815260209020810160001990810180546001600160a01b0319169055019055610373565b8061036b81610fa4565b915050610248565b5082828281811061038657610386610f4f565b905060200201602081019061039b9190610ee0565b6001600160a01b03167f535611fb62fa2a833988f283b779e417e996813e44046f521d76c17b5943b08c60405160405180910390a2806103da81610fa4565b915050610182565b507f34e872427ae9de26be42433090db5c64f60ae3921171e335045d7735077b30178282604051610414929190610fbd565b60405180910390a161043e60405180606001604052806024815260200161110b6024913982610ca5565b5050565b60006104836040518060400160405280601e81526020017f436865636b696e672077686974656c6973742073746174757320666f723a000081525083610cea565b6001600160a01b03821660009081526065602090815260409182902054825180840190935260118352702bb434ba32b634b9ba1039ba30ba3ab99d60791b9183019190915260ff16906104d69082610d2f565b92915050565b6060606680548060200260200160405190810160405280929190818152602001828054801561053457602002820191906000526020600020905b81546001600160a01b03168152600190910190602001808311610516575b5050505050905090565b610546610c4b565b6105506000610d74565b565b61055a610c4b565b6001600160a01b03811660009081526065602052604090205460ff166105935760405163ad7acb4760e01b815260040160405180910390fd5b6001600160a01b0381166000908152606560205260408120805460ff191690555b6066548110156106b957816001600160a01b0316606682815481106105db576105db610f4f565b6000918252602090912001546001600160a01b0316036106a7576066805461060590600190610f7b565b8154811061061557610615610f4f565b600091825260209091200154606680546001600160a01b03909216918390811061064157610641610f4f565b9060005260206000200160006101000a8154816001600160a01b0302191690836001600160a01b03160217905550606680548061068057610680610f8e565b600082815260209020810160001990810180546001600160a01b03191690550190556106b9565b806106b181610fa4565b9150506105b4565b506040516001600160a01b038216907f535611fb62fa2a833988f283b779e417e996813e44046f521d76c17b5943b08c90600090a261072d6040518060400160405280601781526020017f52656d6f7665642066726f6d2077686974656c6973743a00000000000000000081525082610cea565b50565b610738610c4b565b60005b818110156108fe57600083838381811061075757610757610f4f565b905060200201602081019061076c9190610ee0565b6001600160a01b0316036107935760405163e6c4247b60e01b815260040160405180910390fd5b606560008484848181106107a9576107a9610f4f565b90506020020160208101906107be9190610ee0565b6001600160a01b0316815260208101919091526040016000205460ff166108ec576001606560008585858181106107f7576107f7610f4f565b905060200201602081019061080c9190610ee0565b6001600160a01b031681526020810191909152604001600020805460ff1916911515919091179055606683838381811061084857610848610f4f565b905060200201602081019061085d9190610ee0565b81546001810183556000928352602090922090910180546001600160a01b0319166001600160a01b039092169190911790558282828181106108a1576108a1610f4f565b90506020020160208101906108b69190610ee0565b6001600160a01b03167f4f783c179409b4127238bc9c990bc99b9a651666a0d20b51d6c42849eb88466d60405160405180910390a25b806108f681610fa4565b91505061073b565b507fa09f1ccb0ba846ba005ce07a059b203c45bfb582864d4e66b2f54e8f7d01eb328282604051610930929190610fbd565b60405180910390a16040805180820190915260208082527f416464656420626174636820746f2077686974656c6973742c20636f756e743a9082015261043e9082610ca5565b600054610100900460ff16158080156109965750600054600160ff909116105b806109b05750303b1580156109b0575060005460ff166001145b610a185760405162461bcd60e51b815260206004820152602e60248201527f496e697469616c697a61626c653a20636f6e747261637420697320616c72656160448201526d191e481a5b9a5d1a585b1a5e995960921b60648201526084015b60405180910390fd5b6000805460ff191660011790558015610a3b576000805461ff0019166101001790555b610a43610dc6565b610a656040518060600160405280602b815260200161112f602b913983610cea565b801561043e576000805461ff0019169055604051600181527f7f26b83ff96e1f2b6a682f133852f6798a09c465da95921460cefb38474024989060200160405180910390a15050565b610ab6610c4b565b6001600160a01b038116610add5760405163e6c4247b60e01b815260040160405180910390fd5b6001600160a01b03811660009081526065602052604090205460ff1615610b1757604051630f084ddf60e31b815260040160405180910390fd5b6001600160a01b038116600081815260656020526040808220805460ff1916600190811790915560668054918201815583527f46501879b8ca8525e8c2fd519e2fbfcfa2ebea26501294aa02cbfcfb12e943540180546001600160a01b03191684179055517f4f783c179409b4127238bc9c990bc99b9a651666a0d20b51d6c42849eb88466d9190a261072d6040518060400160405280601381526020017220b23232b2103a37903bb434ba32b634b9ba1d60691b81525082610cea565b610bdd610c4b565b6001600160a01b038116610c425760405162461bcd60e51b815260206004820152602660248201527f4f776e61626c653a206e6577206f776e657220697320746865207a65726f206160448201526564647265737360d01b6064820152608401610a0f565b61072d81610d74565b6033546001600160a01b031633146105505760405162461bcd60e51b815260206004820181905260248201527f4f776e61626c653a2063616c6c6572206973206e6f7420746865206f776e65726044820152606401610a0f565b61043e8282604051602401610cbb92919061104f565b60408051601f198184030181529190526020810180516001600160e01b0316632d839cb360e21b179052610df5565b61043e8282604051602401610d00929190611071565b60408051601f198184030181529190526020810180516001600160e01b031663319af33360e01b179052610df5565b61043e8282604051602401610d4592919061109b565b60408051601f198184030181529190526020810180516001600160e01b031663c3b5563560e01b179052610df5565b603380546001600160a01b038381166001600160a01b0319831681179093556040519116919082907f8be0079c531659141344cd1fd0a4f28419497f9722a3daafe3b4186f6b6457e090600090a35050565b600054610100900460ff16610ded5760405162461bcd60e51b8152600401610a0f906110bf565b610550610dfe565b61072d81610e2e565b600054610100900460ff16610e255760405162461bcd60e51b8152600401610a0f906110bf565b61055033610d74565b60006a636f6e736f6c652e6c6f679050600080835160208501845afa505050565b60008060208385031215610e6257600080fd5b823567ffffffffffffffff80821115610e7a57600080fd5b818501915085601f830112610e8e57600080fd5b813581811115610e9d57600080fd5b8660208260051b8501011115610eb257600080fd5b60209290920196919550909350505050565b80356001600160a01b0381168114610edb57600080fd5b919050565b600060208284031215610ef257600080fd5b610efb82610ec4565b9392505050565b6020808252825182820181905260009190848201906040850190845b81811015610f435783516001600160a01b031683529284019291840191600101610f1e565b50909695505050505050565b634e487b7160e01b600052603260045260246000fd5b634e487b7160e01b600052601160045260246000fd5b818103818111156104d6576104d6610f65565b634e487b7160e01b600052603160045260246000fd5b600060018201610fb657610fb6610f65565b5060010190565b60208082528181018390526000908460408401835b86811015610ffe576001600160a01b03610feb84610ec4565b1682529183019190830190600101610fd2565b509695505050505050565b6000815180845260005b8181101561102f57602081850181015186830182015201611013565b506000602082860101526020601f19601f83011685010191505092915050565b6040815260006110626040830185611009565b90508260208301529392505050565b6040815260006110846040830185611009565b905060018060a01b03831660208301529392505050565b6040815260006110ae6040830185611009565b905082151560208301529392505050565b6020808252602b908201527f496e697469616c697a61626c653a20636f6e7472616374206973206e6f74206960408201526a6e697469616c697a696e6760a81b60608201526080019056fe52656d6f7665642062617463682066726f6d2077686974656c6973742c20636f756e743a496e697469616c697a696e672057686974656c69737420636f6e74726163742077697468206f776e65723aa26469706673582212201ffb640cd664495a309bac2741a27cf5ab4bfe673bf633061d8ed4e39e03be5b64736f6c63430008150033",
  "linkReferences": {},
  "deployedLinkReferences": {}
}