{
  "_format": "hh-sol-artifact-1",
  "contractName": "PropertyFactory",
  "sourceName": "contracts/PropertyFactory.sol",
  "abi": [
    {
      "inputs": [
        {
          "internalType": "address",
          "name": "initialOwner",
          "type": "address"
        }
      ],
      "stateMutability": "nonpayable",
      "type": "constructor"
    },
    {
      "inputs": [
        {
          "internalType": "address",
          "name": "owner",
          "type": "address"
        }
      ],
      "name": "OwnableInvalidOwner",
      "type": "error"
    },
    {
      "inputs": [
        {
          "internalType": "address",
          "name": "account",
          "type": "address"
        }
      ],
      "name": "OwnableUnauthorizedAccount",
      "type": "error"
    },
    {
      "anonymous": false,
      "inputs": [
        {
          "indexed": true,
          "internalType": "address",
          "name": "previousOwner",
          "type": "address"
        },
        {
          "indexed": true,
          "internalType": "address",
          "name": "newOwner",
          "type": "address"
        }
      ],
      "name": "OwnershipTransferred",
      "type": "event"
    },
    {
      "anonymous": false,
      "inputs": [
        {
          "indexed": true,
          "internalType": "address",
          "name": "tokenAddress",
          "type": "address"
        }
      ],
      "name": "PropertyApproved",
      "type": "event"
    },
    {
      "anonymous": false,
      "inputs": [
        {
          "indexed": true,
          "internalType": "address",
          "name": "tokenAddress",
          "type": "address"
        }
      ],
      "name": "PropertyRejected",
      "type": "event"
    },
    {
      "anonymous": false,
      "inputs": [
        {
          "indexed": true,
          "internalType": "address",
          "name": "owner",
          "type": "address"
        },
        {
          "indexed": true,
          "internalType": "address",
          "name": "tokenAddress",
          "type": "address"
        }
      ],
      "name": "PropertySubmitted",
      "type": "event"
    },
    {
      "inputs": [
        {
          "internalType": "address",
          "name": "_propertyAddress",
          "type": "address"
        }
      ],
      "name": "approveProperty",
      "outputs": [],
      "stateMutability": "nonpayable",
      "type": "function"
    },
    {
      "inputs": [
        {
          "internalType": "address",
          "name": "",
          "type": "address"
        }
      ],
      "name": "approvedProperties",
      "outputs": [
        {
          "internalType": "bool",
          "name": "",
          "type": "bool"
        }
      ],
      "stateMutability": "view",
      "type": "function"
    },
    {
      "inputs": [
        {
          "internalType": "string",
          "name": "_title",
          "type": "string"
        },
        {
          "internalType": "string",
          "name": "_description",
          "type": "string"
        },
        {
          "internalType": "string",
          "name": "_location",
          "type": "string"
        },
        {
          "internalType": "string",
          "name": "_imageUrl",
          "type": "string"
        },
        {
          "internalType": "uint256",
          "name": "_price",
          "type": "uint256"
        }
      ],
      "name": "createProperty",
      "outputs": [
        {
          "internalType": "address",
          "name": "",
          "type": "address"
        }
      ],
      "stateMutability": "nonpayable",
      "type": "function"
    },
    {
      "inputs": [
        {
          "internalType": "address",
          "name": "_user",
          "type": "address"
        }
      ],
      "name": "getUserProperties",
      "outputs": [
        {
          "components": [
            {
              "internalType": "address",
              "name": "tokenAddress",
              "type": "address"
            },
            {
              "internalType": "bool",
              "name": "isApproved",
              "type": "bool"
            }
          ],
          "internalType": "struct PropertyFactory.PropertyInfo[]",
          "name": "",
          "type": "tuple[]"
        }
      ],
      "stateMutability": "view",
      "type": "function"
    },
    {
      "inputs": [
        {
          "internalType": "address",
          "name": "_propertyAddress",
          "type": "address"
        }
      ],
      "name": "isPropertyApproved",
      "outputs": [
        {
          "internalType": "bool",
          "name": "",
          "type": "bool"
        }
      ],
      "stateMutability": "view",
      "type": "function"
    },
    {
      "inputs": [],
      "name": "owner",
      "outputs": [
        {
          "internalType": "address",
          "name": "",
          "type": "address"
        }
      ],
      "stateMutability": "view",
      "type": "function"
    },
    {
      "inputs": [
        {
          "internalType": "address",
          "name": "_propertyAddress",
          "type": "address"
        }
      ],
      "name": "rejectProperty",
      "outputs": [],
      "stateMutability": "nonpayable",
      "type": "function"
    },
    {
      "inputs": [],
      "name": "renounceOwnership",
      "outputs": [],
      "stateMutability": "nonpayable",
      "type": "function"
    },
    {
      "inputs": [
        {
          "internalType": "address",
          "name": "newOwner",
          "type": "address"
        }
      ],
      "name": "transferOwnership",
      "outputs": [],
      "stateMutability": "nonpayable",
      "type": "function"
    },
    {
      "inputs": [
        {
          "internalType": "address",
          "name": "",
          "type": "address"
        },
        {
          "internalType": "uint256",
          "name": "",
          "type": "uint256"
        }
      ],
      "name": "userProperties",
      "outputs": [
        {
          "internalType": "address",
          "name": "tokenAddress",
          "type": "address"
        },
        {
          "internalType": "bool",
          "name": "isApproved",
          "type": "bool"
        }
      ],
      "stateMutability": "view",
      "type": "function"
    }
  ],
  "bytecode": "0x608060405234801561001057600080fd5b50604051612be1380380612be183398101604081905261002f916100be565b806001600160a01b03811661005e57604051631e4fbdf760e01b81526000600482015260240160405180910390fd5b6100678161006e565b50506100ee565b600080546001600160a01b038381166001600160a01b0319831681178455604051919092169283917f8be0079c531659141344cd1fd0a4f28419497f9722a3daafe3b4186f6b6457e09190a35050565b6000602082840312156100d057600080fd5b81516001600160a01b03811681146100e757600080fd5b9392505050565b612ae4806100fd6000396000f3fe60806040523480156200001157600080fd5b5060043610620000ab5760003560e01c8063715018a6116200006e578063715018a6146200018957806388cbb35814620001935780638da5cb5b14620001aa578063e2271c9f14620001bc578063f2fde38b14620001f357600080fd5b80630604e45614620000b0578063060a3e6114620000e457806311798bd1146200010a57806321499e8b146200012357806362477b4b146200015a575b600080fd5b620000c7620000c13660046200085e565b6200020a565b6040516001600160a01b0390911681526020015b60405180910390f35b620000fb620000f53660046200093d565b620003cd565b604051620000db919062000962565b620001216200011b3660046200093d565b6200045d565b005b62000149620001343660046200093d565b60026020526000908152604090205460ff1681565b6040519015158152602001620000db565b620001496200016b3660046200093d565b6001600160a01b031660009081526002602052604090205460ff1690565b6200012162000582565b62000121620001a43660046200093d565b6200059a565b6000546001600160a01b0316620000c7565b620001d3620001cd366004620009be565b6200069e565b604080516001600160a01b039093168352901515602083015201620000db565b62000121620002043660046200093d565b620006e2565b6000808686868686306040516200022190620007a5565b620002329695949392919062000a33565b604051809103906000f0801580156200024f573d6000803e3d6000fd5b509050806001600160a01b031663a9059cbb33836001600160a01b031663902d55a56040518163ffffffff1660e01b8152600401602060405180830381865afa158015620002a1573d6000803e3d6000fd5b505050506040513d601f19601f82011682018060405250810190620002c7919062000aac565b6040516001600160e01b031960e085901b1681526001600160a01b03909216600483015260248201526044016020604051808303816000875af115801562000313573d6000803e3d6000fd5b505050506040513d601f19601f8201168201806040525081019062000339919062000ac6565b50336000818152600160208181526040808420815180830183526001600160a01b0388811680835282860188815284549788018555938852948720915191909501805492511515600160a01b026001600160a81b031990931691909516171790925590519092917fc52096134fa3ad0a31f783ae63444e22ff5a177dd5392e4cba144ea83605a98491a39695505050505050565b6001600160a01b0381166000908152600160209081526040808320805482518185028101850190935280835260609492939192909184015b828210156200045257600084815260209081902060408051808201909152908401546001600160a01b0381168252600160a01b900460ff1615158183015282526001909201910162000405565b505050509050919050565b6200046762000726565b6001600160a01b03811660009081526002602052604090205460ff1615620004d25760405162461bcd60e51b8152602060048201526019602482015278141c9bdc195c9d1e48185b1c9958591e48185c1c1c9bdd9959603a1b60448201526064015b60405180910390fd5b6001600160a01b03811660008181526002602052604090819020805460ff191660019081179091559051630a1bb61760e41b8152600481019190915263a1bb617090602401600060405180830381600087803b1580156200053257600080fd5b505af115801562000547573d6000803e3d6000fd5b50506040516001600160a01b03841692507f471a6ffe019f8c983f020cef87372b7df53511fed02de5dc861b7fb8cc19d17f9150600090a250565b6200058c62000726565b62000598600062000755565b565b620005a462000726565b6001600160a01b03811660009081526002602052604090205460ff16156200060b5760405162461bcd60e51b8152602060048201526019602482015278141c9bdc195c9d1e48185b1c9958591e48185c1c1c9bdd9959603a1b6044820152606401620004c9565b604051630a1bb61760e41b8152600060048201526001600160a01b0382169063a1bb617090602401600060405180830381600087803b1580156200064e57600080fd5b505af115801562000663573d6000803e3d6000fd5b50506040516001600160a01b03841692507f7398de549412614f936085bf40b8de774cc79aa59eca1d141f732afa1d06ed5d9150600090a250565b60016020528160005260406000208181548110620006bb57600080fd5b6000918252602090912001546001600160a01b0381169250600160a01b900460ff16905082565b620006ec62000726565b6001600160a01b0381166200071857604051631e4fbdf760e01b815260006004820152602401620004c9565b620007238162000755565b50565b6000546001600160a01b03163314620005985760405163118cdaa760e01b8152336004820152602401620004c9565b600080546001600160a01b038381166001600160a01b0319831681178455604051919092169283917f8be0079c531659141344cd1fd0a4f28419497f9722a3daafe3b4186f6b6457e09190a35050565b611fc48062000aeb83390190565b634e487b7160e01b600052604160045260246000fd5b600082601f830112620007db57600080fd5b813567ffffffffffffffff80821115620007f957620007f9620007b3565b604051601f8301601f19908116603f01168101908282118183101715620008245762000824620007b3565b816040528381528660208588010111156200083e57600080fd5b836020870160208301376000602085830101528094505050505092915050565b600080600080600060a086880312156200087757600080fd5b853567ffffffffffffffff808211156200089057600080fd5b6200089e89838a01620007c9565b96506020880135915080821115620008b557600080fd5b620008c389838a01620007c9565b95506040880135915080821115620008da57600080fd5b620008e889838a01620007c9565b94506060880135915080821115620008ff57600080fd5b506200090e88828901620007c9565b95989497509295608001359392505050565b80356001600160a01b03811681146200093857600080fd5b919050565b6000602082840312156200095057600080fd5b6200095b8262000920565b9392505050565b602080825282518282018190526000919060409081850190868401855b82811015620009b157815180516001600160a01b0316855286015115158685015292840192908501906001016200097f565b5091979650505050505050565b60008060408385031215620009d257600080fd5b620009dd8362000920565b946020939093013593505050565b6000815180845260005b8181101562000a1357602081850181015186830182015201620009f5565b506000602082860101526020601f19601f83011685010191505092915050565b60c08152600062000a4860c0830189620009eb565b828103602084015262000a5c8189620009eb565b9050828103604084015262000a728188620009eb565b9050828103606084015262000a888187620009eb565b608084019590955250506001600160a01b039190911660a090910152949350505050565b60006020828403121562000abf57600080fd5b5051919050565b60006020828403121562000ad957600080fd5b815180151581146200095b57600080fdfe6101606040523480156200001257600080fd5b5060405162001fc438038062001fc4833981016040819052620000359162000620565b6040518060400160405280600e81526020016d283937b832b93a3c902a37b5b2b760911b81525080604051806040016040528060018152602001603160f81b815250836040518060400160405280600e81526020016d283937b832b93a3c902a37b5b2b760911b81525060405180604001604052806004815260200163050524f560e41b8152508160039081620000cd919062000782565b506004620000dc828262000782565b5050506001600160a01b0381166200010f57604051631e4fbdf760e01b8152600060048201526024015b60405180910390fd5b6200011a81620002e5565b506200012882600662000337565b610120526200013981600762000337565b61014052815160208084019190912060e052815190820120610100524660a052620001c760e05161010051604080517f8b73c3c69bb8fe3d512ecc4cf759cc79239f7b179b0ffacaa9a75d522b39400f60208201529081019290925260608201524660808201523060a082015260009060c00160405160208183030381529060405280519060200120905090565b60809081523060c09081526040805191820181528b8252602082018b9052810189905260608101889052908101869052600160a082015292506009915081905062000213898262000782565b50602082015160018201906200022a908262000782565b506040820151600282019062000241908262000782565b506060820151600382019062000258908262000782565b506080820151600482015560a0909101516005909101805460ff19169115159190911790556200029281683635c9adc5dea0000062000370565b806001600160a01b03167f6a3469cad0792fe1fea0bc1ddba3dfba95b7e9bc169a5d391d283dbe2ea64e95878685604051620002d1939291906200087c565b60405180910390a250505050505062000919565b600580546001600160a01b038381166001600160a01b0319831681179093556040519116919082907f8be0079c531659141344cd1fd0a4f28419497f9722a3daafe3b4186f6b6457e090600090a35050565b600060208351101562000357576200034f83620003ae565b90506200036a565b8162000364848262000782565b5060ff90505b92915050565b6001600160a01b0382166200039c5760405163ec442f0560e01b81526000600482015260240162000106565b620003aa60008383620003f1565b5050565b600080829050601f81511115620003dc578260405163305a27a960e01b8152600401620001069190620008b6565b8051620003e982620008d2565b179392505050565b620003fe83838362000403565b505050565b6001600160a01b03831662000432578060026000828254620004269190620008f7565b90915550620004a69050565b6001600160a01b03831660009081526020819052604090205481811015620004875760405163391434e360e21b81526001600160a01b0385166004820152602481018290526044810183905260640162000106565b6001600160a01b03841660009081526020819052604090209082900390555b6001600160a01b038216620004c457600280548290039055620004e3565b6001600160a01b03821660009081526020819052604090208054820190555b816001600160a01b0316836001600160a01b03167fddf252ad1be2c89b69c2b068fc378daa952ba7f163c4a11628f55a4df523b3ef836040516200052991815260200190565b60405180910390a3505050565b634e487b7160e01b600052604160045260246000fd5b60005b83811015620005695781810151838201526020016200054f565b50506000910152565b600082601f8301126200058457600080fd5b81516001600160401b0380821115620005a157620005a162000536565b604051601f8301601f19908116603f01168101908282118183101715620005cc57620005cc62000536565b81604052838152866020858801011115620005e657600080fd5b620005f98460208301602089016200054c565b9695505050505050565b80516001600160a01b03811681146200061b57600080fd5b919050565b60008060008060008060c087890312156200063a57600080fd5b86516001600160401b03808211156200065257600080fd5b620006608a838b0162000572565b975060208901519150808211156200067757600080fd5b620006858a838b0162000572565b965060408901519150808211156200069c57600080fd5b620006aa8a838b0162000572565b95506060890151915080821115620006c157600080fd5b50620006d089828a0162000572565b93505060808701519150620006e860a0880162000603565b90509295509295509295565b600181811c908216806200070957607f821691505b6020821081036200072a57634e487b7160e01b600052602260045260246000fd5b50919050565b601f821115620003fe57600081815260208120601f850160051c81016020861015620007595750805b601f850160051c820191505b818110156200077a5782815560010162000765565b505050505050565b81516001600160401b038111156200079e576200079e62000536565b620007b681620007af8454620006f4565b8462000730565b602080601f831160018114620007ee5760008415620007d55750858301515b600019600386901b1c1916600185901b1785556200077a565b600085815260208120601f198616915b828110156200081f57888601518255948401946001909101908401620007fe565b50858210156200083e5787850151600019600388901b60f8161c191681555b5050505050600190811b01905550565b60008151808452620008688160208601602086016200054c565b601f01601f19169290920160200192915050565b6060815260006200089160608301866200084e565b8281036020840152620008a581866200084e565b915050826040830152949350505050565b602081526000620008cb60208301846200084e565b9392505050565b805160208083015191908110156200072a5760001960209190910360031b1b16919050565b808201808211156200036a57634e487b7160e01b600052601160045260246000fd5b60805160a05160c05160e051610100516101205161014051611650620009746000396000610da401526000610d7701526000610ca001526000610c7801526000610bd301526000610bfd01526000610c2701526116506000f3fe608060405234801561001057600080fd5b50600436106101365760003560e01c806384b0196e116100b8578063a1bb61701161007c578063a1bb617014610279578063a9059cbb1461028c578063d505accf1461029f578063d81bc271146102b2578063dd62ed3e146102ba578063f2fde38b146102f357600080fd5b806384b0196e146102185780638d6cc56d146102335780638da5cb5b14610246578063902d55a51461026157806395d89b411461027157600080fd5b8063313ce567116100ff578063313ce567146101bb5780633644e515146101ca57806370a08231146101d2578063715018a6146101fb5780637ecebe001461020557600080fd5b80627dc3721461013b57806306fdde031461015e578063095ea7b31461017357806318160ddd1461019657806323b872dd146101a8575b600080fd5b610143610306565b60405161015596959493929190611313565b60405180910390f35b610166610552565b604051610155919061137b565b6101866101813660046113b1565b6105e4565b6040519015158152602001610155565b6002545b604051908152602001610155565b6101866101b63660046113db565b6105fe565b60405160128152602001610155565b61019a610622565b61019a6101e0366004611417565b6001600160a01b031660009081526020819052604090205490565b610203610631565b005b61019a610213366004611417565b610645565b610220610663565b6040516101559796959493929190611432565b6102036102413660046114c8565b6106a9565b6005546040516001600160a01b039091168152602001610155565b61019a683635c9adc5dea0000081565b6101666106b6565b6102036102873660046114e1565b6106c5565b61018661029a3660046113b1565b6106e0565b6102036102ad366004611503565b6106ee565b61014361082d565b61019a6102c8366004611576565b6001600160a01b03918216600090815260016020908152604080832093909416825291909152205490565b610203610301366004611417565b610a99565b600980548190610315906115a9565b80601f0160208091040260200160405190810160405280929190818152602001828054610341906115a9565b801561038e5780601f106103635761010080835404028352916020019161038e565b820191906000526020600020905b81548152906001019060200180831161037157829003601f168201915b5050505050908060010180546103a3906115a9565b80601f01602080910402602001604051908101604052809291908181526020018280546103cf906115a9565b801561041c5780601f106103f15761010080835404028352916020019161041c565b820191906000526020600020905b8154815290600101906020018083116103ff57829003601f168201915b505050505090806002018054610431906115a9565b80601f016020809104026020016040519081016040528092919081815260200182805461045d906115a9565b80156104aa5780601f1061047f576101008083540402835291602001916104aa565b820191906000526020600020905b81548152906001019060200180831161048d57829003601f168201915b5050505050908060030180546104bf906115a9565b80601f01602080910402602001604051908101604052809291908181526020018280546104eb906115a9565b80156105385780601f1061050d57610100808354040283529160200191610538565b820191906000526020600020905b81548152906001019060200180831161051b57829003601f168201915b50505050600483015460059093015491929160ff16905086565b606060038054610561906115a9565b80601f016020809104026020016040519081016040528092919081815260200182805461058d906115a9565b80156105da5780601f106105af576101008083540402835291602001916105da565b820191906000526020600020905b8154815290600101906020018083116105bd57829003601f168201915b5050505050905090565b6000336105f2818585610ad7565b60019150505b92915050565b60003361060c858285610ae9565b610617858585610b67565b506001949350505050565b600061062c610bc6565b905090565b610639610cf1565b6106436000610d1e565b565b6001600160a01b0381166000908152600860205260408120546105f8565b600060608060008060006060610677610d70565b61067f610d9d565b60408051600080825260208201909252600f60f81b9b939a50919850469750309650945092509050565b6106b1610cf1565b600d55565b606060048054610561906115a9565b6106cd610cf1565b600e805460ff1916911515919091179055565b6000336105f2818585610b67565b834211156107175760405163313c898160e11b8152600481018590526024015b60405180910390fd5b60007f6e71edae12b1b97f4d1f60370fef10105fa2faae0126114a169c64845d6126c98888886107648c6001600160a01b0316600090815260086020526040902080546001810190915590565b6040805160208101969096526001600160a01b0394851690860152929091166060840152608083015260a082015260c0810186905260e00160405160208183030381529060405280519060200120905060006107bf82610dca565b905060006107cf82878787610df7565b9050896001600160a01b0316816001600160a01b031614610816576040516325c0072360e11b81526001600160a01b0380831660048301528b16602482015260440161070e565b6108218a8a8a610ad7565b50505050505050505050565b600d54600e54600980546060938493849384936000938493600a92600b92600c92909160ff909116908690610861906115a9565b80601f016020809104026020016040519081016040528092919081815260200182805461088d906115a9565b80156108da5780601f106108af576101008083540402835291602001916108da565b820191906000526020600020905b8154815290600101906020018083116108bd57829003601f168201915b505050505095508480546108ed906115a9565b80601f0160208091040260200160405190810160405280929190818152602001828054610919906115a9565b80156109665780601f1061093b57610100808354040283529160200191610966565b820191906000526020600020905b81548152906001019060200180831161094957829003601f168201915b50505050509450838054610979906115a9565b80601f01602080910402602001604051908101604052809291908181526020018280546109a5906115a9565b80156109f25780601f106109c7576101008083540402835291602001916109f2565b820191906000526020600020905b8154815290600101906020018083116109d557829003601f168201915b50505050509350828054610a05906115a9565b80601f0160208091040260200160405190810160405280929190818152602001828054610a31906115a9565b8015610a7e5780601f10610a5357610100808354040283529160200191610a7e565b820191906000526020600020905b815481529060010190602001808311610a6157829003601f168201915b50505050509250955095509550955095509550909192939495565b610aa1610cf1565b6001600160a01b038116610acb57604051631e4fbdf760e01b81526000600482015260240161070e565b610ad481610d1e565b50565b610ae48383836001610e25565b505050565b6001600160a01b038381166000908152600160209081526040808320938616835292905220546000198114610b615781811015610b5257604051637dc7a0d960e11b81526001600160a01b0384166004820152602481018290526044810183905260640161070e565b610b6184848484036000610e25565b50505050565b6001600160a01b038316610b9157604051634b637e8f60e11b81526000600482015260240161070e565b6001600160a01b038216610bbb5760405163ec442f0560e01b81526000600482015260240161070e565b610ae4838383610efa565b6000306001600160a01b037f000000000000000000000000000000000000000000000000000000000000000016148015610c1f57507f000000000000000000000000000000000000000000000000000000000000000046145b15610c4957507f000000000000000000000000000000000000000000000000000000000000000090565b61062c604080517f8b73c3c69bb8fe3d512ecc4cf759cc79239f7b179b0ffacaa9a75d522b39400f60208201527f0000000000000000000000000000000000000000000000000000000000000000918101919091527f000000000000000000000000000000000000000000000000000000000000000060608201524660808201523060a082015260009060c00160405160208183030381529060405280519060200120905090565b6005546001600160a01b031633146106435760405163118cdaa760e01b815233600482015260240161070e565b600580546001600160a01b038381166001600160a01b0319831681179093556040519116919082907f8be0079c531659141344cd1fd0a4f28419497f9722a3daafe3b4186f6b6457e090600090a35050565b606061062c7f00000000000000000000000000000000000000000000000000000000000000006006610f05565b606061062c7f00000000000000000000000000000000000000000000000000000000000000006007610f05565b60006105f8610dd7610bc6565b8360405161190160f01b8152600281019290925260228201526042902090565b600080600080610e0988888888610fb0565b925092509250610e19828261107f565b50909695505050505050565b6001600160a01b038416610e4f5760405163e602df0560e01b81526000600482015260240161070e565b6001600160a01b038316610e7957604051634a1406b160e11b81526000600482015260240161070e565b6001600160a01b0380851660009081526001602090815260408083209387168352929052208290558015610b6157826001600160a01b0316846001600160a01b03167f8c5be1e5ebec7d5bd14f71427d1e84f3dd0314c0f7b2291e5b200ac8c7c3b92584604051610eec91815260200190565b60405180910390a350505050565b610ae483838361113c565b606060ff8314610f1f57610f1883611266565b90506105f8565b818054610f2b906115a9565b80601f0160208091040260200160405190810160405280929190818152602001828054610f57906115a9565b8015610fa45780601f10610f7957610100808354040283529160200191610fa4565b820191906000526020600020905b815481529060010190602001808311610f8757829003601f168201915b505050505090506105f8565b600080807f7fffffffffffffffffffffffffffffff5d576e7357a4501ddfe92f46681b20a0841115610feb5750600091506003905082611075565b604080516000808252602082018084528a905260ff891692820192909252606081018790526080810186905260019060a0016020604051602081039080840390855afa15801561103f573d6000803e3d6000fd5b5050604051601f1901519150506001600160a01b03811661106b57506000925060019150829050611075565b9250600091508190505b9450945094915050565b6000826003811115611093576110936115e3565b0361109c575050565b60018260038111156110b0576110b06115e3565b036110ce5760405163f645eedf60e01b815260040160405180910390fd5b60028260038111156110e2576110e26115e3565b036111035760405163fce698f760e01b81526004810182905260240161070e565b6003826003811115611117576111176115e3565b03611138576040516335e2f38360e21b81526004810182905260240161070e565b5050565b6001600160a01b03831661116757806002600082825461115c91906115f9565b909155506111d99050565b6001600160a01b038316600090815260208190526040902054818110156111ba5760405163391434e360e21b81526001600160a01b0385166004820152602481018290526044810183905260640161070e565b6001600160a01b03841660009081526020819052604090209082900390555b6001600160a01b0382166111f557600280548290039055611214565b6001600160a01b03821660009081526020819052604090208054820190555b816001600160a01b0316836001600160a01b03167fddf252ad1be2c89b69c2b068fc378daa952ba7f163c4a11628f55a4df523b3ef8360405161125991815260200190565b60405180910390a3505050565b60606000611273836112a5565b604080516020808252818301909252919250600091906020820181803683375050509182525060208101929092525090565b600060ff8216601f8111156105f857604051632cd44ac360e21b815260040160405180910390fd5b6000815180845260005b818110156112f3576020818501810151868301820152016112d7565b506000602082860101526020601f19601f83011685010191505092915050565b60c08152600061132660c08301896112cd565b828103602084015261133881896112cd565b9050828103604084015261134c81886112cd565b9050828103606084015261136081876112cd565b6080840195909552505090151560a090910152949350505050565b60208152600061138e60208301846112cd565b9392505050565b80356001600160a01b03811681146113ac57600080fd5b919050565b600080604083850312156113c457600080fd5b6113cd83611395565b946020939093013593505050565b6000806000606084860312156113f057600080fd5b6113f984611395565b925061140760208501611395565b9150604084013590509250925092565b60006020828403121561142957600080fd5b61138e82611395565b60ff60f81b881681526000602060e08184015261145260e084018a6112cd565b8381036040850152611464818a6112cd565b606085018990526001600160a01b038816608086015260a0850187905284810360c0860152855180825283870192509083019060005b818110156114b65783518352928401929184019160010161149a565b50909c9b505050505050505050505050565b6000602082840312156114da57600080fd5b5035919050565b6000602082840312156114f357600080fd5b8135801515811461138e57600080fd5b600080600080600080600060e0888a03121561151e57600080fd5b61152788611395565b965061153560208901611395565b95506040880135945060608801359350608088013560ff8116811461155957600080fd5b9699959850939692959460a0840135945060c09093013592915050565b6000806040838503121561158957600080fd5b61159283611395565b91506115a060208401611395565b90509250929050565b600181811c908216806115bd57607f821691505b6020821081036115dd57634e487b7160e01b600052602260045260246000fd5b50919050565b634e487b7160e01b600052602160045260246000fd5b808201808211156105f857634e487b7160e01b600052601160045260246000fdfea2646970667358221220a7b3d76b403a272475f7514788425826738ede76a49ec4880a9dcc886f6deb9964736f6c63430008140033a26469706673582212205d6b3b6dbf051079212a0404275d49dc5b6786cf72cc4702ee2bd2baf38c3e4864736f6c63430008140033",
  "linkReferences": {},
  "deployedLinkReferences": {}
}