{
  "_format": "hh-sol-artifact-1",
  "contractName": "PropertyFactory",
  "sourceName": "contracts/PropertyFactory.sol",
  "abi": [
    {
      "inputs": [
        {
          "internalType": "address",
          "name": "initialOwner",
          "type": "address"
        }
      ],
      "stateMutability": "nonpayable",
      "type": "constructor"
    },
    {
      "inputs": [
        {
          "internalType": "address",
          "name": "owner",
          "type": "address"
        }
      ],
      "name": "OwnableInvalidOwner",
      "type": "error"
    },
    {
      "inputs": [
        {
          "internalType": "address",
          "name": "account",
          "type": "address"
        }
      ],
      "name": "OwnableUnauthorizedAccount",
      "type": "error"
    },
    {
      "anonymous": false,
      "inputs": [
        {
          "indexed": true,
          "internalType": "address",
          "name": "previousOwner",
          "type": "address"
        },
        {
          "indexed": true,
          "internalType": "address",
          "name": "newOwner",
          "type": "address"
        }
      ],
      "name": "OwnershipTransferred",
      "type": "event"
    },
    {
      "anonymous": false,
      "inputs": [
        {
          "indexed": true,
          "internalType": "address",
          "name": "tokenAddress",
          "type": "address"
        }
      ],
      "name": "PropertyApproved",
      "type": "event"
    },
    {
      "anonymous": false,
      "inputs": [
        {
          "indexed": true,
          "internalType": "address",
          "name": "tokenAddress",
          "type": "address"
        }
      ],
      "name": "PropertyRejected",
      "type": "event"
    },
    {
      "anonymous": false,
      "inputs": [
        {
          "indexed": true,
          "internalType": "address",
          "name": "owner",
          "type": "address"
        },
        {
          "indexed": true,
          "internalType": "address",
          "name": "tokenAddress",
          "type": "address"
        }
      ],
      "name": "PropertySubmitted",
      "type": "event"
    },
    {
      "inputs": [
        {
          "internalType": "address",
          "name": "_propertyAddress",
          "type": "address"
        }
      ],
      "name": "approveProperty",
      "outputs": [],
      "stateMutability": "nonpayable",
      "type": "function"
    },
    {
      "inputs": [
        {
          "internalType": "address",
          "name": "",
          "type": "address"
        }
      ],
      "name": "approvedProperties",
      "outputs": [
        {
          "internalType": "bool",
          "name": "",
          "type": "bool"
        }
      ],
      "stateMutability": "view",
      "type": "function"
    },
    {
      "inputs": [
        {
          "internalType": "string",
          "name": "_title",
          "type": "string"
        },
        {
          "internalType": "string",
          "name": "_description",
          "type": "string"
        },
        {
          "internalType": "string",
          "name": "_location",
          "type": "string"
        },
        {
          "internalType": "string",
          "name": "_imageUrl",
          "type": "string"
        },
        {
          "internalType": "uint256",
          "name": "_price",
          "type": "uint256"
        }
      ],
      "name": "createProperty",
      "outputs": [
        {
          "internalType": "address",
          "name": "",
          "type": "address"
        }
      ],
      "stateMutability": "nonpayable",
      "type": "function"
    },
    {
      "inputs": [],
      "name": "getPropertyCreators",
      "outputs": [
        {
          "internalType": "address[]",
          "name": "",
          "type": "address[]"
        }
      ],
      "stateMutability": "view",
      "type": "function"
    },
    {
      "inputs": [
        {
          "internalType": "address",
          "name": "_propertyAddress",
          "type": "address"
        }
      ],
      "name": "getPropertyStatus",
      "outputs": [
        {
          "internalType": "bool",
          "name": "",
          "type": "bool"
        }
      ],
      "stateMutability": "view",
      "type": "function"
    },
    {
      "inputs": [
        {
          "internalType": "address",
          "name": "_user",
          "type": "address"
        }
      ],
      "name": "getUserProperties",
      "outputs": [
        {
          "components": [
            {
              "internalType": "address",
              "name": "tokenAddress",
              "type": "address"
            },
            {
              "internalType": "bool",
              "name": "isApproved",
              "type": "bool"
            }
          ],
          "internalType": "struct PropertyFactory.PropertyInfo[]",
          "name": "",
          "type": "tuple[]"
        }
      ],
      "stateMutability": "view",
      "type": "function"
    },
    {
      "inputs": [],
      "name": "owner",
      "outputs": [
        {
          "internalType": "address",
          "name": "",
          "type": "address"
        }
      ],
      "stateMutability": "view",
      "type": "function"
    },
    {
      "inputs": [
        {
          "internalType": "address",
          "name": "_propertyAddress",
          "type": "address"
        }
      ],
      "name": "rejectProperty",
      "outputs": [],
      "stateMutability": "nonpayable",
      "type": "function"
    },
    {
      "inputs": [],
      "name": "renounceOwnership",
      "outputs": [],
      "stateMutability": "nonpayable",
      "type": "function"
    },
    {
      "inputs": [
        {
          "internalType": "address",
          "name": "newOwner",
          "type": "address"
        }
      ],
      "name": "transferOwnership",
      "outputs": [],
      "stateMutability": "nonpayable",
      "type": "function"
    },
    {
      "inputs": [
        {
          "internalType": "address",
          "name": "",
          "type": "address"
        },
        {
          "internalType": "uint256",
          "name": "",
          "type": "uint256"
        }
      ],
      "name": "userProperties",
      "outputs": [
        {
          "internalType": "address",
          "name": "tokenAddress",
          "type": "address"
        },
        {
          "internalType": "bool",
          "name": "isApproved",
          "type": "bool"
        }
      ],
      "stateMutability": "view",
      "type": "function"
    }
  ],
  "bytecode": "0x6080604081815234610192578162003305803803809161001f8285610197565b833960209384918101031261019257516001600160a01b03928382169182900361019257811561017a57600080546001600160a01b03198116841782558451959193918291167f8be0079c531659141344cd1fd0a4f28419497f9722a3daafe3b4186f6b6457e08580a3606085016001600160401b03811186821017610166578452602885527f496e697469616c697a696e672050726f7065727479466163746f7279207769748286015267341037bbb732b91d60c11b848601528351908282019263319af33360e01b8452856024840152865196876064850152855b8881106101525750505060848287610133938784819a9b850101526044830152601f80199101168101036064810184520182610197565b51906a636f6e736f6c652e6c6f675afa50516131349081620001d18239f35b8181018301518582016084015282016100fc565b634e487b7160e01b84526041600452602484fd5b8251631e4fbdf760e01b815260006004820152602490fd5b600080fd5b601f909101601f19168101906001600160401b038211908210176101ba57604052565b634e487b7160e01b600052604160045260246000fdfe604060808152600490813610156200001657600080fd5b600091823560e01c80630604e4561462000920578063060a3e6114620007f957806311798bd1146200047257806321499e8b1462000136578063715018a6146200041457806388cbb35814620002de5780638da5cb5b14620002b4578063a1cda61014620001e7578063e2271c9f146200017c578063e848a49614620001365763f2fde38b14620000a657600080fd5b34620001325760203660031901126200013257620000c362000f92565b90620000ce62001010565b6001600160a01b039182169283156200011c57505082546001600160a01b0319811683178455167f8be0079c531659141344cd1fd0a4f28419497f9722a3daafe3b4186f6b6457e08380a380f35b51631e4fbdf760e01b8152908101849052602490fd5b8280fd5b50503462000178576020366003190112620001785760209160ff9082906001600160a01b036200016562000f92565b1681526002855220541690519015158152f35b5080fd5b828434620001e45781600319360112620001e4576200019a62000f92565b6001600160a01b03908116825260016020528282208054919260243592831015620001e4575060ff91620001ce9162000ff7565b50548351928116835260a01c1615156020820152f35b80fd5b828434620001e45780600319360112620001e4579080519182906003549182855260208095018093600384527fc2575a0e9e593c00f959f8c92f12db2869c3395a3b0502d05e2516446f71f85b90845b8181106200029657505050816200025091038262000f0e565b83519485948186019282875251809352850193925b8281106200027557505050500390f35b83516001600160a01b03168552869550938101939281019260010162000265565b82546001600160a01b03168452928801926001928301920162000237565b5050346200017857816003193601126200017857905490516001600160a01b039091168152602090f35b50503462000178576020806003193601126200013257620002fe62000f92565b916200030962001010565b6001600160a01b039283169262000322841515620010a5565b838552600283526200033b60ff838720541615620010f2565b8492859260038054945b85811062000382575b88886200035b896200113f565b7f7398de549412614f936085bf40b8de774cc79aa59eca1d141f732afa1d06ed5d8280a280f35b846200038e8262000fa9565b905490841b1c168952866001808652848b20908b918054925b838110620003d0575b50505050620003ca57620003c4906200107f565b62000345565b6200034e565b90919293508b89620003e3838562000ff7565b505416146200040257620003f7906200107f565b908a939291620003a7565b505091975050958638808080620003b0565b8334620001e45780600319360112620001e4576200043162001010565b80546001600160a01b03198116825581906001600160a01b03167f8be0079c531659141344cd1fd0a4f28419497f9722a3daafe3b4186f6b6457e08280a380f35b505034620001785760208060031936011262000132576200049262000f92565b916200049d62001010565b620004df8151620004ae8162000edb565b601b81527f417070726f76696e672070726f70657274792e2043616c6c65723a000000000084820152339062001248565b805191620004ed8362000edb565b620005178460119485815270283937b832b93a3c9030b2323932b9b99d60791b8482015262001248565b60018060a01b039262000555848754168451620005348162000edb565b600f81526e21b7b73a3930b1ba1037bbb732b91d60891b8582015262001248565b836003956200059b875486516200056c8162000edb565b601c81527f4e756d626572206f662070726f70657274792063726561746f72733a0000000087820152620011a0565b1693620005aa851515620010a5565b84875260028352620005c360ff858920541615620010f2565b8691875b8754811015620006fb5782620005dd8262000fa9565b9054908a1b1c1662000618818851620005f68162000edb565b8581527021b432b1b5b4b7339031b932b0ba37b91d60791b8982015262001248565b8952836001808752878b208b808a620006a1620006c88c620006b98754855195620006438762000edb565b600b87526a43726561746f722068617360a81b84880152805190620006688262000edb565b600a82526970726f7065727469657360b01b8583015251958694850197635970e08960e01b89526060602487015260848601906200103d565b9160448501526023198483030160648501526200103d565b03601f19810183528262000f0e565b51906a636f6e736f6c652e6c6f675afa508b825b62000747575b505050620006fb57620006f5906200107f565b620005c7565b5050506002929394506200070f906200113f565b838552528220805460ff191660011790557f471a6ffe019f8c983f020cef87372b7df53511fed02de5dc861b7fb8cc19d17f8280a280f35b9091928254821015620007f257506200079a8662000766838562000ff7565b5054168a51620007768162000edb565b601281527121b432b1b5b4b73390383937b832b93a3c9d60711b8b82015262001248565b8986620007a8838562000ff7565b50541614620007c757620007bd83916200107f565b87939291620006dc565b9195508591620007d79162000ff7565b50805460ff60a01b1916600160a01b179055388080620006e2565b92620006e2565b5090346200013257602091826003193601126200091c576001600160a01b0392836200082462000f92565b1685526001948582528381209384549367ffffffffffffffff8511620009095750928692868551926200085d838260051b018562000f0e565b8084528284018098865283862086915b838310620008bf575050505085519582870193838852518094528087019794915b8483106200089c5787890388f35b8551805182168a528401511515898501529781019794830194918601916200088e565b90888087819d9b95948860ff8f9a9f9d9b9c9d5191620008df8362000edb565b8754908116835260a01c16151583820152815201920192019250999799989398969594966200086d565b634e487b7160e01b835260419052602482fd5b8380fd5b508234620001e45760a0366003190112620001e45767ffffffffffffffff8235818111620001325762000957903690850162000f31565b936024803583811162000ed75762000973903690870162000f31565b6044803585811162000ed3576200098e903690890162000f31565b606490813587811162000ecf578a929190620009ae9036908c0162000f31565b91608435948851620009c08162000edb565b601d815260209d8e82017f4372656174696e672070726f70657274792077697468207469746c653a0000009052620009f891620011fc565b8851878e62000a078362000edb565b600c835282016b2232b9b1b934b83a34b7b71d60a11b905262000a2a91620011fc565b8851838e62000a398362000edb565b600983528201682637b1b0ba34b7b71d60b91b905262000a5991620011fc565b8851848e62000a688362000edb565b600a835282016924b6b0b3b2902aa9261d60b11b905262000a8991620011fc565b8851868e62000a988362000edb565b60068352820165283934b1b29d60d11b905262000ab591620011a0565b885162000ac28162000edb565b600781528d81016629b2b73232b91d60c91b90523362000ae29162001248565b84511562000e985786511562000e595782511562000e1a5783511562000ddb57851562000d9c575050865194611e6293848701948786108b87111762000d8a579262000b5e8e899897969462000b5062000b6c9562000b7b986200129d8d3960c08a5260c08a01906200103d565b91888303908901526200103d565b908582038b8701526200103d565b9083820360608501526200103d565b91608082015260a033910152039085f0801562000d805782516001600160a01b0391821694606082019081118282101762000d6e5762000bf29186918652602281527f437265617465642070726f706572747920746f6b656e206174206164647265738a82015261399d60f11b8682015262001248565b33855260019182885283862092845162000c0c8162000edb565b868152898101888152855468010000000000000000968782101562000d5c579062000c3c91858201815562000ff7565b92909262000d4b5751825491516001600160a81b03199092169086161790151560a01b60ff60a01b1617905560038054979889989195919391895b85811062000d13575b5088999a1562000cbd575b5050505050505051927fc52096134fa3ad0a31f783ae63444e22ff5a177dd5392e4cba144ea83605a984339180a38152f35b90919293809596979850101562000d025750508162000ce491879695949301845562000fa9565b81939154911b9133831b921b19161790558580808080808062000c8b565b634e487b7160e01b89526041905287fd5b8662000d1f8262000fa9565b9054908a1b1c16331462000d3e5762000d38906200107f565b62000c77565b5092995089928862000c80565b634e487b7160e01b8a52898b52848afd5b634e487b7160e01b8b5260418c52858bfd5b634e487b7160e01b8752604188528387fd5b82513d86823e3d90fd5b634e487b7160e01b8c5260418d52888cfd5b7f5072696365206d7573742062652067726561746572207468616e2030000000008c91601c8f8b908d519562461bcd60e51b8752860152840152820152fd5b7f496d6167652055524c2063616e6e6f7420626520656d707479000000000000008c9160198f8b908d519562461bcd60e51b8752860152840152820152fd5b7f4c6f636174696f6e2063616e6e6f7420626520656d70747900000000000000008c9160188f8b908d519562461bcd60e51b8752860152840152820152fd5b7f4465736372697074696f6e2063616e6e6f7420626520656d70747900000000008c91601b8f8b908d519562461bcd60e51b8752860152840152820152fd5b745469746c652063616e6e6f7420626520656d70747960581b8c9160158f8b908d519562461bcd60e51b8752860152840152820152fd5b8880fd5b8680fd5b8480fd5b6040810190811067ffffffffffffffff82111762000ef857604052565b634e487b7160e01b600052604160045260246000fd5b90601f8019910116810190811067ffffffffffffffff82111762000ef857604052565b81601f8201121562000f8d5780359067ffffffffffffffff821162000ef8576040519262000f6a601f8401601f19166020018562000f0e565b8284526020838301011162000f8d57816000926020809301838601378301015290565b600080fd5b600435906001600160a01b038216820362000f8d57565b60035481101562000fe15760036000527fc2575a0e9e593c00f959f8c92f12db2869c3395a3b0502d05e2516446f71f85b0190600090565b634e487b7160e01b600052603260045260246000fd5b805482101562000fe15760005260206000200190600090565b6000546001600160a01b031633036200102557565b60405163118cdaa760e01b8152336004820152602490fd5b919082519283825260005b8481106200106a575050826000602080949584010152601f8019910116010190565b60208183018101518483018201520162001048565b60001981146200108f5760010190565b634e487b7160e01b600052601160045260246000fd5b15620010ad57565b60405162461bcd60e51b815260206004820152601860248201527f496e76616c69642070726f7065727479206164647265737300000000000000006044820152606490fd5b15620010fa57565b60405162461bcd60e51b815260206004820152601960248201527f50726f706572747920616c726561647920617070726f766564000000000000006044820152606490fd5b156200114757565b60405162461bcd60e51b815260206004820152602b60248201527f50726f7065727479206e6f7420666f756e6420696e20616e792075736572277360448201526a2070726f7065727469657360a81b6064820152608490fd5b600091908291620011e96040518092620011d46020830195632d839cb360e21b87526040602485015260648401906200103d565b90604483015203601f19810183528262000f0e565b51906a636f6e736f6c652e6c6f675afa50565b60009190620006b9620011e98493604051928391620012356020840196634b5c427760e01b88526040602486015260648501906200103d565b838103602319016044850152906200103d565b600091908291620011e960405180926200127c602083019563319af33360e01b87526040602485015260648401906200103d565b6001600160a01b0391909116604483015203601f19810183528262000f0e56fe6080806040523462000f965762001e62803803809162000020828562000fd3565b8339810160c08282031262000f965781516001600160401b03811162000f9657816200004e9184016200101c565b60208301516001600160401b03811162000f965782620000709185016200101c565b60408401519091906001600160401b03811162000f965783620000959186016200101c565b606085015190936001600160401b03821162000f9657620000b89186016200101c565b608085015160a09095015192906001600160a01b038416840362000f9657604051620000e48162000f9b565b600e81526d283937b832b93a3c902a37b5b2b760911b6020820152604051906200010e8262000f9b565b6004825263050524f560e41b60208301528051906001600160401b038211620008d75760035490600182811c9216801562000f8b575b6020831014620008b65781601f84931162000f16575b50602090601f831160011462000e8b5760009262000e7f575b50508160011b916000199060031b1c1916176003555b8051906001600160401b038211620008d75760045490600182811c9216801562000e74575b6020831014620008b65781601f84931162000dff575b50602090601f831160011462000d705760009262000d64575b50508160011b916000199060031b1c1916176004555b6001600160a01b0384161562000d4b57600580546001600160a01b038681166001600160a01b031983168117909355167f8be0079c531659141344cd1fd0a4f28419497f9722a3daafe3b4186f6b6457e0600080a3600080620002bf620002e1604051620002618162000fb7565b602281527f4372656174696e672050726f7065727479546f6b656e2077697468207469746c602082015261329d60f11b6040820152620002d2604051938492634b5c427760e01b602085015260406024850152606484019062001077565b8281036023190160448401528962001077565b03601f19810183528262000fd3565b6020815191016a636f6e736f6c652e6c6f675afa50600080604051620003078162000f9b565b6006815265283934b1b29d60d11b60208201526040516200035c81620003476020820194632d839cb360e21b865260406024840152606483019062001077565b8c604483015203601f19810183528262000fd3565b51906a636f6e736f6c652e6c6f675afa506000806040516200037e8162000f9b565b600e81526d24b734ba34b0b61037bbb732b91d60911b6020820152604051620003e481620003c6602082019463319af33360e01b865260406024840152606483019062001077565b6001600160a01b038b16604483015203601f19810183528262000fd3565b51906a636f6e736f6c652e6c6f675afa508251801515908162000d3e575b501562000cf9578151801515908162000cec575b501562000ca7578451801515908162000c9a575b501562000c55578051801515908162000c48575b501562000c0357851562000bbe57604051916001600160401b0360c0840190811190841117620008d75760c0830160405283835260208301528460408301526060820152846080820152600160a0820152815160018060401b038111620008d757600654600181811c9116801562000bb3575b6020821014620008b657601f811162000b5e575b50806020601f821160011462000ae55760009162000ad9575b508160011b916000199060031b1c1916176006555b60208101518051906001600160401b038211620008d75760075490600182811c9216801562000ace575b6020831014620008b65781601f84931162000a6d575b50602090601f8311600114620009ef57600092620009e3575b50508160011b916000199060031b1c1916176007555b60408101518051906001600160401b038211620008d75760085490600182811c92168015620009d8575b6020831014620008b65781601f84931162000977575b50602090601f8311600114620008f957600092620008ed575b50508160011b916000199060031b1c1916176008555b60608101518051906001600160401b038211620008d757600954600181811c91168015620008cc575b6020821014620008b657601f81116200085d575b50602090601f8311600114620007df5760a093929160009183620007d3575b50508160011b916000199060031b1c1916176009555b6080810151600a550151151560ff8019600b5416911617600b5560025491683635c9adc5dea0000092838101809111620007bd576002556001600160a01b038116600081815260208181526040808320805488019055519586527f6a3469cad0792fe1fea0bc1ddba3dfba95b7e9bc169a5d391d283dbe2ea64e959662000705966200071494919391927fddf252ad1be2c89b69c2b068fc378daa952ba7f163c4a11628f55a4df523b3ef91a360405194859460608652606086019062001077565b90848203602086015262001077565b60408301959095526001600160a01b0316930390a26000806040516200073a8162000fb7565b602281527f50726f7065727479546f6b656e2063726561746564207375636365737366756c6020820152616c7960f01b60408201526040516200079c81620002d2602082019463104c13eb60e21b865260206024840152604483019062001077565b51906a636f6e736f6c652e6c6f675afa50604051610d4390816200109f8239f35b634e487b7160e01b600052601160045260246000fd5b0151905038806200062d565b6009600090815260008051602062001e22833981519152929190601f198516905b81811062000844575091600193918560a0979694106200082a575b505050811b0160095562000643565b015160001960f88460031b161c191690553880806200081b565b9293602060018192878601518155019501930162000800565b600960005260008051602062001e22833981519152601f840160051c81019160208510620008ab575b601f0160051c01905b8181106200089e57506200060e565b600081556001016200088f565b909150819062000886565b634e487b7160e01b600052602260045260246000fd5b90607f1690620005fa565b634e487b7160e01b600052604160045260246000fd5b015190503880620005bb565b60086000908152935060008051602062001e0283398151915291905b601f19841685106200095b576001945083601f1981161062000941575b505050811b01600855620005d1565b015160001960f88460031b161c1916905538808062000932565b8181015183556020948501946001909301929091019062000915565b600860005290915060008051602062001e02833981519152601f840160051c810160208510620009d0575b90849392915b601f830160051c82018110620009c0575050620005a2565b60008155859450600101620009a8565b5080620009a2565b91607f16916200058c565b0151905038806200054c565b60076000908152935060008051602062001de283398151915291905b601f198416851062000a51576001945083601f1981161062000a37575b505050811b0160075562000562565b015160001960f88460031b161c1916905538808062000a28565b8181015183556020948501946001909301929091019062000a0b565b600760005290915060008051602062001de2833981519152601f840160051c81016020851062000ac6575b90849392915b601f830160051c8201811062000ab657505062000533565b6000815585945060010162000a9e565b508062000a98565b91607f16916200051d565b905083015138620004de565b60066000908152925060008051602062001e42833981519152905b601f198316841062000b45576001935082601f1981161062000b2b575b5050811b01600655620004f3565b85015160001960f88460031b161c19169055388062000b1d565b8581015182556020938401936001909201910162000b00565b600660005260008051602062001e42833981519152601f830160051c81016020841062000bab575b601f830160051c8201811062000b9e575050620004c5565b6000815560010162000b86565b508062000b86565b90607f1690620004b1565b60405162461bcd60e51b815260206004820152601c60248201527f5072696365206d7573742062652067726561746572207468616e2030000000006044820152606490fd5b60405162461bcd60e51b815260206004820152601860248201527f496e76616c696420696d6167652055524c206c656e67746800000000000000006044820152606490fd5b606491501115386200043e565b60405162461bcd60e51b815260206004820152601760248201527f496e76616c6964206c6f636174696f6e206c656e6774680000000000000000006044820152606490fd5b601491501115386200042a565b60405162461bcd60e51b815260206004820152601a60248201527f496e76616c6964206465736372697074696f6e206c656e6774680000000000006044820152606490fd5b6032915011153862000416565b60405162461bcd60e51b815260206004820152601460248201527f496e76616c6964207469746c65206c656e6774680000000000000000000000006044820152606490fd5b6014915011153862000402565b604051631e4fbdf760e01b815260006004820152602490fd5b015190503880620001dd565b6004600090815293507f8a35acfbc15ff81a39ae7d344fd709f28e8600b4aa8c65c6b64bfe7fe36bd19b91905b601f198416851062000de3576001945083601f1981161062000dc9575b505050811b01600455620001f3565b015160001960f88460031b161c1916905538808062000dba565b8181015183556020948501946001909301929091019062000d9d565b60046000529091507f8a35acfbc15ff81a39ae7d344fd709f28e8600b4aa8c65c6b64bfe7fe36bd19b601f840160051c8101916020851062000e69575b90601f859493920160051c01905b81811062000e595750620001c4565b6000815584935060010162000e4a565b909150819062000e3c565b91607f1691620001ae565b01519050388062000173565b600360009081527fc2575a0e9e593c00f959f8c92f12db2869c3395a3b0502d05e2516446f71f85b9350601f198516905b81811062000efd575090846001959493921062000ee3575b505050811b0160035562000189565b015160001960f88460031b161c1916905538808062000ed4565b9293602060018192878601518155019501930162000ebc565b60036000529091507fc2575a0e9e593c00f959f8c92f12db2869c3395a3b0502d05e2516446f71f85b601f840160051c8101916020851062000f80575b90601f859493920160051c01905b81811062000f7057506200015a565b6000815584935060010162000f61565b909150819062000f53565b91607f169162000144565b600080fd5b604081019081106001600160401b03821117620008d757604052565b606081019081106001600160401b03821117620008d757604052565b601f909101601f19168101906001600160401b03821190821017620008d757604052565b60005b8381106200100b5750506000910152565b818101518382015260200162000ffa565b81601f8201121562000f965780516001600160401b038111620008d7576040519262001053601f8301601f19166020018562000fd3565b8184526020828401011162000f965762001074916020808501910162000ff7565b90565b90602091620010928151809281855285808601910162000ff7565b601f01601f191601019056fe6040608081526004908136101561001557600080fd5b600091823560e01c80627dc372146107a457806306fdde03146106c0578063095ea7b31461061757806318160ddd146105f857806323b872dd14610505578063313ce567146104e957806370a08231146104b2578063715018a6146104555780638d6cc56d146103e75780638da5cb5b146103be578063902d55a51461039a57806395d89b4114610275578063a1bb61701461023e578063a9059cbb1461020d578063d81bc271146101ba578063dd62ed3e1461016d5763f2fde38b146100db57600080fd5b34610169576020366003190112610169576100f4610bd2565b906100fd610c03565b6001600160a01b03918216928315610153575050600554826bffffffffffffffffffffffff60a01b821617600555167f8be0079c531659141344cd1fd0a4f28419497f9722a3daafe3b4186f6b6457e08380a380f35b51631e4fbdf760e01b8152908101849052602490fd5b8280fd5b5050346101b657806003193601126101b6578060209261018b610bd2565b610193610bed565b6001600160a01b0391821683526001865283832091168252845220549051908152f35b5080fd5b82843461020a578060031936011261020a5750600a5461020660ff600b54166101e16107f0565b926101ea6108f7565b946101f36109b7565b6101fb610a77565b915196879687610b77565b0390f35b80fd5b5050346101b657806003193601126101b65760209061023761022d610bd2565b6024359033610c2f565b5160018152f35b8382346101b65760203660031901126101b657358015158091036101b657610264610c03565b60ff8019600b5416911617600b5580f35b509190346101b657816003193601126101b6578051908290845491600183811c90808516948515610390575b602095868410811461037d57838852908690821561036157505060011461030d575b5050839003601f01601f191683019367ffffffffffffffff8511848610176102fa5750916102069184809452808452830190610b37565b634e487b7160e01b815260418652602490fd5b8787528492508691907f8a35acfbc15ff81a39ae7d344fd709f28e8600b4aa8c65c6b64bfe7fe36bd19b5b82841061034c5750505084010138806102c3565b80548885018601528694909301928101610338565b925093505060ff191682860152151560051b84010138806102c3565b634e487b7160e01b895260228a52602489fd5b91607f16916102a1565b5050346101b657816003193601126101b65760209051683635c9adc5dea000008152f35b5050346101b657816003193601126101b65760055490516001600160a01b039091168152602090f35b503461016957602036600319011261016957803591610404610c03565b8215610412575050600a5580f35b906020606492519162461bcd60e51b8352820152601c60248201527f5072696365206d7573742062652067726561746572207468616e2030000000006044820152fd5b833461020a578060031936011261020a5761046e610c03565b600580546001600160a01b0319811690915581906001600160a01b03167f8be0079c531659141344cd1fd0a4f28419497f9722a3daafe3b4186f6b6457e08280a380f35b5050346101b65760203660031901126101b65760209181906001600160a01b036104da610bd2565b16815280845220549051908152f35b5050346101b657816003193601126101b6576020905160128152f35b50823461020a57606036600319011261020a57610520610bd2565b610528610bed565b916044359360018060a01b038316808352600160205286832033845260205286832054916000198303610564575b602088610237898989610c2f565b8683106105cc5781156105b557331561059e5750825260016020908152868320338452815291869020908590039055829061023787610556565b8751634a1406b160e11b8152908101849052602490fd5b875163e602df0560e01b8152908101849052602490fd5b8751637dc7a0d960e11b8152339181019182526020820193909352604081018790528291506060010390fd5b5050346101b657816003193601126101b6576020906002549051908152f35b5034610169578160031936011261016957610630610bd2565b6024359033156106a9576001600160a01b031691821561069257508083602095338152600187528181208582528752205582519081527f8c5be1e5ebec7d5bd14f71427d1e84f3dd0314c0f7b2291e5b200ac8c7c3b925843392a35160018152f35b8351634a1406b160e11b8152908101859052602490fd5b835163e602df0560e01b8152808401869052602490fd5b509190346101b657816003193601126101b657805190829060035491600183811c9080851694851561079a575b602095868410811461037d578388529086908215610361575050600114610745575050839003601f01601f191683019367ffffffffffffffff8511848610176102fa5750916102069184809452808452830190610b37565b600387528492508691907fc2575a0e9e593c00f959f8c92f12db2869c3395a3b0502d05e2516446f71f85b5b8284106107855750505084010138806102c3565b80548885018601528694909301928101610771565b91607f16916106ed565b82843461020a578060031936011261020a57506107bf6107f0565b6102066107ca6108f7565b926107d36109b7565b6107db610a77565b600a549160ff600b5416935196879687610b77565b604051906000600654600181811c908083169283156108ed575b60209384841081146108d9578388529081156108bd5750600114610866575b505050829003601f01601f1916820167ffffffffffffffff81118382101761085057604052565b634e487b7160e01b600052604160045260246000fd5b60066000908152929350837ff652222313e28459528d920b65115c16c04f3efc82aaedc97be59f3f377c0d3f5b8385106108a95750505050830101388080610829565b805488860183015293019284908201610893565b60ff1916878501525050151560051b8401019050388080610829565b634e487b7160e01b86526022600452602486fd5b91607f169161080a565b604051906000600754600181811c908083169283156109ad575b60209384841081146108d9578388529081156108bd575060011461095657505050829003601f01601f1916820167ffffffffffffffff81118382101761085057604052565b60076000908152929350837fa66cc928b5edb82af9bd49922954155ab7b0942694bea4ce44661d9a8736c6885b8385106109995750505050830101388080610829565b805488860183015293019284908201610983565b91607f1691610911565b604051906000600854600181811c90808316928315610a6d575b60209384841081146108d9578388529081156108bd5750600114610a1657505050829003601f01601f1916820167ffffffffffffffff81118382101761085057604052565b60086000908152929350837ff3f7a9fe364faab93b216da50a3214154f22a0a2b415b23a84c8169e8b636ee35b838510610a595750505050830101388080610829565b805488860183015293019284908201610a43565b91607f16916109d1565b604051906000600954600181811c90808316928315610b2d575b60209384841081146108d9578388529081156108bd5750600114610ad657505050829003601f01601f1916820167ffffffffffffffff81118382101761085057604052565b60096000908152929350837f6e1540171b6c0c960b71a7020d9f60077f6af931a8bbf590da0223dacf75c7af5b838510610b195750505050830101388080610829565b805488860183015293019284908201610b03565b91607f1691610a91565b919082519283825260005b848110610b63575050826000602080949584010152601f8019910116010190565b602081830181015184830182015201610b42565b94969592610bb790610ba9610bc594610b9b60a0989560c08b5260c08b0190610b37565b9089820360208b0152610b37565b908782036040890152610b37565b908582036060870152610b37565b9460808401521515910152565b600435906001600160a01b0382168203610be857565b600080fd5b602435906001600160a01b0382168203610be857565b6005546001600160a01b03163303610c1757565b60405163118cdaa760e01b8152336004820152602490fd5b916001600160a01b03808416928315610cf45716928315610cdb5760009083825281602052604082205490838210610ca9575091604082827fddf252ad1be2c89b69c2b068fc378daa952ba7f163c4a11628f55a4df523b3ef958760209652828652038282205586815220818154019055604051908152a3565b60405163391434e360e21b81526001600160a01b03919091166004820152602481019190915260448101839052606490fd5b60405163ec442f0560e01b815260006004820152602490fd5b604051634b637e8f60e11b815260006004820152602490fdfea26469706673582212204101bcef1966a475fd87b9c6d34a815bd597fa252289d224c2f99eae69d8ec8564736f6c63430008140033a66cc928b5edb82af9bd49922954155ab7b0942694bea4ce44661d9a8736c688f3f7a9fe364faab93b216da50a3214154f22a0a2b415b23a84c8169e8b636ee36e1540171b6c0c960b71a7020d9f60077f6af931a8bbf590da0223dacf75c7aff652222313e28459528d920b65115c16c04f3efc82aaedc97be59f3f377c0d3fa264697066735822122008f358bd2abc39ac7abdb95f0f7b02abcc8067bc92291991b5b5358a8d5472d764736f6c63430008140033",
  "linkReferences": {},
  "deployedLinkReferences": {}
}