{
  "_format": "hh-sol-artifact-1",
  "contractName": "StakingFactory",
  "sourceName": "contracts/StakingFactory.sol",
  "abi": [
    {
      "inputs": [],
      "stateMutability": "nonpayable",
      "type": "constructor"
    },
    {
      "anonymous": false,
      "inputs": [
        {
          "indexed": false,
          "internalType": "address",
          "name": "previousAdmin",
          "type": "address"
        },
        {
          "indexed": false,
          "internalType": "address",
          "name": "newAdmin",
          "type": "address"
        }
      ],
      "name": "AdminChanged",
      "type": "event"
    },
    {
      "anonymous": false,
      "inputs": [
        {
          "indexed": true,
          "internalType": "address",
          "name": "beacon",
          "type": "address"
        }
      ],
      "name": "BeaconUpgraded",
      "type": "event"
    },
    {
      "anonymous": false,
      "inputs": [
        {
          "indexed": false,
          "internalType": "address",
          "name": "oldImpl",
          "type": "address"
        },
        {
          "indexed": false,
          "internalType": "address",
          "name": "newImpl",
          "type": "address"
        }
      ],
      "name": "ImplementationUpgraded",
      "type": "event"
    },
    {
      "anonymous": false,
      "inputs": [
        {
          "indexed": false,
          "internalType": "uint8",
          "name": "version",
          "type": "uint8"
        }
      ],
      "name": "Initialized",
      "type": "event"
    },
    {
      "anonymous": false,
      "inputs": [
        {
          "indexed": true,
          "internalType": "address",
          "name": "previousOwner",
          "type": "address"
        },
        {
          "indexed": true,
          "internalType": "address",
          "name": "newOwner",
          "type": "address"
        }
      ],
      "name": "OwnershipTransferred",
      "type": "event"
    },
    {
      "anonymous": false,
      "inputs": [
        {
          "indexed": true,
          "internalType": "address",
          "name": "stakingContract",
          "type": "address"
        },
        {
          "indexed": false,
          "internalType": "uint256",
          "name": "newRate",
          "type": "uint256"
        }
      ],
      "name": "RewardRateUpdated",
      "type": "event"
    },
    {
      "anonymous": false,
      "inputs": [
        {
          "indexed": true,
          "internalType": "address",
          "name": "propertyToken",
          "type": "address"
        },
        {
          "indexed": false,
          "internalType": "address",
          "name": "stakingContract",
          "type": "address"
        }
      ],
      "name": "StakingContractCreated",
      "type": "event"
    },
    {
      "anonymous": false,
      "inputs": [
        {
          "indexed": true,
          "internalType": "address",
          "name": "stakingContract",
          "type": "address"
        },
        {
          "indexed": false,
          "internalType": "uint256",
          "name": "amount",
          "type": "uint256"
        }
      ],
      "name": "StakingContractFunded",
      "type": "event"
    },
    {
      "anonymous": false,
      "inputs": [
        {
          "indexed": true,
          "internalType": "address",
          "name": "implementation",
          "type": "address"
        }
      ],
      "name": "Upgraded",
      "type": "event"
    },
    {
      "inputs": [
        {
          "internalType": "uint256",
          "name": "",
          "type": "uint256"
        }
      ],
      "name": "allStakingContracts",
      "outputs": [
        {
          "internalType": "address",
          "name": "",
          "type": "address"
        }
      ],
      "stateMutability": "view",
      "type": "function"
    },
    {
      "inputs": [
        {
          "internalType": "address",
          "name": "propertyToken",
          "type": "address"
        },
        {
          "internalType": "uint256",
          "name": "rewardRate",
          "type": "uint256"
        },
        {
          "internalType": "uint256",
          "name": "rewardsDuration",
          "type": "uint256"
        }
      ],
      "name": "createStakingContract",
      "outputs": [
        {
          "internalType": "address",
          "name": "",
          "type": "address"
        }
      ],
      "stateMutability": "nonpayable",
      "type": "function"
    },
    {
      "inputs": [],
      "name": "eurcToken",
      "outputs": [
        {
          "internalType": "contract IERC20",
          "name": "",
          "type": "address"
        }
      ],
      "stateMutability": "view",
      "type": "function"
    },
    {
      "inputs": [
        {
          "internalType": "address",
          "name": "propertyToken",
          "type": "address"
        },
        {
          "internalType": "uint256",
          "name": "amount",
          "type": "uint256"
        }
      ],
      "name": "fundStakingContract",
      "outputs": [],
      "stateMutability": "nonpayable",
      "type": "function"
    },
    {
      "inputs": [],
      "name": "getAllStakingContracts",
      "outputs": [
        {
          "internalType": "address[]",
          "name": "",
          "type": "address[]"
        }
      ],
      "stateMutability": "view",
      "type": "function"
    },
    {
      "inputs": [
        {
          "internalType": "address",
          "name": "propertyToken",
          "type": "address"
        }
      ],
      "name": "getStakingContracts",
      "outputs": [
        {
          "internalType": "address[]",
          "name": "",
          "type": "address[]"
        }
      ],
      "stateMutability": "view",
      "type": "function"
    },
    {
      "inputs": [
        {
          "internalType": "address",
          "name": "_eurcToken",
          "type": "address"
        }
      ],
      "name": "initialize",
      "outputs": [],
      "stateMutability": "nonpayable",
      "type": "function"
    },
    {
      "inputs": [],
      "name": "owner",
      "outputs": [
        {
          "internalType": "address",
          "name": "",
          "type": "address"
        }
      ],
      "stateMutability": "view",
      "type": "function"
    },
    {
      "inputs": [
        {
          "internalType": "address",
          "name": "",
          "type": "address"
        },
        {
          "internalType": "uint256",
          "name": "",
          "type": "uint256"
        }
      ],
      "name": "propertyStakingContracts",
      "outputs": [
        {
          "internalType": "address",
          "name": "",
          "type": "address"
        }
      ],
      "stateMutability": "view",
      "type": "function"
    },
    {
      "inputs": [],
      "name": "proxiableUUID",
      "outputs": [
        {
          "internalType": "bytes32",
          "name": "",
          "type": "bytes32"
        }
      ],
      "stateMutability": "view",
      "type": "function"
    },
    {
      "inputs": [],
      "name": "renounceOwnership",
      "outputs": [],
      "stateMutability": "nonpayable",
      "type": "function"
    },
    {
      "inputs": [
        {
          "internalType": "address",
          "name": "",
          "type": "address"
        }
      ],
      "name": "stakingContracts",
      "outputs": [
        {
          "internalType": "address",
          "name": "contractAddress",
          "type": "address"
        },
        {
          "internalType": "uint256",
          "name": "rewardRate",
          "type": "uint256"
        },
        {
          "internalType": "uint256",
          "name": "duration",
          "type": "uint256"
        },
        {
          "internalType": "bool",
          "name": "isActive",
          "type": "bool"
        }
      ],
      "stateMutability": "view",
      "type": "function"
    },
    {
      "inputs": [],
      "name": "stakingImplementation",
      "outputs": [
        {
          "internalType": "address",
          "name": "",
          "type": "address"
        }
      ],
      "stateMutability": "view",
      "type": "function"
    },
    {
      "inputs": [
        {
          "internalType": "address",
          "name": "newOwner",
          "type": "address"
        }
      ],
      "name": "transferOwnership",
      "outputs": [],
      "stateMutability": "nonpayable",
      "type": "function"
    },
    {
      "inputs": [
        {
          "internalType": "address",
          "name": "propertyToken",
          "type": "address"
        },
        {
          "internalType": "uint256",
          "name": "newRate",
          "type": "uint256"
        }
      ],
      "name": "updateRewardRate",
      "outputs": [],
      "stateMutability": "nonpayable",
      "type": "function"
    },
    {
      "inputs": [],
      "name": "upgradeImplementation",
      "outputs": [],
      "stateMutability": "nonpayable",
      "type": "function"
    },
    {
      "inputs": [
        {
          "internalType": "address",
          "name": "newImplementation",
          "type": "address"
        }
      ],
      "name": "upgradeTo",
      "outputs": [],
      "stateMutability": "nonpayable",
      "type": "function"
    },
    {
      "inputs": [
        {
          "internalType": "address",
          "name": "newImplementation",
          "type": "address"
        },
        {
          "internalType": "bytes",
          "name": "data",
          "type": "bytes"
        }
      ],
      "name": "upgradeToAndCall",
      "outputs": [],
      "stateMutability": "payable",
      "type": "function"
    }
  ],
  "bytecode": "0x60a06040523060805234801561001457600080fd5b5061001d610022565b6100e1565b600054610100900460ff161561008e5760405162461bcd60e51b815260206004820152602760248201527f496e697469616c697a61626c653a20636f6e747261637420697320696e697469604482015266616c697a696e6760c81b606482015260840160405180910390fd5b60005460ff908116146100df576000805460ff191660ff9081179091556040519081527f7f26b83ff96e1f2b6a682f133852f6798a09c465da95921460cefb38474024989060200160405180910390a15b565b6080516140f662000119600039600081816105b2015281816105f5015281816107f50152818161083801526108d401526140f66000f3fe6080604052600436106200011f5760003560e01c80638da5cb5b11620000a1578063c84f8776116200006c578063c84f87761462000356578063e19f8d24146200037b578063f0b3adee146200039d578063f2fde38b14620003c2578063f3b0f3b914620003e757600080fd5b80638da5cb5b14620002795780639bc181d21462000299578063b3a96ead1462000319578063c4d66de8146200033157600080fd5b80634f1ef28611620000ee5780634f1ef28614620001ca57806352d1902d14620001e1578063691216121462000208578063715018a6146200023c57806383ca7e1a146200025457600080fd5b806315d310241462000124578063271c507614620001665780633659cfe6146200018d578063466f3dc314620001b2575b600080fd5b3480156200013157600080fd5b5062000149620001433660046200198f565b62000409565b6040516001600160a01b0390911681526020015b60405180910390f35b3480156200017357600080fd5b506200018b62000185366004620019c6565b62000434565b005b3480156200019a57600080fd5b506200018b620001ac366004620019f3565b620005a8565b348015620001bf57600080fd5b506200018b62000693565b6200018b620001db36600462001a27565b620007eb565b348015620001ee57600080fd5b50620001f9620008c7565b6040519081526020016200015d565b3480156200021557600080fd5b506200022d62000227366004620019f3565b6200097d565b6040516200015d919062001af5565b3480156200024957600080fd5b506200018b620009f5565b3480156200026157600080fd5b506200014962000273366004620019c6565b62000a0d565b3480156200028657600080fd5b506033546001600160a01b031662000149565b348015620002a657600080fd5b50620002ec620002b8366004620019f3565b60cb6020526000908152604090208054600182015460028301546003909301546001600160a01b0390921692909160ff1684565b604080516001600160a01b039095168552602085019390935291830152151560608201526080016200015d565b3480156200032657600080fd5b506200022d62000a46565b3480156200033e57600080fd5b506200018b62000350366004620019f3565b62000aaa565b3480156200036357600080fd5b50620001496200037536600462001b44565b62000c9a565b3480156200038857600080fd5b5060ca5462000149906001600160a01b031681565b348015620003aa57600080fd5b506200018b620003bc366004620019c6565b62001048565b348015620003cf57600080fd5b506200018b620003e1366004620019f3565b62001195565b348015620003f457600080fd5b5060c95462000149906001600160a01b031681565b60cd81815481106200041a57600080fd5b6000918252602090912001546001600160a01b0316905081565b600081116200048a5760405162461bcd60e51b815260206004820152601d60248201527f416d6f756e74206d7573742062652067726561746572207468616e203000000060448201526064015b60405180910390fd5b6001600160a01b038216600090815260cb602052604090206003015460ff16620004c85760405162461bcd60e51b8152600401620004819062001b7a565b6001600160a01b03808316600090815260cb60209081526040918290208251608081018452815490941680855260018201549285019290925260028101549284019290925260039091015460ff16151560608301526200053c5760405162461bcd60e51b8152600401620004819062001bc9565b805160c9546200055b916001600160a01b039091169033908562001211565b80600001516001600160a01b03167f97f1a2251abd4986c60ccb33eade528da8e84cf6f3b7bd7d5e1b09d746b97557836040516200059b91815260200190565b60405180910390a2505050565b6001600160a01b037f0000000000000000000000000000000000000000000000000000000000000000163003620005f35760405162461bcd60e51b8152600401620004819062001c11565b7f00000000000000000000000000000000000000000000000000000000000000006001600160a01b03166200063e6000805160206200407a833981519152546001600160a01b031690565b6001600160a01b031614620006675760405162461bcd60e51b8152600401620004819062001c5d565b620006728162001273565b6040805160008082526020820190925262000690918391906200127d565b50565b6200069d620013fa565b60ca546040516001600160a01b0390911690600090620006bd9062001973565b604051809103906000f080158015620006da573d6000803e3d6000fd5b5060ca80546001600160a01b0319166001600160a01b038316179055905060005b60cd54811015620007a257600060cd82815481106200071e576200071e62001ca9565b600091825260209091200154604051631b2ce7f360e11b81526001600160a01b03858116600483015290911691508190633659cfe690602401600060405180830381600087803b1580156200077257600080fd5b505af115801562000787573d6000803e3d6000fd5b50505050508080620007999062001cbf565b915050620006fb565b50604080516001600160a01b038085168252831660208201527f1a5ca99a64512489fd9455e8da426740174107a69292fca0a8b80b08f6f6789291015b60405180910390a15050565b6001600160a01b037f0000000000000000000000000000000000000000000000000000000000000000163003620008365760405162461bcd60e51b8152600401620004819062001c11565b7f00000000000000000000000000000000000000000000000000000000000000006001600160a01b0316620008816000805160206200407a833981519152546001600160a01b031690565b6001600160a01b031614620008aa5760405162461bcd60e51b8152600401620004819062001c5d565b620008b58262001273565b620008c3828260016200127d565b5050565b6000306001600160a01b037f00000000000000000000000000000000000000000000000000000000000000001614620009695760405162461bcd60e51b815260206004820152603860248201527f555550535570677261646561626c653a206d757374206e6f742062652063616c60448201527f6c6564207468726f7567682064656c656761746563616c6c0000000000000000606482015260840162000481565b506000805160206200407a83398151915290565b6001600160a01b038116600090815260cc6020908152604091829020805483518184028101840190945280845260609392830182828015620009e957602002820191906000526020600020905b81546001600160a01b03168152600190910190602001808311620009ca575b50505050509050919050565b620009ff620013fa565b62000a0b600062001456565b565b60cc602052816000526040600020818154811062000a2a57600080fd5b6000918252602090912001546001600160a01b03169150829050565b606060cd80548060200260200160405190810160405280929190818152602001828054801562000aa057602002820191906000526020600020905b81546001600160a01b0316815260019091019060200180831162000a81575b5050505050905090565b600054610100900460ff161580801562000acb5750600054600160ff909116105b8062000ae75750303b15801562000ae7575060005460ff166001145b62000b4c5760405162461bcd60e51b815260206004820152602e60248201527f496e697469616c697a61626c653a20636f6e747261637420697320616c72656160448201526d191e481a5b9a5d1a585b1a5e995960921b606482015260840162000481565b6000805460ff19166001179055801562000b70576000805461ff0019166101001790555b6001600160a01b03821662000bdb5760405162461bcd60e51b815260206004820152602a60248201527f5374616b696e67466163746f72793a204555524320746f6b656e206973207a65604482015269726f206164647265737360b01b606482015260840162000481565b62000be5620014a8565b62000bef620014dc565b60c980546001600160a01b0319166001600160a01b03841617905560405162000c189062001973565b604051809103906000f08015801562000c35573d6000803e3d6000fd5b5060ca80546001600160a01b0319166001600160a01b03929092169190911790558015620008c3576000805461ff0019169055604051600181527f7f26b83ff96e1f2b6a682f133852f6798a09c465da95921460cefb384740249890602001620007df565b600062000ca6620013fa565b6001600160a01b03841662000d155760405162461bcd60e51b815260206004820152602e60248201527f5374616b696e67466163746f72793a2070726f706572747920746f6b656e206960448201526d73207a65726f206164647265737360901b606482015260840162000481565b6001600160a01b038416600090815260cb602052604090206003015460ff161562000db95760405162461bcd60e51b815260206004820152604760248201527f5374616b696e67466163746f72793a207374616b696e6720636f6e747261637460448201527f20616c72656164792065786973747320666f7220746869732070726f706572746064820152663c903a37b5b2b760c91b608482015260a40162000481565b6000831162000ddc5760405162461bcd60e51b8152600401620004819062001ce7565b60ca546001600160a01b031662000e455760405162461bcd60e51b815260206004820152602660248201527f5374616b696e67466163746f72793a20696d706c656d656e746174696f6e206e6044820152651bdd081cd95d60d21b606482015260840162000481565b60c954604080516001600160a01b0387811660248301529283166044820152606480820186905282518083039091018152608490910182526020810180516001600160e01b03166305e52ecf60e21b17905260ca54915190926000921690839062000eb09062001981565b62000ebd92919062001d8d565b604051809103906000f08015801562000eda573d6000803e3d6000fd5b50604080516080810182526001600160a01b0383811680835260208084018b81528486018b81526001606087018181528f8716600090815260cb8652898120985189546001600160a01b0319908116919099161789559351888301559151600288015590516003909601805460ff19169615159690961790955560cc825285812080548087018255908252918120909101805484168317905560cd8054948501815590527f83978b4c69c48dd978ab43fe30f077615294f938fb7f936d9eb340e51ea7db2e9092018054909116821790559051634041ef4160e01b81526004810188905291925090634041ef4190602401600060405180830381600087803b15801562000fe657600080fd5b505af115801562000ffb573d6000803e3d6000fd5b50506040516001600160a01b038481168252891692507f91109adb0c706a3e7b0129c23f3cc4a5aa11d8be5fda301f8364359458ea99ae915060200160405180910390a295945050505050565b62001052620013fa565b6001600160a01b038216600090815260cb602052604090206003015460ff16620010905760405162461bcd60e51b8152600401620004819062001b7a565b60008111620010b35760405162461bcd60e51b8152600401620004819062001ce7565b6001600160a01b03808316600090815260cb602052604090208054909116620010f05760405162461bcd60e51b8152600401620004819062001bc9565b600181018290558054604051634041ef4160e01b8152600481018490526001600160a01b0390911690634041ef4190602401600060405180830381600087803b1580156200113d57600080fd5b505af115801562001152573d6000803e3d6000fd5b505082546040518581526001600160a01b0390911692507f9581ad17b8550e1bb81ad2e2da42cd0dcc395d9f5012a35daeffbd670baecbbf91506020016200059b565b6200119f620013fa565b6001600160a01b038116620012065760405162461bcd60e51b815260206004820152602660248201527f4f776e61626c653a206e6577206f776e657220697320746865207a65726f206160448201526564647265737360d01b606482015260840162000481565b620006908162001456565b604080516001600160a01b0385811660248301528416604482015260648082018490528251808303909101815260849091019091526020810180516001600160e01b03166323b872dd60e01b1790526200126d90859062001506565b50505050565b62000690620013fa565b7f4910fdfa16fed3260ed0e7147f7cc6da11a60208b5b9406d12a635614ffd91435460ff1615620012b857620012b383620015e2565b505050565b826001600160a01b03166352d1902d6040518163ffffffff1660e01b8152600401602060405180830381865afa92505050801562001315575060408051601f3d908101601f19168201909252620013129181019062001db3565b60015b6200137a5760405162461bcd60e51b815260206004820152602e60248201527f45524331393637557067726164653a206e657720696d706c656d656e7461746960448201526d6f6e206973206e6f74205555505360901b606482015260840162000481565b6000805160206200407a8339815191528114620013ec5760405162461bcd60e51b815260206004820152602960248201527f45524331393637557067726164653a20756e737570706f727465642070726f786044820152681a58589b195555525160ba1b606482015260840162000481565b50620012b383838362001681565b6033546001600160a01b0316331462000a0b5760405162461bcd60e51b815260206004820181905260248201527f4f776e61626c653a2063616c6c6572206973206e6f7420746865206f776e6572604482015260640162000481565b603380546001600160a01b038381166001600160a01b0319831681179093556040519116919082907f8be0079c531659141344cd1fd0a4f28419497f9722a3daafe3b4186f6b6457e090600090a35050565b600054610100900460ff16620014d25760405162461bcd60e51b8152600401620004819062001dcd565b62000a0b620016ac565b600054610100900460ff1662000a0b5760405162461bcd60e51b8152600401620004819062001dcd565b60006200155d826040518060400160405280602081526020017f5361666545524332303a206c6f772d6c6576656c2063616c6c206661696c6564815250856001600160a01b0316620016e19092919063ffffffff16565b90508051600014806200158157508080602001905181019062001581919062001e18565b620012b35760405162461bcd60e51b815260206004820152602a60248201527f5361666545524332303a204552433230206f7065726174696f6e20646964206e6044820152691bdd081cdd58d8d9595960b21b606482015260840162000481565b6001600160a01b0381163b620016515760405162461bcd60e51b815260206004820152602d60248201527f455243313936373a206e657720696d706c656d656e746174696f6e206973206e60448201526c1bdd08184818dbdb9d1c9858dd609a1b606482015260840162000481565b6000805160206200407a83398151915280546001600160a01b0319166001600160a01b0392909216919091179055565b6200168c83620016fa565b6000825111806200169a5750805b15620012b3576200126d83836200173c565b600054610100900460ff16620016d65760405162461bcd60e51b8152600401620004819062001dcd565b62000a0b3362001456565b6060620016f284846000856200176b565b949350505050565b6200170581620015e2565b6040516001600160a01b038216907fbc7cd75a20ee27fd9adebab32041f755214dbc6bffa90cc0225b39da2e5c2d3b90600090a250565b60606200176483836040518060600160405280602781526020016200409a602791396200184e565b9392505050565b606082471015620017ce5760405162461bcd60e51b815260206004820152602660248201527f416464726573733a20696e73756666696369656e742062616c616e636520666f6044820152651c8818d85b1b60d21b606482015260840162000481565b600080866001600160a01b03168587604051620017ec919062001e3c565b60006040518083038185875af1925050503d80600081146200182b576040519150601f19603f3d011682016040523d82523d6000602084013e62001830565b606091505b50915091506200184387838387620018cc565b979650505050505050565b6060600080856001600160a01b0316856040516200186d919062001e3c565b600060405180830381855af49150503d8060008114620018aa576040519150601f19603f3d011682016040523d82523d6000602084013e620018af565b606091505b5091509150620018c286838387620018cc565b9695505050505050565b606083156200194057825160000362001938576001600160a01b0385163b620019385760405162461bcd60e51b815260206004820152601d60248201527f416464726573733a2063616c6c20746f206e6f6e2d636f6e7472616374000000604482015260640162000481565b5081620016f2565b620016f28383815115620019575781518083602001fd5b8060405162461bcd60e51b815260040162000481919062001e5a565b611d298062001e7083390190565b6104e18062003b9983390190565b600060208284031215620019a257600080fd5b5035919050565b80356001600160a01b0381168114620019c157600080fd5b919050565b60008060408385031215620019da57600080fd5b620019e583620019a9565b946020939093013593505050565b60006020828403121562001a0657600080fd5b6200176482620019a9565b634e487b7160e01b600052604160045260246000fd5b6000806040838503121562001a3b57600080fd5b62001a4683620019a9565b9150602083013567ffffffffffffffff8082111562001a6457600080fd5b818501915085601f83011262001a7957600080fd5b81358181111562001a8e5762001a8e62001a11565b604051601f8201601f19908116603f0116810190838211818310171562001ab95762001ab962001a11565b8160405282815288602084870101111562001ad357600080fd5b8260208601602083013760006020848301015280955050505050509250929050565b6020808252825182820181905260009190848201906040850190845b8181101562001b385783516001600160a01b03168352928401929184019160010162001b11565b50909695505050505050565b60008060006060848603121562001b5a57600080fd5b62001b6584620019a9565b95602085013595506040909401359392505050565b6020808252602f908201527f5374616b696e67466163746f72793a207374616b696e6720636f6e747261637460408201526e08191bd95cc81b9bdd08195e1a5cdd608a1b606082015260800190565b60208082526028908201527f5374616b696e67466163746f72793a20696e76616c6964207374616b696e672060408201526718dbdb9d1c9858dd60c21b606082015260800190565b6020808252602c908201527f46756e6374696f6e206d7573742062652063616c6c6564207468726f7567682060408201526b19195b1959d85d1958d85b1b60a21b606082015260800190565b6020808252602c908201527f46756e6374696f6e206d7573742062652063616c6c6564207468726f7567682060408201526b6163746976652070726f787960a01b606082015260800190565b634e487b7160e01b600052603260045260246000fd5b60006001820162001ce057634e487b7160e01b600052601160045260246000fd5b5060010190565b60208082526032908201527f5374616b696e67466163746f72793a207265776172642072617465206d75737460408201527102062652067726561746572207468616e20360741b606082015260800190565b60005b8381101562001d5657818101518382015260200162001d3c565b50506000910152565b6000815180845262001d7981602086016020860162001d39565b601f01601f19169290920160200192915050565b6001600160a01b0383168152604060208201819052600090620016f29083018462001d5f565b60006020828403121562001dc657600080fd5b5051919050565b6020808252602b908201527f496e697469616c697a61626c653a20636f6e7472616374206973206e6f74206960408201526a6e697469616c697a696e6760a81b606082015260800190565b60006020828403121562001e2b57600080fd5b815180151581146200176457600080fd5b6000825162001e5081846020870162001d39565b9190910192915050565b60208152600062001764602083018462001d5f56fe60a06040523060805234801561001457600080fd5b5061001d610022565b6100e1565b600054610100900460ff161561008e5760405162461bcd60e51b815260206004820152602760248201527f496e697469616c697a61626c653a20636f6e747261637420697320696e697469604482015266616c697a696e6760c81b606482015260840160405180910390fd5b60005460ff908116146100df576000805460ff191660ff9081179091556040519081527f7f26b83ff96e1f2b6a682f133852f6798a09c465da95921460cefb38474024989060200160405180910390a15b565b608051611c11610118600039600081816109180152818161095801528181610c3a01528181610c7a0152610d0d0152611c116000f3fe60806040526004361061019b5760003560e01c8063715018a6116100ec578063a694fc3a1161008a578063df136d6511610064578063df136d6514610464578063f2fde38b1461047a578063f6be71d11461049a578063f7c618c1146104ba57600080fd5b8063a694fc3a1461040f578063c45a01551461042f578063cd3daf9d1461044f57600080fd5b80637b0a47ee116100c65780637b0a47ee1461039957806380faa57d146103af5780638b876347146103c45780638da5cb5b146103f157600080fd5b8063715018a61461033657806372f702f31461034b5780637519ab501461038357600080fd5b80633659cfe6116101595780634f1ef286116101335780634f1ef286146102c257806352d1902d146102d557806367d3b488146102ea57806370a082311461030057600080fd5b80633659cfe61461026d5780633d18b9121461028d5780634041ef41146102a257600080fd5b80628cc262146101a05780630700037d146101d35780630fb5a6b4146102005780631794bb3c1461021657806318160ddd146102385780632e1a7d4d1461024d575b600080fd5b3480156101ac57600080fd5b506101c06101bb366004611846565b6104da565b6040519081526020015b60405180910390f35b3480156101df57600080fd5b506101c06101ee366004611846565b60d26020526000908152604090205481565b34801561020c57600080fd5b506101c060cc5481565b34801561022257600080fd5b50610236610231366004611861565b610557565b005b34801561024457600080fd5b5060d3546101c0565b34801561025957600080fd5b5061023661026836600461189d565b6107c9565b34801561027957600080fd5b50610236610288366004611846565b61090e565b34801561029957600080fd5b506102366109ed565b3480156102ae57600080fd5b506102366102bd36600461189d565b610af8565b6102366102d03660046118cc565b610c30565b3480156102e157600080fd5b506101c0610d00565b3480156102f657600080fd5b506101c060cd5481565b34801561030c57600080fd5b506101c061031b366004611846565b6001600160a01b0316600090815260d4602052604090205490565b34801561034257600080fd5b50610236610db3565b34801561035757600080fd5b5060c95461036b906001600160a01b031681565b6040516001600160a01b0390911681526020016101ca565b34801561038f57600080fd5b506101c060ce5481565b3480156103a557600080fd5b506101c060cf5481565b3480156103bb57600080fd5b506101c0610dc7565b3480156103d057600080fd5b506101c06103df366004611846565b60d16020526000908152604090205481565b3480156103fd57600080fd5b506033546001600160a01b031661036b565b34801561041b57600080fd5b5061023661042a36600461189d565b610dda565b34801561043b57600080fd5b5060cb5461036b906001600160a01b031681565b34801561045b57600080fd5b506101c0610f54565b34801561047057600080fd5b506101c060d05481565b34801561048657600080fd5b50610236610495366004611846565b610fb5565b3480156104a657600080fd5b506102366104b536600461189d565b61102b565b3480156104c657600080fd5b5060ca5461036b906001600160a01b031681565b6001600160a01b038116600090815260d2602090815260408083205460d1909252822054670de0b6b3a764000090610510610f54565b61051a91906119a4565b6001600160a01b038516600090815260d4602052604090205461053d91906119b7565b61054791906119ce565b61055191906119f0565b92915050565b600054610100900460ff16158080156105775750600054600160ff909116105b806105915750303b158015610591575060005460ff166001145b6105f95760405162461bcd60e51b815260206004820152602e60248201527f496e697469616c697a61626c653a20636f6e747261637420697320616c72656160448201526d191e481a5b9a5d1a585b1a5e995960921b60648201526084015b60405180910390fd5b6000805460ff19166001179055801561061c576000805461ff0019166101001790555b6001600160a01b03841661067c5760405162461bcd60e51b815260206004820152602160248201527f5374616b696e6720746f6b656e20616464726573732063616e6e6f74206265206044820152600360fc1b60648201526084016105f0565b6001600160a01b0383166106d25760405162461bcd60e51b815260206004820181905260248201527f52657761726420746f6b656e20616464726573732063616e6e6f74206265203060448201526064016105f0565b600082116107195760405162461bcd60e51b815260206004820152601460248201527304475726174696f6e206d757374206265203e20360641b60448201526064016105f0565b61072161109e565b6107296110cd565b60c980546001600160a01b038087166001600160a01b03199283161790925560ca80549286169282169290921790915560cc83905560cb8054909116331790554260ce81905561077a9083906119f0565b60cd5580156107c3576000805461ff0019169055604051600181527f7f26b83ff96e1f2b6a682f133852f6798a09c465da95921460cefb38474024989060200160405180910390a15b50505050565b60d55460ff16156107ed576040516345f5ce8b60e11b815260040160405180910390fd5b60d5805460ff1916600117905533610803610f54565b60d05561080e610dc7565b60ce556001600160a01b0381161561085557610829816104da565b6001600160a01b038216600090815260d2602090815260408083209390935560d05460d1909152919020555b816000036108765760405163162908e360e11b815260040160405180910390fd5b33600090815260d46020526040812080548492906108959084906119a4565b925050819055508160d360008282546108ae91906119a4565b909155505060c9546108ca906001600160a01b031633846110f4565b60405182815233907f7084f5476618d8e60b11ef0d7d3f06914655adb8793e28ff7f018d4c76d505d5906020015b60405180910390a2505060d5805460ff19169055565b6001600160a01b037f00000000000000000000000000000000000000000000000000000000000000001630036109565760405162461bcd60e51b81526004016105f090611a03565b7f00000000000000000000000000000000000000000000000000000000000000006001600160a01b031661099f600080516020611b95833981519152546001600160a01b031690565b6001600160a01b0316146109c55760405162461bcd60e51b81526004016105f090611a4f565b6109ce8161115c565b604080516000808252602082019092526109ea9183919061118f565b50565b60d55460ff1615610a11576040516345f5ce8b60e11b815260040160405180910390fd5b60d5805460ff1916600117905533610a27610f54565b60d055610a32610dc7565b60ce556001600160a01b03811615610a7957610a4d816104da565b6001600160a01b038216600090815260d2602090815260408083209390935560d05460d1909152919020555b33600090815260d260205260409020548015610aea5733600081815260d2602052604081205560ca54610ab8916001600160a01b0390911690836110f4565b60405181815233907fe2403640ba68fed3a2f88b7557551d1993f84b99bb10ff833f0cf8db0c5e0486906020016108f8565b505060d5805460ff19169055565b60cb546001600160a01b03163314610b2357604051630636a15760e11b815260040160405180910390fd5b6000610b2d610f54565b60d055610b38610dc7565b60ce556001600160a01b03811615610b7f57610b53816104da565b6001600160a01b038216600090815260d2602090815260408083209390935560d05460d1909152919020555b81600003610ba05760405163162908e360e11b815260040160405180910390fd5b60cf82905560cc54610bb290426119f0565b60cd554260ce556040518281527f41d466ebd06fb97e7786086ac8b69b7eb7da798592036251291d34e9791cde019060200160405180910390a17fde88a922e0d3b88b24e9623efeb464919c6bf9f66857a65e2bfcf2ce87a9433d60cc5483610c1b91906119b7565b60405190815260200160405180910390a15050565b6001600160a01b037f0000000000000000000000000000000000000000000000000000000000000000163003610c785760405162461bcd60e51b81526004016105f090611a03565b7f00000000000000000000000000000000000000000000000000000000000000006001600160a01b0316610cc1600080516020611b95833981519152546001600160a01b031690565b6001600160a01b031614610ce75760405162461bcd60e51b81526004016105f090611a4f565b610cf08261115c565b610cfc8282600161118f565b5050565b6000306001600160a01b037f00000000000000000000000000000000000000000000000000000000000000001614610da05760405162461bcd60e51b815260206004820152603860248201527f555550535570677261646561626c653a206d757374206e6f742062652063616c60448201527f6c6564207468726f7567682064656c656761746563616c6c000000000000000060648201526084016105f0565b50600080516020611b9583398151915290565b610dbb6112fa565b610dc56000611354565b565b6000610dd560cd54426113a6565b905090565b60d55460ff1615610dfe576040516345f5ce8b60e11b815260040160405180910390fd5b60d5805460ff1916600117905533610e14610f54565b60d055610e1f610dc7565b60ce556001600160a01b03811615610e6657610e3a816104da565b6001600160a01b038216600090815260d2602090815260408083209390935560d05460d1909152919020555b60cd54421115610e89576040516326e904fb60e21b815260040160405180910390fd5b60cf54600003610eac576040516333afbfa160e11b815260040160405180910390fd5b81600003610ecd5760405163162908e360e11b815260040160405180910390fd5b60c954610ee5906001600160a01b03163330856113bf565b33600090815260d4602052604081208054849290610f049084906119f0565b925050819055508160d36000828254610f1d91906119f0565b909155505060405182815233907f9e71bc8eea02a63969f509818f2dafb9254532904319f9dbda79b67bd34a5f3d906020016108f8565b600060d354600003610f67575060d05490565b60d35460cf5460ce54610f78610dc7565b610f8291906119a4565b610f8c91906119b7565b610f9e90670de0b6b3a76400006119b7565b610fa891906119ce565b60d054610dd591906119f0565b610fbd6112fa565b6001600160a01b0381166110225760405162461bcd60e51b815260206004820152602660248201527f4f776e61626c653a206e6577206f776e657220697320746865207a65726f206160448201526564647265737360d01b60648201526084016105f0565b6109ea81611354565b60cb546001600160a01b0316331461105657604051630636a15760e11b815260040160405180910390fd5b806000036110775760405163162908e360e11b815260040160405180910390fd5b4260cd54106110995760405163db44346960e01b815260040160405180910390fd5b60cc55565b600054610100900460ff166110c55760405162461bcd60e51b81526004016105f090611a9b565b610dc56113f7565b600054610100900460ff16610dc55760405162461bcd60e51b81526004016105f090611a9b565b6040516001600160a01b03831660248201526044810182905261115790849063a9059cbb60e01b906064015b60408051601f198184030181529190526020810180516001600160e01b03166001600160e01b031990931692909217909152611427565b505050565b6111646112fa565b60cb546001600160a01b031633146109ea57604051630636a15760e11b815260040160405180910390fd5b7f4910fdfa16fed3260ed0e7147f7cc6da11a60208b5b9406d12a635614ffd91435460ff16156111c257611157836114fc565b826001600160a01b03166352d1902d6040518163ffffffff1660e01b8152600401602060405180830381865afa92505050801561121c575060408051601f3d908101601f1916820190925261121991810190611ae6565b60015b61127f5760405162461bcd60e51b815260206004820152602e60248201527f45524331393637557067726164653a206e657720696d706c656d656e7461746960448201526d6f6e206973206e6f74205555505360901b60648201526084016105f0565b600080516020611b9583398151915281146112ee5760405162461bcd60e51b815260206004820152602960248201527f45524331393637557067726164653a20756e737570706f727465642070726f786044820152681a58589b195555525160ba1b60648201526084016105f0565b50611157838383611598565b6033546001600160a01b03163314610dc55760405162461bcd60e51b815260206004820181905260248201527f4f776e61626c653a2063616c6c6572206973206e6f7420746865206f776e657260448201526064016105f0565b603380546001600160a01b038381166001600160a01b0319831681179093556040519116919082907f8be0079c531659141344cd1fd0a4f28419497f9722a3daafe3b4186f6b6457e090600090a35050565b6000818311156113b657816113b8565b825b9392505050565b6040516001600160a01b03808516602483015283166044820152606481018290526107c39085906323b872dd60e01b90608401611120565b600054610100900460ff1661141e5760405162461bcd60e51b81526004016105f090611a9b565b610dc533611354565b600061147c826040518060400160405280602081526020017f5361666545524332303a206c6f772d6c6576656c2063616c6c206661696c6564815250856001600160a01b03166115bd9092919063ffffffff16565b905080516000148061149d57508080602001905181019061149d9190611aff565b6111575760405162461bcd60e51b815260206004820152602a60248201527f5361666545524332303a204552433230206f7065726174696f6e20646964206e6044820152691bdd081cdd58d8d9595960b21b60648201526084016105f0565b6001600160a01b0381163b6115695760405162461bcd60e51b815260206004820152602d60248201527f455243313936373a206e657720696d706c656d656e746174696f6e206973206e60448201526c1bdd08184818dbdb9d1c9858dd609a1b60648201526084016105f0565b600080516020611b9583398151915280546001600160a01b0319166001600160a01b0392909216919091179055565b6115a1836115d4565b6000825111806115ae5750805b15611157576107c38383611614565b60606115cc8484600085611639565b949350505050565b6115dd816114fc565b6040516001600160a01b038216907fbc7cd75a20ee27fd9adebab32041f755214dbc6bffa90cc0225b39da2e5c2d3b90600090a250565b60606113b88383604051806060016040528060278152602001611bb560279139611714565b60608247101561169a5760405162461bcd60e51b815260206004820152602660248201527f416464726573733a20696e73756666696369656e742062616c616e636520666f6044820152651c8818d85b1b60d21b60648201526084016105f0565b600080866001600160a01b031685876040516116b69190611b45565b60006040518083038185875af1925050503d80600081146116f3576040519150601f19603f3d011682016040523d82523d6000602084013e6116f8565b606091505b50915091506117098783838761178c565b979650505050505050565b6060600080856001600160a01b0316856040516117319190611b45565b600060405180830381855af49150503d806000811461176c576040519150601f19603f3d011682016040523d82523d6000602084013e611771565b606091505b50915091506117828683838761178c565b9695505050505050565b606083156117fb5782516000036117f4576001600160a01b0385163b6117f45760405162461bcd60e51b815260206004820152601d60248201527f416464726573733a2063616c6c20746f206e6f6e2d636f6e747261637400000060448201526064016105f0565b50816115cc565b6115cc83838151156118105781518083602001fd5b8060405162461bcd60e51b81526004016105f09190611b61565b80356001600160a01b038116811461184157600080fd5b919050565b60006020828403121561185857600080fd5b6113b88261182a565b60008060006060848603121561187657600080fd5b61187f8461182a565b925061188d6020850161182a565b9150604084013590509250925092565b6000602082840312156118af57600080fd5b5035919050565b634e487b7160e01b600052604160045260246000fd5b600080604083850312156118df57600080fd5b6118e88361182a565b9150602083013567ffffffffffffffff8082111561190557600080fd5b818501915085601f83011261191957600080fd5b81358181111561192b5761192b6118b6565b604051601f8201601f19908116603f01168101908382118183101715611953576119536118b6565b8160405282815288602084870101111561196c57600080fd5b8260208601602083013760006020848301015280955050505050509250929050565b634e487b7160e01b600052601160045260246000fd5b818103818111156105515761055161198e565b80820281158282048414176105515761055161198e565b6000826119eb57634e487b7160e01b600052601260045260246000fd5b500490565b808201808211156105515761055161198e565b6020808252602c908201527f46756e6374696f6e206d7573742062652063616c6c6564207468726f7567682060408201526b19195b1959d85d1958d85b1b60a21b606082015260800190565b6020808252602c908201527f46756e6374696f6e206d7573742062652063616c6c6564207468726f7567682060408201526b6163746976652070726f787960a01b606082015260800190565b6020808252602b908201527f496e697469616c697a61626c653a20636f6e7472616374206973206e6f74206960408201526a6e697469616c697a696e6760a81b606082015260800190565b600060208284031215611af857600080fd5b5051919050565b600060208284031215611b1157600080fd5b815180151581146113b857600080fd5b60005b83811015611b3c578181015183820152602001611b24565b50506000910152565b60008251611b57818460208701611b21565b9190910192915050565b6020815260008251806020840152611b80816040850160208701611b21565b601f01601f1916919091016040019291505056fe360894a13ba1a3210667c828492db98dca3e2076cc3735a920a3ca505d382bbc416464726573733a206c6f772d6c6576656c2064656c65676174652063616c6c206661696c6564a2646970667358221220a5ff494cdc2261b8d98b864795e99a5b678ae9c4b07b4b9efcea94c66c2dbb9364736f6c6343000815003360806040526040516104e13803806104e1833981016040819052610022916102de565b61002e82826000610035565b50506103fb565b61003e83610061565b60008251118061004b5750805b1561005c5761005a83836100a1565b505b505050565b61006a816100cd565b6040516001600160a01b038216907fbc7cd75a20ee27fd9adebab32041f755214dbc6bffa90cc0225b39da2e5c2d3b90600090a250565b60606100c683836040518060600160405280602781526020016104ba60279139610180565b9392505050565b6001600160a01b0381163b61013f5760405162461bcd60e51b815260206004820152602d60248201527f455243313936373a206e657720696d706c656d656e746174696f6e206973206e60448201526c1bdd08184818dbdb9d1c9858dd609a1b60648201526084015b60405180910390fd5b7f360894a13ba1a3210667c828492db98dca3e2076cc3735a920a3ca505d382bbc80546001600160a01b0319166001600160a01b0392909216919091179055565b6060600080856001600160a01b03168560405161019d91906103ac565b600060405180830381855af49150503d80600081146101d8576040519150601f19603f3d011682016040523d82523d6000602084013e6101dd565b606091505b5090925090506101ef868383876101f9565b9695505050505050565b60608315610268578251600003610261576001600160a01b0385163b6102615760405162461bcd60e51b815260206004820152601d60248201527f416464726573733a2063616c6c20746f206e6f6e2d636f6e74726163740000006044820152606401610136565b5081610272565b610272838361027a565b949350505050565b81511561028a5781518083602001fd5b8060405162461bcd60e51b815260040161013691906103c8565b634e487b7160e01b600052604160045260246000fd5b60005b838110156102d55781810151838201526020016102bd565b50506000910152565b600080604083850312156102f157600080fd5b82516001600160a01b038116811461030857600080fd5b60208401519092506001600160401b038082111561032557600080fd5b818501915085601f83011261033957600080fd5b81518181111561034b5761034b6102a4565b604051601f8201601f19908116603f01168101908382118183101715610373576103736102a4565b8160405282815288602084870101111561038c57600080fd5b61039d8360208301602088016102ba565b80955050505050509250929050565b600082516103be8184602087016102ba565b9190910192915050565b60208152600082518060208401526103e78160408501602087016102ba565b601f01601f19169190910160400192915050565b60b1806104096000396000f3fe608060405236601057600e6013565b005b600e5b601f601b6021565b6058565b565b600060537f360894a13ba1a3210667c828492db98dca3e2076cc3735a920a3ca505d382bbc546001600160a01b031690565b905090565b3660008037600080366000845af43d6000803e8080156076573d6000f35b3d6000fdfea2646970667358221220b92ee2eb8d8338c8e3d9ae8265478dd68de7868892eebeb11512889268be064564736f6c63430008150033416464726573733a206c6f772d6c6576656c2064656c65676174652063616c6c206661696c6564360894a13ba1a3210667c828492db98dca3e2076cc3735a920a3ca505d382bbc416464726573733a206c6f772d6c6576656c2064656c65676174652063616c6c206661696c6564a2646970667358221220a12d02772717a83ea65221cee5121bd970dedddac1723ccc989c042c2954bced64736f6c63430008150033",
  "linkReferences": {},
  "deployedLinkReferences": {}
}