{"contracts/PropertyFactory.sol":{"PropertyFactory":{"abi":[{"inputs":[{"internalType":"address","name":"initialOwner","type":"address"},{"internalType":"address","name":"_eurcTokenAddress","type":"address"}],"stateMutability":"nonpayable","type":"constructor"},{"inputs":[{"internalType":"address","name":"owner","type":"address"}],"name":"OwnableInvalidOwner","type":"error"},{"inputs":[{"internalType":"address","name":"account","type":"address"}],"name":"OwnableUnauthorizedAccount","type":"error"},{"anonymous":false,"inputs":[{"indexed":true,"internalType":"address","name":"newAddress","type":"address"}],"name":"EURCTokenUpdated","type":"event"},{"anonymous":false,"inputs":[{"indexed":true,"internalType":"address","name":"previousOwner","type":"address"},{"indexed":true,"internalType":"address","name":"newOwner","type":"address"}],"name":"OwnershipTransferred","type":"event"},{"anonymous":false,"inputs":[{"indexed":true,"internalType":"address","name":"tokenAddress","type":"address"}],"name":"PropertyApproved","type":"event"},{"anonymous":false,"inputs":[{"indexed":true,"internalType":"address","name":"tokenAddress","type":"address"}],"name":"PropertyRejected","type":"event"},{"anonymous":false,"inputs":[{"indexed":true,"internalType":"address","name":"owner","type":"address"},{"indexed":true,"internalType":"address","name":"tokenAddress","type":"address"}],"name":"PropertySubmitted","type":"event"},{"inputs":[{"internalType":"address","name":"_propertyAddress","type":"address"}],"name":"approveProperty","outputs":[],"stateMutability":"nonpayable","type":"function"},{"inputs":[{"internalType":"address","name":"","type":"address"}],"name":"approvedProperties","outputs":[{"internalType":"bool","name":"","type":"bool"}],"stateMutability":"view","type":"function"},{"inputs":[{"internalType":"string","name":"_title","type":"string"},{"internalType":"string","name":"_description","type":"string"},{"internalType":"string","name":"_location","type":"string"},{"internalType":"string","name":"_imageUrl","type":"string"},{"internalType":"uint256","name":"_price","type":"uint256"}],"name":"createProperty","outputs":[{"internalType":"address","name":"","type":"address"}],"stateMutability":"nonpayable","type":"function"},{"inputs":[],"name":"eurcTokenAddress","outputs":[{"internalType":"address","name":"","type":"address"}],"stateMutability":"view","type":"function"},{"inputs":[],"name":"getPropertyCreators","outputs":[{"internalType":"address[]","name":"","type":"address[]"}],"stateMutability":"view","type":"function"},{"inputs":[{"internalType":"address","name":"_propertyAddress","type":"address"}],"name":"getPropertyStatus","outputs":[{"internalType":"bool","name":"","type":"bool"}],"stateMutability":"view","type":"function"},{"inputs":[{"internalType":"address","name":"_user","type":"address"}],"name":"getUserProperties","outputs":[{"components":[{"internalType":"address","name":"tokenAddress","type":"address"},{"internalType":"bool","name":"isApproved","type":"bool"}],"internalType":"struct PropertyFactory.PropertyInfo[]","name":"","type":"tuple[]"}],"stateMutability":"view","type":"function"},{"inputs":[],"name":"owner","outputs":[{"internalType":"address","name":"","type":"address"}],"stateMutability":"view","type":"function"},{"inputs":[{"internalType":"address","name":"_propertyAddress","type":"address"}],"name":"rejectProperty","outputs":[],"stateMutability":"nonpayable","type":"function"},{"inputs":[],"name":"renounceOwnership","outputs":[],"stateMutability":"nonpayable","type":"function"},{"inputs":[{"internalType":"address","name":"newOwner","type":"address"}],"name":"transferOwnership","outputs":[],"stateMutability":"nonpayable","type":"function"},{"inputs":[{"internalType":"address","name":"_newEURCToken","type":"address"}],"name":"updateEURCToken","outputs":[],"stateMutability":"nonpayable","type":"function"},{"inputs":[{"internalType":"address","name":"","type":"address"},{"internalType":"uint256","name":"","type":"uint256"}],"name":"userProperties","outputs":[{"internalType":"address","name":"tokenAddress","type":"address"},{"internalType":"bool","name":"isApproved","type":"bool"}],"stateMutability":"view","type":"function"}],"evm":{"bytecode":{"linkReferences":{},"object":"608060409080825234620001f057818162003c238038038091620000248285620001f5565b833981010312620001f05762000048602062000040836200022f565b92016200022f565b6001600160a01b03828116929091908315620001d857600080546001600160a01b031980821687178355959192919085167f8be0079c531659141344cd1fd0a4f28419497f9722a3daafe3b4186f6b6457e08480a385516001600160401b0391906060810183811182821017620001c4578852602881527f496e697469616c697a696e672050726f7065727479466163746f727920776974602082015267341037bbb732b91d60c11b8882015262000101919062000244565b85519182870191821183831017620001b057506200014d9183918752601381527f4555524320746f6b656e20616464726573733a00000000000000000000000000602082015262000244565b169081156200016c576004541617600455516139489081620002db8239f35b825162461bcd60e51b815260206004820152601a60248201527f496e76616c6964204555524320746f6b656e20616464726573730000000000006044820152606490fd5b634e487b7160e01b81526041600452602490fd5b634e487b7160e01b85526041600452602485fd5b8451631e4fbdf760e01b815260006004820152602490fd5b600080fd5b601f909101601f19168101906001600160401b038211908210176200021957604052565b634e487b7160e01b600052604160045260246000fd5b51906001600160a01b0382168203620001f057565b604051906020928383019363319af33360e01b85526040602485015282519283606486015260005b848110620002c55750505091620002b2608482846000979596888481998501015260018060a01b03166044830152601f80199101168101036064810184520182620001f5565b51906a636f6e736f6c652e6c6f675afa50565b8181018301518682016084015282016200026c56fe604060808152600490813610156200001657600080fd5b600091823560e01c80630604e4561462000a15578063060a3e6114620008ee57806311798bd1146200056757806321499e8b146200014e578063293172be14620004b3578063715018a6146200045557806388cbb358146200031f5780638cdb1c6d14620002f65780638da5cb5b14620002cc578063a1cda61014620001ff578063e2271c9f1462000194578063e848a496146200014e5763f2fde38b14620000be57600080fd5b346200014a5760203660031901126200014a57620000db62001095565b90620000e662001113565b6001600160a01b039182169283156200013457505082546001600160a01b0319811683178455167f8be0079c531659141344cd1fd0a4f28419497f9722a3daafe3b4186f6b6457e08380a380f35b51631e4fbdf760e01b8152908101849052602490fd5b8280fd5b50503462000190576020366003190112620001905760209160ff9082906001600160a01b036200017d62001095565b1681526002855220541690519015158152f35b5080fd5b828434620001fc5781600319360112620001fc57620001b262001095565b6001600160a01b03908116825260016020528282208054919260243592831015620001fc575060ff91620001e691620010fa565b50548351928116835260a01c1615156020820152f35b80fd5b828434620001fc5780600319360112620001fc579080519182906003549182855260208095018093600384527fc2575a0e9e593c00f959f8c92f12db2869c3395a3b0502d05e2516446f71f85b90845b818110620002ae57505050816200026891038262001011565b83519485948186019282875251809352850193925b8281106200028d57505050500390f35b83516001600160a01b0316855286955093810193928101926001016200027d565b82546001600160a01b0316845292880192600192830192016200024f565b5050346200019057816003193601126200019057905490516001600160a01b039091168152602090f35b50346200014a57826003193601126200014a575490516001600160a01b03909116815260209150f35b50503462000190576020806003193601126200014a576200033f62001095565b916200034a62001113565b6001600160a01b039283169262000363841515620011a8565b838552600283526200037c60ff838720541615620011f5565b8492859260038054945b858110620003c3575b88886200039c8962001242565b7f7398de549412614f936085bf40b8de774cc79aa59eca1d141f732afa1d06ed5d8280a280f35b84620003cf82620010ac565b905490841b1c168952866001808652848b20908b918054925b83811062000411575b505050506200040b57620004059062001182565b62000386565b6200038f565b90919293508b89620004248385620010fa565b505416146200044357620004389062001182565b908a939291620003e8565b505091975050958638808080620003f1565b8334620001fc5780600319360112620001fc576200047262001113565b80546001600160a01b03198116825581906001600160a01b03167f8be0079c531659141344cd1fd0a4f28419497f9722a3daafe3b4186f6b6457e08280a380f35b50346200014a5760203660031901126200014a57620004d162001095565b620004db62001113565b6001600160a01b031691821562000524575080546001600160a01b031916821790557fbd646d14214de76e6fa53d2f8cbc7e6d4d073b6ad202e5e127a6a91bf9166c698280a280f35b906020606492519162461bcd60e51b8352820152601a60248201527f496e76616c6964204555524320746f6b656e20616464726573730000000000006044820152fd5b50503462000190576020806003193601126200014a576200058762001095565b916200059262001113565b620005d48151620005a38162000fde565b601b81527f417070726f76696e672070726f70657274792e2043616c6c65723a00000000008482015233906200134b565b805191620005e28362000fde565b6200060c8460119485815270283937b832b93a3c9030b2323932b9b99d60791b848201526200134b565b60018060a01b03926200064a848754168451620006298162000fde565b600f81526e21b7b73a3930b1ba1037bbb732b91d60891b858201526200134b565b836003956200069087548651620006618162000fde565b601c81527f4e756d626572206f662070726f70657274792063726561746f72733a0000000087820152620012a3565b16936200069f851515620011a8565b84875260028352620006b860ff858920541615620011f5565b8691875b8754811015620007f05782620006d282620010ac565b9054908a1b1c166200070d818851620006eb8162000fde565b8581527021b432b1b5b4b7339031b932b0ba37b91d60791b898201526200134b565b8952836001808752878b208b808a62000796620007bd8c620007ae8754855195620007388762000fde565b600b87526a43726561746f722068617360a81b848801528051906200075d8262000fde565b600a82526970726f7065727469657360b01b8583015251958694850197635970e08960e01b895260606024870152608486019062001140565b91604485015260231984830301606485015262001140565b03601f19810183528262001011565b51906a636f6e736f6c652e6c6f675afa508b825b6200083c575b505050620007f057620007ea9062001182565b620006bc565b505050600292939450620008049062001242565b838552528220805460ff191660011790557f471a6ffe019f8c983f020cef87372b7df53511fed02de5dc861b7fb8cc19d17f8280a280f35b9091928254821015620008e757506200088f866200085b8385620010fa565b5054168a516200086b8162000fde565b601281527121b432b1b5b4b73390383937b832b93a3c9d60711b8b8201526200134b565b89866200089d8385620010fa565b50541614620008bc57620008b2839162001182565b87939291620007d1565b9195508591620008cc91620010fa565b50805460ff60a01b1916600160a01b179055388080620007d7565b92620007d7565b5090346200014a576020918260031936011262000a11576001600160a01b0392836200091962001095565b1685526001948582528381209384549367ffffffffffffffff8511620009fe57509286928685519262000952838260051b018562001011565b8084528284018098865283862086915b838310620009b4575050505085519582870193838852518094528087019794915b848310620009915787890388f35b8551805182168a5284015115158985015297810197948301949186019162000983565b90888087819d9b95948860ff8f9a9f9d9b9c9d5191620009d48362000fde565b8754908116835260a01c161515838201528152019201920192509997999893989695949662000962565b634e487b7160e01b835260419052602482fd5b8380fd5b508234620001fc5760a0366003190112620001fc5767ffffffffffffffff82358181116200014a5762000a4c903690850162001034565b936024803583811162000fda5762000a68903690870162001034565b604490813585811162000fd65762000a84903690890162001034565b91606492833587811162000fd2578a9062000aa39036908c0162001034565b9460843593885162000ab58162000fde565b601d815260209d8e82017f4372656174696e672070726f70657274792077697468207469746c653a000000905262000aed91620012ff565b8851868e62000afc8362000fde565b600c835282016b2232b9b1b934b83a34b7b71d60a11b905262000b1f91620012ff565b8851848e62000b2e8362000fde565b600983528201682637b1b0ba34b7b71d60b91b905262000b4e91620012ff565b8851878e62000b5d8362000fde565b600a835282016924b6b0b3b2902aa9261d60b11b905262000b7e91620012ff565b8851858e62000b8d8362000fde565b60068352820165283934b1b29d60d11b905262000baa91620012a3565b885162000bb78162000fde565b600781528d81016629b2b73232b91d60c91b90523362000bd7916200134b565b82511562000f9b5785511562000f5c5783511562000f1d5786511562000ede57841562000e9f57505060018060a01b0394858b54169288519561257393848801948886108d87111762000e8b578f9362000c658a9998979562000c829562000c5760c0999662000c73968e620013a0903960e08a5260e08a019062001140565b918883039089015262001140565b858103868f01529062001140565b90838203606085015262001140565b9360808201523360a08201520152039086f0801562000e8157835190821694606082019081118282101762000e6f5762000cf39186918652602281527f437265617465642070726f706572747920746f6b656e206174206164647265738a82015261399d60f11b868201526200134b565b33855260019182885283862092845162000d0d8162000fde565b868152898101888152855468010000000000000000968782101562000e5d579062000d3d918582018155620010fa565b92909262000e4c5751825491516001600160a81b03199092169086161790151560a01b60ff60a01b1617905560038054979889989195919391895b85811062000e14575b5088999a1562000dbe575b5050505050505051927fc52096134fa3ad0a31f783ae63444e22ff5a177dd5392e4cba144ea83605a984339180a38152f35b90919293809596979850101562000e035750508162000de5918796959493018455620010ac565b81939154911b9133831b921b19161790558580808080808062000d8c565b634e487b7160e01b89526041905287fd5b8662000e2082620010ac565b9054908a1b1c16331462000e3f5762000e399062001182565b62000d78565b5092995089928862000d81565b634e487b7160e01b8a52898b52848afd5b634e487b7160e01b8b5260418c52858bfd5b634e487b7160e01b8752604188528387fd5b83513d87823e3d90fd5b5050634e487b7160e01b8c5260418d52888cfd5b7f5072696365206d7573742062652067726561746572207468616e2030000000008c91601c8f8b908d519562461bcd60e51b8752860152840152820152fd5b7f496d6167652055524c2063616e6e6f7420626520656d707479000000000000008c9160198f8b908d519562461bcd60e51b8752860152840152820152fd5b7f4c6f636174696f6e2063616e6e6f7420626520656d70747900000000000000008c9160188f8b908d519562461bcd60e51b8752860152840152820152fd5b7f4465736372697074696f6e2063616e6e6f7420626520656d70747900000000008c91601b8f8b908d519562461bcd60e51b8752860152840152820152fd5b745469746c652063616e6e6f7420626520656d70747960581b8c9160158f8b908d519562461bcd60e51b8752860152840152820152fd5b8880fd5b8680fd5b8480fd5b6040810190811067ffffffffffffffff82111762000ffb57604052565b634e487b7160e01b600052604160045260246000fd5b90601f8019910116810190811067ffffffffffffffff82111762000ffb57604052565b81601f82011215620010905780359067ffffffffffffffff821162000ffb57604051926200106d601f8401601f19166020018562001011565b828452602083830101116200109057816000926020809301838601378301015290565b600080fd5b600435906001600160a01b03821682036200109057565b600354811015620010e45760036000527fc2575a0e9e593c00f959f8c92f12db2869c3395a3b0502d05e2516446f71f85b0190600090565b634e487b7160e01b600052603260045260246000fd5b8054821015620010e45760005260206000200190600090565b6000546001600160a01b031633036200112857565b60405163118cdaa760e01b8152336004820152602490fd5b919082519283825260005b8481106200116d575050826000602080949584010152601f8019910116010190565b6020818301810151848301820152016200114b565b6000198114620011925760010190565b634e487b7160e01b600052601160045260246000fd5b15620011b057565b60405162461bcd60e51b815260206004820152601860248201527f496e76616c69642070726f7065727479206164647265737300000000000000006044820152606490fd5b15620011fd57565b60405162461bcd60e51b815260206004820152601960248201527f50726f706572747920616c726561647920617070726f766564000000000000006044820152606490fd5b156200124a57565b60405162461bcd60e51b815260206004820152602b60248201527f50726f7065727479206e6f7420666f756e6420696e20616e792075736572277360448201526a2070726f7065727469657360a81b6064820152608490fd5b600091908291620012ec6040518092620012d76020830195632d839cb360e21b875260406024850152606484019062001140565b90604483015203601f19810183528262001011565b51906a636f6e736f6c652e6c6f675afa50565b60009190620007ae620012ec8493604051928391620013386020840196634b5c427760e01b885260406024860152606485019062001140565b8381036023190160448501529062001140565b600091908291620012ec60405180926200137f602083019563319af33360e01b875260406024850152606484019062001140565b6001600160a01b0391909116604483015203601f1981018352826200101156fe6080806040523462000fec5762002573803803809162000020828562001029565b8339810160e08282031262000fec5781516001600160401b03811162000fec57816200004e91840162001072565b60208301519092906001600160401b03811162000fec57826200007391830162001072565b60408201519093906001600160401b03811162000fec57836200009891840162001072565b606083015190936001600160401b03821162000fec57620000bb91840162001072565b93608083015194620000de60c0620000d660a08701620010cd565b9501620010cd565b604051620000ec8162000ff1565b600e81526d283937b832b93a3c902a37b5b2b760911b602082015260405190620001168262000ff1565b6004825263050524f560e41b60208301528051906001600160401b038211620008ec5760035490600182811c9216801562000fe1575b6020831014620008cb5781601f84931162000f6c575b50602090601f831160011462000ee15760009262000ed5575b50508160011b916000199060031b1c1916176003555b8051906001600160401b038211620008ec5760045490600182811c9216801562000eca575b6020831014620008cb5781601f84931162000e55575b50602090601f831160011462000dca5760009262000dbe575b50508160011b916000199060031b1c1916176004555b6001600160a01b0385161562000da557600580546001600160a01b038781166001600160a01b031983168117909355167f8be0079c531659141344cd1fd0a4f28419497f9722a3daafe3b4186f6b6457e0600080a3600080620002c7620002e960405162000269816200100d565b602281527f4372656174696e672050726f7065727479546f6b656e2077697468207469746c602082015261329d60f11b6040820152620002da604051938492634b5c427760e01b6020850152604060248501526064840190620010e2565b8281036023190160448401528a620010e2565b03601f19810183528262001029565b6020815191016a636f6e736f6c652e6c6f675afa506000806040516200030f8162000ff1565b6006815265283934b1b29d60d11b602082015260405162000364816200034f6020820194632d839cb360e21b8652604060248401526064830190620010e2565b8d604483015203601f19810183528262001029565b51906a636f6e736f6c652e6c6f675afa50620003a985604051620003888162000ff1565b600e81526d24b734ba34b0b61037bbb732b91d60911b602082015262001109565b620003da81604051620003bc8162000ff1565b600b81526a22aaa921903a37b5b2b71d60a91b602082015262001109565b8351801515908162000d98575b501562000d53578251801515908162000d46575b501562000d01578551801515908162000cf4575b501562000caf578151801515908162000ca2575b501562000c5d57861562000c18576001600160a01b0381161562000bd357600c80546001600160a01b0319166001600160a01b0392909216919091179055604051916001600160401b0360c0840190811190841117620008ec5760c0830160405283835260208301528460408301526060820152846080820152600160a0820152815160018060401b038111620008ec57600654600181811c9116801562000bc8575b6020821014620008cb57601f811162000b73575b50806020601f821160011462000afa5760009162000aee575b508160011b916000199060031b1c1916176006555b60208101518051906001600160401b038211620008ec5760075490600182811c9216801562000ae3575b6020831014620008cb5781601f84931162000a82575b50602090601f831160011462000a0457600092620009f8575b50508160011b916000199060031b1c1916176007555b60408101518051906001600160401b038211620008ec5760085490600182811c92168015620009ed575b6020831014620008cb5781601f8493116200098c575b50602090601f83116001146200090e5760009262000902575b50508160011b916000199060031b1c1916176008555b60608101518051906001600160401b038211620008ec57600954600181811c91168015620008e1575b6020821014620008cb57601f811162000872575b50602090601f8311600114620007f45760a093929160009183620007e8575b50508160011b916000199060031b1c1916176009555b6080810151600a550151151560ff8019600b5416911617600b5560025491683635c9adc5dea0000092838101809111620007d2576002556001600160a01b038116600081815260208181526040808320805488019055519586527f6a3469cad0792fe1fea0bc1ddba3dfba95b7e9bc169a5d391d283dbe2ea64e95966200071a966200072994919391927fddf252ad1be2c89b69c2b068fc378daa952ba7f163c4a11628f55a4df523b3ef91a3604051948594606086526060860190620010e2565b908482036020860152620010e2565b60408301959095526001600160a01b0316930390a26000806040516200074f816200100d565b602281527f50726f7065727479546f6b656e2063726561746564207375636365737366756c6020820152616c7960f01b6040820152604051620007b181620002da602082019463104c13eb60e21b8652602060248401526044830190620010e2565b51906a636f6e736f6c652e6c6f675afa506040516113829081620011718239f35b634e487b7160e01b600052601160045260246000fd5b01519050388062000642565b6009600090815260008051602062002533833981519152929190601f198516905b81811062000859575091600193918560a0979694106200083f575b505050811b0160095562000658565b015160001960f88460031b161c1916905538808062000830565b9293602060018192878601518155019501930162000815565b600960005260008051602062002533833981519152601f840160051c81019160208510620008c0575b601f0160051c01905b818110620008b3575062000623565b60008155600101620008a4565b90915081906200089b565b634e487b7160e01b600052602260045260246000fd5b90607f16906200060f565b634e487b7160e01b600052604160045260246000fd5b015190503880620005d0565b6008600090815293506000805160206200251383398151915291905b601f198416851062000970576001945083601f1981161062000956575b505050811b01600855620005e6565b015160001960f88460031b161c1916905538808062000947565b818101518355602094850194600190930192909101906200092a565b600860005290915060008051602062002513833981519152601f840160051c810160208510620009e5575b90849392915b601f830160051c82018110620009d5575050620005b7565b60008155859450600101620009bd565b5080620009b7565b91607f1691620005a1565b01519050388062000561565b600760009081529350600080516020620024f383398151915291905b601f198416851062000a66576001945083601f1981161062000a4c575b505050811b0160075562000577565b015160001960f88460031b161c1916905538808062000a3d565b8181015183556020948501946001909301929091019062000a20565b6007600052909150600080516020620024f3833981519152601f840160051c81016020851062000adb575b90849392915b601f830160051c8201811062000acb57505062000548565b6000815585945060010162000ab3565b508062000aad565b91607f169162000532565b905083015138620004f3565b60066000908152925060008051602062002553833981519152905b601f198316841062000b5a576001935082601f1981161062000b40575b5050811b0160065562000508565b85015160001960f88460031b161c19169055388062000b32565b8581015182556020938401936001909201910162000b15565b600660005260008051602062002553833981519152601f830160051c81016020841062000bc0575b601f830160051c8201811062000bb3575050620004da565b6000815560010162000b9b565b508062000b9b565b90607f1690620004c6565b60405162461bcd60e51b815260206004820152601a60248201527f496e76616c6964204555524320746f6b656e20616464726573730000000000006044820152606490fd5b60405162461bcd60e51b815260206004820152601c60248201527f5072696365206d7573742062652067726561746572207468616e2030000000006044820152606490fd5b60405162461bcd60e51b815260206004820152601860248201527f496e76616c696420696d6167652055524c206c656e67746800000000000000006044820152606490fd5b6064915011153862000423565b60405162461bcd60e51b815260206004820152601760248201527f496e76616c6964206c6f636174696f6e206c656e6774680000000000000000006044820152606490fd5b601491501115386200040f565b60405162461bcd60e51b815260206004820152601a60248201527f496e76616c6964206465736372697074696f6e206c656e6774680000000000006044820152606490fd5b60329150111538620003fb565b60405162461bcd60e51b815260206004820152601460248201527f496e76616c6964207469746c65206c656e6774680000000000000000000000006044820152606490fd5b60149150111538620003e7565b604051631e4fbdf760e01b815260006004820152602490fd5b015190503880620001e5565b600460009081527f8a35acfbc15ff81a39ae7d344fd709f28e8600b4aa8c65c6b64bfe7fe36bd19b9350601f198516905b81811062000e3c575090846001959493921062000e22575b505050811b01600455620001fb565b015160001960f88460031b161c1916905538808062000e13565b9293602060018192878601518155019501930162000dfb565b60046000529091507f8a35acfbc15ff81a39ae7d344fd709f28e8600b4aa8c65c6b64bfe7fe36bd19b601f840160051c8101916020851062000ebf575b90601f859493920160051c01905b81811062000eaf5750620001cc565b6000815584935060010162000ea0565b909150819062000e92565b91607f1691620001b6565b0151905038806200017b565b600360009081527fc2575a0e9e593c00f959f8c92f12db2869c3395a3b0502d05e2516446f71f85b9350601f198516905b81811062000f53575090846001959493921062000f39575b505050811b0160035562000191565b015160001960f88460031b161c1916905538808062000f2a565b9293602060018192878601518155019501930162000f12565b60036000529091507fc2575a0e9e593c00f959f8c92f12db2869c3395a3b0502d05e2516446f71f85b601f840160051c8101916020851062000fd6575b90601f859493920160051c01905b81811062000fc6575062000162565b6000815584935060010162000fb7565b909150819062000fa9565b91607f16916200014c565b600080fd5b604081019081106001600160401b03821117620008ec57604052565b606081019081106001600160401b03821117620008ec57604052565b601f909101601f19168101906001600160401b03821190821017620008ec57604052565b60005b838110620010615750506000910152565b818101518382015260200162001050565b81601f8201121562000fec5780516001600160401b038111620008ec5760405192620010a9601f8301601f19166020018562001029565b8184526020828401011162000fec57620010ca91602080850191016200104d565b90565b51906001600160a01b038216820362000fec57565b90602091620010fd815180928185528580860191016200104d565b601f01601f1916010190565b6000919082916200115d60405180926200113d602083019563319af33360e01b8752604060248501526064840190620010e2565b6001600160a01b0391909116604483015203601f19810183528262001029565b51906a636f6e736f6c652e6c6f675afa5056fe6040608081526004908136101561001557600080fd5b600091823560e01c9081627dc37214610d1b57816306fdde0314610c26578163095ea7b314610b7c57816318160ddd14610b5d57816323b872dd14610a69578163313ce56714610a4d5781636617773a14610a245781636c11bcd31461086b57816370a0823114610828578163715018a6146107cb5781637b4e2be7146107af5781637b97008d146104aa5781638d6cc56d1461043b5781638da5cb5b14610412578163902d55a5146103ee57816395d89b41146102d7578163a1bb6170146102a0578163a9059cbb1461026f578163d81bc2711461021c578163dd62ed3e146101d3578163f2fde38b1461013f575063f3b0f3b91461011457600080fd5b3461013b578160031936011261013b57600c5490516001600160a01b039091168152602090f35b5080fd5b9050346101cf5760203660031901126101cf5761015a611141565b90610163611172565b6001600160a01b039182169283156101b9575050600554826bffffffffffffffffffffffff60a01b821617600555167f8be0079c531659141344cd1fd0a4f28419497f9722a3daafe3b4186f6b6457e08380a380f35b51631e4fbdf760e01b8152908101849052602490fd5b8280fd5b50503461013b578060031936011261013b57806020926101f1611141565b6101f961115c565b6001600160a01b0391821683526001865283832091168252845220549051908152f35b82843461026c578060031936011261026c5750600a5461026860ff600b5416610243610d9f565b9261024c610e8a565b94610255610f3e565b61025d610ff2565b9151968796876110e6565b0390f35b80fd5b50503461013b578060031936011261013b5760209061029961028f611141565b602435903361119e565b5160018152f35b83903461013b57602036600319011261013b573580151580910361013b576102c6611172565b60ff8019600b5416911617600b5580f35b82843461026c578060031936011261026c5781519181845492600184811c918186169586156103e4575b60209687851081146103d1579087899a92868b999a9b5291826000146103a757505060011461034c575b85886102688961033d848a0385610d67565b519282849384528301906110a6565b815286935091907f8a35acfbc15ff81a39ae7d344fd709f28e8600b4aa8c65c6b64bfe7fe36bd19b5b82841061038f575050508201018161033d6102688861032b565b8054848a018601528895508794909301928101610375565b60ff19168882015294151560051b8701909401945085935061033d9250610268915089905061032b565b634e487b7160e01b835260228a52602483fd5b92607f1692610301565b50503461013b578160031936011261013b5760209051683635c9adc5dea000008152f35b50503461013b578160031936011261013b5760055490516001600160a01b039091168152602090f35b9050346101cf5760203660031901126101cf57803591610459611172565b8215610467575050600a5580f35b906020606492519162461bcd60e51b8352820152601c60248201527f5072696365206d7573742062652067726561746572207468616e2030000000006044820152fd5b9050346101cf57602091826003193601126107ab5781359160ff600b541615610771576104d883151561127c565b6005546001600160a01b0390811660008181526020819052604090205491959092909185116107305764e8d4a51000610513600a54876112c8565b049286600c5416918551636eb1769f60e11b815233828201523060248201528481604481875afa9081156106b2579086918b916106ff575b50106106bc5785516370a0823160e01b815233828201528481602481875afa9081156106b2579086918b9161067d575b501061063a5790606484928a885195869485936323b872dd60e01b8552339085015260248401528860448401525af1908115610630579480966105ea6105f5937f8fafebcaf9d154343dad25669bfa277f4fbacd7ac6b0c4fed522580e040a0f33988b91610603575b50611309565b33906005541661119e565b82519485528401523392a280f35b6106239150863d8811610629575b61061b8183610d67565b8101906112f1565b386105e4565b503d610611565b84513d89823e3d90fd5b855162461bcd60e51b8152908101849052601960248201527f496e73756666696369656e7420455552432062616c616e6365000000000000006044820152606490fd5b809250868092503d83116106ab575b6106968183610d67565b810103126106a7578590513861057b565b8980fd5b503d61068c565b87513d8c823e3d90fd5b855162461bcd60e51b8152908101849052601b60248201527f496e73756666696369656e74204555524320616c6c6f77616e636500000000006044820152606490fd5b809250868092503d8311610729575b6107188183610d67565b810103126106a7578590513861054b565b503d61070e565b60649184519162461bcd60e51b8352820152601b60248201527f4e6f7420656e6f75676820746f6b656e7320617661696c61626c6500000000006044820152fd5b83606492519162461bcd60e51b8352820152601660248201527550726f7065727479206973206e6f742061637469766560501b6044820152fd5b8380fd5b50503461013b578160031936011261013b576020905160068152f35b833461026c578060031936011261026c576107e4611172565b600580546001600160a01b0319811690915581906001600160a01b03167f8be0079c531659141344cd1fd0a4f28419497f9722a3daafe3b4186f6b6457e08280a380f35b50503461013b57602036600319011261013b57602090610864610849611141565b6001600160a01b031660009081526020819052604090205490565b9051908152f35b83833461013b57602090816003193601126101cf5783359161088e83151561127c565b3384528381528282852054106109e25764e8d4a510006108b0600a54856112c8565b049033156109cb5733855284815282852054958487106109a0578190858798338952888452038588205585600254036002558685518781527fddf252ad1be2c89b69c2b068fc378daa952ba7f163c4a11628f55a4df523b3ef843392a3600c54855163a9059cbb60e01b81523392810192909252602482018590529096879160449183916001600160a01b03165af1948515610996577f2dcf9433d75db0d8b1c172641f85e319ffe4ad22e108a95d1847ceb906e5195d94956105f59188916109795750611309565b6109909150833d85116106295761061b8183610d67565b886105e4565b83513d88823e3d90fd5b835163391434e360e21b81523391810191825260208201889052604082018690529081906060010390fd5b8251634b637e8f60e11b8152808701869052602490fd5b8490606492519162461bcd60e51b8352820152601a60248201527f496e73756666696369656e7420746f6b656e2062616c616e63650000000000006044820152fd5b50503461013b578160031936011261013b57600c5490516001600160a01b039091168152602090f35b50503461013b578160031936011261013b576020905160128152f35b9050823461026c57606036600319011261026c57610a85611141565b610a8d61115c565b916044359360018060a01b038316808352600160205286832033845260205286832054916000198303610ac9575b60208861029989898961119e565b868310610b31578115610b1a573315610b035750825260016020908152868320338452815291869020908590039055829061029987610abb565b8751634a1406b160e11b8152908101849052602490fd5b875163e602df0560e01b8152908101849052602490fd5b8751637dc7a0d960e11b8152339181019182526020820193909352604081018790528291506060010390fd5b50503461013b578160031936011261013b576020906002549051908152f35b9050346101cf57816003193601126101cf57610b96611141565b602435903315610c0f576001600160a01b0316918215610bf857508083602095338152600187528181208582528752205582519081527f8c5be1e5ebec7d5bd14f71427d1e84f3dd0314c0f7b2291e5b200ac8c7c3b925843392a35160018152f35b8351634a1406b160e11b8152908101859052602490fd5b835163e602df0560e01b8152808401869052602490fd5b82843461026c578060031936011261026c578151918160035492600184811c91818616958615610d11575b60209687851081146103d1578899509688969785829a529182600014610cea575050600114610c8e575b505050610268929161033d910385610d67565b9190869350600383527fc2575a0e9e593c00f959f8c92f12db2869c3395a3b0502d05e2516446f71f85b5b828410610cd2575050508201018161033d610268610c7b565b8054848a018601528895508794909301928101610cb9565b60ff19168782015293151560051b8601909301935084925061033d91506102689050610c7b565b92607f1692610c51565b82843461026c578060031936011261026c5750610d36610d9f565b610268610d41610e8a565b92610d4a610f3e565b610d52610ff2565b600a549160ff600b54169351968796876110e6565b90601f8019910116810190811067ffffffffffffffff821117610d8957604052565b634e487b7160e01b600052604160045260246000fd5b60405190600060065490600182811c90808416938415610e80575b6020948584108114610e6c5783885287949392918115610e4c5750600114610ded575b5050610deb92500383610d67565b565b9093915060066000527ff652222313e28459528d920b65115c16c04f3efc82aaedc97be59f3f377c0d3f936000915b818310610e34575050610deb93508201013880610ddd565b85548884018501529485019487945091830191610e1c565b915050610deb94925060ff191682840152151560051b8201013880610ddd565b634e487b7160e01b85526022600452602485fd5b91607f1691610dba565b60405190600060075490600182811c90808416938415610f34575b6020948584108114610e6c5783885287949392918115610e4c5750600114610ed5575050610deb92500383610d67565b9093915060076000527fa66cc928b5edb82af9bd49922954155ab7b0942694bea4ce44661d9a8736c688936000915b818310610f1c575050610deb93508201013880610ddd565b85548884018501529485019487945091830191610f04565b91607f1691610ea5565b60405190600060085490600182811c90808416938415610fe8575b6020948584108114610e6c5783885287949392918115610e4c5750600114610f89575050610deb92500383610d67565b9093915060086000527ff3f7a9fe364faab93b216da50a3214154f22a0a2b415b23a84c8169e8b636ee3936000915b818310610fd0575050610deb93508201013880610ddd565b85548884018501529485019487945091830191610fb8565b91607f1691610f59565b60405190600060095490600182811c9080841693841561109c575b6020948584108114610e6c5783885287949392918115610e4c575060011461103d575050610deb92500383610d67565b9093915060096000527f6e1540171b6c0c960b71a7020d9f60077f6af931a8bbf590da0223dacf75c7af936000915b818310611084575050610deb93508201013880610ddd565b8554888401850152948501948794509183019161106c565b91607f169161100d565b919082519283825260005b8481106110d2575050826000602080949584010152601f8019910116010190565b6020818301810151848301820152016110b1565b94969592611126906111186111349461110a60a0989560c08b5260c08b01906110a6565b9089820360208b01526110a6565b9087820360408901526110a6565b9085820360608701526110a6565b9460808401521515910152565b600435906001600160a01b038216820361115757565b600080fd5b602435906001600160a01b038216820361115757565b6005546001600160a01b0316330361118657565b60405163118cdaa760e01b8152336004820152602490fd5b916001600160a01b03808416928315611263571692831561124a5760009083825281602052604082205490838210611218575091604082827fddf252ad1be2c89b69c2b068fc378daa952ba7f163c4a11628f55a4df523b3ef958760209652828652038282205586815220818154019055604051908152a3565b60405163391434e360e21b81526001600160a01b03919091166004820152602481019190915260448101839052606490fd5b60405163ec442f0560e01b815260006004820152602490fd5b604051634b637e8f60e11b815260006004820152602490fd5b1561128357565b60405162461bcd60e51b815260206004820152601d60248201527f416d6f756e74206d7573742062652067726561746572207468616e20300000006044820152606490fd5b818102929181159184041417156112db57565b634e487b7160e01b600052601160045260246000fd5b90816020910312611157575180151581036111575790565b1561131057565b60405162461bcd60e51b815260206004820152601460248201527311555490c81d1c985b9cd9995c8819985a5b195960621b6044820152606490fdfea264697066735822122089402dcc01caae723e97f56f8bbfd69971c0c89a4b9bfc27146eaf5b9bbd3eec64736f6c63430008140033a66cc928b5edb82af9bd49922954155ab7b0942694bea4ce44661d9a8736c688f3f7a9fe364faab93b216da50a3214154f22a0a2b415b23a84c8169e8b636ee36e1540171b6c0c960b71a7020d9f60077f6af931a8bbf590da0223dacf75c7aff652222313e28459528d920b65115c16c04f3efc82aaedc97be59f3f377c0d3fa2646970667358221220780e2bc988ac9f30e9d7b24105c7b4d5cd51fc99eaeb4583693666bc9e581a4164736f6c63430008140033","opcodes":"PUSH1 0x80 PUSH1 0x40 SWAP1 DUP1 DUP3 MSTORE CALLVALUE PUSH3 0x1F0 JUMPI DUP2 DUP2 PUSH3 0x3C23 DUP1 CODESIZE SUB DUP1 SWAP2 PUSH3 0x24 DUP3 DUP6 PUSH3 0x1F5 JUMP JUMPDEST DUP4 CODECOPY DUP2 ADD SUB SLT PUSH3 0x1F0 JUMPI PUSH3 0x48 PUSH1 0x20 PUSH3 0x40 DUP4 PUSH3 0x22F JUMP JUMPDEST SWAP3 ADD PUSH3 0x22F JUMP JUMPDEST PUSH1 0x1 PUSH1 0x1 PUSH1 0xA0 SHL SUB DUP3 DUP2 AND SWAP3 SWAP1 SWAP2 SWAP1 DUP4 ISZERO PUSH3 0x1D8 JUMPI PUSH1 0x0 DUP1 SLOAD PUSH1 0x1 PUSH1 0x1 PUSH1 0xA0 SHL SUB NOT DUP1 DUP3 AND DUP8 OR DUP4 SSTORE SWAP6 SWAP2 SWAP3 SWAP2 SWAP1 DUP6 AND PUSH32 0x8BE0079C531659141344CD1FD0A4F28419497F9722A3DAAFE3B4186F6B6457E0 DUP5 DUP1 LOG3 DUP6 MLOAD PUSH1 0x1 PUSH1 0x1 PUSH1 0x40 SHL SUB SWAP2 SWAP1 PUSH1 0x60 DUP2 ADD DUP4 DUP2 GT DUP3 DUP3 LT OR PUSH3 0x1C4 JUMPI DUP9 MSTORE PUSH1 0x28 DUP2 MSTORE PUSH32 0x496E697469616C697A696E672050726F7065727479466163746F727920776974 PUSH1 0x20 DUP3 ADD MSTORE PUSH8 0x341037BBB732B91D PUSH1 0xC1 SHL DUP9 DUP3 ADD MSTORE PUSH3 0x101 SWAP2 SWAP1 PUSH3 0x244 JUMP JUMPDEST DUP6 MLOAD SWAP2 DUP3 DUP8 ADD SWAP2 DUP3 GT DUP4 DUP4 LT OR PUSH3 0x1B0 JUMPI POP PUSH3 0x14D SWAP2 DUP4 SWAP2 DUP8 MSTORE PUSH1 0x13 DUP2 MSTORE PUSH32 0x4555524320746F6B656E20616464726573733A00000000000000000000000000 PUSH1 0x20 DUP3 ADD MSTORE PUSH3 0x244 JUMP JUMPDEST AND SWAP1 DUP2 ISZERO PUSH3 0x16C JUMPI PUSH1 0x4 SLOAD AND OR PUSH1 0x4 SSTORE MLOAD PUSH2 0x3948 SWAP1 DUP2 PUSH3 0x2DB DUP3 CODECOPY RETURN JUMPDEST DUP3 MLOAD PUSH3 0x461BCD PUSH1 0xE5 SHL DUP2 MSTORE PUSH1 0x20 PUSH1 0x4 DUP3 ADD MSTORE PUSH1 0x1A PUSH1 0x24 DUP3 ADD MSTORE PUSH32 0x496E76616C6964204555524320746F6B656E2061646472657373000000000000 PUSH1 0x44 DUP3 ADD MSTORE PUSH1 0x64 SWAP1 REVERT JUMPDEST PUSH4 0x4E487B71 PUSH1 0xE0 SHL DUP2 MSTORE PUSH1 0x41 PUSH1 0x4 MSTORE PUSH1 0x24 SWAP1 REVERT JUMPDEST PUSH4 0x4E487B71 PUSH1 0xE0 SHL DUP6 MSTORE PUSH1 0x41 PUSH1 0x4 MSTORE PUSH1 0x24 DUP6 REVERT JUMPDEST DUP5 MLOAD PUSH4 0x1E4FBDF7 PUSH1 0xE0 SHL DUP2 MSTORE PUSH1 0x0 PUSH1 0x4 DUP3 ADD MSTORE PUSH1 0x24 SWAP1 REVERT JUMPDEST PUSH1 0x0 DUP1 REVERT JUMPDEST PUSH1 0x1F SWAP1 SWAP2 ADD PUSH1 0x1F NOT AND DUP2 ADD SWAP1 PUSH1 0x1 PUSH1 0x1 PUSH1 0x40 SHL SUB DUP3 GT SWAP1 DUP3 LT OR PUSH3 0x219 JUMPI PUSH1 0x40 MSTORE JUMP JUMPDEST PUSH4 0x4E487B71 PUSH1 0xE0 SHL PUSH1 0x0 MSTORE PUSH1 0x41 PUSH1 0x4 MSTORE PUSH1 0x24 PUSH1 0x0 REVERT JUMPDEST MLOAD SWAP1 PUSH1 0x1 PUSH1 0x1 PUSH1 0xA0 SHL SUB DUP3 AND DUP3 SUB PUSH3 0x1F0 JUMPI JUMP JUMPDEST PUSH1 0x40 MLOAD SWAP1 PUSH1 0x20 SWAP3 DUP4 DUP4 ADD SWAP4 PUSH4 0x319AF333 PUSH1 0xE0 SHL DUP6 MSTORE PUSH1 0x40 PUSH1 0x24 DUP6 ADD MSTORE DUP3 MLOAD SWAP3 DUP4 PUSH1 0x64 DUP7 ADD MSTORE PUSH1 0x0 JUMPDEST DUP5 DUP2 LT PUSH3 0x2C5 JUMPI POP POP POP SWAP2 PUSH3 0x2B2 PUSH1 0x84 DUP3 DUP5 PUSH1 0x0 SWAP8 SWAP6 SWAP7 DUP9 DUP5 DUP2 SWAP10 DUP6 ADD ADD MSTORE PUSH1 0x1 DUP1 PUSH1 0xA0 SHL SUB AND PUSH1 0x44 DUP4 ADD MSTORE PUSH1 0x1F DUP1 NOT SWAP2 ADD AND DUP2 ADD SUB PUSH1 0x64 DUP2 ADD DUP5 MSTORE ADD DUP3 PUSH3 0x1F5 JUMP JUMPDEST MLOAD SWAP1 PUSH11 0x636F6E736F6C652E6C6F67 GAS STATICCALL POP JUMP JUMPDEST DUP2 DUP2 ADD DUP4 ADD MLOAD DUP7 DUP3 ADD PUSH1 0x84 ADD MSTORE DUP3 ADD PUSH3 0x26C JUMP INVALID PUSH1 0x40 PUSH1 0x80 DUP2 MSTORE PUSH1 0x4 SWAP1 DUP2 CALLDATASIZE LT ISZERO PUSH3 0x16 JUMPI PUSH1 0x0 DUP1 REVERT JUMPDEST PUSH1 0x0 SWAP2 DUP3 CALLDATALOAD PUSH1 0xE0 SHR DUP1 PUSH4 0x604E456 EQ PUSH3 0xA15 JUMPI DUP1 PUSH4 0x60A3E61 EQ PUSH3 0x8EE JUMPI DUP1 PUSH4 0x11798BD1 EQ PUSH3 0x567 JUMPI DUP1 PUSH4 0x21499E8B EQ PUSH3 0x14E JUMPI DUP1 PUSH4 0x293172BE EQ PUSH3 0x4B3 JUMPI DUP1 PUSH4 0x715018A6 EQ PUSH3 0x455 JUMPI DUP1 PUSH4 0x88CBB358 EQ PUSH3 0x31F JUMPI DUP1 PUSH4 0x8CDB1C6D EQ PUSH3 0x2F6 JUMPI DUP1 PUSH4 0x8DA5CB5B EQ PUSH3 0x2CC JUMPI DUP1 PUSH4 0xA1CDA610 EQ PUSH3 0x1FF JUMPI DUP1 PUSH4 0xE2271C9F EQ PUSH3 0x194 JUMPI DUP1 PUSH4 0xE848A496 EQ PUSH3 0x14E JUMPI PUSH4 0xF2FDE38B EQ PUSH3 0xBE JUMPI PUSH1 0x0 DUP1 REVERT JUMPDEST CALLVALUE PUSH3 0x14A JUMPI PUSH1 0x20 CALLDATASIZE PUSH1 0x3 NOT ADD SLT PUSH3 0x14A JUMPI PUSH3 0xDB PUSH3 0x1095 JUMP JUMPDEST SWAP1 PUSH3 0xE6 PUSH3 0x1113 JUMP JUMPDEST PUSH1 0x1 PUSH1 0x1 PUSH1 0xA0 SHL SUB SWAP2 DUP3 AND SWAP3 DUP4 ISZERO PUSH3 0x134 JUMPI POP POP DUP3 SLOAD PUSH1 0x1 PUSH1 0x1 PUSH1 0xA0 SHL SUB NOT DUP2 AND DUP4 OR DUP5 SSTORE AND PUSH32 0x8BE0079C531659141344CD1FD0A4F28419497F9722A3DAAFE3B4186F6B6457E0 DUP4 DUP1 LOG3 DUP1 RETURN JUMPDEST MLOAD PUSH4 0x1E4FBDF7 PUSH1 0xE0 SHL DUP2 MSTORE SWAP1 DUP2 ADD DUP5 SWAP1 MSTORE PUSH1 0x24 SWAP1 REVERT JUMPDEST DUP3 DUP1 REVERT JUMPDEST POP POP CALLVALUE PUSH3 0x190 JUMPI PUSH1 0x20 CALLDATASIZE PUSH1 0x3 NOT ADD SLT PUSH3 0x190 JUMPI PUSH1 0x20 SWAP2 PUSH1 0xFF SWAP1 DUP3 SWAP1 PUSH1 0x1 PUSH1 0x1 PUSH1 0xA0 SHL SUB PUSH3 0x17D PUSH3 0x1095 JUMP JUMPDEST AND DUP2 MSTORE PUSH1 0x2 DUP6 MSTORE KECCAK256 SLOAD AND SWAP1 MLOAD SWAP1 ISZERO ISZERO DUP2 MSTORE RETURN JUMPDEST POP DUP1 REVERT JUMPDEST DUP3 DUP5 CALLVALUE PUSH3 0x1FC JUMPI DUP2 PUSH1 0x3 NOT CALLDATASIZE ADD SLT PUSH3 0x1FC JUMPI PUSH3 0x1B2 PUSH3 0x1095 JUMP JUMPDEST PUSH1 0x1 PUSH1 0x1 PUSH1 0xA0 SHL SUB SWAP1 DUP2 AND DUP3 MSTORE PUSH1 0x1 PUSH1 0x20 MSTORE DUP3 DUP3 KECCAK256 DUP1 SLOAD SWAP2 SWAP3 PUSH1 0x24 CALLDATALOAD SWAP3 DUP4 LT ISZERO PUSH3 0x1FC JUMPI POP PUSH1 0xFF SWAP2 PUSH3 0x1E6 SWAP2 PUSH3 0x10FA JUMP JUMPDEST POP SLOAD DUP4 MLOAD SWAP3 DUP2 AND DUP4 MSTORE PUSH1 0xA0 SHR AND ISZERO ISZERO PUSH1 0x20 DUP3 ADD MSTORE RETURN JUMPDEST DUP1 REVERT JUMPDEST DUP3 DUP5 CALLVALUE PUSH3 0x1FC JUMPI DUP1 PUSH1 0x3 NOT CALLDATASIZE ADD SLT PUSH3 0x1FC JUMPI SWAP1 DUP1 MLOAD SWAP2 DUP3 SWAP1 PUSH1 0x3 SLOAD SWAP2 DUP3 DUP6 MSTORE PUSH1 0x20 DUP1 SWAP6 ADD DUP1 SWAP4 PUSH1 0x3 DUP5 MSTORE PUSH32 0xC2575A0E9E593C00F959F8C92F12DB2869C3395A3B0502D05E2516446F71F85B SWAP1 DUP5 JUMPDEST DUP2 DUP2 LT PUSH3 0x2AE JUMPI POP POP POP DUP2 PUSH3 0x268 SWAP2 SUB DUP3 PUSH3 0x1011 JUMP JUMPDEST DUP4 MLOAD SWAP5 DUP6 SWAP5 DUP2 DUP7 ADD SWAP3 DUP3 DUP8 MSTORE MLOAD DUP1 SWAP4 MSTORE DUP6 ADD SWAP4 SWAP3 JUMPDEST DUP3 DUP2 LT PUSH3 0x28D JUMPI POP POP POP POP SUB SWAP1 RETURN JUMPDEST DUP4 MLOAD PUSH1 0x1 PUSH1 0x1 PUSH1 0xA0 SHL SUB AND DUP6 MSTORE DUP7 SWAP6 POP SWAP4 DUP2 ADD SWAP4 SWAP3 DUP2 ADD SWAP3 PUSH1 0x1 ADD PUSH3 0x27D JUMP JUMPDEST DUP3 SLOAD PUSH1 0x1 PUSH1 0x1 PUSH1 0xA0 SHL SUB AND DUP5 MSTORE SWAP3 DUP9 ADD SWAP3 PUSH1 0x1 SWAP3 DUP4 ADD SWAP3 ADD PUSH3 0x24F JUMP JUMPDEST POP POP CALLVALUE PUSH3 0x190 JUMPI DUP2 PUSH1 0x3 NOT CALLDATASIZE ADD SLT PUSH3 0x190 JUMPI SWAP1 SLOAD SWAP1 MLOAD PUSH1 0x1 PUSH1 0x1 PUSH1 0xA0 SHL SUB SWAP1 SWAP2 AND DUP2 MSTORE PUSH1 0x20 SWAP1 RETURN JUMPDEST POP CALLVALUE PUSH3 0x14A JUMPI DUP3 PUSH1 0x3 NOT CALLDATASIZE ADD SLT PUSH3 0x14A JUMPI SLOAD SWAP1 MLOAD PUSH1 0x1 PUSH1 0x1 PUSH1 0xA0 SHL SUB SWAP1 SWAP2 AND DUP2 MSTORE PUSH1 0x20 SWAP2 POP RETURN JUMPDEST POP POP CALLVALUE PUSH3 0x190 JUMPI PUSH1 0x20 DUP1 PUSH1 0x3 NOT CALLDATASIZE ADD SLT PUSH3 0x14A JUMPI PUSH3 0x33F PUSH3 0x1095 JUMP JUMPDEST SWAP2 PUSH3 0x34A PUSH3 0x1113 JUMP JUMPDEST PUSH1 0x1 PUSH1 0x1 PUSH1 0xA0 SHL SUB SWAP3 DUP4 AND SWAP3 PUSH3 0x363 DUP5 ISZERO ISZERO PUSH3 0x11A8 JUMP JUMPDEST DUP4 DUP6 MSTORE PUSH1 0x2 DUP4 MSTORE PUSH3 0x37C PUSH1 0xFF DUP4 DUP8 KECCAK256 SLOAD AND ISZERO PUSH3 0x11F5 JUMP JUMPDEST DUP5 SWAP3 DUP6 SWAP3 PUSH1 0x3 DUP1 SLOAD SWAP5 JUMPDEST DUP6 DUP2 LT PUSH3 0x3C3 JUMPI JUMPDEST DUP9 DUP9 PUSH3 0x39C DUP10 PUSH3 0x1242 JUMP JUMPDEST PUSH32 0x7398DE549412614F936085BF40B8DE774CC79AA59ECA1D141F732AFA1D06ED5D DUP3 DUP1 LOG2 DUP1 RETURN JUMPDEST DUP5 PUSH3 0x3CF DUP3 PUSH3 0x10AC JUMP JUMPDEST SWAP1 SLOAD SWAP1 DUP5 SHL SHR AND DUP10 MSTORE DUP7 PUSH1 0x1 DUP1 DUP7 MSTORE DUP5 DUP12 KECCAK256 SWAP1 DUP12 SWAP2 DUP1 SLOAD SWAP3 JUMPDEST DUP4 DUP2 LT PUSH3 0x411 JUMPI JUMPDEST POP POP POP POP PUSH3 0x40B JUMPI PUSH3 0x405 SWAP1 PUSH3 0x1182 JUMP JUMPDEST PUSH3 0x386 JUMP JUMPDEST PUSH3 0x38F JUMP JUMPDEST SWAP1 SWAP2 SWAP3 SWAP4 POP DUP12 DUP10 PUSH3 0x424 DUP4 DUP6 PUSH3 0x10FA JUMP JUMPDEST POP SLOAD AND EQ PUSH3 0x443 JUMPI PUSH3 0x438 SWAP1 PUSH3 0x1182 JUMP JUMPDEST SWAP1 DUP11 SWAP4 SWAP3 SWAP2 PUSH3 0x3E8 JUMP JUMPDEST POP POP SWAP2 SWAP8 POP POP SWAP6 DUP7 CODESIZE DUP1 DUP1 DUP1 PUSH3 0x3F1 JUMP JUMPDEST DUP4 CALLVALUE PUSH3 0x1FC JUMPI DUP1 PUSH1 0x3 NOT CALLDATASIZE ADD SLT PUSH3 0x1FC JUMPI PUSH3 0x472 PUSH3 0x1113 JUMP JUMPDEST DUP1 SLOAD PUSH1 0x1 PUSH1 0x1 PUSH1 0xA0 SHL SUB NOT DUP2 AND DUP3 SSTORE DUP2 SWAP1 PUSH1 0x1 PUSH1 0x1 PUSH1 0xA0 SHL SUB AND PUSH32 0x8BE0079C531659141344CD1FD0A4F28419497F9722A3DAAFE3B4186F6B6457E0 DUP3 DUP1 LOG3 DUP1 RETURN JUMPDEST POP CALLVALUE PUSH3 0x14A JUMPI PUSH1 0x20 CALLDATASIZE PUSH1 0x3 NOT ADD SLT PUSH3 0x14A JUMPI PUSH3 0x4D1 PUSH3 0x1095 JUMP JUMPDEST PUSH3 0x4DB PUSH3 0x1113 JUMP JUMPDEST PUSH1 0x1 PUSH1 0x1 PUSH1 0xA0 SHL SUB AND SWAP2 DUP3 ISZERO PUSH3 0x524 JUMPI POP DUP1 SLOAD PUSH1 0x1 PUSH1 0x1 PUSH1 0xA0 SHL SUB NOT AND DUP3 OR SWAP1 SSTORE PUSH32 0xBD646D14214DE76E6FA53D2F8CBC7E6D4D073B6AD202E5E127A6A91BF9166C69 DUP3 DUP1 LOG2 DUP1 RETURN JUMPDEST SWAP1 PUSH1 0x20 PUSH1 0x64 SWAP3 MLOAD SWAP2 PUSH3 0x461BCD PUSH1 0xE5 SHL DUP4 MSTORE DUP3 ADD MSTORE PUSH1 0x1A PUSH1 0x24 DUP3 ADD MSTORE PUSH32 0x496E76616C6964204555524320746F6B656E2061646472657373000000000000 PUSH1 0x44 DUP3 ADD MSTORE REVERT JUMPDEST POP POP CALLVALUE PUSH3 0x190 JUMPI PUSH1 0x20 DUP1 PUSH1 0x3 NOT CALLDATASIZE ADD SLT PUSH3 0x14A JUMPI PUSH3 0x587 PUSH3 0x1095 JUMP JUMPDEST SWAP2 PUSH3 0x592 PUSH3 0x1113 JUMP JUMPDEST PUSH3 0x5D4 DUP2 MLOAD PUSH3 0x5A3 DUP2 PUSH3 0xFDE JUMP JUMPDEST PUSH1 0x1B DUP2 MSTORE PUSH32 0x417070726F76696E672070726F70657274792E2043616C6C65723A0000000000 DUP5 DUP3 ADD MSTORE CALLER SWAP1 PUSH3 0x134B JUMP JUMPDEST DUP1 MLOAD SWAP2 PUSH3 0x5E2 DUP4 PUSH3 0xFDE JUMP JUMPDEST PUSH3 0x60C DUP5 PUSH1 0x11 SWAP5 DUP6 DUP2 MSTORE PUSH17 0x283937B832B93A3C9030B2323932B9B99D PUSH1 0x79 SHL DUP5 DUP3 ADD MSTORE PUSH3 0x134B JUMP JUMPDEST PUSH1 0x1 DUP1 PUSH1 0xA0 SHL SUB SWAP3 PUSH3 0x64A DUP5 DUP8 SLOAD AND DUP5 MLOAD PUSH3 0x629 DUP2 PUSH3 0xFDE JUMP JUMPDEST PUSH1 0xF DUP2 MSTORE PUSH15 0x21B7B73A3930B1BA1037BBB732B91D PUSH1 0x89 SHL DUP6 DUP3 ADD MSTORE PUSH3 0x134B JUMP JUMPDEST DUP4 PUSH1 0x3 SWAP6 PUSH3 0x690 DUP8 SLOAD DUP7 MLOAD PUSH3 0x661 DUP2 PUSH3 0xFDE JUMP JUMPDEST PUSH1 0x1C DUP2 MSTORE PUSH32 0x4E756D626572206F662070726F70657274792063726561746F72733A00000000 DUP8 DUP3 ADD MSTORE PUSH3 0x12A3 JUMP JUMPDEST AND SWAP4 PUSH3 0x69F DUP6 ISZERO ISZERO PUSH3 0x11A8 JUMP JUMPDEST DUP5 DUP8 MSTORE PUSH1 0x2 DUP4 MSTORE PUSH3 0x6B8 PUSH1 0xFF DUP6 DUP10 KECCAK256 SLOAD AND ISZERO PUSH3 0x11F5 JUMP JUMPDEST DUP7 SWAP2 DUP8 JUMPDEST DUP8 SLOAD DUP2 LT ISZERO PUSH3 0x7F0 JUMPI DUP3 PUSH3 0x6D2 DUP3 PUSH3 0x10AC JUMP JUMPDEST SWAP1 SLOAD SWAP1 DUP11 SHL SHR AND PUSH3 0x70D DUP2 DUP9 MLOAD PUSH3 0x6EB DUP2 PUSH3 0xFDE JUMP JUMPDEST DUP6 DUP2 MSTORE PUSH17 0x21B432B1B5B4B7339031B932B0BA37B91D PUSH1 0x79 SHL DUP10 DUP3 ADD MSTORE PUSH3 0x134B JUMP JUMPDEST DUP10 MSTORE DUP4 PUSH1 0x1 DUP1 DUP8 MSTORE DUP8 DUP12 KECCAK256 DUP12 DUP1 DUP11 PUSH3 0x796 PUSH3 0x7BD DUP13 PUSH3 0x7AE DUP8 SLOAD DUP6 MLOAD SWAP6 PUSH3 0x738 DUP8 PUSH3 0xFDE JUMP JUMPDEST PUSH1 0xB DUP8 MSTORE PUSH11 0x43726561746F7220686173 PUSH1 0xA8 SHL DUP5 DUP9 ADD MSTORE DUP1 MLOAD SWAP1 PUSH3 0x75D DUP3 PUSH3 0xFDE JUMP JUMPDEST PUSH1 0xA DUP3 MSTORE PUSH10 0x70726F70657274696573 PUSH1 0xB0 SHL DUP6 DUP4 ADD MSTORE MLOAD SWAP6 DUP7 SWAP5 DUP6 ADD SWAP8 PUSH4 0x5970E089 PUSH1 0xE0 SHL DUP10 MSTORE PUSH1 0x60 PUSH1 0x24 DUP8 ADD MSTORE PUSH1 0x84 DUP7 ADD SWAP1 PUSH3 0x1140 JUMP JUMPDEST SWAP2 PUSH1 0x44 DUP6 ADD MSTORE PUSH1 0x23 NOT DUP5 DUP4 SUB ADD PUSH1 0x64 DUP6 ADD MSTORE PUSH3 0x1140 JUMP JUMPDEST SUB PUSH1 0x1F NOT DUP2 ADD DUP4 MSTORE DUP3 PUSH3 0x1011 JUMP JUMPDEST MLOAD SWAP1 PUSH11 0x636F6E736F6C652E6C6F67 GAS STATICCALL POP DUP12 DUP3 JUMPDEST PUSH3 0x83C JUMPI JUMPDEST POP POP POP PUSH3 0x7F0 JUMPI PUSH3 0x7EA SWAP1 PUSH3 0x1182 JUMP JUMPDEST PUSH3 0x6BC JUMP JUMPDEST POP POP POP PUSH1 0x2 SWAP3 SWAP4 SWAP5 POP PUSH3 0x804 SWAP1 PUSH3 0x1242 JUMP JUMPDEST DUP4 DUP6 MSTORE MSTORE DUP3 KECCAK256 DUP1 SLOAD PUSH1 0xFF NOT AND PUSH1 0x1 OR SWAP1 SSTORE PUSH32 0x471A6FFE019F8C983F020CEF87372B7DF53511FED02DE5DC861B7FB8CC19D17F DUP3 DUP1 LOG2 DUP1 RETURN JUMPDEST SWAP1 SWAP2 SWAP3 DUP3 SLOAD DUP3 LT ISZERO PUSH3 0x8E7 JUMPI POP PUSH3 0x88F DUP7 PUSH3 0x85B DUP4 DUP6 PUSH3 0x10FA JUMP JUMPDEST POP SLOAD AND DUP11 MLOAD PUSH3 0x86B DUP2 PUSH3 0xFDE JUMP JUMPDEST PUSH1 0x12 DUP2 MSTORE PUSH18 0x21B432B1B5B4B73390383937B832B93A3C9D PUSH1 0x71 SHL DUP12 DUP3 ADD MSTORE PUSH3 0x134B JUMP JUMPDEST DUP10 DUP7 PUSH3 0x89D DUP4 DUP6 PUSH3 0x10FA JUMP JUMPDEST POP SLOAD AND EQ PUSH3 0x8BC JUMPI PUSH3 0x8B2 DUP4 SWAP2 PUSH3 0x1182 JUMP JUMPDEST DUP8 SWAP4 SWAP3 SWAP2 PUSH3 0x7D1 JUMP JUMPDEST SWAP2 SWAP6 POP DUP6 SWAP2 PUSH3 0x8CC SWAP2 PUSH3 0x10FA JUMP JUMPDEST POP DUP1 SLOAD PUSH1 0xFF PUSH1 0xA0 SHL NOT AND PUSH1 0x1 PUSH1 0xA0 SHL OR SWAP1 SSTORE CODESIZE DUP1 DUP1 PUSH3 0x7D7 JUMP JUMPDEST SWAP3 PUSH3 0x7D7 JUMP JUMPDEST POP SWAP1 CALLVALUE PUSH3 0x14A JUMPI PUSH1 0x20 SWAP2 DUP3 PUSH1 0x3 NOT CALLDATASIZE ADD SLT PUSH3 0xA11 JUMPI PUSH1 0x1 PUSH1 0x1 PUSH1 0xA0 SHL SUB SWAP3 DUP4 PUSH3 0x919 PUSH3 0x1095 JUMP JUMPDEST AND DUP6 MSTORE PUSH1 0x1 SWAP5 DUP6 DUP3 MSTORE DUP4 DUP2 KECCAK256 SWAP4 DUP5 SLOAD SWAP4 PUSH8 0xFFFFFFFFFFFFFFFF DUP6 GT PUSH3 0x9FE JUMPI POP SWAP3 DUP7 SWAP3 DUP7 DUP6 MLOAD SWAP3 PUSH3 0x952 DUP4 DUP3 PUSH1 0x5 SHL ADD DUP6 PUSH3 0x1011 JUMP JUMPDEST DUP1 DUP5 MSTORE DUP3 DUP5 ADD DUP1 SWAP9 DUP7 MSTORE DUP4 DUP7 KECCAK256 DUP7 SWAP2 JUMPDEST DUP4 DUP4 LT PUSH3 0x9B4 JUMPI POP POP POP POP DUP6 MLOAD SWAP6 DUP3 DUP8 ADD SWAP4 DUP4 DUP9 MSTORE MLOAD DUP1 SWAP5 MSTORE DUP1 DUP8 ADD SWAP8 SWAP5 SWAP2 JUMPDEST DUP5 DUP4 LT PUSH3 0x991 JUMPI DUP8 DUP10 SUB DUP9 RETURN JUMPDEST DUP6 MLOAD DUP1 MLOAD DUP3 AND DUP11 MSTORE DUP5 ADD MLOAD ISZERO ISZERO DUP10 DUP6 ADD MSTORE SWAP8 DUP2 ADD SWAP8 SWAP5 DUP4 ADD SWAP5 SWAP2 DUP7 ADD SWAP2 PUSH3 0x983 JUMP JUMPDEST SWAP1 DUP9 DUP1 DUP8 DUP2 SWAP14 SWAP12 SWAP6 SWAP5 DUP9 PUSH1 0xFF DUP16 SWAP11 SWAP16 SWAP14 SWAP12 SWAP13 SWAP14 MLOAD SWAP2 PUSH3 0x9D4 DUP4 PUSH3 0xFDE JUMP JUMPDEST DUP8 SLOAD SWAP1 DUP2 AND DUP4 MSTORE PUSH1 0xA0 SHR AND ISZERO ISZERO DUP4 DUP3 ADD MSTORE DUP2 MSTORE ADD SWAP3 ADD SWAP3 ADD SWAP3 POP SWAP10 SWAP8 SWAP10 SWAP9 SWAP4 SWAP9 SWAP7 SWAP6 SWAP5 SWAP7 PUSH3 0x962 JUMP JUMPDEST PUSH4 0x4E487B71 PUSH1 0xE0 SHL DUP4 MSTORE PUSH1 0x41 SWAP1 MSTORE PUSH1 0x24 DUP3 REVERT JUMPDEST DUP4 DUP1 REVERT JUMPDEST POP DUP3 CALLVALUE PUSH3 0x1FC JUMPI PUSH1 0xA0 CALLDATASIZE PUSH1 0x3 NOT ADD SLT PUSH3 0x1FC JUMPI PUSH8 0xFFFFFFFFFFFFFFFF DUP3 CALLDATALOAD DUP2 DUP2 GT PUSH3 0x14A JUMPI PUSH3 0xA4C SWAP1 CALLDATASIZE SWAP1 DUP6 ADD PUSH3 0x1034 JUMP JUMPDEST SWAP4 PUSH1 0x24 DUP1 CALLDATALOAD DUP4 DUP2 GT PUSH3 0xFDA JUMPI PUSH3 0xA68 SWAP1 CALLDATASIZE SWAP1 DUP8 ADD PUSH3 0x1034 JUMP JUMPDEST PUSH1 0x44 SWAP1 DUP2 CALLDATALOAD DUP6 DUP2 GT PUSH3 0xFD6 JUMPI PUSH3 0xA84 SWAP1 CALLDATASIZE SWAP1 DUP10 ADD PUSH3 0x1034 JUMP JUMPDEST SWAP2 PUSH1 0x64 SWAP3 DUP4 CALLDATALOAD DUP8 DUP2 GT PUSH3 0xFD2 JUMPI DUP11 SWAP1 PUSH3 0xAA3 SWAP1 CALLDATASIZE SWAP1 DUP13 ADD PUSH3 0x1034 JUMP JUMPDEST SWAP5 PUSH1 0x84 CALLDATALOAD SWAP4 DUP9 MLOAD PUSH3 0xAB5 DUP2 PUSH3 0xFDE JUMP JUMPDEST PUSH1 0x1D DUP2 MSTORE PUSH1 0x20 SWAP14 DUP15 DUP3 ADD PUSH32 0x4372656174696E672070726F70657274792077697468207469746C653A000000 SWAP1 MSTORE PUSH3 0xAED SWAP2 PUSH3 0x12FF JUMP JUMPDEST DUP9 MLOAD DUP7 DUP15 PUSH3 0xAFC DUP4 PUSH3 0xFDE JUMP JUMPDEST PUSH1 0xC DUP4 MSTORE DUP3 ADD PUSH12 0x2232B9B1B934B83A34B7B71D PUSH1 0xA1 SHL SWAP1 MSTORE PUSH3 0xB1F SWAP2 PUSH3 0x12FF JUMP JUMPDEST DUP9 MLOAD DUP5 DUP15 PUSH3 0xB2E DUP4 PUSH3 0xFDE JUMP JUMPDEST PUSH1 0x9 DUP4 MSTORE DUP3 ADD PUSH9 0x2637B1B0BA34B7B71D PUSH1 0xB9 SHL SWAP1 MSTORE PUSH3 0xB4E SWAP2 PUSH3 0x12FF JUMP JUMPDEST DUP9 MLOAD DUP8 DUP15 PUSH3 0xB5D DUP4 PUSH3 0xFDE JUMP JUMPDEST PUSH1 0xA DUP4 MSTORE DUP3 ADD PUSH10 0x24B6B0B3B2902AA9261D PUSH1 0xB1 SHL SWAP1 MSTORE PUSH3 0xB7E SWAP2 PUSH3 0x12FF JUMP JUMPDEST DUP9 MLOAD DUP6 DUP15 PUSH3 0xB8D DUP4 PUSH3 0xFDE JUMP JUMPDEST PUSH1 0x6 DUP4 MSTORE DUP3 ADD PUSH6 0x283934B1B29D PUSH1 0xD1 SHL SWAP1 MSTORE PUSH3 0xBAA SWAP2 PUSH3 0x12A3 JUMP JUMPDEST DUP9 MLOAD PUSH3 0xBB7 DUP2 PUSH3 0xFDE JUMP JUMPDEST PUSH1 0x7 DUP2 MSTORE DUP14 DUP2 ADD PUSH7 0x29B2B73232B91D PUSH1 0xC9 SHL SWAP1 MSTORE CALLER PUSH3 0xBD7 SWAP2 PUSH3 0x134B JUMP JUMPDEST DUP3 MLOAD ISZERO PUSH3 0xF9B JUMPI DUP6 MLOAD ISZERO PUSH3 0xF5C JUMPI DUP4 MLOAD ISZERO PUSH3 0xF1D JUMPI DUP7 MLOAD ISZERO PUSH3 0xEDE JUMPI DUP5 ISZERO PUSH3 0xE9F JUMPI POP POP PUSH1 0x1 DUP1 PUSH1 0xA0 SHL SUB SWAP5 DUP6 DUP12 SLOAD AND SWAP3 DUP9 MLOAD SWAP6 PUSH2 0x2573 SWAP4 DUP5 DUP9 ADD SWAP5 DUP9 DUP7 LT DUP14 DUP8 GT OR PUSH3 0xE8B JUMPI DUP16 SWAP4 PUSH3 0xC65 DUP11 SWAP10 SWAP9 SWAP8 SWAP6 PUSH3 0xC82 SWAP6 PUSH3 0xC57 PUSH1 0xC0 SWAP10 SWAP7 PUSH3 0xC73 SWAP7 DUP15 PUSH3 0x13A0 SWAP1 CODECOPY PUSH1 0xE0 DUP11 MSTORE PUSH1 0xE0 DUP11 ADD SWAP1 PUSH3 0x1140 JUMP JUMPDEST SWAP2 DUP9 DUP4 SUB SWAP1 DUP10 ADD MSTORE PUSH3 0x1140 JUMP JUMPDEST DUP6 DUP2 SUB DUP7 DUP16 ADD MSTORE SWAP1 PUSH3 0x1140 JUMP JUMPDEST SWAP1 DUP4 DUP3 SUB PUSH1 0x60 DUP6 ADD MSTORE PUSH3 0x1140 JUMP JUMPDEST SWAP4 PUSH1 0x80 DUP3 ADD MSTORE CALLER PUSH1 0xA0 DUP3 ADD MSTORE ADD MSTORE SUB SWAP1 DUP7 CREATE DUP1 ISZERO PUSH3 0xE81 JUMPI DUP4 MLOAD SWAP1 DUP3 AND SWAP5 PUSH1 0x60 DUP3 ADD SWAP1 DUP2 GT DUP3 DUP3 LT OR PUSH3 0xE6F JUMPI PUSH3 0xCF3 SWAP2 DUP7 SWAP2 DUP7 MSTORE PUSH1 0x22 DUP2 MSTORE PUSH32 0x437265617465642070726F706572747920746F6B656E20617420616464726573 DUP11 DUP3 ADD MSTORE PUSH2 0x399D PUSH1 0xF1 SHL DUP7 DUP3 ADD MSTORE PUSH3 0x134B JUMP JUMPDEST CALLER DUP6 MSTORE PUSH1 0x1 SWAP2 DUP3 DUP9 MSTORE DUP4 DUP7 KECCAK256 SWAP3 DUP5 MLOAD PUSH3 0xD0D DUP2 PUSH3 0xFDE JUMP JUMPDEST DUP7 DUP2 MSTORE DUP10 DUP2 ADD DUP9 DUP2 MSTORE DUP6 SLOAD PUSH9 0x10000000000000000 SWAP7 DUP8 DUP3 LT ISZERO PUSH3 0xE5D JUMPI SWAP1 PUSH3 0xD3D SWAP2 DUP6 DUP3 ADD DUP2 SSTORE PUSH3 0x10FA JUMP JUMPDEST SWAP3 SWAP1 SWAP3 PUSH3 0xE4C JUMPI MLOAD DUP3 SLOAD SWAP2 MLOAD PUSH1 0x1 PUSH1 0x1 PUSH1 0xA8 SHL SUB NOT SWAP1 SWAP3 AND SWAP1 DUP7 AND OR SWAP1 ISZERO ISZERO PUSH1 0xA0 SHL PUSH1 0xFF PUSH1 0xA0 SHL AND OR SWAP1 SSTORE PUSH1 0x3 DUP1 SLOAD SWAP8 SWAP9 DUP10 SWAP9 SWAP2 SWAP6 SWAP2 SWAP4 SWAP2 DUP10 JUMPDEST DUP6 DUP2 LT PUSH3 0xE14 JUMPI JUMPDEST POP DUP9 SWAP10 SWAP11 ISZERO PUSH3 0xDBE JUMPI JUMPDEST POP POP POP POP POP POP POP MLOAD SWAP3 PUSH32 0xC52096134FA3AD0A31F783AE63444E22FF5A177DD5392E4CBA144EA83605A984 CALLER SWAP2 DUP1 LOG3 DUP2 MSTORE RETURN JUMPDEST SWAP1 SWAP2 SWAP3 SWAP4 DUP1 SWAP6 SWAP7 SWAP8 SWAP9 POP LT ISZERO PUSH3 0xE03 JUMPI POP POP DUP2 PUSH3 0xDE5 SWAP2 DUP8 SWAP7 SWAP6 SWAP5 SWAP4 ADD DUP5 SSTORE PUSH3 0x10AC JUMP JUMPDEST DUP2 SWAP4 SWAP2 SLOAD SWAP2 SHL SWAP2 CALLER DUP4 SHL SWAP3 SHL NOT AND OR SWAP1 SSTORE DUP6 DUP1 DUP1 DUP1 DUP1 DUP1 DUP1 PUSH3 0xD8C JUMP JUMPDEST PUSH4 0x4E487B71 PUSH1 0xE0 SHL DUP10 MSTORE PUSH1 0x41 SWAP1 MSTORE DUP8 REVERT JUMPDEST DUP7 PUSH3 0xE20 DUP3 PUSH3 0x10AC JUMP JUMPDEST SWAP1 SLOAD SWAP1 DUP11 SHL SHR AND CALLER EQ PUSH3 0xE3F JUMPI PUSH3 0xE39 SWAP1 PUSH3 0x1182 JUMP JUMPDEST PUSH3 0xD78 JUMP JUMPDEST POP SWAP3 SWAP10 POP DUP10 SWAP3 DUP9 PUSH3 0xD81 JUMP JUMPDEST PUSH4 0x4E487B71 PUSH1 0xE0 SHL DUP11 MSTORE DUP10 DUP12 MSTORE DUP5 DUP11 REVERT JUMPDEST PUSH4 0x4E487B71 PUSH1 0xE0 SHL DUP12 MSTORE PUSH1 0x41 DUP13 MSTORE DUP6 DUP12 REVERT JUMPDEST PUSH4 0x4E487B71 PUSH1 0xE0 SHL DUP8 MSTORE PUSH1 0x41 DUP9 MSTORE DUP4 DUP8 REVERT JUMPDEST DUP4 MLOAD RETURNDATASIZE DUP8 DUP3 RETURNDATACOPY RETURNDATASIZE SWAP1 REVERT JUMPDEST POP POP PUSH4 0x4E487B71 PUSH1 0xE0 SHL DUP13 MSTORE PUSH1 0x41 DUP14 MSTORE DUP9 DUP13 REVERT JUMPDEST PUSH32 0x5072696365206D7573742062652067726561746572207468616E203000000000 DUP13 SWAP2 PUSH1 0x1C DUP16 DUP12 SWAP1 DUP14 MLOAD SWAP6 PUSH3 0x461BCD PUSH1 0xE5 SHL DUP8 MSTORE DUP7 ADD MSTORE DUP5 ADD MSTORE DUP3 ADD MSTORE REVERT JUMPDEST PUSH32 0x496D6167652055524C2063616E6E6F7420626520656D70747900000000000000 DUP13 SWAP2 PUSH1 0x19 DUP16 DUP12 SWAP1 DUP14 MLOAD SWAP6 PUSH3 0x461BCD PUSH1 0xE5 SHL DUP8 MSTORE DUP7 ADD MSTORE DUP5 ADD MSTORE DUP3 ADD MSTORE REVERT JUMPDEST PUSH32 0x4C6F636174696F6E2063616E6E6F7420626520656D7074790000000000000000 DUP13 SWAP2 PUSH1 0x18 DUP16 DUP12 SWAP1 DUP14 MLOAD SWAP6 PUSH3 0x461BCD PUSH1 0xE5 SHL DUP8 MSTORE DUP7 ADD MSTORE DUP5 ADD MSTORE DUP3 ADD MSTORE REVERT JUMPDEST PUSH32 0x4465736372697074696F6E2063616E6E6F7420626520656D7074790000000000 DUP13 SWAP2 PUSH1 0x1B DUP16 DUP12 SWAP1 DUP14 MLOAD SWAP6 PUSH3 0x461BCD PUSH1 0xE5 SHL DUP8 MSTORE DUP7 ADD MSTORE DUP5 ADD MSTORE DUP3 ADD MSTORE REVERT JUMPDEST PUSH21 0x5469746C652063616E6E6F7420626520656D707479 PUSH1 0x58 SHL DUP13 SWAP2 PUSH1 0x15 DUP16 DUP12 SWAP1 DUP14 MLOAD SWAP6 PUSH3 0x461BCD PUSH1 0xE5 SHL DUP8 MSTORE DUP7 ADD MSTORE DUP5 ADD MSTORE DUP3 ADD MSTORE REVERT JUMPDEST DUP9 DUP1 REVERT JUMPDEST DUP7 DUP1 REVERT JUMPDEST DUP5 DUP1 REVERT JUMPDEST PUSH1 0x40 DUP2 ADD SWAP1 DUP2 LT PUSH8 0xFFFFFFFFFFFFFFFF DUP3 GT OR PUSH3 0xFFB JUMPI PUSH1 0x40 MSTORE JUMP JUMPDEST PUSH4 0x4E487B71 PUSH1 0xE0 SHL PUSH1 0x0 MSTORE PUSH1 0x41 PUSH1 0x4 MSTORE PUSH1 0x24 PUSH1 0x0 REVERT JUMPDEST SWAP1 PUSH1 0x1F DUP1 NOT SWAP2 ADD AND DUP2 ADD SWAP1 DUP2 LT PUSH8 0xFFFFFFFFFFFFFFFF DUP3 GT OR PUSH3 0xFFB JUMPI PUSH1 0x40 MSTORE JUMP JUMPDEST DUP2 PUSH1 0x1F DUP3 ADD SLT ISZERO PUSH3 0x1090 JUMPI DUP1 CALLDATALOAD SWAP1 PUSH8 0xFFFFFFFFFFFFFFFF DUP3 GT PUSH3 0xFFB JUMPI PUSH1 0x40 MLOAD SWAP3 PUSH3 0x106D PUSH1 0x1F DUP5 ADD PUSH1 0x1F NOT AND PUSH1 0x20 ADD DUP6 PUSH3 0x1011 JUMP JUMPDEST DUP3 DUP5 MSTORE PUSH1 0x20 DUP4 DUP4 ADD ADD GT PUSH3 0x1090 JUMPI DUP2 PUSH1 0x0 SWAP3 PUSH1 0x20 DUP1 SWAP4 ADD DUP4 DUP7 ADD CALLDATACOPY DUP4 ADD ADD MSTORE SWAP1 JUMP JUMPDEST PUSH1 0x0 DUP1 REVERT JUMPDEST PUSH1 0x4 CALLDATALOAD SWAP1 PUSH1 0x1 PUSH1 0x1 PUSH1 0xA0 SHL SUB DUP3 AND DUP3 SUB PUSH3 0x1090 JUMPI JUMP JUMPDEST PUSH1 0x3 SLOAD DUP2 LT ISZERO PUSH3 0x10E4 JUMPI PUSH1 0x3 PUSH1 0x0 MSTORE PUSH32 0xC2575A0E9E593C00F959F8C92F12DB2869C3395A3B0502D05E2516446F71F85B ADD SWAP1 PUSH1 0x0 SWAP1 JUMP JUMPDEST PUSH4 0x4E487B71 PUSH1 0xE0 SHL PUSH1 0x0 MSTORE PUSH1 0x32 PUSH1 0x4 MSTORE PUSH1 0x24 PUSH1 0x0 REVERT JUMPDEST DUP1 SLOAD DUP3 LT ISZERO PUSH3 0x10E4 JUMPI PUSH1 0x0 MSTORE PUSH1 0x20 PUSH1 0x0 KECCAK256 ADD SWAP1 PUSH1 0x0 SWAP1 JUMP JUMPDEST PUSH1 0x0 SLOAD PUSH1 0x1 PUSH1 0x1 PUSH1 0xA0 SHL SUB AND CALLER SUB PUSH3 0x1128 JUMPI JUMP JUMPDEST PUSH1 0x40 MLOAD PUSH4 0x118CDAA7 PUSH1 0xE0 SHL DUP2 MSTORE CALLER PUSH1 0x4 DUP3 ADD MSTORE PUSH1 0x24 SWAP1 REVERT JUMPDEST SWAP2 SWAP1 DUP3 MLOAD SWAP3 DUP4 DUP3 MSTORE PUSH1 0x0 JUMPDEST DUP5 DUP2 LT PUSH3 0x116D JUMPI POP POP DUP3 PUSH1 0x0 PUSH1 0x20 DUP1 SWAP5 SWAP6 DUP5 ADD ADD MSTORE PUSH1 0x1F DUP1 NOT SWAP2 ADD AND ADD ADD SWAP1 JUMP JUMPDEST PUSH1 0x20 DUP2 DUP4 ADD DUP2 ADD MLOAD DUP5 DUP4 ADD DUP3 ADD MSTORE ADD PUSH3 0x114B JUMP JUMPDEST PUSH1 0x0 NOT DUP2 EQ PUSH3 0x1192 JUMPI PUSH1 0x1 ADD SWAP1 JUMP JUMPDEST PUSH4 0x4E487B71 PUSH1 0xE0 SHL PUSH1 0x0 MSTORE PUSH1 0x11 PUSH1 0x4 MSTORE PUSH1 0x24 PUSH1 0x0 REVERT JUMPDEST ISZERO PUSH3 0x11B0 JUMPI JUMP JUMPDEST PUSH1 0x40 MLOAD PUSH3 0x461BCD PUSH1 0xE5 SHL DUP2 MSTORE PUSH1 0x20 PUSH1 0x4 DUP3 ADD MSTORE PUSH1 0x18 PUSH1 0x24 DUP3 ADD MSTORE PUSH32 0x496E76616C69642070726F706572747920616464726573730000000000000000 PUSH1 0x44 DUP3 ADD MSTORE PUSH1 0x64 SWAP1 REVERT JUMPDEST ISZERO PUSH3 0x11FD JUMPI JUMP JUMPDEST PUSH1 0x40 MLOAD PUSH3 0x461BCD PUSH1 0xE5 SHL DUP2 MSTORE PUSH1 0x20 PUSH1 0x4 DUP3 ADD MSTORE PUSH1 0x19 PUSH1 0x24 DUP3 ADD MSTORE PUSH32 0x50726F706572747920616C726561647920617070726F76656400000000000000 PUSH1 0x44 DUP3 ADD MSTORE PUSH1 0x64 SWAP1 REVERT JUMPDEST ISZERO PUSH3 0x124A JUMPI JUMP JUMPDEST PUSH1 0x40 MLOAD PUSH3 0x461BCD PUSH1 0xE5 SHL DUP2 MSTORE PUSH1 0x20 PUSH1 0x4 DUP3 ADD MSTORE PUSH1 0x2B PUSH1 0x24 DUP3 ADD MSTORE PUSH32 0x50726F7065727479206E6F7420666F756E6420696E20616E7920757365722773 PUSH1 0x44 DUP3 ADD MSTORE PUSH11 0x2070726F70657274696573 PUSH1 0xA8 SHL PUSH1 0x64 DUP3 ADD MSTORE PUSH1 0x84 SWAP1 REVERT JUMPDEST PUSH1 0x0 SWAP2 SWAP1 DUP3 SWAP2 PUSH3 0x12EC PUSH1 0x40 MLOAD DUP1 SWAP3 PUSH3 0x12D7 PUSH1 0x20 DUP4 ADD SWAP6 PUSH4 0x2D839CB3 PUSH1 0xE2 SHL DUP8 MSTORE PUSH1 0x40 PUSH1 0x24 DUP6 ADD MSTORE PUSH1 0x64 DUP5 ADD SWAP1 PUSH3 0x1140 JUMP JUMPDEST SWAP1 PUSH1 0x44 DUP4 ADD MSTORE SUB PUSH1 0x1F NOT DUP2 ADD DUP4 MSTORE DUP3 PUSH3 0x1011 JUMP JUMPDEST MLOAD SWAP1 PUSH11 0x636F6E736F6C652E6C6F67 GAS STATICCALL POP JUMP JUMPDEST PUSH1 0x0 SWAP2 SWAP1 PUSH3 0x7AE PUSH3 0x12EC DUP5 SWAP4 PUSH1 0x40 MLOAD SWAP3 DUP4 SWAP2 PUSH3 0x1338 PUSH1 0x20 DUP5 ADD SWAP7 PUSH4 0x4B5C4277 PUSH1 0xE0 SHL DUP9 MSTORE PUSH1 0x40 PUSH1 0x24 DUP7 ADD MSTORE PUSH1 0x64 DUP6 ADD SWAP1 PUSH3 0x1140 JUMP JUMPDEST DUP4 DUP2 SUB PUSH1 0x23 NOT ADD PUSH1 0x44 DUP6 ADD MSTORE SWAP1 PUSH3 0x1140 JUMP JUMPDEST PUSH1 0x0 SWAP2 SWAP1 DUP3 SWAP2 PUSH3 0x12EC PUSH1 0x40 MLOAD DUP1 SWAP3 PUSH3 0x137F PUSH1 0x20 DUP4 ADD SWAP6 PUSH4 0x319AF333 PUSH1 0xE0 SHL DUP8 MSTORE PUSH1 0x40 PUSH1 0x24 DUP6 ADD MSTORE PUSH1 0x64 DUP5 ADD SWAP1 PUSH3 0x1140 JUMP JUMPDEST PUSH1 0x1 PUSH1 0x1 PUSH1 0xA0 SHL SUB SWAP2 SWAP1 SWAP2 AND PUSH1 0x44 DUP4 ADD MSTORE SUB PUSH1 0x1F NOT DUP2 ADD DUP4 MSTORE DUP3 PUSH3 0x1011 JUMP INVALID PUSH1 0x80 DUP1 PUSH1 0x40 MSTORE CALLVALUE PUSH3 0xFEC JUMPI PUSH3 0x2573 DUP1 CODESIZE SUB DUP1 SWAP2 PUSH3 0x20 DUP3 DUP6 PUSH3 0x1029 JUMP JUMPDEST DUP4 CODECOPY DUP2 ADD PUSH1 0xE0 DUP3 DUP3 SUB SLT PUSH3 0xFEC JUMPI DUP2 MLOAD PUSH1 0x1 PUSH1 0x1 PUSH1 0x40 SHL SUB DUP2 GT PUSH3 0xFEC JUMPI DUP2 PUSH3 0x4E SWAP2 DUP5 ADD PUSH3 0x1072 JUMP JUMPDEST PUSH1 0x20 DUP4 ADD MLOAD SWAP1 SWAP3 SWAP1 PUSH1 0x1 PUSH1 0x1 PUSH1 0x40 SHL SUB DUP2 GT PUSH3 0xFEC JUMPI DUP3 PUSH3 0x73 SWAP2 DUP4 ADD PUSH3 0x1072 JUMP JUMPDEST PUSH1 0x40 DUP3 ADD MLOAD SWAP1 SWAP4 SWAP1 PUSH1 0x1 PUSH1 0x1 PUSH1 0x40 SHL SUB DUP2 GT PUSH3 0xFEC JUMPI DUP4 PUSH3 0x98 SWAP2 DUP5 ADD PUSH3 0x1072 JUMP JUMPDEST PUSH1 0x60 DUP4 ADD MLOAD SWAP1 SWAP4 PUSH1 0x1 PUSH1 0x1 PUSH1 0x40 SHL SUB DUP3 GT PUSH3 0xFEC JUMPI PUSH3 0xBB SWAP2 DUP5 ADD PUSH3 0x1072 JUMP JUMPDEST SWAP4 PUSH1 0x80 DUP4 ADD MLOAD SWAP5 PUSH3 0xDE PUSH1 0xC0 PUSH3 0xD6 PUSH1 0xA0 DUP8 ADD PUSH3 0x10CD JUMP JUMPDEST SWAP6 ADD PUSH3 0x10CD JUMP JUMPDEST PUSH1 0x40 MLOAD PUSH3 0xEC DUP2 PUSH3 0xFF1 JUMP JUMPDEST PUSH1 0xE DUP2 MSTORE PUSH14 0x283937B832B93A3C902A37B5B2B7 PUSH1 0x91 SHL PUSH1 0x20 DUP3 ADD MSTORE PUSH1 0x40 MLOAD SWAP1 PUSH3 0x116 DUP3 PUSH3 0xFF1 JUMP JUMPDEST PUSH1 0x4 DUP3 MSTORE PUSH4 0x50524F5 PUSH1 0xE4 SHL PUSH1 0x20 DUP4 ADD MSTORE DUP1 MLOAD SWAP1 PUSH1 0x1 PUSH1 0x1 PUSH1 0x40 SHL SUB DUP3 GT PUSH3 0x8EC JUMPI PUSH1 0x3 SLOAD SWAP1 PUSH1 0x1 DUP3 DUP2 SHR SWAP3 AND DUP1 ISZERO PUSH3 0xFE1 JUMPI JUMPDEST PUSH1 0x20 DUP4 LT EQ PUSH3 0x8CB JUMPI DUP2 PUSH1 0x1F DUP5 SWAP4 GT PUSH3 0xF6C JUMPI JUMPDEST POP PUSH1 0x20 SWAP1 PUSH1 0x1F DUP4 GT PUSH1 0x1 EQ PUSH3 0xEE1 JUMPI PUSH1 0x0 SWAP3 PUSH3 0xED5 JUMPI JUMPDEST POP POP DUP2 PUSH1 0x1 SHL SWAP2 PUSH1 0x0 NOT SWAP1 PUSH1 0x3 SHL SHR NOT AND OR PUSH1 0x3 SSTORE JUMPDEST DUP1 MLOAD SWAP1 PUSH1 0x1 PUSH1 0x1 PUSH1 0x40 SHL SUB DUP3 GT PUSH3 0x8EC JUMPI PUSH1 0x4 SLOAD SWAP1 PUSH1 0x1 DUP3 DUP2 SHR SWAP3 AND DUP1 ISZERO PUSH3 0xECA JUMPI JUMPDEST PUSH1 0x20 DUP4 LT EQ PUSH3 0x8CB JUMPI DUP2 PUSH1 0x1F DUP5 SWAP4 GT PUSH3 0xE55 JUMPI JUMPDEST POP PUSH1 0x20 SWAP1 PUSH1 0x1F DUP4 GT PUSH1 0x1 EQ PUSH3 0xDCA JUMPI PUSH1 0x0 SWAP3 PUSH3 0xDBE JUMPI JUMPDEST POP POP DUP2 PUSH1 0x1 SHL SWAP2 PUSH1 0x0 NOT SWAP1 PUSH1 0x3 SHL SHR NOT AND OR PUSH1 0x4 SSTORE JUMPDEST PUSH1 0x1 PUSH1 0x1 PUSH1 0xA0 SHL SUB DUP6 AND ISZERO PUSH3 0xDA5 JUMPI PUSH1 0x5 DUP1 SLOAD PUSH1 0x1 PUSH1 0x1 PUSH1 0xA0 SHL SUB DUP8 DUP2 AND PUSH1 0x1 PUSH1 0x1 PUSH1 0xA0 SHL SUB NOT DUP4 AND DUP2 OR SWAP1 SWAP4 SSTORE AND PUSH32 0x8BE0079C531659141344CD1FD0A4F28419497F9722A3DAAFE3B4186F6B6457E0 PUSH1 0x0 DUP1 LOG3 PUSH1 0x0 DUP1 PUSH3 0x2C7 PUSH3 0x2E9 PUSH1 0x40 MLOAD PUSH3 0x269 DUP2 PUSH3 0x100D JUMP JUMPDEST PUSH1 0x22 DUP2 MSTORE PUSH32 0x4372656174696E672050726F7065727479546F6B656E2077697468207469746C PUSH1 0x20 DUP3 ADD MSTORE PUSH2 0x329D PUSH1 0xF1 SHL PUSH1 0x40 DUP3 ADD MSTORE PUSH3 0x2DA PUSH1 0x40 MLOAD SWAP4 DUP5 SWAP3 PUSH4 0x4B5C4277 PUSH1 0xE0 SHL PUSH1 0x20 DUP6 ADD MSTORE PUSH1 0x40 PUSH1 0x24 DUP6 ADD MSTORE PUSH1 0x64 DUP5 ADD SWAP1 PUSH3 0x10E2 JUMP JUMPDEST DUP3 DUP2 SUB PUSH1 0x23 NOT ADD PUSH1 0x44 DUP5 ADD MSTORE DUP11 PUSH3 0x10E2 JUMP JUMPDEST SUB PUSH1 0x1F NOT DUP2 ADD DUP4 MSTORE DUP3 PUSH3 0x1029 JUMP JUMPDEST PUSH1 0x20 DUP2 MLOAD SWAP2 ADD PUSH11 0x636F6E736F6C652E6C6F67 GAS STATICCALL POP PUSH1 0x0 DUP1 PUSH1 0x40 MLOAD PUSH3 0x30F DUP2 PUSH3 0xFF1 JUMP JUMPDEST PUSH1 0x6 DUP2 MSTORE PUSH6 0x283934B1B29D PUSH1 0xD1 SHL PUSH1 0x20 DUP3 ADD MSTORE PUSH1 0x40 MLOAD PUSH3 0x364 DUP2 PUSH3 0x34F PUSH1 0x20 DUP3 ADD SWAP5 PUSH4 0x2D839CB3 PUSH1 0xE2 SHL DUP7 MSTORE PUSH1 0x40 PUSH1 0x24 DUP5 ADD MSTORE PUSH1 0x64 DUP4 ADD SWAP1 PUSH3 0x10E2 JUMP JUMPDEST DUP14 PUSH1 0x44 DUP4 ADD MSTORE SUB PUSH1 0x1F NOT DUP2 ADD DUP4 MSTORE DUP3 PUSH3 0x1029 JUMP JUMPDEST MLOAD SWAP1 PUSH11 0x636F6E736F6C652E6C6F67 GAS STATICCALL POP PUSH3 0x3A9 DUP6 PUSH1 0x40 MLOAD PUSH3 0x388 DUP2 PUSH3 0xFF1 JUMP JUMPDEST PUSH1 0xE DUP2 MSTORE PUSH14 0x24B734BA34B0B61037BBB732B91D PUSH1 0x91 SHL PUSH1 0x20 DUP3 ADD MSTORE PUSH3 0x1109 JUMP JUMPDEST PUSH3 0x3DA DUP2 PUSH1 0x40 MLOAD PUSH3 0x3BC DUP2 PUSH3 0xFF1 JUMP JUMPDEST PUSH1 0xB DUP2 MSTORE PUSH11 0x22AAA921903A37B5B2B71D PUSH1 0xA9 SHL PUSH1 0x20 DUP3 ADD MSTORE PUSH3 0x1109 JUMP JUMPDEST DUP4 MLOAD DUP1 ISZERO ISZERO SWAP1 DUP2 PUSH3 0xD98 JUMPI JUMPDEST POP ISZERO PUSH3 0xD53 JUMPI DUP3 MLOAD DUP1 ISZERO ISZERO SWAP1 DUP2 PUSH3 0xD46 JUMPI JUMPDEST POP ISZERO PUSH3 0xD01 JUMPI DUP6 MLOAD DUP1 ISZERO ISZERO SWAP1 DUP2 PUSH3 0xCF4 JUMPI JUMPDEST POP ISZERO PUSH3 0xCAF JUMPI DUP2 MLOAD DUP1 ISZERO ISZERO SWAP1 DUP2 PUSH3 0xCA2 JUMPI JUMPDEST POP ISZERO PUSH3 0xC5D JUMPI DUP7 ISZERO PUSH3 0xC18 JUMPI PUSH1 0x1 PUSH1 0x1 PUSH1 0xA0 SHL SUB DUP2 AND ISZERO PUSH3 0xBD3 JUMPI PUSH1 0xC DUP1 SLOAD PUSH1 0x1 PUSH1 0x1 PUSH1 0xA0 SHL SUB NOT AND PUSH1 0x1 PUSH1 0x1 PUSH1 0xA0 SHL SUB SWAP3 SWAP1 SWAP3 AND SWAP2 SWAP1 SWAP2 OR SWAP1 SSTORE PUSH1 0x40 MLOAD SWAP2 PUSH1 0x1 PUSH1 0x1 PUSH1 0x40 SHL SUB PUSH1 0xC0 DUP5 ADD SWAP1 DUP2 GT SWAP1 DUP5 GT OR PUSH3 0x8EC JUMPI PUSH1 0xC0 DUP4 ADD PUSH1 0x40 MSTORE DUP4 DUP4 MSTORE PUSH1 0x20 DUP4 ADD MSTORE DUP5 PUSH1 0x40 DUP4 ADD MSTORE PUSH1 0x60 DUP3 ADD MSTORE DUP5 PUSH1 0x80 DUP3 ADD MSTORE PUSH1 0x1 PUSH1 0xA0 DUP3 ADD MSTORE DUP2 MLOAD PUSH1 0x1 DUP1 PUSH1 0x40 SHL SUB DUP2 GT PUSH3 0x8EC JUMPI PUSH1 0x6 SLOAD PUSH1 0x1 DUP2 DUP2 SHR SWAP2 AND DUP1 ISZERO PUSH3 0xBC8 JUMPI JUMPDEST PUSH1 0x20 DUP3 LT EQ PUSH3 0x8CB JUMPI PUSH1 0x1F DUP2 GT PUSH3 0xB73 JUMPI JUMPDEST POP DUP1 PUSH1 0x20 PUSH1 0x1F DUP3 GT PUSH1 0x1 EQ PUSH3 0xAFA JUMPI PUSH1 0x0 SWAP2 PUSH3 0xAEE JUMPI JUMPDEST POP DUP2 PUSH1 0x1 SHL SWAP2 PUSH1 0x0 NOT SWAP1 PUSH1 0x3 SHL SHR NOT AND OR PUSH1 0x6 SSTORE JUMPDEST PUSH1 0x20 DUP2 ADD MLOAD DUP1 MLOAD SWAP1 PUSH1 0x1 PUSH1 0x1 PUSH1 0x40 SHL SUB DUP3 GT PUSH3 0x8EC JUMPI PUSH1 0x7 SLOAD SWAP1 PUSH1 0x1 DUP3 DUP2 SHR SWAP3 AND DUP1 ISZERO PUSH3 0xAE3 JUMPI JUMPDEST PUSH1 0x20 DUP4 LT EQ PUSH3 0x8CB JUMPI DUP2 PUSH1 0x1F DUP5 SWAP4 GT PUSH3 0xA82 JUMPI JUMPDEST POP PUSH1 0x20 SWAP1 PUSH1 0x1F DUP4 GT PUSH1 0x1 EQ PUSH3 0xA04 JUMPI PUSH1 0x0 SWAP3 PUSH3 0x9F8 JUMPI JUMPDEST POP POP DUP2 PUSH1 0x1 SHL SWAP2 PUSH1 0x0 NOT SWAP1 PUSH1 0x3 SHL SHR NOT AND OR PUSH1 0x7 SSTORE JUMPDEST PUSH1 0x40 DUP2 ADD MLOAD DUP1 MLOAD SWAP1 PUSH1 0x1 PUSH1 0x1 PUSH1 0x40 SHL SUB DUP3 GT PUSH3 0x8EC JUMPI PUSH1 0x8 SLOAD SWAP1 PUSH1 0x1 DUP3 DUP2 SHR SWAP3 AND DUP1 ISZERO PUSH3 0x9ED JUMPI JUMPDEST PUSH1 0x20 DUP4 LT EQ PUSH3 0x8CB JUMPI DUP2 PUSH1 0x1F DUP5 SWAP4 GT PUSH3 0x98C JUMPI JUMPDEST POP PUSH1 0x20 SWAP1 PUSH1 0x1F DUP4 GT PUSH1 0x1 EQ PUSH3 0x90E JUMPI PUSH1 0x0 SWAP3 PUSH3 0x902 JUMPI JUMPDEST POP POP DUP2 PUSH1 0x1 SHL SWAP2 PUSH1 0x0 NOT SWAP1 PUSH1 0x3 SHL SHR NOT AND OR PUSH1 0x8 SSTORE JUMPDEST PUSH1 0x60 DUP2 ADD MLOAD DUP1 MLOAD SWAP1 PUSH1 0x1 PUSH1 0x1 PUSH1 0x40 SHL SUB DUP3 GT PUSH3 0x8EC JUMPI PUSH1 0x9 SLOAD PUSH1 0x1 DUP2 DUP2 SHR SWAP2 AND DUP1 ISZERO PUSH3 0x8E1 JUMPI JUMPDEST PUSH1 0x20 DUP3 LT EQ PUSH3 0x8CB JUMPI PUSH1 0x1F DUP2 GT PUSH3 0x872 JUMPI JUMPDEST POP PUSH1 0x20 SWAP1 PUSH1 0x1F DUP4 GT PUSH1 0x1 EQ PUSH3 0x7F4 JUMPI PUSH1 0xA0 SWAP4 SWAP3 SWAP2 PUSH1 0x0 SWAP2 DUP4 PUSH3 0x7E8 JUMPI JUMPDEST POP POP DUP2 PUSH1 0x1 SHL SWAP2 PUSH1 0x0 NOT SWAP1 PUSH1 0x3 SHL SHR NOT AND OR PUSH1 0x9 SSTORE JUMPDEST PUSH1 0x80 DUP2 ADD MLOAD PUSH1 0xA SSTORE ADD MLOAD ISZERO ISZERO PUSH1 0xFF DUP1 NOT PUSH1 0xB SLOAD AND SWAP2 AND OR PUSH1 0xB SSTORE PUSH1 0x2 SLOAD SWAP2 PUSH9 0x3635C9ADC5DEA00000 SWAP3 DUP4 DUP2 ADD DUP1 SWAP2 GT PUSH3 0x7D2 JUMPI PUSH1 0x2 SSTORE PUSH1 0x1 PUSH1 0x1 PUSH1 0xA0 SHL SUB DUP2 AND PUSH1 0x0 DUP2 DUP2 MSTORE PUSH1 0x20 DUP2 DUP2 MSTORE PUSH1 0x40 DUP1 DUP4 KECCAK256 DUP1 SLOAD DUP9 ADD SWAP1 SSTORE MLOAD SWAP6 DUP7 MSTORE PUSH32 0x6A3469CAD0792FE1FEA0BC1DDBA3DFBA95B7E9BC169A5D391D283DBE2EA64E95 SWAP7 PUSH3 0x71A SWAP7 PUSH3 0x729 SWAP5 SWAP2 SWAP4 SWAP2 SWAP3 PUSH32 0xDDF252AD1BE2C89B69C2B068FC378DAA952BA7F163C4A11628F55A4DF523B3EF SWAP2 LOG3 PUSH1 0x40 MLOAD SWAP5 DUP6 SWAP5 PUSH1 0x60 DUP7 MSTORE PUSH1 0x60 DUP7 ADD SWAP1 PUSH3 0x10E2 JUMP JUMPDEST SWAP1 DUP5 DUP3 SUB PUSH1 0x20 DUP7 ADD MSTORE PUSH3 0x10E2 JUMP JUMPDEST PUSH1 0x40 DUP4 ADD SWAP6 SWAP1 SWAP6 MSTORE PUSH1 0x1 PUSH1 0x1 PUSH1 0xA0 SHL SUB AND SWAP4 SUB SWAP1 LOG2 PUSH1 0x0 DUP1 PUSH1 0x40 MLOAD PUSH3 0x74F DUP2 PUSH3 0x100D JUMP JUMPDEST PUSH1 0x22 DUP2 MSTORE PUSH32 0x50726F7065727479546F6B656E2063726561746564207375636365737366756C PUSH1 0x20 DUP3 ADD MSTORE PUSH2 0x6C79 PUSH1 0xF0 SHL PUSH1 0x40 DUP3 ADD MSTORE PUSH1 0x40 MLOAD PUSH3 0x7B1 DUP2 PUSH3 0x2DA PUSH1 0x20 DUP3 ADD SWAP5 PUSH4 0x104C13EB PUSH1 0xE2 SHL DUP7 MSTORE PUSH1 0x20 PUSH1 0x24 DUP5 ADD MSTORE PUSH1 0x44 DUP4 ADD SWAP1 PUSH3 0x10E2 JUMP JUMPDEST MLOAD SWAP1 PUSH11 0x636F6E736F6C652E6C6F67 GAS STATICCALL POP PUSH1 0x40 MLOAD PUSH2 0x1382 SWAP1 DUP2 PUSH3 0x1171 DUP3 CODECOPY RETURN JUMPDEST PUSH4 0x4E487B71 PUSH1 0xE0 SHL PUSH1 0x0 MSTORE PUSH1 0x11 PUSH1 0x4 MSTORE PUSH1 0x24 PUSH1 0x0 REVERT JUMPDEST ADD MLOAD SWAP1 POP CODESIZE DUP1 PUSH3 0x642 JUMP JUMPDEST PUSH1 0x9 PUSH1 0x0 SWAP1 DUP2 MSTORE PUSH1 0x0 DUP1 MLOAD PUSH1 0x20 PUSH3 0x2533 DUP4 CODECOPY DUP2 MLOAD SWAP2 MSTORE SWAP3 SWAP2 SWAP1 PUSH1 0x1F NOT DUP6 AND SWAP1 JUMPDEST DUP2 DUP2 LT PUSH3 0x859 JUMPI POP SWAP2 PUSH1 0x1 SWAP4 SWAP2 DUP6 PUSH1 0xA0 SWAP8 SWAP7 SWAP5 LT PUSH3 0x83F JUMPI JUMPDEST POP POP POP DUP2 SHL ADD PUSH1 0x9 SSTORE PUSH3 0x658 JUMP JUMPDEST ADD MLOAD PUSH1 0x0 NOT PUSH1 0xF8 DUP5 PUSH1 0x3 SHL AND SHR NOT AND SWAP1 SSTORE CODESIZE DUP1 DUP1 PUSH3 0x830 JUMP JUMPDEST SWAP3 SWAP4 PUSH1 0x20 PUSH1 0x1 DUP2 SWAP3 DUP8 DUP7 ADD MLOAD DUP2 SSTORE ADD SWAP6 ADD SWAP4 ADD PUSH3 0x815 JUMP JUMPDEST PUSH1 0x9 PUSH1 0x0 MSTORE PUSH1 0x0 DUP1 MLOAD PUSH1 0x20 PUSH3 0x2533 DUP4 CODECOPY DUP2 MLOAD SWAP2 MSTORE PUSH1 0x1F DUP5 ADD PUSH1 0x5 SHR DUP2 ADD SWAP2 PUSH1 0x20 DUP6 LT PUSH3 0x8C0 JUMPI JUMPDEST PUSH1 0x1F ADD PUSH1 0x5 SHR ADD SWAP1 JUMPDEST DUP2 DUP2 LT PUSH3 0x8B3 JUMPI POP PUSH3 0x623 JUMP JUMPDEST PUSH1 0x0 DUP2 SSTORE PUSH1 0x1 ADD PUSH3 0x8A4 JUMP JUMPDEST SWAP1 SWAP2 POP DUP2 SWAP1 PUSH3 0x89B JUMP JUMPDEST PUSH4 0x4E487B71 PUSH1 0xE0 SHL PUSH1 0x0 MSTORE PUSH1 0x22 PUSH1 0x4 MSTORE PUSH1 0x24 PUSH1 0x0 REVERT JUMPDEST SWAP1 PUSH1 0x7F AND SWAP1 PUSH3 0x60F JUMP JUMPDEST PUSH4 0x4E487B71 PUSH1 0xE0 SHL PUSH1 0x0 MSTORE PUSH1 0x41 PUSH1 0x4 MSTORE PUSH1 0x24 PUSH1 0x0 REVERT JUMPDEST ADD MLOAD SWAP1 POP CODESIZE DUP1 PUSH3 0x5D0 JUMP JUMPDEST PUSH1 0x8 PUSH1 0x0 SWAP1 DUP2 MSTORE SWAP4 POP PUSH1 0x0 DUP1 MLOAD PUSH1 0x20 PUSH3 0x2513 DUP4 CODECOPY DUP2 MLOAD SWAP2 MSTORE SWAP2 SWAP1 JUMPDEST PUSH1 0x1F NOT DUP5 AND DUP6 LT PUSH3 0x970 JUMPI PUSH1 0x1 SWAP5 POP DUP4 PUSH1 0x1F NOT DUP2 AND LT PUSH3 0x956 JUMPI JUMPDEST POP POP POP DUP2 SHL ADD PUSH1 0x8 SSTORE PUSH3 0x5E6 JUMP JUMPDEST ADD MLOAD PUSH1 0x0 NOT PUSH1 0xF8 DUP5 PUSH1 0x3 SHL AND SHR NOT AND SWAP1 SSTORE CODESIZE DUP1 DUP1 PUSH3 0x947 JUMP JUMPDEST DUP2 DUP2 ADD MLOAD DUP4 SSTORE PUSH1 0x20 SWAP5 DUP6 ADD SWAP5 PUSH1 0x1 SWAP1 SWAP4 ADD SWAP3 SWAP1 SWAP2 ADD SWAP1 PUSH3 0x92A JUMP JUMPDEST PUSH1 0x8 PUSH1 0x0 MSTORE SWAP1 SWAP2 POP PUSH1 0x0 DUP1 MLOAD PUSH1 0x20 PUSH3 0x2513 DUP4 CODECOPY DUP2 MLOAD SWAP2 MSTORE PUSH1 0x1F DUP5 ADD PUSH1 0x5 SHR DUP2 ADD PUSH1 0x20 DUP6 LT PUSH3 0x9E5 JUMPI JUMPDEST SWAP1 DUP5 SWAP4 SWAP3 SWAP2 JUMPDEST PUSH1 0x1F DUP4 ADD PUSH1 0x5 SHR DUP3 ADD DUP2 LT PUSH3 0x9D5 JUMPI POP POP PUSH3 0x5B7 JUMP JUMPDEST PUSH1 0x0 DUP2 SSTORE DUP6 SWAP5 POP PUSH1 0x1 ADD PUSH3 0x9BD JUMP JUMPDEST POP DUP1 PUSH3 0x9B7 JUMP JUMPDEST SWAP2 PUSH1 0x7F AND SWAP2 PUSH3 0x5A1 JUMP JUMPDEST ADD MLOAD SWAP1 POP CODESIZE DUP1 PUSH3 0x561 JUMP JUMPDEST PUSH1 0x7 PUSH1 0x0 SWAP1 DUP2 MSTORE SWAP4 POP PUSH1 0x0 DUP1 MLOAD PUSH1 0x20 PUSH3 0x24F3 DUP4 CODECOPY DUP2 MLOAD SWAP2 MSTORE SWAP2 SWAP1 JUMPDEST PUSH1 0x1F NOT DUP5 AND DUP6 LT PUSH3 0xA66 JUMPI PUSH1 0x1 SWAP5 POP DUP4 PUSH1 0x1F NOT DUP2 AND LT PUSH3 0xA4C JUMPI JUMPDEST POP POP POP DUP2 SHL ADD PUSH1 0x7 SSTORE PUSH3 0x577 JUMP JUMPDEST ADD MLOAD PUSH1 0x0 NOT PUSH1 0xF8 DUP5 PUSH1 0x3 SHL AND SHR NOT AND SWAP1 SSTORE CODESIZE DUP1 DUP1 PUSH3 0xA3D JUMP JUMPDEST DUP2 DUP2 ADD MLOAD DUP4 SSTORE PUSH1 0x20 SWAP5 DUP6 ADD SWAP5 PUSH1 0x1 SWAP1 SWAP4 ADD SWAP3 SWAP1 SWAP2 ADD SWAP1 PUSH3 0xA20 JUMP JUMPDEST PUSH1 0x7 PUSH1 0x0 MSTORE SWAP1 SWAP2 POP PUSH1 0x0 DUP1 MLOAD PUSH1 0x20 PUSH3 0x24F3 DUP4 CODECOPY DUP2 MLOAD SWAP2 MSTORE PUSH1 0x1F DUP5 ADD PUSH1 0x5 SHR DUP2 ADD PUSH1 0x20 DUP6 LT PUSH3 0xADB JUMPI JUMPDEST SWAP1 DUP5 SWAP4 SWAP3 SWAP2 JUMPDEST PUSH1 0x1F DUP4 ADD PUSH1 0x5 SHR DUP3 ADD DUP2 LT PUSH3 0xACB JUMPI POP POP PUSH3 0x548 JUMP JUMPDEST PUSH1 0x0 DUP2 SSTORE DUP6 SWAP5 POP PUSH1 0x1 ADD PUSH3 0xAB3 JUMP JUMPDEST POP DUP1 PUSH3 0xAAD JUMP JUMPDEST SWAP2 PUSH1 0x7F AND SWAP2 PUSH3 0x532 JUMP JUMPDEST SWAP1 POP DUP4 ADD MLOAD CODESIZE PUSH3 0x4F3 JUMP JUMPDEST PUSH1 0x6 PUSH1 0x0 SWAP1 DUP2 MSTORE SWAP3 POP PUSH1 0x0 DUP1 MLOAD PUSH1 0x20 PUSH3 0x2553 DUP4 CODECOPY DUP2 MLOAD SWAP2 MSTORE SWAP1 JUMPDEST PUSH1 0x1F NOT DUP4 AND DUP5 LT PUSH3 0xB5A JUMPI PUSH1 0x1 SWAP4 POP DUP3 PUSH1 0x1F NOT DUP2 AND LT PUSH3 0xB40 JUMPI JUMPDEST POP POP DUP2 SHL ADD PUSH1 0x6 SSTORE PUSH3 0x508 JUMP JUMPDEST DUP6 ADD MLOAD PUSH1 0x0 NOT PUSH1 0xF8 DUP5 PUSH1 0x3 SHL AND SHR NOT AND SWAP1 SSTORE CODESIZE DUP1 PUSH3 0xB32 JUMP JUMPDEST DUP6 DUP2 ADD MLOAD DUP3 SSTORE PUSH1 0x20 SWAP4 DUP5 ADD SWAP4 PUSH1 0x1 SWAP1 SWAP3 ADD SWAP2 ADD PUSH3 0xB15 JUMP JUMPDEST PUSH1 0x6 PUSH1 0x0 MSTORE PUSH1 0x0 DUP1 MLOAD PUSH1 0x20 PUSH3 0x2553 DUP4 CODECOPY DUP2 MLOAD SWAP2 MSTORE PUSH1 0x1F DUP4 ADD PUSH1 0x5 SHR DUP2 ADD PUSH1 0x20 DUP5 LT PUSH3 0xBC0 JUMPI JUMPDEST PUSH1 0x1F DUP4 ADD PUSH1 0x5 SHR DUP3 ADD DUP2 LT PUSH3 0xBB3 JUMPI POP POP PUSH3 0x4DA JUMP JUMPDEST PUSH1 0x0 DUP2 SSTORE PUSH1 0x1 ADD PUSH3 0xB9B JUMP JUMPDEST POP DUP1 PUSH3 0xB9B JUMP JUMPDEST SWAP1 PUSH1 0x7F AND SWAP1 PUSH3 0x4C6 JUMP JUMPDEST PUSH1 0x40 MLOAD PUSH3 0x461BCD PUSH1 0xE5 SHL DUP2 MSTORE PUSH1 0x20 PUSH1 0x4 DUP3 ADD MSTORE PUSH1 0x1A PUSH1 0x24 DUP3 ADD MSTORE PUSH32 0x496E76616C6964204555524320746F6B656E2061646472657373000000000000 PUSH1 0x44 DUP3 ADD MSTORE PUSH1 0x64 SWAP1 REVERT JUMPDEST PUSH1 0x40 MLOAD PUSH3 0x461BCD PUSH1 0xE5 SHL DUP2 MSTORE PUSH1 0x20 PUSH1 0x4 DUP3 ADD MSTORE PUSH1 0x1C PUSH1 0x24 DUP3 ADD MSTORE PUSH32 0x5072696365206D7573742062652067726561746572207468616E203000000000 PUSH1 0x44 DUP3 ADD MSTORE PUSH1 0x64 SWAP1 REVERT JUMPDEST PUSH1 0x40 MLOAD PUSH3 0x461BCD PUSH1 0xE5 SHL DUP2 MSTORE PUSH1 0x20 PUSH1 0x4 DUP3 ADD MSTORE PUSH1 0x18 PUSH1 0x24 DUP3 ADD MSTORE PUSH32 0x496E76616C696420696D6167652055524C206C656E6774680000000000000000 PUSH1 0x44 DUP3 ADD MSTORE PUSH1 0x64 SWAP1 REVERT JUMPDEST PUSH1 0x64 SWAP2 POP GT ISZERO CODESIZE PUSH3 0x423 JUMP JUMPDEST PUSH1 0x40 MLOAD PUSH3 0x461BCD PUSH1 0xE5 SHL DUP2 MSTORE PUSH1 0x20 PUSH1 0x4 DUP3 ADD MSTORE PUSH1 0x17 PUSH1 0x24 DUP3 ADD MSTORE PUSH32 0x496E76616C6964206C6F636174696F6E206C656E677468000000000000000000 PUSH1 0x44 DUP3 ADD MSTORE PUSH1 0x64 SWAP1 REVERT JUMPDEST PUSH1 0x14 SWAP2 POP GT ISZERO CODESIZE PUSH3 0x40F JUMP JUMPDEST PUSH1 0x40 MLOAD PUSH3 0x461BCD PUSH1 0xE5 SHL DUP2 MSTORE PUSH1 0x20 PUSH1 0x4 DUP3 ADD MSTORE PUSH1 0x1A PUSH1 0x24 DUP3 ADD MSTORE PUSH32 0x496E76616C6964206465736372697074696F6E206C656E677468000000000000 PUSH1 0x44 DUP3 ADD MSTORE PUSH1 0x64 SWAP1 REVERT JUMPDEST PUSH1 0x32 SWAP2 POP GT ISZERO CODESIZE PUSH3 0x3FB JUMP JUMPDEST PUSH1 0x40 MLOAD PUSH3 0x461BCD PUSH1 0xE5 SHL DUP2 MSTORE PUSH1 0x20 PUSH1 0x4 DUP3 ADD MSTORE PUSH1 0x14 PUSH1 0x24 DUP3 ADD MSTORE PUSH32 0x496E76616C6964207469746C65206C656E677468000000000000000000000000 PUSH1 0x44 DUP3 ADD MSTORE PUSH1 0x64 SWAP1 REVERT JUMPDEST PUSH1 0x14 SWAP2 POP GT ISZERO CODESIZE PUSH3 0x3E7 JUMP JUMPDEST PUSH1 0x40 MLOAD PUSH4 0x1E4FBDF7 PUSH1 0xE0 SHL DUP2 MSTORE PUSH1 0x0 PUSH1 0x4 DUP3 ADD MSTORE PUSH1 0x24 SWAP1 REVERT JUMPDEST ADD MLOAD SWAP1 POP CODESIZE DUP1 PUSH3 0x1E5 JUMP JUMPDEST PUSH1 0x4 PUSH1 0x0 SWAP1 DUP2 MSTORE PUSH32 0x8A35ACFBC15FF81A39AE7D344FD709F28E8600B4AA8C65C6B64BFE7FE36BD19B SWAP4 POP PUSH1 0x1F NOT DUP6 AND SWAP1 JUMPDEST DUP2 DUP2 LT PUSH3 0xE3C JUMPI POP SWAP1 DUP5 PUSH1 0x1 SWAP6 SWAP5 SWAP4 SWAP3 LT PUSH3 0xE22 JUMPI JUMPDEST POP POP POP DUP2 SHL ADD PUSH1 0x4 SSTORE PUSH3 0x1FB JUMP JUMPDEST ADD MLOAD PUSH1 0x0 NOT PUSH1 0xF8 DUP5 PUSH1 0x3 SHL AND SHR NOT AND SWAP1 SSTORE CODESIZE DUP1 DUP1 PUSH3 0xE13 JUMP JUMPDEST SWAP3 SWAP4 PUSH1 0x20 PUSH1 0x1 DUP2 SWAP3 DUP8 DUP7 ADD MLOAD DUP2 SSTORE ADD SWAP6 ADD SWAP4 ADD PUSH3 0xDFB JUMP JUMPDEST PUSH1 0x4 PUSH1 0x0 MSTORE SWAP1 SWAP2 POP PUSH32 0x8A35ACFBC15FF81A39AE7D344FD709F28E8600B4AA8C65C6B64BFE7FE36BD19B PUSH1 0x1F DUP5 ADD PUSH1 0x5 SHR DUP2 ADD SWAP2 PUSH1 0x20 DUP6 LT PUSH3 0xEBF JUMPI JUMPDEST SWAP1 PUSH1 0x1F DUP6 SWAP5 SWAP4 SWAP3 ADD PUSH1 0x5 SHR ADD SWAP1 JUMPDEST DUP2 DUP2 LT PUSH3 0xEAF JUMPI POP PUSH3 0x1CC JUMP JUMPDEST PUSH1 0x0 DUP2 SSTORE DUP5 SWAP4 POP PUSH1 0x1 ADD PUSH3 0xEA0 JUMP JUMPDEST SWAP1 SWAP2 POP DUP2 SWAP1 PUSH3 0xE92 JUMP JUMPDEST SWAP2 PUSH1 0x7F AND SWAP2 PUSH3 0x1B6 JUMP JUMPDEST ADD MLOAD SWAP1 POP CODESIZE DUP1 PUSH3 0x17B JUMP JUMPDEST PUSH1 0x3 PUSH1 0x0 SWAP1 DUP2 MSTORE PUSH32 0xC2575A0E9E593C00F959F8C92F12DB2869C3395A3B0502D05E2516446F71F85B SWAP4 POP PUSH1 0x1F NOT DUP6 AND SWAP1 JUMPDEST DUP2 DUP2 LT PUSH3 0xF53 JUMPI POP SWAP1 DUP5 PUSH1 0x1 SWAP6 SWAP5 SWAP4 SWAP3 LT PUSH3 0xF39 JUMPI JUMPDEST POP POP POP DUP2 SHL ADD PUSH1 0x3 SSTORE PUSH3 0x191 JUMP JUMPDEST ADD MLOAD PUSH1 0x0 NOT PUSH1 0xF8 DUP5 PUSH1 0x3 SHL AND SHR NOT AND SWAP1 SSTORE CODESIZE DUP1 DUP1 PUSH3 0xF2A JUMP JUMPDEST SWAP3 SWAP4 PUSH1 0x20 PUSH1 0x1 DUP2 SWAP3 DUP8 DUP7 ADD MLOAD DUP2 SSTORE ADD SWAP6 ADD SWAP4 ADD PUSH3 0xF12 JUMP JUMPDEST PUSH1 0x3 PUSH1 0x0 MSTORE SWAP1 SWAP2 POP PUSH32 0xC2575A0E9E593C00F959F8C92F12DB2869C3395A3B0502D05E2516446F71F85B PUSH1 0x1F DUP5 ADD PUSH1 0x5 SHR DUP2 ADD SWAP2 PUSH1 0x20 DUP6 LT PUSH3 0xFD6 JUMPI JUMPDEST SWAP1 PUSH1 0x1F DUP6 SWAP5 SWAP4 SWAP3 ADD PUSH1 0x5 SHR ADD SWAP1 JUMPDEST DUP2 DUP2 LT PUSH3 0xFC6 JUMPI POP PUSH3 0x162 JUMP JUMPDEST PUSH1 0x0 DUP2 SSTORE DUP5 SWAP4 POP PUSH1 0x1 ADD PUSH3 0xFB7 JUMP JUMPDEST SWAP1 SWAP2 POP DUP2 SWAP1 PUSH3 0xFA9 JUMP JUMPDEST SWAP2 PUSH1 0x7F AND SWAP2 PUSH3 0x14C JUMP JUMPDEST PUSH1 0x0 DUP1 REVERT JUMPDEST PUSH1 0x40 DUP2 ADD SWAP1 DUP2 LT PUSH1 0x1 PUSH1 0x1 PUSH1 0x40 SHL SUB DUP3 GT OR PUSH3 0x8EC JUMPI PUSH1 0x40 MSTORE JUMP JUMPDEST PUSH1 0x60 DUP2 ADD SWAP1 DUP2 LT PUSH1 0x1 PUSH1 0x1 PUSH1 0x40 SHL SUB DUP3 GT OR PUSH3 0x8EC JUMPI PUSH1 0x40 MSTORE JUMP JUMPDEST PUSH1 0x1F SWAP1 SWAP2 ADD PUSH1 0x1F NOT AND DUP2 ADD SWAP1 PUSH1 0x1 PUSH1 0x1 PUSH1 0x40 SHL SUB DUP3 GT SWAP1 DUP3 LT OR PUSH3 0x8EC JUMPI PUSH1 0x40 MSTORE JUMP JUMPDEST PUSH1 0x0 JUMPDEST DUP4 DUP2 LT PUSH3 0x1061 JUMPI POP POP PUSH1 0x0 SWAP2 ADD MSTORE JUMP JUMPDEST DUP2 DUP2 ADD MLOAD DUP4 DUP3 ADD MSTORE PUSH1 0x20 ADD PUSH3 0x1050 JUMP JUMPDEST DUP2 PUSH1 0x1F DUP3 ADD SLT ISZERO PUSH3 0xFEC JUMPI DUP1 MLOAD PUSH1 0x1 PUSH1 0x1 PUSH1 0x40 SHL SUB DUP2 GT PUSH3 0x8EC JUMPI PUSH1 0x40 MLOAD SWAP3 PUSH3 0x10A9 PUSH1 0x1F DUP4 ADD PUSH1 0x1F NOT AND PUSH1 0x20 ADD DUP6 PUSH3 0x1029 JUMP JUMPDEST DUP2 DUP5 MSTORE PUSH1 0x20 DUP3 DUP5 ADD ADD GT PUSH3 0xFEC JUMPI PUSH3 0x10CA SWAP2 PUSH1 0x20 DUP1 DUP6 ADD SWAP2 ADD PUSH3 0x104D JUMP JUMPDEST SWAP1 JUMP JUMPDEST MLOAD SWAP1 PUSH1 0x1 PUSH1 0x1 PUSH1 0xA0 SHL SUB DUP3 AND DUP3 SUB PUSH3 0xFEC JUMPI JUMP JUMPDEST SWAP1 PUSH1 0x20 SWAP2 PUSH3 0x10FD DUP2 MLOAD DUP1 SWAP3 DUP2 DUP6 MSTORE DUP6 DUP1 DUP7 ADD SWAP2 ADD PUSH3 0x104D JUMP JUMPDEST PUSH1 0x1F ADD PUSH1 0x1F NOT AND ADD ADD SWAP1 JUMP JUMPDEST PUSH1 0x0 SWAP2 SWAP1 DUP3 SWAP2 PUSH3 0x115D PUSH1 0x40 MLOAD DUP1 SWAP3 PUSH3 0x113D PUSH1 0x20 DUP4 ADD SWAP6 PUSH4 0x319AF333 PUSH1 0xE0 SHL DUP8 MSTORE PUSH1 0x40 PUSH1 0x24 DUP6 ADD MSTORE PUSH1 0x64 DUP5 ADD SWAP1 PUSH3 0x10E2 JUMP JUMPDEST PUSH1 0x1 PUSH1 0x1 PUSH1 0xA0 SHL SUB SWAP2 SWAP1 SWAP2 AND PUSH1 0x44 DUP4 ADD MSTORE SUB PUSH1 0x1F NOT DUP2 ADD DUP4 MSTORE DUP3 PUSH3 0x1029 JUMP JUMPDEST MLOAD SWAP1 PUSH11 0x636F6E736F6C652E6C6F67 GAS STATICCALL POP JUMP INVALID PUSH1 0x40 PUSH1 0x80 DUP2 MSTORE PUSH1 0x4 SWAP1 DUP2 CALLDATASIZE LT ISZERO PUSH2 0x15 JUMPI PUSH1 0x0 DUP1 REVERT JUMPDEST PUSH1 0x0 SWAP2 DUP3 CALLDATALOAD PUSH1 0xE0 SHR SWAP1 DUP2 PUSH3 0x7DC372 EQ PUSH2 0xD1B JUMPI DUP2 PUSH4 0x6FDDE03 EQ PUSH2 0xC26 JUMPI DUP2 PUSH4 0x95EA7B3 EQ PUSH2 0xB7C JUMPI DUP2 PUSH4 0x18160DDD EQ PUSH2 0xB5D JUMPI DUP2 PUSH4 0x23B872DD EQ PUSH2 0xA69 JUMPI DUP2 PUSH4 0x313CE567 EQ PUSH2 0xA4D JUMPI DUP2 PUSH4 0x6617773A EQ PUSH2 0xA24 JUMPI DUP2 PUSH4 0x6C11BCD3 EQ PUSH2 0x86B JUMPI DUP2 PUSH4 0x70A08231 EQ PUSH2 0x828 JUMPI DUP2 PUSH4 0x715018A6 EQ PUSH2 0x7CB JUMPI DUP2 PUSH4 0x7B4E2BE7 EQ PUSH2 0x7AF JUMPI DUP2 PUSH4 0x7B97008D EQ PUSH2 0x4AA JUMPI DUP2 PUSH4 0x8D6CC56D EQ PUSH2 0x43B JUMPI DUP2 PUSH4 0x8DA5CB5B EQ PUSH2 0x412 JUMPI DUP2 PUSH4 0x902D55A5 EQ PUSH2 0x3EE JUMPI DUP2 PUSH4 0x95D89B41 EQ PUSH2 0x2D7 JUMPI DUP2 PUSH4 0xA1BB6170 EQ PUSH2 0x2A0 JUMPI DUP2 PUSH4 0xA9059CBB EQ PUSH2 0x26F JUMPI DUP2 PUSH4 0xD81BC271 EQ PUSH2 0x21C JUMPI DUP2 PUSH4 0xDD62ED3E EQ PUSH2 0x1D3 JUMPI DUP2 PUSH4 0xF2FDE38B EQ PUSH2 0x13F JUMPI POP PUSH4 0xF3B0F3B9 EQ PUSH2 0x114 JUMPI PUSH1 0x0 DUP1 REVERT JUMPDEST CALLVALUE PUSH2 0x13B JUMPI DUP2 PUSH1 0x3 NOT CALLDATASIZE ADD SLT PUSH2 0x13B JUMPI PUSH1 0xC SLOAD SWAP1 MLOAD PUSH1 0x1 PUSH1 0x1 PUSH1 0xA0 SHL SUB SWAP1 SWAP2 AND DUP2 MSTORE PUSH1 0x20 SWAP1 RETURN JUMPDEST POP DUP1 REVERT JUMPDEST SWAP1 POP CALLVALUE PUSH2 0x1CF JUMPI PUSH1 0x20 CALLDATASIZE PUSH1 0x3 NOT ADD SLT PUSH2 0x1CF JUMPI PUSH2 0x15A PUSH2 0x1141 JUMP JUMPDEST SWAP1 PUSH2 0x163 PUSH2 0x1172 JUMP JUMPDEST PUSH1 0x1 PUSH1 0x1 PUSH1 0xA0 SHL SUB SWAP2 DUP3 AND SWAP3 DUP4 ISZERO PUSH2 0x1B9 JUMPI POP POP PUSH1 0x5 SLOAD DUP3 PUSH12 0xFFFFFFFFFFFFFFFFFFFFFFFF PUSH1 0xA0 SHL DUP3 AND OR PUSH1 0x5 SSTORE AND PUSH32 0x8BE0079C531659141344CD1FD0A4F28419497F9722A3DAAFE3B4186F6B6457E0 DUP4 DUP1 LOG3 DUP1 RETURN JUMPDEST MLOAD PUSH4 0x1E4FBDF7 PUSH1 0xE0 SHL DUP2 MSTORE SWAP1 DUP2 ADD DUP5 SWAP1 MSTORE PUSH1 0x24 SWAP1 REVERT JUMPDEST DUP3 DUP1 REVERT JUMPDEST POP POP CALLVALUE PUSH2 0x13B JUMPI DUP1 PUSH1 0x3 NOT CALLDATASIZE ADD SLT PUSH2 0x13B JUMPI DUP1 PUSH1 0x20 SWAP3 PUSH2 0x1F1 PUSH2 0x1141 JUMP JUMPDEST PUSH2 0x1F9 PUSH2 0x115C JUMP JUMPDEST PUSH1 0x1 PUSH1 0x1 PUSH1 0xA0 SHL SUB SWAP2 DUP3 AND DUP4 MSTORE PUSH1 0x1 DUP7 MSTORE DUP4 DUP4 KECCAK256 SWAP2 AND DUP3 MSTORE DUP5 MSTORE KECCAK256 SLOAD SWAP1 MLOAD SWAP1 DUP2 MSTORE RETURN JUMPDEST DUP3 DUP5 CALLVALUE PUSH2 0x26C JUMPI DUP1 PUSH1 0x3 NOT CALLDATASIZE ADD SLT PUSH2 0x26C JUMPI POP PUSH1 0xA SLOAD PUSH2 0x268 PUSH1 0xFF PUSH1 0xB SLOAD AND PUSH2 0x243 PUSH2 0xD9F JUMP JUMPDEST SWAP3 PUSH2 0x24C PUSH2 0xE8A JUMP JUMPDEST SWAP5 PUSH2 0x255 PUSH2 0xF3E JUMP JUMPDEST PUSH2 0x25D PUSH2 0xFF2 JUMP JUMPDEST SWAP2 MLOAD SWAP7 DUP8 SWAP7 DUP8 PUSH2 0x10E6 JUMP JUMPDEST SUB SWAP1 RETURN JUMPDEST DUP1 REVERT JUMPDEST POP POP CALLVALUE PUSH2 0x13B JUMPI DUP1 PUSH1 0x3 NOT CALLDATASIZE ADD SLT PUSH2 0x13B JUMPI PUSH1 0x20 SWAP1 PUSH2 0x299 PUSH2 0x28F PUSH2 0x1141 JUMP JUMPDEST PUSH1 0x24 CALLDATALOAD SWAP1 CALLER PUSH2 0x119E JUMP JUMPDEST MLOAD PUSH1 0x1 DUP2 MSTORE RETURN JUMPDEST DUP4 SWAP1 CALLVALUE PUSH2 0x13B JUMPI PUSH1 0x20 CALLDATASIZE PUSH1 0x3 NOT ADD SLT PUSH2 0x13B JUMPI CALLDATALOAD DUP1 ISZERO ISZERO DUP1 SWAP2 SUB PUSH2 0x13B JUMPI PUSH2 0x2C6 PUSH2 0x1172 JUMP JUMPDEST PUSH1 0xFF DUP1 NOT PUSH1 0xB SLOAD AND SWAP2 AND OR PUSH1 0xB SSTORE DUP1 RETURN JUMPDEST DUP3 DUP5 CALLVALUE PUSH2 0x26C JUMPI DUP1 PUSH1 0x3 NOT CALLDATASIZE ADD SLT PUSH2 0x26C JUMPI DUP2 MLOAD SWAP2 DUP2 DUP5 SLOAD SWAP3 PUSH1 0x1 DUP5 DUP2 SHR SWAP2 DUP2 DUP7 AND SWAP6 DUP7 ISZERO PUSH2 0x3E4 JUMPI JUMPDEST PUSH1 0x20 SWAP7 DUP8 DUP6 LT DUP2 EQ PUSH2 0x3D1 JUMPI SWAP1 DUP8 DUP10 SWAP11 SWAP3 DUP7 DUP12 SWAP10 SWAP11 SWAP12 MSTORE SWAP2 DUP3 PUSH1 0x0 EQ PUSH2 0x3A7 JUMPI POP POP PUSH1 0x1 EQ PUSH2 0x34C JUMPI JUMPDEST DUP6 DUP9 PUSH2 0x268 DUP10 PUSH2 0x33D DUP5 DUP11 SUB DUP6 PUSH2 0xD67 JUMP JUMPDEST MLOAD SWAP3 DUP3 DUP5 SWAP4 DUP5 MSTORE DUP4 ADD SWAP1 PUSH2 0x10A6 JUMP JUMPDEST DUP2 MSTORE DUP7 SWAP4 POP SWAP2 SWAP1 PUSH32 0x8A35ACFBC15FF81A39AE7D344FD709F28E8600B4AA8C65C6B64BFE7FE36BD19B JUMPDEST DUP3 DUP5 LT PUSH2 0x38F JUMPI POP POP POP DUP3 ADD ADD DUP2 PUSH2 0x33D PUSH2 0x268 DUP9 PUSH2 0x32B JUMP JUMPDEST DUP1 SLOAD DUP5 DUP11 ADD DUP7 ADD MSTORE DUP9 SWAP6 POP DUP8 SWAP5 SWAP1 SWAP4 ADD SWAP3 DUP2 ADD PUSH2 0x375 JUMP JUMPDEST PUSH1 0xFF NOT AND DUP9 DUP3 ADD MSTORE SWAP5 ISZERO ISZERO PUSH1 0x5 SHL DUP8 ADD SWAP1 SWAP5 ADD SWAP5 POP DUP6 SWAP4 POP PUSH2 0x33D SWAP3 POP PUSH2 0x268 SWAP2 POP DUP10 SWAP1 POP PUSH2 0x32B JUMP JUMPDEST PUSH4 0x4E487B71 PUSH1 0xE0 SHL DUP4 MSTORE PUSH1 0x22 DUP11 MSTORE PUSH1 0x24 DUP4 REVERT JUMPDEST SWAP3 PUSH1 0x7F AND SWAP3 PUSH2 0x301 JUMP JUMPDEST POP POP CALLVALUE PUSH2 0x13B JUMPI DUP2 PUSH1 0x3 NOT CALLDATASIZE ADD SLT PUSH2 0x13B JUMPI PUSH1 0x20 SWAP1 MLOAD PUSH9 0x3635C9ADC5DEA00000 DUP2 MSTORE RETURN JUMPDEST POP POP CALLVALUE PUSH2 0x13B JUMPI DUP2 PUSH1 0x3 NOT CALLDATASIZE ADD SLT PUSH2 0x13B JUMPI PUSH1 0x5 SLOAD SWAP1 MLOAD PUSH1 0x1 PUSH1 0x1 PUSH1 0xA0 SHL SUB SWAP1 SWAP2 AND DUP2 MSTORE PUSH1 0x20 SWAP1 RETURN JUMPDEST SWAP1 POP CALLVALUE PUSH2 0x1CF JUMPI PUSH1 0x20 CALLDATASIZE PUSH1 0x3 NOT ADD SLT PUSH2 0x1CF JUMPI DUP1 CALLDATALOAD SWAP2 PUSH2 0x459 PUSH2 0x1172 JUMP JUMPDEST DUP3 ISZERO PUSH2 0x467 JUMPI POP POP PUSH1 0xA SSTORE DUP1 RETURN JUMPDEST SWAP1 PUSH1 0x20 PUSH1 0x64 SWAP3 MLOAD SWAP2 PUSH3 0x461BCD PUSH1 0xE5 SHL DUP4 MSTORE DUP3 ADD MSTORE PUSH1 0x1C PUSH1 0x24 DUP3 ADD MSTORE PUSH32 0x5072696365206D7573742062652067726561746572207468616E203000000000 PUSH1 0x44 DUP3 ADD MSTORE REVERT JUMPDEST SWAP1 POP CALLVALUE PUSH2 0x1CF JUMPI PUSH1 0x20 SWAP2 DUP3 PUSH1 0x3 NOT CALLDATASIZE ADD SLT PUSH2 0x7AB JUMPI DUP2 CALLDATALOAD SWAP2 PUSH1 0xFF PUSH1 0xB SLOAD AND ISZERO PUSH2 0x771 JUMPI PUSH2 0x4D8 DUP4 ISZERO ISZERO PUSH2 0x127C JUMP JUMPDEST PUSH1 0x5 SLOAD PUSH1 0x1 PUSH1 0x1 PUSH1 0xA0 SHL SUB SWAP1 DUP2 AND PUSH1 0x0 DUP2 DUP2 MSTORE PUSH1 0x20 DUP2 SWAP1 MSTORE PUSH1 0x40 SWAP1 KECCAK256 SLOAD SWAP2 SWAP6 SWAP1 SWAP3 SWAP1 SWAP2 DUP6 GT PUSH2 0x730 JUMPI PUSH5 0xE8D4A51000 PUSH2 0x513 PUSH1 0xA SLOAD DUP8 PUSH2 0x12C8 JUMP JUMPDEST DIV SWAP3 DUP7 PUSH1 0xC SLOAD AND SWAP2 DUP6 MLOAD PUSH4 0x6EB1769F PUSH1 0xE1 SHL DUP2 MSTORE CALLER DUP3 DUP3 ADD MSTORE ADDRESS PUSH1 0x24 DUP3 ADD MSTORE DUP5 DUP2 PUSH1 0x44 DUP2 DUP8 GAS STATICCALL SWAP1 DUP2 ISZERO PUSH2 0x6B2 JUMPI SWAP1 DUP7 SWAP2 DUP12 SWAP2 PUSH2 0x6FF JUMPI JUMPDEST POP LT PUSH2 0x6BC JUMPI DUP6 MLOAD PUSH4 0x70A08231 PUSH1 0xE0 SHL DUP2 MSTORE CALLER DUP3 DUP3 ADD MSTORE DUP5 DUP2 PUSH1 0x24 DUP2 DUP8 GAS STATICCALL SWAP1 DUP2 ISZERO PUSH2 0x6B2 JUMPI SWAP1 DUP7 SWAP2 DUP12 SWAP2 PUSH2 0x67D JUMPI JUMPDEST POP LT PUSH2 0x63A JUMPI SWAP1 PUSH1 0x64 DUP5 SWAP3 DUP11 DUP9 MLOAD SWAP6 DUP7 SWAP5 DUP6 SWAP4 PUSH4 0x23B872DD PUSH1 0xE0 SHL DUP6 MSTORE CALLER SWAP1 DUP6 ADD MSTORE PUSH1 0x24 DUP5 ADD MSTORE DUP9 PUSH1 0x44 DUP5 ADD MSTORE GAS CALL SWAP1 DUP2 ISZERO PUSH2 0x630 JUMPI SWAP5 DUP1 SWAP7 PUSH2 0x5EA PUSH2 0x5F5 SWAP4 PUSH32 0x8FAFEBCAF9D154343DAD25669BFA277F4FBACD7AC6B0C4FED522580E040A0F33 SWAP9 DUP12 SWAP2 PUSH2 0x603 JUMPI JUMPDEST POP PUSH2 0x1309 JUMP JUMPDEST CALLER SWAP1 PUSH1 0x5 SLOAD AND PUSH2 0x119E JUMP JUMPDEST DUP3 MLOAD SWAP5 DUP6 MSTORE DUP5 ADD MSTORE CALLER SWAP3 LOG2 DUP1 RETURN JUMPDEST PUSH2 0x623 SWAP2 POP DUP7 RETURNDATASIZE DUP9 GT PUSH2 0x629 JUMPI JUMPDEST PUSH2 0x61B DUP2 DUP4 PUSH2 0xD67 JUMP JUMPDEST DUP2 ADD SWAP1 PUSH2 0x12F1 JUMP JUMPDEST CODESIZE PUSH2 0x5E4 JUMP JUMPDEST POP RETURNDATASIZE PUSH2 0x611 JUMP JUMPDEST DUP5 MLOAD RETURNDATASIZE DUP10 DUP3 RETURNDATACOPY RETURNDATASIZE SWAP1 REVERT JUMPDEST DUP6 MLOAD PUSH3 0x461BCD PUSH1 0xE5 SHL DUP2 MSTORE SWAP1 DUP2 ADD DUP5 SWAP1 MSTORE PUSH1 0x19 PUSH1 0x24 DUP3 ADD MSTORE PUSH32 0x496E73756666696369656E7420455552432062616C616E636500000000000000 PUSH1 0x44 DUP3 ADD MSTORE PUSH1 0x64 SWAP1 REVERT JUMPDEST DUP1 SWAP3 POP DUP7 DUP1 SWAP3 POP RETURNDATASIZE DUP4 GT PUSH2 0x6AB JUMPI JUMPDEST PUSH2 0x696 DUP2 DUP4 PUSH2 0xD67 JUMP JUMPDEST DUP2 ADD SUB SLT PUSH2 0x6A7 JUMPI DUP6 SWAP1 MLOAD CODESIZE PUSH2 0x57B JUMP JUMPDEST DUP10 DUP1 REVERT JUMPDEST POP RETURNDATASIZE PUSH2 0x68C JUMP JUMPDEST DUP8 MLOAD RETURNDATASIZE DUP13 DUP3 RETURNDATACOPY RETURNDATASIZE SWAP1 REVERT JUMPDEST DUP6 MLOAD PUSH3 0x461BCD PUSH1 0xE5 SHL DUP2 MSTORE SWAP1 DUP2 ADD DUP5 SWAP1 MSTORE PUSH1 0x1B PUSH1 0x24 DUP3 ADD MSTORE PUSH32 0x496E73756666696369656E74204555524320616C6C6F77616E63650000000000 PUSH1 0x44 DUP3 ADD MSTORE PUSH1 0x64 SWAP1 REVERT JUMPDEST DUP1 SWAP3 POP DUP7 DUP1 SWAP3 POP RETURNDATASIZE DUP4 GT PUSH2 0x729 JUMPI JUMPDEST PUSH2 0x718 DUP2 DUP4 PUSH2 0xD67 JUMP JUMPDEST DUP2 ADD SUB SLT PUSH2 0x6A7 JUMPI DUP6 SWAP1 MLOAD CODESIZE PUSH2 0x54B JUMP JUMPDEST POP RETURNDATASIZE PUSH2 0x70E JUMP JUMPDEST PUSH1 0x64 SWAP2 DUP5 MLOAD SWAP2 PUSH3 0x461BCD PUSH1 0xE5 SHL DUP4 MSTORE DUP3 ADD MSTORE PUSH1 0x1B PUSH1 0x24 DUP3 ADD MSTORE PUSH32 0x4E6F7420656E6F75676820746F6B656E7320617661696C61626C650000000000 PUSH1 0x44 DUP3 ADD MSTORE REVERT JUMPDEST DUP4 PUSH1 0x64 SWAP3 MLOAD SWAP2 PUSH3 0x461BCD PUSH1 0xE5 SHL DUP4 MSTORE DUP3 ADD MSTORE PUSH1 0x16 PUSH1 0x24 DUP3 ADD MSTORE PUSH22 0x50726F7065727479206973206E6F7420616374697665 PUSH1 0x50 SHL PUSH1 0x44 DUP3 ADD MSTORE REVERT JUMPDEST DUP4 DUP1 REVERT JUMPDEST POP POP CALLVALUE PUSH2 0x13B JUMPI DUP2 PUSH1 0x3 NOT CALLDATASIZE ADD SLT PUSH2 0x13B JUMPI PUSH1 0x20 SWAP1 MLOAD PUSH1 0x6 DUP2 MSTORE RETURN JUMPDEST DUP4 CALLVALUE PUSH2 0x26C JUMPI DUP1 PUSH1 0x3 NOT CALLDATASIZE ADD SLT PUSH2 0x26C JUMPI PUSH2 0x7E4 PUSH2 0x1172 JUMP JUMPDEST PUSH1 0x5 DUP1 SLOAD PUSH1 0x1 PUSH1 0x1 PUSH1 0xA0 SHL SUB NOT DUP2 AND SWAP1 SWAP2 SSTORE DUP2 SWAP1 PUSH1 0x1 PUSH1 0x1 PUSH1 0xA0 SHL SUB AND PUSH32 0x8BE0079C531659141344CD1FD0A4F28419497F9722A3DAAFE3B4186F6B6457E0 DUP3 DUP1 LOG3 DUP1 RETURN JUMPDEST POP POP CALLVALUE PUSH2 0x13B JUMPI PUSH1 0x20 CALLDATASIZE PUSH1 0x3 NOT ADD SLT PUSH2 0x13B JUMPI PUSH1 0x20 SWAP1 PUSH2 0x864 PUSH2 0x849 PUSH2 0x1141 JUMP JUMPDEST PUSH1 0x1 PUSH1 0x1 PUSH1 0xA0 SHL SUB AND PUSH1 0x0 SWAP1 DUP2 MSTORE PUSH1 0x20 DUP2 SWAP1 MSTORE PUSH1 0x40 SWAP1 KECCAK256 SLOAD SWAP1 JUMP JUMPDEST SWAP1 MLOAD SWAP1 DUP2 MSTORE RETURN JUMPDEST DUP4 DUP4 CALLVALUE PUSH2 0x13B JUMPI PUSH1 0x20 SWAP1 DUP2 PUSH1 0x3 NOT CALLDATASIZE ADD SLT PUSH2 0x1CF JUMPI DUP4 CALLDATALOAD SWAP2 PUSH2 0x88E DUP4 ISZERO ISZERO PUSH2 0x127C JUMP JUMPDEST CALLER DUP5 MSTORE DUP4 DUP2 MSTORE DUP3 DUP3 DUP6 KECCAK256 SLOAD LT PUSH2 0x9E2 JUMPI PUSH5 0xE8D4A51000 PUSH2 0x8B0 PUSH1 0xA SLOAD DUP6 PUSH2 0x12C8 JUMP JUMPDEST DIV SWAP1 CALLER ISZERO PUSH2 0x9CB JUMPI CALLER DUP6 MSTORE DUP5 DUP2 MSTORE DUP3 DUP6 KECCAK256 SLOAD SWAP6 DUP5 DUP8 LT PUSH2 0x9A0 JUMPI DUP2 SWAP1 DUP6 DUP8 SWAP9 CALLER DUP10 MSTORE DUP9 DUP5 MSTORE SUB DUP6 DUP9 KECCAK256 SSTORE DUP6 PUSH1 0x2 SLOAD SUB PUSH1 0x2 SSTORE DUP7 DUP6 MLOAD DUP8 DUP2 MSTORE PUSH32 0xDDF252AD1BE2C89B69C2B068FC378DAA952BA7F163C4A11628F55A4DF523B3EF DUP5 CALLER SWAP3 LOG3 PUSH1 0xC SLOAD DUP6 MLOAD PUSH4 0xA9059CBB PUSH1 0xE0 SHL DUP2 MSTORE CALLER SWAP3 DUP2 ADD SWAP3 SWAP1 SWAP3 MSTORE PUSH1 0x24 DUP3 ADD DUP6 SWAP1 MSTORE SWAP1 SWAP7 DUP8 SWAP2 PUSH1 0x44 SWAP2 DUP4 SWAP2 PUSH1 0x1 PUSH1 0x1 PUSH1 0xA0 SHL SUB AND GAS CALL SWAP5 DUP6 ISZERO PUSH2 0x996 JUMPI PUSH32 0x2DCF9433D75DB0D8B1C172641F85E319FFE4AD22E108A95D1847CEB906E5195D SWAP5 SWAP6 PUSH2 0x5F5 SWAP2 DUP9 SWAP2 PUSH2 0x979 JUMPI POP PUSH2 0x1309 JUMP JUMPDEST PUSH2 0x990 SWAP2 POP DUP4 RETURNDATASIZE DUP6 GT PUSH2 0x629 JUMPI PUSH2 0x61B DUP2 DUP4 PUSH2 0xD67 JUMP JUMPDEST DUP9 PUSH2 0x5E4 JUMP JUMPDEST DUP4 MLOAD RETURNDATASIZE DUP9 DUP3 RETURNDATACOPY RETURNDATASIZE SWAP1 REVERT JUMPDEST DUP4 MLOAD PUSH4 0x391434E3 PUSH1 0xE2 SHL DUP2 MSTORE CALLER SWAP2 DUP2 ADD SWAP2 DUP3 MSTORE PUSH1 0x20 DUP3 ADD DUP9 SWAP1 MSTORE PUSH1 0x40 DUP3 ADD DUP7 SWAP1 MSTORE SWAP1 DUP2 SWAP1 PUSH1 0x60 ADD SUB SWAP1 REVERT JUMPDEST DUP3 MLOAD PUSH4 0x4B637E8F PUSH1 0xE1 SHL DUP2 MSTORE DUP1 DUP8 ADD DUP7 SWAP1 MSTORE PUSH1 0x24 SWAP1 REVERT JUMPDEST DUP5 SWAP1 PUSH1 0x64 SWAP3 MLOAD SWAP2 PUSH3 0x461BCD PUSH1 0xE5 SHL DUP4 MSTORE DUP3 ADD MSTORE PUSH1 0x1A PUSH1 0x24 DUP3 ADD MSTORE PUSH32 0x496E73756666696369656E7420746F6B656E2062616C616E6365000000000000 PUSH1 0x44 DUP3 ADD MSTORE REVERT JUMPDEST POP POP CALLVALUE PUSH2 0x13B JUMPI DUP2 PUSH1 0x3 NOT CALLDATASIZE ADD SLT PUSH2 0x13B JUMPI PUSH1 0xC SLOAD SWAP1 MLOAD PUSH1 0x1 PUSH1 0x1 PUSH1 0xA0 SHL SUB SWAP1 SWAP2 AND DUP2 MSTORE PUSH1 0x20 SWAP1 RETURN JUMPDEST POP POP CALLVALUE PUSH2 0x13B JUMPI DUP2 PUSH1 0x3 NOT CALLDATASIZE ADD SLT PUSH2 0x13B JUMPI PUSH1 0x20 SWAP1 MLOAD PUSH1 0x12 DUP2 MSTORE RETURN JUMPDEST SWAP1 POP DUP3 CALLVALUE PUSH2 0x26C JUMPI PUSH1 0x60 CALLDATASIZE PUSH1 0x3 NOT ADD SLT PUSH2 0x26C JUMPI PUSH2 0xA85 PUSH2 0x1141 JUMP JUMPDEST PUSH2 0xA8D PUSH2 0x115C JUMP JUMPDEST SWAP2 PUSH1 0x44 CALLDATALOAD SWAP4 PUSH1 0x1 DUP1 PUSH1 0xA0 SHL SUB DUP4 AND DUP1 DUP4 MSTORE PUSH1 0x1 PUSH1 0x20 MSTORE DUP7 DUP4 KECCAK256 CALLER DUP5 MSTORE PUSH1 0x20 MSTORE DUP7 DUP4 KECCAK256 SLOAD SWAP2 PUSH1 0x0 NOT DUP4 SUB PUSH2 0xAC9 JUMPI JUMPDEST PUSH1 0x20 DUP9 PUSH2 0x299 DUP10 DUP10 DUP10 PUSH2 0x119E JUMP JUMPDEST DUP7 DUP4 LT PUSH2 0xB31 JUMPI DUP2 ISZERO PUSH2 0xB1A JUMPI CALLER ISZERO PUSH2 0xB03 JUMPI POP DUP3 MSTORE PUSH1 0x1 PUSH1 0x20 SWAP1 DUP2 MSTORE DUP7 DUP4 KECCAK256 CALLER DUP5 MSTORE DUP2 MSTORE SWAP2 DUP7 SWAP1 KECCAK256 SWAP1 DUP6 SWAP1 SUB SWAP1 SSTORE DUP3 SWAP1 PUSH2 0x299 DUP8 PUSH2 0xABB JUMP JUMPDEST DUP8 MLOAD PUSH4 0x4A1406B1 PUSH1 0xE1 SHL DUP2 MSTORE SWAP1 DUP2 ADD DUP5 SWAP1 MSTORE PUSH1 0x24 SWAP1 REVERT JUMPDEST DUP8 MLOAD PUSH4 0xE602DF05 PUSH1 0xE0 SHL DUP2 MSTORE SWAP1 DUP2 ADD DUP5 SWAP1 MSTORE PUSH1 0x24 SWAP1 REVERT JUMPDEST DUP8 MLOAD PUSH4 0x7DC7A0D9 PUSH1 0xE1 SHL DUP2 MSTORE CALLER SWAP2 DUP2 ADD SWAP2 DUP3 MSTORE PUSH1 0x20 DUP3 ADD SWAP4 SWAP1 SWAP4 MSTORE PUSH1 0x40 DUP2 ADD DUP8 SWAP1 MSTORE DUP3 SWAP2 POP PUSH1 0x60 ADD SUB SWAP1 REVERT JUMPDEST POP POP CALLVALUE PUSH2 0x13B JUMPI DUP2 PUSH1 0x3 NOT CALLDATASIZE ADD SLT PUSH2 0x13B JUMPI PUSH1 0x20 SWAP1 PUSH1 0x2 SLOAD SWAP1 MLOAD SWAP1 DUP2 MSTORE RETURN JUMPDEST SWAP1 POP CALLVALUE PUSH2 0x1CF JUMPI DUP2 PUSH1 0x3 NOT CALLDATASIZE ADD SLT PUSH2 0x1CF JUMPI PUSH2 0xB96 PUSH2 0x1141 JUMP JUMPDEST PUSH1 0x24 CALLDATALOAD SWAP1 CALLER ISZERO PUSH2 0xC0F JUMPI PUSH1 0x1 PUSH1 0x1 PUSH1 0xA0 SHL SUB AND SWAP2 DUP3 ISZERO PUSH2 0xBF8 JUMPI POP DUP1 DUP4 PUSH1 0x20 SWAP6 CALLER DUP2 MSTORE PUSH1 0x1 DUP8 MSTORE DUP2 DUP2 KECCAK256 DUP6 DUP3 MSTORE DUP8 MSTORE KECCAK256 SSTORE DUP3 MLOAD SWAP1 DUP2 MSTORE PUSH32 0x8C5BE1E5EBEC7D5BD14F71427D1E84F3DD0314C0F7B2291E5B200AC8C7C3B925 DUP5 CALLER SWAP3 LOG3 MLOAD PUSH1 0x1 DUP2 MSTORE RETURN JUMPDEST DUP4 MLOAD PUSH4 0x4A1406B1 PUSH1 0xE1 SHL DUP2 MSTORE SWAP1 DUP2 ADD DUP6 SWAP1 MSTORE PUSH1 0x24 SWAP1 REVERT JUMPDEST DUP4 MLOAD PUSH4 0xE602DF05 PUSH1 0xE0 SHL DUP2 MSTORE DUP1 DUP5 ADD DUP7 SWAP1 MSTORE PUSH1 0x24 SWAP1 REVERT JUMPDEST DUP3 DUP5 CALLVALUE PUSH2 0x26C JUMPI DUP1 PUSH1 0x3 NOT CALLDATASIZE ADD SLT PUSH2 0x26C JUMPI DUP2 MLOAD SWAP2 DUP2 PUSH1 0x3 SLOAD SWAP3 PUSH1 0x1 DUP5 DUP2 SHR SWAP2 DUP2 DUP7 AND SWAP6 DUP7 ISZERO PUSH2 0xD11 JUMPI JUMPDEST PUSH1 0x20 SWAP7 DUP8 DUP6 LT DUP2 EQ PUSH2 0x3D1 JUMPI DUP9 SWAP10 POP SWAP7 DUP9 SWAP7 SWAP8 DUP6 DUP3 SWAP11 MSTORE SWAP2 DUP3 PUSH1 0x0 EQ PUSH2 0xCEA JUMPI POP POP PUSH1 0x1 EQ PUSH2 0xC8E JUMPI JUMPDEST POP POP POP PUSH2 0x268 SWAP3 SWAP2 PUSH2 0x33D SWAP2 SUB DUP6 PUSH2 0xD67 JUMP JUMPDEST SWAP2 SWAP1 DUP7 SWAP4 POP PUSH1 0x3 DUP4 MSTORE PUSH32 0xC2575A0E9E593C00F959F8C92F12DB2869C3395A3B0502D05E2516446F71F85B JUMPDEST DUP3 DUP5 LT PUSH2 0xCD2 JUMPI POP POP POP DUP3 ADD ADD DUP2 PUSH2 0x33D PUSH2 0x268 PUSH2 0xC7B JUMP JUMPDEST DUP1 SLOAD DUP5 DUP11 ADD DUP7 ADD MSTORE DUP9 SWAP6 POP DUP8 SWAP5 SWAP1 SWAP4 ADD SWAP3 DUP2 ADD PUSH2 0xCB9 JUMP JUMPDEST PUSH1 0xFF NOT AND DUP8 DUP3 ADD MSTORE SWAP4 ISZERO ISZERO PUSH1 0x5 SHL DUP7 ADD SWAP1 SWAP4 ADD SWAP4 POP DUP5 SWAP3 POP PUSH2 0x33D SWAP2 POP PUSH2 0x268 SWAP1 POP PUSH2 0xC7B JUMP JUMPDEST SWAP3 PUSH1 0x7F AND SWAP3 PUSH2 0xC51 JUMP JUMPDEST DUP3 DUP5 CALLVALUE PUSH2 0x26C JUMPI DUP1 PUSH1 0x3 NOT CALLDATASIZE ADD SLT PUSH2 0x26C JUMPI POP PUSH2 0xD36 PUSH2 0xD9F JUMP JUMPDEST PUSH2 0x268 PUSH2 0xD41 PUSH2 0xE8A JUMP JUMPDEST SWAP3 PUSH2 0xD4A PUSH2 0xF3E JUMP JUMPDEST PUSH2 0xD52 PUSH2 0xFF2 JUMP JUMPDEST PUSH1 0xA SLOAD SWAP2 PUSH1 0xFF PUSH1 0xB SLOAD AND SWAP4 MLOAD SWAP7 DUP8 SWAP7 DUP8 PUSH2 0x10E6 JUMP JUMPDEST SWAP1 PUSH1 0x1F DUP1 NOT SWAP2 ADD AND DUP2 ADD SWAP1 DUP2 LT PUSH8 0xFFFFFFFFFFFFFFFF DUP3 GT OR PUSH2 0xD89 JUMPI PUSH1 0x40 MSTORE JUMP JUMPDEST PUSH4 0x4E487B71 PUSH1 0xE0 SHL PUSH1 0x0 MSTORE PUSH1 0x41 PUSH1 0x4 MSTORE PUSH1 0x24 PUSH1 0x0 REVERT JUMPDEST PUSH1 0x40 MLOAD SWAP1 PUSH1 0x0 PUSH1 0x6 SLOAD SWAP1 PUSH1 0x1 DUP3 DUP2 SHR SWAP1 DUP1 DUP5 AND SWAP4 DUP5 ISZERO PUSH2 0xE80 JUMPI JUMPDEST PUSH1 0x20 SWAP5 DUP6 DUP5 LT DUP2 EQ PUSH2 0xE6C JUMPI DUP4 DUP9 MSTORE DUP8 SWAP5 SWAP4 SWAP3 SWAP2 DUP2 ISZERO PUSH2 0xE4C JUMPI POP PUSH1 0x1 EQ PUSH2 0xDED JUMPI JUMPDEST POP POP PUSH2 0xDEB SWAP3 POP SUB DUP4 PUSH2 0xD67 JUMP JUMPDEST JUMP JUMPDEST SWAP1 SWAP4 SWAP2 POP PUSH1 0x6 PUSH1 0x0 MSTORE PUSH32 0xF652222313E28459528D920B65115C16C04F3EFC82AAEDC97BE59F3F377C0D3F SWAP4 PUSH1 0x0 SWAP2 JUMPDEST DUP2 DUP4 LT PUSH2 0xE34 JUMPI POP POP PUSH2 0xDEB SWAP4 POP DUP3 ADD ADD CODESIZE DUP1 PUSH2 0xDDD JUMP JUMPDEST DUP6 SLOAD DUP9 DUP5 ADD DUP6 ADD MSTORE SWAP5 DUP6 ADD SWAP5 DUP8 SWAP5 POP SWAP2 DUP4 ADD SWAP2 PUSH2 0xE1C JUMP JUMPDEST SWAP2 POP POP PUSH2 0xDEB SWAP5 SWAP3 POP PUSH1 0xFF NOT AND DUP3 DUP5 ADD MSTORE ISZERO ISZERO PUSH1 0x5 SHL DUP3 ADD ADD CODESIZE DUP1 PUSH2 0xDDD JUMP JUMPDEST PUSH4 0x4E487B71 PUSH1 0xE0 SHL DUP6 MSTORE PUSH1 0x22 PUSH1 0x4 MSTORE PUSH1 0x24 DUP6 REVERT JUMPDEST SWAP2 PUSH1 0x7F AND SWAP2 PUSH2 0xDBA JUMP JUMPDEST PUSH1 0x40 MLOAD SWAP1 PUSH1 0x0 PUSH1 0x7 SLOAD SWAP1 PUSH1 0x1 DUP3 DUP2 SHR SWAP1 DUP1 DUP5 AND SWAP4 DUP5 ISZERO PUSH2 0xF34 JUMPI JUMPDEST PUSH1 0x20 SWAP5 DUP6 DUP5 LT DUP2 EQ PUSH2 0xE6C JUMPI DUP4 DUP9 MSTORE DUP8 SWAP5 SWAP4 SWAP3 SWAP2 DUP2 ISZERO PUSH2 0xE4C JUMPI POP PUSH1 0x1 EQ PUSH2 0xED5 JUMPI POP POP PUSH2 0xDEB SWAP3 POP SUB DUP4 PUSH2 0xD67 JUMP JUMPDEST SWAP1 SWAP4 SWAP2 POP PUSH1 0x7 PUSH1 0x0 MSTORE PUSH32 0xA66CC928B5EDB82AF9BD49922954155AB7B0942694BEA4CE44661D9A8736C688 SWAP4 PUSH1 0x0 SWAP2 JUMPDEST DUP2 DUP4 LT PUSH2 0xF1C JUMPI POP POP PUSH2 0xDEB SWAP4 POP DUP3 ADD ADD CODESIZE DUP1 PUSH2 0xDDD JUMP JUMPDEST DUP6 SLOAD DUP9 DUP5 ADD DUP6 ADD MSTORE SWAP5 DUP6 ADD SWAP5 DUP8 SWAP5 POP SWAP2 DUP4 ADD SWAP2 PUSH2 0xF04 JUMP JUMPDEST SWAP2 PUSH1 0x7F AND SWAP2 PUSH2 0xEA5 JUMP JUMPDEST PUSH1 0x40 MLOAD SWAP1 PUSH1 0x0 PUSH1 0x8 SLOAD SWAP1 PUSH1 0x1 DUP3 DUP2 SHR SWAP1 DUP1 DUP5 AND SWAP4 DUP5 ISZERO PUSH2 0xFE8 JUMPI JUMPDEST PUSH1 0x20 SWAP5 DUP6 DUP5 LT DUP2 EQ PUSH2 0xE6C JUMPI DUP4 DUP9 MSTORE DUP8 SWAP5 SWAP4 SWAP3 SWAP2 DUP2 ISZERO PUSH2 0xE4C JUMPI POP PUSH1 0x1 EQ PUSH2 0xF89 JUMPI POP POP PUSH2 0xDEB SWAP3 POP SUB DUP4 PUSH2 0xD67 JUMP JUMPDEST SWAP1 SWAP4 SWAP2 POP PUSH1 0x8 PUSH1 0x0 MSTORE PUSH32 0xF3F7A9FE364FAAB93B216DA50A3214154F22A0A2B415B23A84C8169E8B636EE3 SWAP4 PUSH1 0x0 SWAP2 JUMPDEST DUP2 DUP4 LT PUSH2 0xFD0 JUMPI POP POP PUSH2 0xDEB SWAP4 POP DUP3 ADD ADD CODESIZE DUP1 PUSH2 0xDDD JUMP JUMPDEST DUP6 SLOAD DUP9 DUP5 ADD DUP6 ADD MSTORE SWAP5 DUP6 ADD SWAP5 DUP8 SWAP5 POP SWAP2 DUP4 ADD SWAP2 PUSH2 0xFB8 JUMP JUMPDEST SWAP2 PUSH1 0x7F AND SWAP2 PUSH2 0xF59 JUMP JUMPDEST PUSH1 0x40 MLOAD SWAP1 PUSH1 0x0 PUSH1 0x9 SLOAD SWAP1 PUSH1 0x1 DUP3 DUP2 SHR SWAP1 DUP1 DUP5 AND SWAP4 DUP5 ISZERO PUSH2 0x109C JUMPI JUMPDEST PUSH1 0x20 SWAP5 DUP6 DUP5 LT DUP2 EQ PUSH2 0xE6C JUMPI DUP4 DUP9 MSTORE DUP8 SWAP5 SWAP4 SWAP3 SWAP2 DUP2 ISZERO PUSH2 0xE4C JUMPI POP PUSH1 0x1 EQ PUSH2 0x103D JUMPI POP POP PUSH2 0xDEB SWAP3 POP SUB DUP4 PUSH2 0xD67 JUMP JUMPDEST SWAP1 SWAP4 SWAP2 POP PUSH1 0x9 PUSH1 0x0 MSTORE PUSH32 0x6E1540171B6C0C960B71A7020D9F60077F6AF931A8BBF590DA0223DACF75C7AF SWAP4 PUSH1 0x0 SWAP2 JUMPDEST DUP2 DUP4 LT PUSH2 0x1084 JUMPI POP POP PUSH2 0xDEB SWAP4 POP DUP3 ADD ADD CODESIZE DUP1 PUSH2 0xDDD JUMP JUMPDEST DUP6 SLOAD DUP9 DUP5 ADD DUP6 ADD MSTORE SWAP5 DUP6 ADD SWAP5 DUP8 SWAP5 POP SWAP2 DUP4 ADD SWAP2 PUSH2 0x106C JUMP JUMPDEST SWAP2 PUSH1 0x7F AND SWAP2 PUSH2 0x100D JUMP JUMPDEST SWAP2 SWAP1 DUP3 MLOAD SWAP3 DUP4 DUP3 MSTORE PUSH1 0x0 JUMPDEST DUP5 DUP2 LT PUSH2 0x10D2 JUMPI POP POP DUP3 PUSH1 0x0 PUSH1 0x20 DUP1 SWAP5 SWAP6 DUP5 ADD ADD MSTORE PUSH1 0x1F DUP1 NOT SWAP2 ADD AND ADD ADD SWAP1 JUMP JUMPDEST PUSH1 0x20 DUP2 DUP4 ADD DUP2 ADD MLOAD DUP5 DUP4 ADD DUP3 ADD MSTORE ADD PUSH2 0x10B1 JUMP JUMPDEST SWAP5 SWAP7 SWAP6 SWAP3 PUSH2 0x1126 SWAP1 PUSH2 0x1118 PUSH2 0x1134 SWAP5 PUSH2 0x110A PUSH1 0xA0 SWAP9 SWAP6 PUSH1 0xC0 DUP12 MSTORE PUSH1 0xC0 DUP12 ADD SWAP1 PUSH2 0x10A6 JUMP JUMPDEST SWAP1 DUP10 DUP3 SUB PUSH1 0x20 DUP12 ADD MSTORE PUSH2 0x10A6 JUMP JUMPDEST SWAP1 DUP8 DUP3 SUB PUSH1 0x40 DUP10 ADD MSTORE PUSH2 0x10A6 JUMP JUMPDEST SWAP1 DUP6 DUP3 SUB PUSH1 0x60 DUP8 ADD MSTORE PUSH2 0x10A6 JUMP JUMPDEST SWAP5 PUSH1 0x80 DUP5 ADD MSTORE ISZERO ISZERO SWAP2 ADD MSTORE JUMP JUMPDEST PUSH1 0x4 CALLDATALOAD SWAP1 PUSH1 0x1 PUSH1 0x1 PUSH1 0xA0 SHL SUB DUP3 AND DUP3 SUB PUSH2 0x1157 JUMPI JUMP JUMPDEST PUSH1 0x0 DUP1 REVERT JUMPDEST PUSH1 0x24 CALLDATALOAD SWAP1 PUSH1 0x1 PUSH1 0x1 PUSH1 0xA0 SHL SUB DUP3 AND DUP3 SUB PUSH2 0x1157 JUMPI JUMP JUMPDEST PUSH1 0x5 SLOAD PUSH1 0x1 PUSH1 0x1 PUSH1 0xA0 SHL SUB AND CALLER SUB PUSH2 0x1186 JUMPI JUMP JUMPDEST PUSH1 0x40 MLOAD PUSH4 0x118CDAA7 PUSH1 0xE0 SHL DUP2 MSTORE CALLER PUSH1 0x4 DUP3 ADD MSTORE PUSH1 0x24 SWAP1 REVERT JUMPDEST SWAP2 PUSH1 0x1 PUSH1 0x1 PUSH1 0xA0 SHL SUB DUP1 DUP5 AND SWAP3 DUP4 ISZERO PUSH2 0x1263 JUMPI AND SWAP3 DUP4 ISZERO PUSH2 0x124A JUMPI PUSH1 0x0 SWAP1 DUP4 DUP3 MSTORE DUP2 PUSH1 0x20 MSTORE PUSH1 0x40 DUP3 KECCAK256 SLOAD SWAP1 DUP4 DUP3 LT PUSH2 0x1218 JUMPI POP SWAP2 PUSH1 0x40 DUP3 DUP3 PUSH32 0xDDF252AD1BE2C89B69C2B068FC378DAA952BA7F163C4A11628F55A4DF523B3EF SWAP6 DUP8 PUSH1 0x20 SWAP7 MSTORE DUP3 DUP7 MSTORE SUB DUP3 DUP3 KECCAK256 SSTORE DUP7 DUP2 MSTORE KECCAK256 DUP2 DUP2 SLOAD ADD SWAP1 SSTORE PUSH1 0x40 MLOAD SWAP1 DUP2 MSTORE LOG3 JUMP JUMPDEST PUSH1 0x40 MLOAD PUSH4 0x391434E3 PUSH1 0xE2 SHL DUP2 MSTORE PUSH1 0x1 PUSH1 0x1 PUSH1 0xA0 SHL SUB SWAP2 SWAP1 SWAP2 AND PUSH1 0x4 DUP3 ADD MSTORE PUSH1 0x24 DUP2 ADD SWAP2 SWAP1 SWAP2 MSTORE PUSH1 0x44 DUP2 ADD DUP4 SWAP1 MSTORE PUSH1 0x64 SWAP1 REVERT JUMPDEST PUSH1 0x40 MLOAD PUSH4 0xEC442F05 PUSH1 0xE0 SHL DUP2 MSTORE PUSH1 0x0 PUSH1 0x4 DUP3 ADD MSTORE PUSH1 0x24 SWAP1 REVERT JUMPDEST PUSH1 0x40 MLOAD PUSH4 0x4B637E8F PUSH1 0xE1 SHL DUP2 MSTORE PUSH1 0x0 PUSH1 0x4 DUP3 ADD MSTORE PUSH1 0x24 SWAP1 REVERT JUMPDEST ISZERO PUSH2 0x1283 JUMPI JUMP JUMPDEST PUSH1 0x40 MLOAD PUSH3 0x461BCD PUSH1 0xE5 SHL DUP2 MSTORE PUSH1 0x20 PUSH1 0x4 DUP3 ADD MSTORE PUSH1 0x1D PUSH1 0x24 DUP3 ADD MSTORE PUSH32 0x416D6F756E74206D7573742062652067726561746572207468616E2030000000 PUSH1 0x44 DUP3 ADD MSTORE PUSH1 0x64 SWAP1 REVERT JUMPDEST DUP2 DUP2 MUL SWAP3 SWAP2 DUP2 ISZERO SWAP2 DUP5 DIV EQ OR ISZERO PUSH2 0x12DB JUMPI JUMP JUMPDEST PUSH4 0x4E487B71 PUSH1 0xE0 SHL PUSH1 0x0 MSTORE PUSH1 0x11 PUSH1 0x4 MSTORE PUSH1 0x24 PUSH1 0x0 REVERT JUMPDEST SWAP1 DUP2 PUSH1 0x20 SWAP2 SUB SLT PUSH2 0x1157 JUMPI MLOAD DUP1 ISZERO ISZERO DUP2 SUB PUSH2 0x1157 JUMPI SWAP1 JUMP JUMPDEST ISZERO PUSH2 0x1310 JUMPI JUMP JUMPDEST PUSH1 0x40 MLOAD PUSH3 0x461BCD PUSH1 0xE5 SHL DUP2 MSTORE PUSH1 0x20 PUSH1 0x4 DUP3 ADD MSTORE PUSH1 0x14 PUSH1 0x24 DUP3 ADD MSTORE PUSH20 0x11555490C81D1C985B9CD9995C8819985A5B1959 PUSH1 0x62 SHL PUSH1 0x44 DUP3 ADD MSTORE PUSH1 0x64 SWAP1 REVERT INVALID LOG2 PUSH5 0x6970667358 0x22 SLT KECCAK256 DUP10 BLOCKHASH 0x2D 0xCC ADD 0xCA 0xAE PUSH19 0x3E97F56F8BBFD69971C0C89A4B9BFC27146EAF JUMPDEST SWAP12 0xBD RETURNDATACOPY 0xEC PUSH5 0x736F6C6343 STOP ADDMOD EQ STOP CALLER 0xA6 PUSH13 0xC928B5EDB82AF9BD4992295415 GAS 0xB7 0xB0 SWAP5 0x26 SWAP5 0xBE LOG4 0xCE PREVRANDAO PUSH7 0x1D9A8736C688F3 0xF7 0xA9 INVALID CALLDATASIZE 0x4F 0xAA 0xB9 EXTCODESIZE 0x21 PUSH14 0xA50A3214154F22A0A2B415B23A84 0xC8 AND SWAP15 DUP12 PUSH4 0x6EE36E15 BLOCKHASH OR SHL PUSH13 0xC960B71A7020D9F60077F6AF9 BALANCE 0xA8 0xBB CREATE2 SWAP1 0xDA MUL 0x23 0xDA 0xCF PUSH22 0xC7AFF652222313E28459528D920B65115C16C04F3EFC DUP3 0xAA 0xED 0xC9 PUSH28 0xE59F3F377C0D3FA2646970667358221220780E2BC988AC9F30E9D7B2 COINBASE SDIV 0xC7 0xB4 0xD5 0xCD MLOAD 0xFC SWAP10 0xEA 0xEB GASLIMIT DUP4 PUSH10 0x3666BC9E581A4164736F PUSH13 0x63430008140033000000000000 "},"methodIdentifiers":{"approveProperty(address)":"11798bd1","approvedProperties(address)":"21499e8b","createProperty(string,string,string,string,uint256)":"0604e456","eurcTokenAddress()":"8cdb1c6d","getPropertyCreators()":"a1cda610","getPropertyStatus(address)":"e848a496","getUserProperties(address)":"060a3e61","owner()":"8da5cb5b","rejectProperty(address)":"88cbb358","renounceOwnership()":"715018a6","transferOwnership(address)":"f2fde38b","updateEURCToken(address)":"293172be","userProperties(address,uint256)":"e2271c9f"}}}}}