{"contracts/PropertyFactory.sol":{"PropertyFactory":{"abi":[{"inputs":[{"internalType":"address","name":"initialOwner","type":"address"}],"stateMutability":"nonpayable","type":"constructor"},{"inputs":[{"internalType":"address","name":"owner","type":"address"}],"name":"OwnableInvalidOwner","type":"error"},{"inputs":[{"internalType":"address","name":"account","type":"address"}],"name":"OwnableUnauthorizedAccount","type":"error"},{"anonymous":false,"inputs":[{"indexed":true,"internalType":"address","name":"previousOwner","type":"address"},{"indexed":true,"internalType":"address","name":"newOwner","type":"address"}],"name":"OwnershipTransferred","type":"event"},{"anonymous":false,"inputs":[{"indexed":true,"internalType":"address","name":"tokenAddress","type":"address"}],"name":"PropertyApproved","type":"event"},{"anonymous":false,"inputs":[{"indexed":true,"internalType":"address","name":"tokenAddress","type":"address"}],"name":"PropertyRejected","type":"event"},{"anonymous":false,"inputs":[{"indexed":true,"internalType":"address","name":"owner","type":"address"},{"indexed":true,"internalType":"address","name":"tokenAddress","type":"address"}],"name":"PropertySubmitted","type":"event"},{"inputs":[{"internalType":"address","name":"_propertyAddress","type":"address"}],"name":"approveProperty","outputs":[],"stateMutability":"nonpayable","type":"function"},{"inputs":[{"internalType":"address","name":"","type":"address"}],"name":"approvedProperties","outputs":[{"internalType":"bool","name":"","type":"bool"}],"stateMutability":"view","type":"function"},{"inputs":[{"internalType":"string","name":"_title","type":"string"},{"internalType":"string","name":"_description","type":"string"},{"internalType":"string","name":"_location","type":"string"},{"internalType":"string","name":"_imageUrl","type":"string"},{"internalType":"uint256","name":"_price","type":"uint256"}],"name":"createProperty","outputs":[{"internalType":"address","name":"","type":"address"}],"stateMutability":"nonpayable","type":"function"},{"inputs":[{"internalType":"address","name":"_user","type":"address"}],"name":"getUserProperties","outputs":[{"components":[{"internalType":"address","name":"tokenAddress","type":"address"},{"internalType":"bool","name":"isApproved","type":"bool"}],"internalType":"struct PropertyFactory.PropertyInfo[]","name":"","type":"tuple[]"}],"stateMutability":"view","type":"function"},{"inputs":[{"internalType":"address","name":"_propertyAddress","type":"address"}],"name":"isPropertyApproved","outputs":[{"internalType":"bool","name":"","type":"bool"}],"stateMutability":"view","type":"function"},{"inputs":[],"name":"owner","outputs":[{"internalType":"address","name":"","type":"address"}],"stateMutability":"view","type":"function"},{"inputs":[{"internalType":"address","name":"_propertyAddress","type":"address"}],"name":"rejectProperty","outputs":[],"stateMutability":"nonpayable","type":"function"},{"inputs":[],"name":"renounceOwnership","outputs":[],"stateMutability":"nonpayable","type":"function"},{"inputs":[{"internalType":"address","name":"newOwner","type":"address"}],"name":"transferOwnership","outputs":[],"stateMutability":"nonpayable","type":"function"},{"inputs":[{"internalType":"address","name":"","type":"address"},{"internalType":"uint256","name":"","type":"uint256"}],"name":"userProperties","outputs":[{"internalType":"address","name":"tokenAddress","type":"address"},{"internalType":"bool","name":"isApproved","type":"bool"}],"stateMutability":"view","type":"function"}],"evm":{"bytecode":{"linkReferences":{},"object":"6080346100bb57601f612ddc38819003918201601f19168301916001600160401b038311848410176100c0578084926020946040528339810103126100bb57516001600160a01b0390818116908190036100bb5780156100a257600080546001600160a01b03198116831782556040519316907f8be0079c531659141344cd1fd0a4f28419497f9722a3daafe3b4186f6b6457e09080a3612d0590816100d78239f35b604051631e4fbdf760e01b815260006004820152602490fd5b600080fd5b634e487b7160e01b600052604160045260246000fdfe604060808152600490813610156200001657600080fd5b600091823560e01c80630604e4561462000536578063060a3e61146200040f57806311798bd1146200033b57806321499e8b14620002f957806362477b4b14620002f9578063715018a6146200029b5783816388cbb35814620001cf575080638da5cb5b14620001a1578063e2271c9f14620001365763f2fde38b146200009c57600080fd5b34620001325760203660031901126200013257620000b962000ca9565b90620000c462000cef565b6001600160a01b039182169283156200011c575050600054826bffffffffffffffffffffffff60a01b821617600055167f8be0079c531659141344cd1fd0a4f28419497f9722a3daafe3b4186f6b6457e0600080a380f35b51631e4fbdf760e01b8152908101849052602490fd5b8280fd5b8284346200019e57816003193601126200019e576200015462000ca9565b6001600160a01b039081168252600160205282822080549192602435928310156200019e575060ff91620001889162000cc0565b50548351928116835260a01c1615156020820152f35b80fd5b505034620001cb5781600319360112620001cb57905490516001600160a01b039091168152602090f35b5080fd5b91905034620001cb576020366003190112620001cb57620001ef62000ca9565b620001f962000cef565b6001600160a01b0316808352600260205283832054909390620002209060ff161562000d5e565b833b1562000132578051630a1bb61760e41b8152918201839052828260248183885af19081156200029257506200027a575b50807f7398de549412614f936085bf40b8de774cc79aa59eca1d141f732afa1d06ed5d91a280f35b620002859062000c10565b620001cb57813862000252565b513d84823e3d90fd5b83346200019e57806003193601126200019e57620002b862000cef565b600080546001600160a01b0319811682556001600160a01b03167f8be0079c531659141344cd1fd0a4f28419497f9722a3daafe3b4186f6b6457e08280a380f35b505034620001cb576020366003190112620001cb5760209160ff9082906001600160a01b036200032862000ca9565b1681526002855220541690519015158152f35b50829034620001cb576020366003190112620001cb576200035b62000ca9565b6200036562000cef565b6001600160a01b03168083526002602052838320549093906200038c9060ff161562000d5e565b8383526002602052808320805460ff19166001179055833b1562000132576001815192630a1bb61760e41b8452830152828260248183885af1908115620002925750620003fd575b50907f471a6ffe019f8c983f020cef87372b7df53511fed02de5dc861b7fb8cc19d17f8280a280f35b620004089062000c10565b82620003d4565b50903462000132576020918260031936011262000532576001600160a01b0392836200043a62000ca9565b1685526001948582528381209384549367ffffffffffffffff85116200051f57509286928685519262000473838260051b018562000c25565b8084528284018098865283862086915b838310620004d5575050505085519582870193838852518094528087019794915b848310620004b25787890388f35b8551805182168a52840151151589850152978101979483019491860191620004a4565b90888087819d9b95948860ff8f9a9f9d9b9c9d5191620004f58362000bdd565b8754908116835260a01c161515838201528152019201920192509997999893989695949662000483565b634e487b7160e01b835260419052602482fd5b8380fd5b5091346200019e5760a03660031901126200019e5767ffffffffffffffff92803584811162000132576200056e903690830162000c48565b92602493843586811162000bd9576200058b903690850162000c48565b95604490813581811162000bd557620005a8903690870162000c48565b606490813599838b1162000bd157899a3690890190620005c89162000c48565b92875195620005d78762000bdd565b601d87528a8060209d898f9a8b8d91017f4372656174696e672070726f70657274792077697468207469746c653a0000009052620006159162000dab565b8b51620006228162000bdd565b600c8152868b82016b2232b9b1b934b83a34b7b71d60a11b9052620006479162000dab565b8b51620006548162000bdd565b60098152878b8201682637b1b0ba34b7b71d60b91b9052620006769162000dab565b8b51620006838162000bdd565b600a8152888b82016924b6b0b3b2902aa9261d60b11b9052620006a69162000dab565b8b51620006b38162000bdd565b600681528a810165283934b1b29d60d11b90528c80519b8c0192632d839cb360e21b84528c0152858b01620006e89162000d1c565b99806084359b8c8783015203601f198101825262000707908262000c25565b51905a6a636f6e736f6c652e6c6f6790fa508851620007268162000bdd565b600781528c81016629b2b73232b91d60c91b905233620007469162000e19565b87511562000b9b57601488511162000b5d5782511562000b1f57603283511162000ad25783511562000a9457601484511162000a575784511562000a195781855111620009cd5786156200098f57331562000958575050865195611e6280880195861188871017620009465792620007ee8c8998979694620007e0620007fc956200080b9862000e6e8d3960c08a5260c08a019062000d1c565b918883039089015262000d1c565b908582038a87015262000d1c565b90838203606085015262000d1c565b91608082015260a033910152039084f09182156200093c5781516001600160a01b03938416939062000873908590620008448162000bdd565b601a81527f50726f706572747920746f6b656e20637265617465642061743a0000000000008982015262000e19565b338552600186528285209083516200088b8162000bdd565b85815287810192878452805490680100000000000000008210156200092a5790620008bc9160018201815562000cc0565b94909462000919575051835492516001600160a81b031990931691161790151560a01b60ff60a01b161790555192935090819033907fc52096134fa3ad0a31f783ae63444e22ff5a177dd5392e4cba144ea83605a9849080a38152f35b634e487b7160e01b88528790528887fd5b634e487b7160e01b8952604186528a89fd5b81513d85823e3d90fd5b634e487b7160e01b8b5260418a528c8bfd5b75496e76616c69642073656e646572206164647265737360501b8a9160168f8f8d519562461bcd60e51b8752860152840152820152fd5b7f5072696365206d7573742062652067726561746572207468616e2030000000008a91601c8f8f8d519562461bcd60e51b8752860152840152820152fd5b61732960f01b6084927f496d6167652055524c20746f6f206c6f6e6720286d61782031303020636861728f938f8e956022918f519762461bcd60e51b8952880152860152840152820152fd5b7f496d6167652055524c2063616e6e6f7420626520656d707479000000000000008a9160198f8f8d519562461bcd60e51b8752860152840152820152fd5b7f4c6f636174696f6e20746f6f206c6f6e6720286d6178203230206368617273298a918d8f818d519562461bcd60e51b8752860152840152820152fd5b7f4c6f636174696f6e2063616e6e6f7420626520656d70747900000000000000008a9160188f8f8d519562461bcd60e51b8752860152840152820152fd5b6272732960e81b6084927f4465736372697074696f6e20746f6f206c6f6e6720286d6178203530206368618f938f8e956023918f519762461bcd60e51b8952880152860152840152820152fd5b7f4465736372697074696f6e2063616e6e6f7420626520656d70747900000000008a91601b8f8f8d519562461bcd60e51b8752860152840152820152fd5b7f5469746c6520746f6f206c6f6e6720286d6178203230206368617273290000008a91601d8f8f8d519562461bcd60e51b8752860152840152820152fd5b745469746c652063616e6e6f7420626520656d70747960581b8a9160158f8f8d519562461bcd60e51b8752860152840152820152fd5b8880fd5b8680fd5b8480fd5b6040810190811067ffffffffffffffff82111762000bfa57604052565b634e487b7160e01b600052604160045260246000fd5b67ffffffffffffffff811162000bfa57604052565b90601f8019910116810190811067ffffffffffffffff82111762000bfa57604052565b81601f8201121562000ca45780359067ffffffffffffffff821162000bfa576040519262000c81601f8401601f19166020018562000c25565b8284526020838301011162000ca457816000926020809301838601378301015290565b600080fd5b600435906001600160a01b038216820362000ca457565b805482101562000cd95760005260206000200190600090565b634e487b7160e01b600052603260045260246000fd5b6000546001600160a01b0316330362000d0457565b60405163118cdaa760e01b8152336004820152602490fd5b919082519283825260005b84811062000d49575050826000602080949584010152601f8019910116010190565b60208183018101518483018201520162000d27565b1562000d6657565b60405162461bcd60e51b815260206004820152601960248201527f50726f706572747920616c726561647920617070726f766564000000000000006044820152606490fd5b6000919062000df762000e06849360405192839162000de46020840196634b5c427760e01b885260406024860152606485019062000d1c565b8381036023190160448501529062000d1c565b03601f19810183528262000c25565b51906a636f6e736f6c652e6c6f675afa50565b60009190829162000e06604051809262000e4d602083019563319af33360e01b875260406024850152606484019062000d1c565b6001600160a01b0391909116604483015203601f19810183528262000c2556fe6080806040523462000f965762001e62803803809162000020828562000fd3565b8339810160c08282031262000f965781516001600160401b03811162000f9657816200004e9184016200101c565b60208301516001600160401b03811162000f965782620000709185016200101c565b60408401519091906001600160401b03811162000f965783620000959186016200101c565b606085015190936001600160401b03821162000f9657620000b89186016200101c565b608085015160a09095015192906001600160a01b038416840362000f9657604051620000e48162000f9b565b600e81526d283937b832b93a3c902a37b5b2b760911b6020820152604051906200010e8262000f9b565b6004825263050524f560e41b60208301528051906001600160401b038211620008d75760035490600182811c9216801562000f8b575b6020831014620008b65781601f84931162000f16575b50602090601f831160011462000e8b5760009262000e7f575b50508160011b916000199060031b1c1916176003555b8051906001600160401b038211620008d75760045490600182811c9216801562000e74575b6020831014620008b65781601f84931162000dff575b50602090601f831160011462000d705760009262000d64575b50508160011b916000199060031b1c1916176004555b6001600160a01b0384161562000d4b57600580546001600160a01b038681166001600160a01b031983168117909355167f8be0079c531659141344cd1fd0a4f28419497f9722a3daafe3b4186f6b6457e0600080a3600080620002bf620002e1604051620002618162000fb7565b602281527f4372656174696e672050726f7065727479546f6b656e2077697468207469746c602082015261329d60f11b6040820152620002d2604051938492634b5c427760e01b602085015260406024850152606484019062001077565b8281036023190160448401528962001077565b03601f19810183528262000fd3565b6020815191016a636f6e736f6c652e6c6f675afa50600080604051620003078162000f9b565b6006815265283934b1b29d60d11b60208201526040516200035c81620003476020820194632d839cb360e21b865260406024840152606483019062001077565b8c604483015203601f19810183528262000fd3565b51906a636f6e736f6c652e6c6f675afa506000806040516200037e8162000f9b565b600e81526d24b734ba34b0b61037bbb732b91d60911b6020820152604051620003e481620003c6602082019463319af33360e01b865260406024840152606483019062001077565b6001600160a01b038b16604483015203601f19810183528262000fd3565b51906a636f6e736f6c652e6c6f675afa508251801515908162000d3e575b501562000cf9578151801515908162000cec575b501562000ca7578451801515908162000c9a575b501562000c55578051801515908162000c48575b501562000c0357851562000bbe57604051916001600160401b0360c0840190811190841117620008d75760c0830160405283835260208301528460408301526060820152846080820152600160a0820152815160018060401b038111620008d757600654600181811c9116801562000bb3575b6020821014620008b657601f811162000b5e575b50806020601f821160011462000ae55760009162000ad9575b508160011b916000199060031b1c1916176006555b60208101518051906001600160401b038211620008d75760075490600182811c9216801562000ace575b6020831014620008b65781601f84931162000a6d575b50602090601f8311600114620009ef57600092620009e3575b50508160011b916000199060031b1c1916176007555b60408101518051906001600160401b038211620008d75760085490600182811c92168015620009d8575b6020831014620008b65781601f84931162000977575b50602090601f8311600114620008f957600092620008ed575b50508160011b916000199060031b1c1916176008555b60608101518051906001600160401b038211620008d757600954600181811c91168015620008cc575b6020821014620008b657601f81116200085d575b50602090601f8311600114620007df5760a093929160009183620007d3575b50508160011b916000199060031b1c1916176009555b6080810151600a550151151560ff8019600b5416911617600b5560025491683635c9adc5dea0000092838101809111620007bd576002556001600160a01b038116600081815260208181526040808320805488019055519586527f6a3469cad0792fe1fea0bc1ddba3dfba95b7e9bc169a5d391d283dbe2ea64e959662000705966200071494919391927fddf252ad1be2c89b69c2b068fc378daa952ba7f163c4a11628f55a4df523b3ef91a360405194859460608652606086019062001077565b90848203602086015262001077565b60408301959095526001600160a01b0316930390a26000806040516200073a8162000fb7565b602281527f50726f7065727479546f6b656e2063726561746564207375636365737366756c6020820152616c7960f01b60408201526040516200079c81620002d2602082019463104c13eb60e21b865260206024840152604483019062001077565b51906a636f6e736f6c652e6c6f675afa50604051610d4390816200109f8239f35b634e487b7160e01b600052601160045260246000fd5b0151905038806200062d565b6009600090815260008051602062001e22833981519152929190601f198516905b81811062000844575091600193918560a0979694106200082a575b505050811b0160095562000643565b015160001960f88460031b161c191690553880806200081b565b9293602060018192878601518155019501930162000800565b600960005260008051602062001e22833981519152601f840160051c81019160208510620008ab575b601f0160051c01905b8181106200089e57506200060e565b600081556001016200088f565b909150819062000886565b634e487b7160e01b600052602260045260246000fd5b90607f1690620005fa565b634e487b7160e01b600052604160045260246000fd5b015190503880620005bb565b60086000908152935060008051602062001e0283398151915291905b601f19841685106200095b576001945083601f1981161062000941575b505050811b01600855620005d1565b015160001960f88460031b161c1916905538808062000932565b8181015183556020948501946001909301929091019062000915565b600860005290915060008051602062001e02833981519152601f840160051c810160208510620009d0575b90849392915b601f830160051c82018110620009c0575050620005a2565b60008155859450600101620009a8565b5080620009a2565b91607f16916200058c565b0151905038806200054c565b60076000908152935060008051602062001de283398151915291905b601f198416851062000a51576001945083601f1981161062000a37575b505050811b0160075562000562565b015160001960f88460031b161c1916905538808062000a28565b8181015183556020948501946001909301929091019062000a0b565b600760005290915060008051602062001de2833981519152601f840160051c81016020851062000ac6575b90849392915b601f830160051c8201811062000ab657505062000533565b6000815585945060010162000a9e565b508062000a98565b91607f16916200051d565b905083015138620004de565b60066000908152925060008051602062001e42833981519152905b601f198316841062000b45576001935082601f1981161062000b2b575b5050811b01600655620004f3565b85015160001960f88460031b161c19169055388062000b1d565b8581015182556020938401936001909201910162000b00565b600660005260008051602062001e42833981519152601f830160051c81016020841062000bab575b601f830160051c8201811062000b9e575050620004c5565b6000815560010162000b86565b508062000b86565b90607f1690620004b1565b60405162461bcd60e51b815260206004820152601c60248201527f5072696365206d7573742062652067726561746572207468616e2030000000006044820152606490fd5b60405162461bcd60e51b815260206004820152601860248201527f496e76616c696420696d6167652055524c206c656e67746800000000000000006044820152606490fd5b606491501115386200043e565b60405162461bcd60e51b815260206004820152601760248201527f496e76616c6964206c6f636174696f6e206c656e6774680000000000000000006044820152606490fd5b601491501115386200042a565b60405162461bcd60e51b815260206004820152601a60248201527f496e76616c6964206465736372697074696f6e206c656e6774680000000000006044820152606490fd5b6032915011153862000416565b60405162461bcd60e51b815260206004820152601460248201527f496e76616c6964207469746c65206c656e6774680000000000000000000000006044820152606490fd5b6014915011153862000402565b604051631e4fbdf760e01b815260006004820152602490fd5b015190503880620001dd565b6004600090815293507f8a35acfbc15ff81a39ae7d344fd709f28e8600b4aa8c65c6b64bfe7fe36bd19b91905b601f198416851062000de3576001945083601f1981161062000dc9575b505050811b01600455620001f3565b015160001960f88460031b161c1916905538808062000dba565b8181015183556020948501946001909301929091019062000d9d565b60046000529091507f8a35acfbc15ff81a39ae7d344fd709f28e8600b4aa8c65c6b64bfe7fe36bd19b601f840160051c8101916020851062000e69575b90601f859493920160051c01905b81811062000e595750620001c4565b6000815584935060010162000e4a565b909150819062000e3c565b91607f1691620001ae565b01519050388062000173565b600360009081527fc2575a0e9e593c00f959f8c92f12db2869c3395a3b0502d05e2516446f71f85b9350601f198516905b81811062000efd575090846001959493921062000ee3575b505050811b0160035562000189565b015160001960f88460031b161c1916905538808062000ed4565b9293602060018192878601518155019501930162000ebc565b60036000529091507fc2575a0e9e593c00f959f8c92f12db2869c3395a3b0502d05e2516446f71f85b601f840160051c8101916020851062000f80575b90601f859493920160051c01905b81811062000f7057506200015a565b6000815584935060010162000f61565b909150819062000f53565b91607f169162000144565b600080fd5b604081019081106001600160401b03821117620008d757604052565b606081019081106001600160401b03821117620008d757604052565b601f909101601f19168101906001600160401b03821190821017620008d757604052565b60005b8381106200100b5750506000910152565b818101518382015260200162000ffa565b81601f8201121562000f965780516001600160401b038111620008d7576040519262001053601f8301601f19166020018562000fd3565b8184526020828401011162000f965762001074916020808501910162000ff7565b90565b90602091620010928151809281855285808601910162000ff7565b601f01601f191601019056fe6040608081526004908136101561001557600080fd5b600091823560e01c80627dc372146107a457806306fdde03146106c0578063095ea7b31461061757806318160ddd146105f857806323b872dd14610505578063313ce567146104e957806370a08231146104b2578063715018a6146104555780638d6cc56d146103e75780638da5cb5b146103be578063902d55a51461039a57806395d89b4114610275578063a1bb61701461023e578063a9059cbb1461020d578063d81bc271146101ba578063dd62ed3e1461016d5763f2fde38b146100db57600080fd5b34610169576020366003190112610169576100f4610bd2565b906100fd610c03565b6001600160a01b03918216928315610153575050600554826bffffffffffffffffffffffff60a01b821617600555167f8be0079c531659141344cd1fd0a4f28419497f9722a3daafe3b4186f6b6457e08380a380f35b51631e4fbdf760e01b8152908101849052602490fd5b8280fd5b5050346101b657806003193601126101b6578060209261018b610bd2565b610193610bed565b6001600160a01b0391821683526001865283832091168252845220549051908152f35b5080fd5b82843461020a578060031936011261020a5750600a5461020660ff600b54166101e16107f0565b926101ea6108f7565b946101f36109b7565b6101fb610a77565b915196879687610b77565b0390f35b80fd5b5050346101b657806003193601126101b65760209061023761022d610bd2565b6024359033610c2f565b5160018152f35b8382346101b65760203660031901126101b657358015158091036101b657610264610c03565b60ff8019600b5416911617600b5580f35b509190346101b657816003193601126101b6578051908290845491600183811c90808516948515610390575b602095868410811461037d57838852908690821561036157505060011461030d575b5050839003601f01601f191683019367ffffffffffffffff8511848610176102fa5750916102069184809452808452830190610b37565b634e487b7160e01b815260418652602490fd5b8787528492508691907f8a35acfbc15ff81a39ae7d344fd709f28e8600b4aa8c65c6b64bfe7fe36bd19b5b82841061034c5750505084010138806102c3565b80548885018601528694909301928101610338565b925093505060ff191682860152151560051b84010138806102c3565b634e487b7160e01b895260228a52602489fd5b91607f16916102a1565b5050346101b657816003193601126101b65760209051683635c9adc5dea000008152f35b5050346101b657816003193601126101b65760055490516001600160a01b039091168152602090f35b503461016957602036600319011261016957803591610404610c03565b8215610412575050600a5580f35b906020606492519162461bcd60e51b8352820152601c60248201527f5072696365206d7573742062652067726561746572207468616e2030000000006044820152fd5b833461020a578060031936011261020a5761046e610c03565b600580546001600160a01b0319811690915581906001600160a01b03167f8be0079c531659141344cd1fd0a4f28419497f9722a3daafe3b4186f6b6457e08280a380f35b5050346101b65760203660031901126101b65760209181906001600160a01b036104da610bd2565b16815280845220549051908152f35b5050346101b657816003193601126101b6576020905160128152f35b50823461020a57606036600319011261020a57610520610bd2565b610528610bed565b916044359360018060a01b038316808352600160205286832033845260205286832054916000198303610564575b602088610237898989610c2f565b8683106105cc5781156105b557331561059e5750825260016020908152868320338452815291869020908590039055829061023787610556565b8751634a1406b160e11b8152908101849052602490fd5b875163e602df0560e01b8152908101849052602490fd5b8751637dc7a0d960e11b8152339181019182526020820193909352604081018790528291506060010390fd5b5050346101b657816003193601126101b6576020906002549051908152f35b5034610169578160031936011261016957610630610bd2565b6024359033156106a9576001600160a01b031691821561069257508083602095338152600187528181208582528752205582519081527f8c5be1e5ebec7d5bd14f71427d1e84f3dd0314c0f7b2291e5b200ac8c7c3b925843392a35160018152f35b8351634a1406b160e11b8152908101859052602490fd5b835163e602df0560e01b8152808401869052602490fd5b509190346101b657816003193601126101b657805190829060035491600183811c9080851694851561079a575b602095868410811461037d578388529086908215610361575050600114610745575050839003601f01601f191683019367ffffffffffffffff8511848610176102fa5750916102069184809452808452830190610b37565b600387528492508691907fc2575a0e9e593c00f959f8c92f12db2869c3395a3b0502d05e2516446f71f85b5b8284106107855750505084010138806102c3565b80548885018601528694909301928101610771565b91607f16916106ed565b82843461020a578060031936011261020a57506107bf6107f0565b6102066107ca6108f7565b926107d36109b7565b6107db610a77565b600a549160ff600b5416935196879687610b77565b604051906000600654600181811c908083169283156108ed575b60209384841081146108d9578388529081156108bd5750600114610866575b505050829003601f01601f1916820167ffffffffffffffff81118382101761085057604052565b634e487b7160e01b600052604160045260246000fd5b60066000908152929350837ff652222313e28459528d920b65115c16c04f3efc82aaedc97be59f3f377c0d3f5b8385106108a95750505050830101388080610829565b805488860183015293019284908201610893565b60ff1916878501525050151560051b8401019050388080610829565b634e487b7160e01b86526022600452602486fd5b91607f169161080a565b604051906000600754600181811c908083169283156109ad575b60209384841081146108d9578388529081156108bd575060011461095657505050829003601f01601f1916820167ffffffffffffffff81118382101761085057604052565b60076000908152929350837fa66cc928b5edb82af9bd49922954155ab7b0942694bea4ce44661d9a8736c6885b8385106109995750505050830101388080610829565b805488860183015293019284908201610983565b91607f1691610911565b604051906000600854600181811c90808316928315610a6d575b60209384841081146108d9578388529081156108bd5750600114610a1657505050829003601f01601f1916820167ffffffffffffffff81118382101761085057604052565b60086000908152929350837ff3f7a9fe364faab93b216da50a3214154f22a0a2b415b23a84c8169e8b636ee35b838510610a595750505050830101388080610829565b805488860183015293019284908201610a43565b91607f16916109d1565b604051906000600954600181811c90808316928315610b2d575b60209384841081146108d9578388529081156108bd5750600114610ad657505050829003601f01601f1916820167ffffffffffffffff81118382101761085057604052565b60096000908152929350837f6e1540171b6c0c960b71a7020d9f60077f6af931a8bbf590da0223dacf75c7af5b838510610b195750505050830101388080610829565b805488860183015293019284908201610b03565b91607f1691610a91565b919082519283825260005b848110610b63575050826000602080949584010152601f8019910116010190565b602081830181015184830182015201610b42565b94969592610bb790610ba9610bc594610b9b60a0989560c08b5260c08b0190610b37565b9089820360208b0152610b37565b908782036040890152610b37565b908582036060870152610b37565b9460808401521515910152565b600435906001600160a01b0382168203610be857565b600080fd5b602435906001600160a01b0382168203610be857565b6005546001600160a01b03163303610c1757565b60405163118cdaa760e01b8152336004820152602490fd5b916001600160a01b03808416928315610cf45716928315610cdb5760009083825281602052604082205490838210610ca9575091604082827fddf252ad1be2c89b69c2b068fc378daa952ba7f163c4a11628f55a4df523b3ef958760209652828652038282205586815220818154019055604051908152a3565b60405163391434e360e21b81526001600160a01b03919091166004820152602481019190915260448101839052606490fd5b60405163ec442f0560e01b815260006004820152602490fd5b604051634b637e8f60e11b815260006004820152602490fdfea26469706673582212204101bcef1966a475fd87b9c6d34a815bd597fa252289d224c2f99eae69d8ec8564736f6c63430008140033a66cc928b5edb82af9bd49922954155ab7b0942694bea4ce44661d9a8736c688f3f7a9fe364faab93b216da50a3214154f22a0a2b415b23a84c8169e8b636ee36e1540171b6c0c960b71a7020d9f60077f6af931a8bbf590da0223dacf75c7aff652222313e28459528d920b65115c16c04f3efc82aaedc97be59f3f377c0d3fa2646970667358221220a537b9e6f9b396725588d18ca700406773c0984946e6ef2df5b4c2f1bc0d5d5d64736f6c63430008140033","opcodes":"PUSH1 0x80 CALLVALUE PUSH2 0xBB JUMPI PUSH1 0x1F PUSH2 0x2DDC CODESIZE DUP2 SWAP1 SUB SWAP2 DUP3 ADD PUSH1 0x1F NOT AND DUP4 ADD SWAP2 PUSH1 0x1 PUSH1 0x1 PUSH1 0x40 SHL SUB DUP4 GT DUP5 DUP5 LT OR PUSH2 0xC0 JUMPI DUP1 DUP5 SWAP3 PUSH1 0x20 SWAP5 PUSH1 0x40 MSTORE DUP4 CODECOPY DUP2 ADD SUB SLT PUSH2 0xBB JUMPI MLOAD PUSH1 0x1 PUSH1 0x1 PUSH1 0xA0 SHL SUB SWAP1 DUP2 DUP2 AND SWAP1 DUP2 SWAP1 SUB PUSH2 0xBB JUMPI DUP1 ISZERO PUSH2 0xA2 JUMPI PUSH1 0x0 DUP1 SLOAD PUSH1 0x1 PUSH1 0x1 PUSH1 0xA0 SHL SUB NOT DUP2 AND DUP4 OR DUP3 SSTORE PUSH1 0x40 MLOAD SWAP4 AND SWAP1 PUSH32 0x8BE0079C531659141344CD1FD0A4F28419497F9722A3DAAFE3B4186F6B6457E0 SWAP1 DUP1 LOG3 PUSH2 0x2D05 SWAP1 DUP2 PUSH2 0xD7 DUP3 CODECOPY RETURN JUMPDEST PUSH1 0x40 MLOAD PUSH4 0x1E4FBDF7 PUSH1 0xE0 SHL DUP2 MSTORE PUSH1 0x0 PUSH1 0x4 DUP3 ADD MSTORE PUSH1 0x24 SWAP1 REVERT JUMPDEST PUSH1 0x0 DUP1 REVERT JUMPDEST PUSH4 0x4E487B71 PUSH1 0xE0 SHL PUSH1 0x0 MSTORE PUSH1 0x41 PUSH1 0x4 MSTORE PUSH1 0x24 PUSH1 0x0 REVERT INVALID PUSH1 0x40 PUSH1 0x80 DUP2 MSTORE PUSH1 0x4 SWAP1 DUP2 CALLDATASIZE LT ISZERO PUSH3 0x16 JUMPI PUSH1 0x0 DUP1 REVERT JUMPDEST PUSH1 0x0 SWAP2 DUP3 CALLDATALOAD PUSH1 0xE0 SHR DUP1 PUSH4 0x604E456 EQ PUSH3 0x536 JUMPI DUP1 PUSH4 0x60A3E61 EQ PUSH3 0x40F JUMPI DUP1 PUSH4 0x11798BD1 EQ PUSH3 0x33B JUMPI DUP1 PUSH4 0x21499E8B EQ PUSH3 0x2F9 JUMPI DUP1 PUSH4 0x62477B4B EQ PUSH3 0x2F9 JUMPI DUP1 PUSH4 0x715018A6 EQ PUSH3 0x29B JUMPI DUP4 DUP2 PUSH4 0x88CBB358 EQ PUSH3 0x1CF JUMPI POP DUP1 PUSH4 0x8DA5CB5B EQ PUSH3 0x1A1 JUMPI DUP1 PUSH4 0xE2271C9F EQ PUSH3 0x136 JUMPI PUSH4 0xF2FDE38B EQ PUSH3 0x9C JUMPI PUSH1 0x0 DUP1 REVERT JUMPDEST CALLVALUE PUSH3 0x132 JUMPI PUSH1 0x20 CALLDATASIZE PUSH1 0x3 NOT ADD SLT PUSH3 0x132 JUMPI PUSH3 0xB9 PUSH3 0xCA9 JUMP JUMPDEST SWAP1 PUSH3 0xC4 PUSH3 0xCEF JUMP JUMPDEST PUSH1 0x1 PUSH1 0x1 PUSH1 0xA0 SHL SUB SWAP2 DUP3 AND SWAP3 DUP4 ISZERO PUSH3 0x11C JUMPI POP POP PUSH1 0x0 SLOAD DUP3 PUSH12 0xFFFFFFFFFFFFFFFFFFFFFFFF PUSH1 0xA0 SHL DUP3 AND OR PUSH1 0x0 SSTORE AND PUSH32 0x8BE0079C531659141344CD1FD0A4F28419497F9722A3DAAFE3B4186F6B6457E0 PUSH1 0x0 DUP1 LOG3 DUP1 RETURN JUMPDEST MLOAD PUSH4 0x1E4FBDF7 PUSH1 0xE0 SHL DUP2 MSTORE SWAP1 DUP2 ADD DUP5 SWAP1 MSTORE PUSH1 0x24 SWAP1 REVERT JUMPDEST DUP3 DUP1 REVERT JUMPDEST DUP3 DUP5 CALLVALUE PUSH3 0x19E JUMPI DUP2 PUSH1 0x3 NOT CALLDATASIZE ADD SLT PUSH3 0x19E JUMPI PUSH3 0x154 PUSH3 0xCA9 JUMP JUMPDEST PUSH1 0x1 PUSH1 0x1 PUSH1 0xA0 SHL SUB SWAP1 DUP2 AND DUP3 MSTORE PUSH1 0x1 PUSH1 0x20 MSTORE DUP3 DUP3 KECCAK256 DUP1 SLOAD SWAP2 SWAP3 PUSH1 0x24 CALLDATALOAD SWAP3 DUP4 LT ISZERO PUSH3 0x19E JUMPI POP PUSH1 0xFF SWAP2 PUSH3 0x188 SWAP2 PUSH3 0xCC0 JUMP JUMPDEST POP SLOAD DUP4 MLOAD SWAP3 DUP2 AND DUP4 MSTORE PUSH1 0xA0 SHR AND ISZERO ISZERO PUSH1 0x20 DUP3 ADD MSTORE RETURN JUMPDEST DUP1 REVERT JUMPDEST POP POP CALLVALUE PUSH3 0x1CB JUMPI DUP2 PUSH1 0x3 NOT CALLDATASIZE ADD SLT PUSH3 0x1CB JUMPI SWAP1 SLOAD SWAP1 MLOAD PUSH1 0x1 PUSH1 0x1 PUSH1 0xA0 SHL SUB SWAP1 SWAP2 AND DUP2 MSTORE PUSH1 0x20 SWAP1 RETURN JUMPDEST POP DUP1 REVERT JUMPDEST SWAP2 SWAP1 POP CALLVALUE PUSH3 0x1CB JUMPI PUSH1 0x20 CALLDATASIZE PUSH1 0x3 NOT ADD SLT PUSH3 0x1CB JUMPI PUSH3 0x1EF PUSH3 0xCA9 JUMP JUMPDEST PUSH3 0x1F9 PUSH3 0xCEF JUMP JUMPDEST PUSH1 0x1 PUSH1 0x1 PUSH1 0xA0 SHL SUB AND DUP1 DUP4 MSTORE PUSH1 0x2 PUSH1 0x20 MSTORE DUP4 DUP4 KECCAK256 SLOAD SWAP1 SWAP4 SWAP1 PUSH3 0x220 SWAP1 PUSH1 0xFF AND ISZERO PUSH3 0xD5E JUMP JUMPDEST DUP4 EXTCODESIZE ISZERO PUSH3 0x132 JUMPI DUP1 MLOAD PUSH4 0xA1BB617 PUSH1 0xE4 SHL DUP2 MSTORE SWAP2 DUP3 ADD DUP4 SWAP1 MSTORE DUP3 DUP3 PUSH1 0x24 DUP2 DUP4 DUP9 GAS CALL SWAP1 DUP2 ISZERO PUSH3 0x292 JUMPI POP PUSH3 0x27A JUMPI JUMPDEST POP DUP1 PUSH32 0x7398DE549412614F936085BF40B8DE774CC79AA59ECA1D141F732AFA1D06ED5D SWAP2 LOG2 DUP1 RETURN JUMPDEST PUSH3 0x285 SWAP1 PUSH3 0xC10 JUMP JUMPDEST PUSH3 0x1CB JUMPI DUP2 CODESIZE PUSH3 0x252 JUMP JUMPDEST MLOAD RETURNDATASIZE DUP5 DUP3 RETURNDATACOPY RETURNDATASIZE SWAP1 REVERT JUMPDEST DUP4 CALLVALUE PUSH3 0x19E JUMPI DUP1 PUSH1 0x3 NOT CALLDATASIZE ADD SLT PUSH3 0x19E JUMPI PUSH3 0x2B8 PUSH3 0xCEF JUMP JUMPDEST PUSH1 0x0 DUP1 SLOAD PUSH1 0x1 PUSH1 0x1 PUSH1 0xA0 SHL SUB NOT DUP2 AND DUP3 SSTORE PUSH1 0x1 PUSH1 0x1 PUSH1 0xA0 SHL SUB AND PUSH32 0x8BE0079C531659141344CD1FD0A4F28419497F9722A3DAAFE3B4186F6B6457E0 DUP3 DUP1 LOG3 DUP1 RETURN JUMPDEST POP POP CALLVALUE PUSH3 0x1CB JUMPI PUSH1 0x20 CALLDATASIZE PUSH1 0x3 NOT ADD SLT PUSH3 0x1CB JUMPI PUSH1 0x20 SWAP2 PUSH1 0xFF SWAP1 DUP3 SWAP1 PUSH1 0x1 PUSH1 0x1 PUSH1 0xA0 SHL SUB PUSH3 0x328 PUSH3 0xCA9 JUMP JUMPDEST AND DUP2 MSTORE PUSH1 0x2 DUP6 MSTORE KECCAK256 SLOAD AND SWAP1 MLOAD SWAP1 ISZERO ISZERO DUP2 MSTORE RETURN JUMPDEST POP DUP3 SWAP1 CALLVALUE PUSH3 0x1CB JUMPI PUSH1 0x20 CALLDATASIZE PUSH1 0x3 NOT ADD SLT PUSH3 0x1CB JUMPI PUSH3 0x35B PUSH3 0xCA9 JUMP JUMPDEST PUSH3 0x365 PUSH3 0xCEF JUMP JUMPDEST PUSH1 0x1 PUSH1 0x1 PUSH1 0xA0 SHL SUB AND DUP1 DUP4 MSTORE PUSH1 0x2 PUSH1 0x20 MSTORE DUP4 DUP4 KECCAK256 SLOAD SWAP1 SWAP4 SWAP1 PUSH3 0x38C SWAP1 PUSH1 0xFF AND ISZERO PUSH3 0xD5E JUMP JUMPDEST DUP4 DUP4 MSTORE PUSH1 0x2 PUSH1 0x20 MSTORE DUP1 DUP4 KECCAK256 DUP1 SLOAD PUSH1 0xFF NOT AND PUSH1 0x1 OR SWAP1 SSTORE DUP4 EXTCODESIZE ISZERO PUSH3 0x132 JUMPI PUSH1 0x1 DUP2 MLOAD SWAP3 PUSH4 0xA1BB617 PUSH1 0xE4 SHL DUP5 MSTORE DUP4 ADD MSTORE DUP3 DUP3 PUSH1 0x24 DUP2 DUP4 DUP9 GAS CALL SWAP1 DUP2 ISZERO PUSH3 0x292 JUMPI POP PUSH3 0x3FD JUMPI JUMPDEST POP SWAP1 PUSH32 0x471A6FFE019F8C983F020CEF87372B7DF53511FED02DE5DC861B7FB8CC19D17F DUP3 DUP1 LOG2 DUP1 RETURN JUMPDEST PUSH3 0x408 SWAP1 PUSH3 0xC10 JUMP JUMPDEST DUP3 PUSH3 0x3D4 JUMP JUMPDEST POP SWAP1 CALLVALUE PUSH3 0x132 JUMPI PUSH1 0x20 SWAP2 DUP3 PUSH1 0x3 NOT CALLDATASIZE ADD SLT PUSH3 0x532 JUMPI PUSH1 0x1 PUSH1 0x1 PUSH1 0xA0 SHL SUB SWAP3 DUP4 PUSH3 0x43A PUSH3 0xCA9 JUMP JUMPDEST AND DUP6 MSTORE PUSH1 0x1 SWAP5 DUP6 DUP3 MSTORE DUP4 DUP2 KECCAK256 SWAP4 DUP5 SLOAD SWAP4 PUSH8 0xFFFFFFFFFFFFFFFF DUP6 GT PUSH3 0x51F JUMPI POP SWAP3 DUP7 SWAP3 DUP7 DUP6 MLOAD SWAP3 PUSH3 0x473 DUP4 DUP3 PUSH1 0x5 SHL ADD DUP6 PUSH3 0xC25 JUMP JUMPDEST DUP1 DUP5 MSTORE DUP3 DUP5 ADD DUP1 SWAP9 DUP7 MSTORE DUP4 DUP7 KECCAK256 DUP7 SWAP2 JUMPDEST DUP4 DUP4 LT PUSH3 0x4D5 JUMPI POP POP POP POP DUP6 MLOAD SWAP6 DUP3 DUP8 ADD SWAP4 DUP4 DUP9 MSTORE MLOAD DUP1 SWAP5 MSTORE DUP1 DUP8 ADD SWAP8 SWAP5 SWAP2 JUMPDEST DUP5 DUP4 LT PUSH3 0x4B2 JUMPI DUP8 DUP10 SUB DUP9 RETURN JUMPDEST DUP6 MLOAD DUP1 MLOAD DUP3 AND DUP11 MSTORE DUP5 ADD MLOAD ISZERO ISZERO DUP10 DUP6 ADD MSTORE SWAP8 DUP2 ADD SWAP8 SWAP5 DUP4 ADD SWAP5 SWAP2 DUP7 ADD SWAP2 PUSH3 0x4A4 JUMP JUMPDEST SWAP1 DUP9 DUP1 DUP8 DUP2 SWAP14 SWAP12 SWAP6 SWAP5 DUP9 PUSH1 0xFF DUP16 SWAP11 SWAP16 SWAP14 SWAP12 SWAP13 SWAP14 MLOAD SWAP2 PUSH3 0x4F5 DUP4 PUSH3 0xBDD JUMP JUMPDEST DUP8 SLOAD SWAP1 DUP2 AND DUP4 MSTORE PUSH1 0xA0 SHR AND ISZERO ISZERO DUP4 DUP3 ADD MSTORE DUP2 MSTORE ADD SWAP3 ADD SWAP3 ADD SWAP3 POP SWAP10 SWAP8 SWAP10 SWAP9 SWAP4 SWAP9 SWAP7 SWAP6 SWAP5 SWAP7 PUSH3 0x483 JUMP JUMPDEST PUSH4 0x4E487B71 PUSH1 0xE0 SHL DUP4 MSTORE PUSH1 0x41 SWAP1 MSTORE PUSH1 0x24 DUP3 REVERT JUMPDEST DUP4 DUP1 REVERT JUMPDEST POP SWAP2 CALLVALUE PUSH3 0x19E JUMPI PUSH1 0xA0 CALLDATASIZE PUSH1 0x3 NOT ADD SLT PUSH3 0x19E JUMPI PUSH8 0xFFFFFFFFFFFFFFFF SWAP3 DUP1 CALLDATALOAD DUP5 DUP2 GT PUSH3 0x132 JUMPI PUSH3 0x56E SWAP1 CALLDATASIZE SWAP1 DUP4 ADD PUSH3 0xC48 JUMP JUMPDEST SWAP3 PUSH1 0x24 SWAP4 DUP5 CALLDATALOAD DUP7 DUP2 GT PUSH3 0xBD9 JUMPI PUSH3 0x58B SWAP1 CALLDATASIZE SWAP1 DUP6 ADD PUSH3 0xC48 JUMP JUMPDEST SWAP6 PUSH1 0x44 SWAP1 DUP2 CALLDATALOAD DUP2 DUP2 GT PUSH3 0xBD5 JUMPI PUSH3 0x5A8 SWAP1 CALLDATASIZE SWAP1 DUP8 ADD PUSH3 0xC48 JUMP JUMPDEST PUSH1 0x64 SWAP1 DUP2 CALLDATALOAD SWAP10 DUP4 DUP12 GT PUSH3 0xBD1 JUMPI DUP10 SWAP11 CALLDATASIZE SWAP1 DUP10 ADD SWAP1 PUSH3 0x5C8 SWAP2 PUSH3 0xC48 JUMP JUMPDEST SWAP3 DUP8 MLOAD SWAP6 PUSH3 0x5D7 DUP8 PUSH3 0xBDD JUMP JUMPDEST PUSH1 0x1D DUP8 MSTORE DUP11 DUP1 PUSH1 0x20 SWAP14 DUP10 DUP16 SWAP11 DUP12 DUP14 SWAP2 ADD PUSH32 0x4372656174696E672070726F70657274792077697468207469746C653A000000 SWAP1 MSTORE PUSH3 0x615 SWAP2 PUSH3 0xDAB JUMP JUMPDEST DUP12 MLOAD PUSH3 0x622 DUP2 PUSH3 0xBDD JUMP JUMPDEST PUSH1 0xC DUP2 MSTORE DUP7 DUP12 DUP3 ADD PUSH12 0x2232B9B1B934B83A34B7B71D PUSH1 0xA1 SHL SWAP1 MSTORE PUSH3 0x647 SWAP2 PUSH3 0xDAB JUMP JUMPDEST DUP12 MLOAD PUSH3 0x654 DUP2 PUSH3 0xBDD JUMP JUMPDEST PUSH1 0x9 DUP2 MSTORE DUP8 DUP12 DUP3 ADD PUSH9 0x2637B1B0BA34B7B71D PUSH1 0xB9 SHL SWAP1 MSTORE PUSH3 0x676 SWAP2 PUSH3 0xDAB JUMP JUMPDEST DUP12 MLOAD PUSH3 0x683 DUP2 PUSH3 0xBDD JUMP JUMPDEST PUSH1 0xA DUP2 MSTORE DUP9 DUP12 DUP3 ADD PUSH10 0x24B6B0B3B2902AA9261D PUSH1 0xB1 SHL SWAP1 MSTORE PUSH3 0x6A6 SWAP2 PUSH3 0xDAB JUMP JUMPDEST DUP12 MLOAD PUSH3 0x6B3 DUP2 PUSH3 0xBDD JUMP JUMPDEST PUSH1 0x6 DUP2 MSTORE DUP11 DUP2 ADD PUSH6 0x283934B1B29D PUSH1 0xD1 SHL SWAP1 MSTORE DUP13 DUP1 MLOAD SWAP12 DUP13 ADD SWAP3 PUSH4 0x2D839CB3 PUSH1 0xE2 SHL DUP5 MSTORE DUP13 ADD MSTORE DUP6 DUP12 ADD PUSH3 0x6E8 SWAP2 PUSH3 0xD1C JUMP JUMPDEST SWAP10 DUP1 PUSH1 0x84 CALLDATALOAD SWAP12 DUP13 DUP8 DUP4 ADD MSTORE SUB PUSH1 0x1F NOT DUP2 ADD DUP3 MSTORE PUSH3 0x707 SWAP1 DUP3 PUSH3 0xC25 JUMP JUMPDEST MLOAD SWAP1 GAS PUSH11 0x636F6E736F6C652E6C6F67 SWAP1 STATICCALL POP DUP9 MLOAD PUSH3 0x726 DUP2 PUSH3 0xBDD JUMP JUMPDEST PUSH1 0x7 DUP2 MSTORE DUP13 DUP2 ADD PUSH7 0x29B2B73232B91D PUSH1 0xC9 SHL SWAP1 MSTORE CALLER PUSH3 0x746 SWAP2 PUSH3 0xE19 JUMP JUMPDEST DUP8 MLOAD ISZERO PUSH3 0xB9B JUMPI PUSH1 0x14 DUP9 MLOAD GT PUSH3 0xB5D JUMPI DUP3 MLOAD ISZERO PUSH3 0xB1F JUMPI PUSH1 0x32 DUP4 MLOAD GT PUSH3 0xAD2 JUMPI DUP4 MLOAD ISZERO PUSH3 0xA94 JUMPI PUSH1 0x14 DUP5 MLOAD GT PUSH3 0xA57 JUMPI DUP5 MLOAD ISZERO PUSH3 0xA19 JUMPI DUP2 DUP6 MLOAD GT PUSH3 0x9CD JUMPI DUP7 ISZERO PUSH3 0x98F JUMPI CALLER ISZERO PUSH3 0x958 JUMPI POP POP DUP7 MLOAD SWAP6 PUSH2 0x1E62 DUP1 DUP9 ADD SWAP6 DUP7 GT DUP9 DUP8 LT OR PUSH3 0x946 JUMPI SWAP3 PUSH3 0x7EE DUP13 DUP10 SWAP9 SWAP8 SWAP7 SWAP5 PUSH3 0x7E0 PUSH3 0x7FC SWAP6 PUSH3 0x80B SWAP9 PUSH3 0xE6E DUP14 CODECOPY PUSH1 0xC0 DUP11 MSTORE PUSH1 0xC0 DUP11 ADD SWAP1 PUSH3 0xD1C JUMP JUMPDEST SWAP2 DUP9 DUP4 SUB SWAP1 DUP10 ADD MSTORE PUSH3 0xD1C JUMP JUMPDEST SWAP1 DUP6 DUP3 SUB DUP11 DUP8 ADD MSTORE PUSH3 0xD1C JUMP JUMPDEST SWAP1 DUP4 DUP3 SUB PUSH1 0x60 DUP6 ADD MSTORE PUSH3 0xD1C JUMP JUMPDEST SWAP2 PUSH1 0x80 DUP3 ADD MSTORE PUSH1 0xA0 CALLER SWAP2 ADD MSTORE SUB SWAP1 DUP5 CREATE SWAP2 DUP3 ISZERO PUSH3 0x93C JUMPI DUP2 MLOAD PUSH1 0x1 PUSH1 0x1 PUSH1 0xA0 SHL SUB SWAP4 DUP5 AND SWAP4 SWAP1 PUSH3 0x873 SWAP1 DUP6 SWAP1 PUSH3 0x844 DUP2 PUSH3 0xBDD JUMP JUMPDEST PUSH1 0x1A DUP2 MSTORE PUSH32 0x50726F706572747920746F6B656E20637265617465642061743A000000000000 DUP10 DUP3 ADD MSTORE PUSH3 0xE19 JUMP JUMPDEST CALLER DUP6 MSTORE PUSH1 0x1 DUP7 MSTORE DUP3 DUP6 KECCAK256 SWAP1 DUP4 MLOAD PUSH3 0x88B DUP2 PUSH3 0xBDD JUMP JUMPDEST DUP6 DUP2 MSTORE DUP8 DUP2 ADD SWAP3 DUP8 DUP5 MSTORE DUP1 SLOAD SWAP1 PUSH9 0x10000000000000000 DUP3 LT ISZERO PUSH3 0x92A JUMPI SWAP1 PUSH3 0x8BC SWAP2 PUSH1 0x1 DUP3 ADD DUP2 SSTORE PUSH3 0xCC0 JUMP JUMPDEST SWAP5 SWAP1 SWAP5 PUSH3 0x919 JUMPI POP MLOAD DUP4 SLOAD SWAP3 MLOAD PUSH1 0x1 PUSH1 0x1 PUSH1 0xA8 SHL SUB NOT SWAP1 SWAP4 AND SWAP2 AND OR SWAP1 ISZERO ISZERO PUSH1 0xA0 SHL PUSH1 0xFF PUSH1 0xA0 SHL AND OR SWAP1 SSTORE MLOAD SWAP3 SWAP4 POP SWAP1 DUP2 SWAP1 CALLER SWAP1 PUSH32 0xC52096134FA3AD0A31F783AE63444E22FF5A177DD5392E4CBA144EA83605A984 SWAP1 DUP1 LOG3 DUP2 MSTORE RETURN JUMPDEST PUSH4 0x4E487B71 PUSH1 0xE0 SHL DUP9 MSTORE DUP8 SWAP1 MSTORE DUP9 DUP8 REVERT JUMPDEST PUSH4 0x4E487B71 PUSH1 0xE0 SHL DUP10 MSTORE PUSH1 0x41 DUP7 MSTORE DUP11 DUP10 REVERT JUMPDEST DUP2 MLOAD RETURNDATASIZE DUP6 DUP3 RETURNDATACOPY RETURNDATASIZE SWAP1 REVERT JUMPDEST PUSH4 0x4E487B71 PUSH1 0xE0 SHL DUP12 MSTORE PUSH1 0x41 DUP11 MSTORE DUP13 DUP12 REVERT JUMPDEST PUSH22 0x496E76616C69642073656E6465722061646472657373 PUSH1 0x50 SHL DUP11 SWAP2 PUSH1 0x16 DUP16 DUP16 DUP14 MLOAD SWAP6 PUSH3 0x461BCD PUSH1 0xE5 SHL DUP8 MSTORE DUP7 ADD MSTORE DUP5 ADD MSTORE DUP3 ADD MSTORE REVERT JUMPDEST PUSH32 0x5072696365206D7573742062652067726561746572207468616E203000000000 DUP11 SWAP2 PUSH1 0x1C DUP16 DUP16 DUP14 MLOAD SWAP6 PUSH3 0x461BCD PUSH1 0xE5 SHL DUP8 MSTORE DUP7 ADD MSTORE DUP5 ADD MSTORE DUP3 ADD MSTORE REVERT JUMPDEST PUSH2 0x7329 PUSH1 0xF0 SHL PUSH1 0x84 SWAP3 PUSH32 0x496D6167652055524C20746F6F206C6F6E6720286D6178203130302063686172 DUP16 SWAP4 DUP16 DUP15 SWAP6 PUSH1 0x22 SWAP2 DUP16 MLOAD SWAP8 PUSH3 0x461BCD PUSH1 0xE5 SHL DUP10 MSTORE DUP9 ADD MSTORE DUP7 ADD MSTORE DUP5 ADD MSTORE DUP3 ADD MSTORE REVERT JUMPDEST PUSH32 0x496D6167652055524C2063616E6E6F7420626520656D70747900000000000000 DUP11 SWAP2 PUSH1 0x19 DUP16 DUP16 DUP14 MLOAD SWAP6 PUSH3 0x461BCD PUSH1 0xE5 SHL DUP8 MSTORE DUP7 ADD MSTORE DUP5 ADD MSTORE DUP3 ADD MSTORE REVERT JUMPDEST PUSH32 0x4C6F636174696F6E20746F6F206C6F6E6720286D617820323020636861727329 DUP11 SWAP2 DUP14 DUP16 DUP2 DUP14 MLOAD SWAP6 PUSH3 0x461BCD PUSH1 0xE5 SHL DUP8 MSTORE DUP7 ADD MSTORE DUP5 ADD MSTORE DUP3 ADD MSTORE REVERT JUMPDEST PUSH32 0x4C6F636174696F6E2063616E6E6F7420626520656D7074790000000000000000 DUP11 SWAP2 PUSH1 0x18 DUP16 DUP16 DUP14 MLOAD SWAP6 PUSH3 0x461BCD PUSH1 0xE5 SHL DUP8 MSTORE DUP7 ADD MSTORE DUP5 ADD MSTORE DUP3 ADD MSTORE REVERT JUMPDEST PUSH3 0x727329 PUSH1 0xE8 SHL PUSH1 0x84 SWAP3 PUSH32 0x4465736372697074696F6E20746F6F206C6F6E6720286D617820353020636861 DUP16 SWAP4 DUP16 DUP15 SWAP6 PUSH1 0x23 SWAP2 DUP16 MLOAD SWAP8 PUSH3 0x461BCD PUSH1 0xE5 SHL DUP10 MSTORE DUP9 ADD MSTORE DUP7 ADD MSTORE DUP5 ADD MSTORE DUP3 ADD MSTORE REVERT JUMPDEST PUSH32 0x4465736372697074696F6E2063616E6E6F7420626520656D7074790000000000 DUP11 SWAP2 PUSH1 0x1B DUP16 DUP16 DUP14 MLOAD SWAP6 PUSH3 0x461BCD PUSH1 0xE5 SHL DUP8 MSTORE DUP7 ADD MSTORE DUP5 ADD MSTORE DUP3 ADD MSTORE REVERT JUMPDEST PUSH32 0x5469746C6520746F6F206C6F6E6720286D617820323020636861727329000000 DUP11 SWAP2 PUSH1 0x1D DUP16 DUP16 DUP14 MLOAD SWAP6 PUSH3 0x461BCD PUSH1 0xE5 SHL DUP8 MSTORE DUP7 ADD MSTORE DUP5 ADD MSTORE DUP3 ADD MSTORE REVERT JUMPDEST PUSH21 0x5469746C652063616E6E6F7420626520656D707479 PUSH1 0x58 SHL DUP11 SWAP2 PUSH1 0x15 DUP16 DUP16 DUP14 MLOAD SWAP6 PUSH3 0x461BCD PUSH1 0xE5 SHL DUP8 MSTORE DUP7 ADD MSTORE DUP5 ADD MSTORE DUP3 ADD MSTORE REVERT JUMPDEST DUP9 DUP1 REVERT JUMPDEST DUP7 DUP1 REVERT JUMPDEST DUP5 DUP1 REVERT JUMPDEST PUSH1 0x40 DUP2 ADD SWAP1 DUP2 LT PUSH8 0xFFFFFFFFFFFFFFFF DUP3 GT OR PUSH3 0xBFA JUMPI PUSH1 0x40 MSTORE JUMP JUMPDEST PUSH4 0x4E487B71 PUSH1 0xE0 SHL PUSH1 0x0 MSTORE PUSH1 0x41 PUSH1 0x4 MSTORE PUSH1 0x24 PUSH1 0x0 REVERT JUMPDEST PUSH8 0xFFFFFFFFFFFFFFFF DUP2 GT PUSH3 0xBFA JUMPI PUSH1 0x40 MSTORE JUMP JUMPDEST SWAP1 PUSH1 0x1F DUP1 NOT SWAP2 ADD AND DUP2 ADD SWAP1 DUP2 LT PUSH8 0xFFFFFFFFFFFFFFFF DUP3 GT OR PUSH3 0xBFA JUMPI PUSH1 0x40 MSTORE JUMP JUMPDEST DUP2 PUSH1 0x1F DUP3 ADD SLT ISZERO PUSH3 0xCA4 JUMPI DUP1 CALLDATALOAD SWAP1 PUSH8 0xFFFFFFFFFFFFFFFF DUP3 GT PUSH3 0xBFA JUMPI PUSH1 0x40 MLOAD SWAP3 PUSH3 0xC81 PUSH1 0x1F DUP5 ADD PUSH1 0x1F NOT AND PUSH1 0x20 ADD DUP6 PUSH3 0xC25 JUMP JUMPDEST DUP3 DUP5 MSTORE PUSH1 0x20 DUP4 DUP4 ADD ADD GT PUSH3 0xCA4 JUMPI DUP2 PUSH1 0x0 SWAP3 PUSH1 0x20 DUP1 SWAP4 ADD DUP4 DUP7 ADD CALLDATACOPY DUP4 ADD ADD MSTORE SWAP1 JUMP JUMPDEST PUSH1 0x0 DUP1 REVERT JUMPDEST PUSH1 0x4 CALLDATALOAD SWAP1 PUSH1 0x1 PUSH1 0x1 PUSH1 0xA0 SHL SUB DUP3 AND DUP3 SUB PUSH3 0xCA4 JUMPI JUMP JUMPDEST DUP1 SLOAD DUP3 LT ISZERO PUSH3 0xCD9 JUMPI PUSH1 0x0 MSTORE PUSH1 0x20 PUSH1 0x0 KECCAK256 ADD SWAP1 PUSH1 0x0 SWAP1 JUMP JUMPDEST PUSH4 0x4E487B71 PUSH1 0xE0 SHL PUSH1 0x0 MSTORE PUSH1 0x32 PUSH1 0x4 MSTORE PUSH1 0x24 PUSH1 0x0 REVERT JUMPDEST PUSH1 0x0 SLOAD PUSH1 0x1 PUSH1 0x1 PUSH1 0xA0 SHL SUB AND CALLER SUB PUSH3 0xD04 JUMPI JUMP JUMPDEST PUSH1 0x40 MLOAD PUSH4 0x118CDAA7 PUSH1 0xE0 SHL DUP2 MSTORE CALLER PUSH1 0x4 DUP3 ADD MSTORE PUSH1 0x24 SWAP1 REVERT JUMPDEST SWAP2 SWAP1 DUP3 MLOAD SWAP3 DUP4 DUP3 MSTORE PUSH1 0x0 JUMPDEST DUP5 DUP2 LT PUSH3 0xD49 JUMPI POP POP DUP3 PUSH1 0x0 PUSH1 0x20 DUP1 SWAP5 SWAP6 DUP5 ADD ADD MSTORE PUSH1 0x1F DUP1 NOT SWAP2 ADD AND ADD ADD SWAP1 JUMP JUMPDEST PUSH1 0x20 DUP2 DUP4 ADD DUP2 ADD MLOAD DUP5 DUP4 ADD DUP3 ADD MSTORE ADD PUSH3 0xD27 JUMP JUMPDEST ISZERO PUSH3 0xD66 JUMPI JUMP JUMPDEST PUSH1 0x40 MLOAD PUSH3 0x461BCD PUSH1 0xE5 SHL DUP2 MSTORE PUSH1 0x20 PUSH1 0x4 DUP3 ADD MSTORE PUSH1 0x19 PUSH1 0x24 DUP3 ADD MSTORE PUSH32 0x50726F706572747920616C726561647920617070726F76656400000000000000 PUSH1 0x44 DUP3 ADD MSTORE PUSH1 0x64 SWAP1 REVERT JUMPDEST PUSH1 0x0 SWAP2 SWAP1 PUSH3 0xDF7 PUSH3 0xE06 DUP5 SWAP4 PUSH1 0x40 MLOAD SWAP3 DUP4 SWAP2 PUSH3 0xDE4 PUSH1 0x20 DUP5 ADD SWAP7 PUSH4 0x4B5C4277 PUSH1 0xE0 SHL DUP9 MSTORE PUSH1 0x40 PUSH1 0x24 DUP7 ADD MSTORE PUSH1 0x64 DUP6 ADD SWAP1 PUSH3 0xD1C JUMP JUMPDEST DUP4 DUP2 SUB PUSH1 0x23 NOT ADD PUSH1 0x44 DUP6 ADD MSTORE SWAP1 PUSH3 0xD1C JUMP JUMPDEST SUB PUSH1 0x1F NOT DUP2 ADD DUP4 MSTORE DUP3 PUSH3 0xC25 JUMP JUMPDEST MLOAD SWAP1 PUSH11 0x636F6E736F6C652E6C6F67 GAS STATICCALL POP JUMP JUMPDEST PUSH1 0x0 SWAP2 SWAP1 DUP3 SWAP2 PUSH3 0xE06 PUSH1 0x40 MLOAD DUP1 SWAP3 PUSH3 0xE4D PUSH1 0x20 DUP4 ADD SWAP6 PUSH4 0x319AF333 PUSH1 0xE0 SHL DUP8 MSTORE PUSH1 0x40 PUSH1 0x24 DUP6 ADD MSTORE PUSH1 0x64 DUP5 ADD SWAP1 PUSH3 0xD1C JUMP JUMPDEST PUSH1 0x1 PUSH1 0x1 PUSH1 0xA0 SHL SUB SWAP2 SWAP1 SWAP2 AND PUSH1 0x44 DUP4 ADD MSTORE SUB PUSH1 0x1F NOT DUP2 ADD DUP4 MSTORE DUP3 PUSH3 0xC25 JUMP INVALID PUSH1 0x80 DUP1 PUSH1 0x40 MSTORE CALLVALUE PUSH3 0xF96 JUMPI PUSH3 0x1E62 DUP1 CODESIZE SUB DUP1 SWAP2 PUSH3 0x20 DUP3 DUP6 PUSH3 0xFD3 JUMP JUMPDEST DUP4 CODECOPY DUP2 ADD PUSH1 0xC0 DUP3 DUP3 SUB SLT PUSH3 0xF96 JUMPI DUP2 MLOAD PUSH1 0x1 PUSH1 0x1 PUSH1 0x40 SHL SUB DUP2 GT PUSH3 0xF96 JUMPI DUP2 PUSH3 0x4E SWAP2 DUP5 ADD PUSH3 0x101C JUMP JUMPDEST PUSH1 0x20 DUP4 ADD MLOAD PUSH1 0x1 PUSH1 0x1 PUSH1 0x40 SHL SUB DUP2 GT PUSH3 0xF96 JUMPI DUP3 PUSH3 0x70 SWAP2 DUP6 ADD PUSH3 0x101C JUMP JUMPDEST PUSH1 0x40 DUP5 ADD MLOAD SWAP1 SWAP2 SWAP1 PUSH1 0x1 PUSH1 0x1 PUSH1 0x40 SHL SUB DUP2 GT PUSH3 0xF96 JUMPI DUP4 PUSH3 0x95 SWAP2 DUP7 ADD PUSH3 0x101C JUMP JUMPDEST PUSH1 0x60 DUP6 ADD MLOAD SWAP1 SWAP4 PUSH1 0x1 PUSH1 0x1 PUSH1 0x40 SHL SUB DUP3 GT PUSH3 0xF96 JUMPI PUSH3 0xB8 SWAP2 DUP7 ADD PUSH3 0x101C JUMP JUMPDEST PUSH1 0x80 DUP6 ADD MLOAD PUSH1 0xA0 SWAP1 SWAP6 ADD MLOAD SWAP3 SWAP1 PUSH1 0x1 PUSH1 0x1 PUSH1 0xA0 SHL SUB DUP5 AND DUP5 SUB PUSH3 0xF96 JUMPI PUSH1 0x40 MLOAD PUSH3 0xE4 DUP2 PUSH3 0xF9B JUMP JUMPDEST PUSH1 0xE DUP2 MSTORE PUSH14 0x283937B832B93A3C902A37B5B2B7 PUSH1 0x91 SHL PUSH1 0x20 DUP3 ADD MSTORE PUSH1 0x40 MLOAD SWAP1 PUSH3 0x10E DUP3 PUSH3 0xF9B JUMP JUMPDEST PUSH1 0x4 DUP3 MSTORE PUSH4 0x50524F5 PUSH1 0xE4 SHL PUSH1 0x20 DUP4 ADD MSTORE DUP1 MLOAD SWAP1 PUSH1 0x1 PUSH1 0x1 PUSH1 0x40 SHL SUB DUP3 GT PUSH3 0x8D7 JUMPI PUSH1 0x3 SLOAD SWAP1 PUSH1 0x1 DUP3 DUP2 SHR SWAP3 AND DUP1 ISZERO PUSH3 0xF8B JUMPI JUMPDEST PUSH1 0x20 DUP4 LT EQ PUSH3 0x8B6 JUMPI DUP2 PUSH1 0x1F DUP5 SWAP4 GT PUSH3 0xF16 JUMPI JUMPDEST POP PUSH1 0x20 SWAP1 PUSH1 0x1F DUP4 GT PUSH1 0x1 EQ PUSH3 0xE8B JUMPI PUSH1 0x0 SWAP3 PUSH3 0xE7F JUMPI JUMPDEST POP POP DUP2 PUSH1 0x1 SHL SWAP2 PUSH1 0x0 NOT SWAP1 PUSH1 0x3 SHL SHR NOT AND OR PUSH1 0x3 SSTORE JUMPDEST DUP1 MLOAD SWAP1 PUSH1 0x1 PUSH1 0x1 PUSH1 0x40 SHL SUB DUP3 GT PUSH3 0x8D7 JUMPI PUSH1 0x4 SLOAD SWAP1 PUSH1 0x1 DUP3 DUP2 SHR SWAP3 AND DUP1 ISZERO PUSH3 0xE74 JUMPI JUMPDEST PUSH1 0x20 DUP4 LT EQ PUSH3 0x8B6 JUMPI DUP2 PUSH1 0x1F DUP5 SWAP4 GT PUSH3 0xDFF JUMPI JUMPDEST POP PUSH1 0x20 SWAP1 PUSH1 0x1F DUP4 GT PUSH1 0x1 EQ PUSH3 0xD70 JUMPI PUSH1 0x0 SWAP3 PUSH3 0xD64 JUMPI JUMPDEST POP POP DUP2 PUSH1 0x1 SHL SWAP2 PUSH1 0x0 NOT SWAP1 PUSH1 0x3 SHL SHR NOT AND OR PUSH1 0x4 SSTORE JUMPDEST PUSH1 0x1 PUSH1 0x1 PUSH1 0xA0 SHL SUB DUP5 AND ISZERO PUSH3 0xD4B JUMPI PUSH1 0x5 DUP1 SLOAD PUSH1 0x1 PUSH1 0x1 PUSH1 0xA0 SHL SUB DUP7 DUP2 AND PUSH1 0x1 PUSH1 0x1 PUSH1 0xA0 SHL SUB NOT DUP4 AND DUP2 OR SWAP1 SWAP4 SSTORE AND PUSH32 0x8BE0079C531659141344CD1FD0A4F28419497F9722A3DAAFE3B4186F6B6457E0 PUSH1 0x0 DUP1 LOG3 PUSH1 0x0 DUP1 PUSH3 0x2BF PUSH3 0x2E1 PUSH1 0x40 MLOAD PUSH3 0x261 DUP2 PUSH3 0xFB7 JUMP JUMPDEST PUSH1 0x22 DUP2 MSTORE PUSH32 0x4372656174696E672050726F7065727479546F6B656E2077697468207469746C PUSH1 0x20 DUP3 ADD MSTORE PUSH2 0x329D PUSH1 0xF1 SHL PUSH1 0x40 DUP3 ADD MSTORE PUSH3 0x2D2 PUSH1 0x40 MLOAD SWAP4 DUP5 SWAP3 PUSH4 0x4B5C4277 PUSH1 0xE0 SHL PUSH1 0x20 DUP6 ADD MSTORE PUSH1 0x40 PUSH1 0x24 DUP6 ADD MSTORE PUSH1 0x64 DUP5 ADD SWAP1 PUSH3 0x1077 JUMP JUMPDEST DUP3 DUP2 SUB PUSH1 0x23 NOT ADD PUSH1 0x44 DUP5 ADD MSTORE DUP10 PUSH3 0x1077 JUMP JUMPDEST SUB PUSH1 0x1F NOT DUP2 ADD DUP4 MSTORE DUP3 PUSH3 0xFD3 JUMP JUMPDEST PUSH1 0x20 DUP2 MLOAD SWAP2 ADD PUSH11 0x636F6E736F6C652E6C6F67 GAS STATICCALL POP PUSH1 0x0 DUP1 PUSH1 0x40 MLOAD PUSH3 0x307 DUP2 PUSH3 0xF9B JUMP JUMPDEST PUSH1 0x6 DUP2 MSTORE PUSH6 0x283934B1B29D PUSH1 0xD1 SHL PUSH1 0x20 DUP3 ADD MSTORE PUSH1 0x40 MLOAD PUSH3 0x35C DUP2 PUSH3 0x347 PUSH1 0x20 DUP3 ADD SWAP5 PUSH4 0x2D839CB3 PUSH1 0xE2 SHL DUP7 MSTORE PUSH1 0x40 PUSH1 0x24 DUP5 ADD MSTORE PUSH1 0x64 DUP4 ADD SWAP1 PUSH3 0x1077 JUMP JUMPDEST DUP13 PUSH1 0x44 DUP4 ADD MSTORE SUB PUSH1 0x1F NOT DUP2 ADD DUP4 MSTORE DUP3 PUSH3 0xFD3 JUMP JUMPDEST MLOAD SWAP1 PUSH11 0x636F6E736F6C652E6C6F67 GAS STATICCALL POP PUSH1 0x0 DUP1 PUSH1 0x40 MLOAD PUSH3 0x37E DUP2 PUSH3 0xF9B JUMP JUMPDEST PUSH1 0xE DUP2 MSTORE PUSH14 0x24B734BA34B0B61037BBB732B91D PUSH1 0x91 SHL PUSH1 0x20 DUP3 ADD MSTORE PUSH1 0x40 MLOAD PUSH3 0x3E4 DUP2 PUSH3 0x3C6 PUSH1 0x20 DUP3 ADD SWAP5 PUSH4 0x319AF333 PUSH1 0xE0 SHL DUP7 MSTORE PUSH1 0x40 PUSH1 0x24 DUP5 ADD MSTORE PUSH1 0x64 DUP4 ADD SWAP1 PUSH3 0x1077 JUMP JUMPDEST PUSH1 0x1 PUSH1 0x1 PUSH1 0xA0 SHL SUB DUP12 AND PUSH1 0x44 DUP4 ADD MSTORE SUB PUSH1 0x1F NOT DUP2 ADD DUP4 MSTORE DUP3 PUSH3 0xFD3 JUMP JUMPDEST MLOAD SWAP1 PUSH11 0x636F6E736F6C652E6C6F67 GAS STATICCALL POP DUP3 MLOAD DUP1 ISZERO ISZERO SWAP1 DUP2 PUSH3 0xD3E JUMPI JUMPDEST POP ISZERO PUSH3 0xCF9 JUMPI DUP2 MLOAD DUP1 ISZERO ISZERO SWAP1 DUP2 PUSH3 0xCEC JUMPI JUMPDEST POP ISZERO PUSH3 0xCA7 JUMPI DUP5 MLOAD DUP1 ISZERO ISZERO SWAP1 DUP2 PUSH3 0xC9A JUMPI JUMPDEST POP ISZERO PUSH3 0xC55 JUMPI DUP1 MLOAD DUP1 ISZERO ISZERO SWAP1 DUP2 PUSH3 0xC48 JUMPI JUMPDEST POP ISZERO PUSH3 0xC03 JUMPI DUP6 ISZERO PUSH3 0xBBE JUMPI PUSH1 0x40 MLOAD SWAP2 PUSH1 0x1 PUSH1 0x1 PUSH1 0x40 SHL SUB PUSH1 0xC0 DUP5 ADD SWAP1 DUP2 GT SWAP1 DUP5 GT OR PUSH3 0x8D7 JUMPI PUSH1 0xC0 DUP4 ADD PUSH1 0x40 MSTORE DUP4 DUP4 MSTORE PUSH1 0x20 DUP4 ADD MSTORE DUP5 PUSH1 0x40 DUP4 ADD MSTORE PUSH1 0x60 DUP3 ADD MSTORE DUP5 PUSH1 0x80 DUP3 ADD MSTORE PUSH1 0x1 PUSH1 0xA0 DUP3 ADD MSTORE DUP2 MLOAD PUSH1 0x1 DUP1 PUSH1 0x40 SHL SUB DUP2 GT PUSH3 0x8D7 JUMPI PUSH1 0x6 SLOAD PUSH1 0x1 DUP2 DUP2 SHR SWAP2 AND DUP1 ISZERO PUSH3 0xBB3 JUMPI JUMPDEST PUSH1 0x20 DUP3 LT EQ PUSH3 0x8B6 JUMPI PUSH1 0x1F DUP2 GT PUSH3 0xB5E JUMPI JUMPDEST POP DUP1 PUSH1 0x20 PUSH1 0x1F DUP3 GT PUSH1 0x1 EQ PUSH3 0xAE5 JUMPI PUSH1 0x0 SWAP2 PUSH3 0xAD9 JUMPI JUMPDEST POP DUP2 PUSH1 0x1 SHL SWAP2 PUSH1 0x0 NOT SWAP1 PUSH1 0x3 SHL SHR NOT AND OR PUSH1 0x6 SSTORE JUMPDEST PUSH1 0x20 DUP2 ADD MLOAD DUP1 MLOAD SWAP1 PUSH1 0x1 PUSH1 0x1 PUSH1 0x40 SHL SUB DUP3 GT PUSH3 0x8D7 JUMPI PUSH1 0x7 SLOAD SWAP1 PUSH1 0x1 DUP3 DUP2 SHR SWAP3 AND DUP1 ISZERO PUSH3 0xACE JUMPI JUMPDEST PUSH1 0x20 DUP4 LT EQ PUSH3 0x8B6 JUMPI DUP2 PUSH1 0x1F DUP5 SWAP4 GT PUSH3 0xA6D JUMPI JUMPDEST POP PUSH1 0x20 SWAP1 PUSH1 0x1F DUP4 GT PUSH1 0x1 EQ PUSH3 0x9EF JUMPI PUSH1 0x0 SWAP3 PUSH3 0x9E3 JUMPI JUMPDEST POP POP DUP2 PUSH1 0x1 SHL SWAP2 PUSH1 0x0 NOT SWAP1 PUSH1 0x3 SHL SHR NOT AND OR PUSH1 0x7 SSTORE JUMPDEST PUSH1 0x40 DUP2 ADD MLOAD DUP1 MLOAD SWAP1 PUSH1 0x1 PUSH1 0x1 PUSH1 0x40 SHL SUB DUP3 GT PUSH3 0x8D7 JUMPI PUSH1 0x8 SLOAD SWAP1 PUSH1 0x1 DUP3 DUP2 SHR SWAP3 AND DUP1 ISZERO PUSH3 0x9D8 JUMPI JUMPDEST PUSH1 0x20 DUP4 LT EQ PUSH3 0x8B6 JUMPI DUP2 PUSH1 0x1F DUP5 SWAP4 GT PUSH3 0x977 JUMPI JUMPDEST POP PUSH1 0x20 SWAP1 PUSH1 0x1F DUP4 GT PUSH1 0x1 EQ PUSH3 0x8F9 JUMPI PUSH1 0x0 SWAP3 PUSH3 0x8ED JUMPI JUMPDEST POP POP DUP2 PUSH1 0x1 SHL SWAP2 PUSH1 0x0 NOT SWAP1 PUSH1 0x3 SHL SHR NOT AND OR PUSH1 0x8 SSTORE JUMPDEST PUSH1 0x60 DUP2 ADD MLOAD DUP1 MLOAD SWAP1 PUSH1 0x1 PUSH1 0x1 PUSH1 0x40 SHL SUB DUP3 GT PUSH3 0x8D7 JUMPI PUSH1 0x9 SLOAD PUSH1 0x1 DUP2 DUP2 SHR SWAP2 AND DUP1 ISZERO PUSH3 0x8CC JUMPI JUMPDEST PUSH1 0x20 DUP3 LT EQ PUSH3 0x8B6 JUMPI PUSH1 0x1F DUP2 GT PUSH3 0x85D JUMPI JUMPDEST POP PUSH1 0x20 SWAP1 PUSH1 0x1F DUP4 GT PUSH1 0x1 EQ PUSH3 0x7DF JUMPI PUSH1 0xA0 SWAP4 SWAP3 SWAP2 PUSH1 0x0 SWAP2 DUP4 PUSH3 0x7D3 JUMPI JUMPDEST POP POP DUP2 PUSH1 0x1 SHL SWAP2 PUSH1 0x0 NOT SWAP1 PUSH1 0x3 SHL SHR NOT AND OR PUSH1 0x9 SSTORE JUMPDEST PUSH1 0x80 DUP2 ADD MLOAD PUSH1 0xA SSTORE ADD MLOAD ISZERO ISZERO PUSH1 0xFF DUP1 NOT PUSH1 0xB SLOAD AND SWAP2 AND OR PUSH1 0xB SSTORE PUSH1 0x2 SLOAD SWAP2 PUSH9 0x3635C9ADC5DEA00000 SWAP3 DUP4 DUP2 ADD DUP1 SWAP2 GT PUSH3 0x7BD JUMPI PUSH1 0x2 SSTORE PUSH1 0x1 PUSH1 0x1 PUSH1 0xA0 SHL SUB DUP2 AND PUSH1 0x0 DUP2 DUP2 MSTORE PUSH1 0x20 DUP2 DUP2 MSTORE PUSH1 0x40 DUP1 DUP4 KECCAK256 DUP1 SLOAD DUP9 ADD SWAP1 SSTORE MLOAD SWAP6 DUP7 MSTORE PUSH32 0x6A3469CAD0792FE1FEA0BC1DDBA3DFBA95B7E9BC169A5D391D283DBE2EA64E95 SWAP7 PUSH3 0x705 SWAP7 PUSH3 0x714 SWAP5 SWAP2 SWAP4 SWAP2 SWAP3 PUSH32 0xDDF252AD1BE2C89B69C2B068FC378DAA952BA7F163C4A11628F55A4DF523B3EF SWAP2 LOG3 PUSH1 0x40 MLOAD SWAP5 DUP6 SWAP5 PUSH1 0x60 DUP7 MSTORE PUSH1 0x60 DUP7 ADD SWAP1 PUSH3 0x1077 JUMP JUMPDEST SWAP1 DUP5 DUP3 SUB PUSH1 0x20 DUP7 ADD MSTORE PUSH3 0x1077 JUMP JUMPDEST PUSH1 0x40 DUP4 ADD SWAP6 SWAP1 SWAP6 MSTORE PUSH1 0x1 PUSH1 0x1 PUSH1 0xA0 SHL SUB AND SWAP4 SUB SWAP1 LOG2 PUSH1 0x0 DUP1 PUSH1 0x40 MLOAD PUSH3 0x73A DUP2 PUSH3 0xFB7 JUMP JUMPDEST PUSH1 0x22 DUP2 MSTORE PUSH32 0x50726F7065727479546F6B656E2063726561746564207375636365737366756C PUSH1 0x20 DUP3 ADD MSTORE PUSH2 0x6C79 PUSH1 0xF0 SHL PUSH1 0x40 DUP3 ADD MSTORE PUSH1 0x40 MLOAD PUSH3 0x79C DUP2 PUSH3 0x2D2 PUSH1 0x20 DUP3 ADD SWAP5 PUSH4 0x104C13EB PUSH1 0xE2 SHL DUP7 MSTORE PUSH1 0x20 PUSH1 0x24 DUP5 ADD MSTORE PUSH1 0x44 DUP4 ADD SWAP1 PUSH3 0x1077 JUMP JUMPDEST MLOAD SWAP1 PUSH11 0x636F6E736F6C652E6C6F67 GAS STATICCALL POP PUSH1 0x40 MLOAD PUSH2 0xD43 SWAP1 DUP2 PUSH3 0x109F DUP3 CODECOPY RETURN JUMPDEST PUSH4 0x4E487B71 PUSH1 0xE0 SHL PUSH1 0x0 MSTORE PUSH1 0x11 PUSH1 0x4 MSTORE PUSH1 0x24 PUSH1 0x0 REVERT JUMPDEST ADD MLOAD SWAP1 POP CODESIZE DUP1 PUSH3 0x62D JUMP JUMPDEST PUSH1 0x9 PUSH1 0x0 SWAP1 DUP2 MSTORE PUSH1 0x0 DUP1 MLOAD PUSH1 0x20 PUSH3 0x1E22 DUP4 CODECOPY DUP2 MLOAD SWAP2 MSTORE SWAP3 SWAP2 SWAP1 PUSH1 0x1F NOT DUP6 AND SWAP1 JUMPDEST DUP2 DUP2 LT PUSH3 0x844 JUMPI POP SWAP2 PUSH1 0x1 SWAP4 SWAP2 DUP6 PUSH1 0xA0 SWAP8 SWAP7 SWAP5 LT PUSH3 0x82A JUMPI JUMPDEST POP POP POP DUP2 SHL ADD PUSH1 0x9 SSTORE PUSH3 0x643 JUMP JUMPDEST ADD MLOAD PUSH1 0x0 NOT PUSH1 0xF8 DUP5 PUSH1 0x3 SHL AND SHR NOT AND SWAP1 SSTORE CODESIZE DUP1 DUP1 PUSH3 0x81B JUMP JUMPDEST SWAP3 SWAP4 PUSH1 0x20 PUSH1 0x1 DUP2 SWAP3 DUP8 DUP7 ADD MLOAD DUP2 SSTORE ADD SWAP6 ADD SWAP4 ADD PUSH3 0x800 JUMP JUMPDEST PUSH1 0x9 PUSH1 0x0 MSTORE PUSH1 0x0 DUP1 MLOAD PUSH1 0x20 PUSH3 0x1E22 DUP4 CODECOPY DUP2 MLOAD SWAP2 MSTORE PUSH1 0x1F DUP5 ADD PUSH1 0x5 SHR DUP2 ADD SWAP2 PUSH1 0x20 DUP6 LT PUSH3 0x8AB JUMPI JUMPDEST PUSH1 0x1F ADD PUSH1 0x5 SHR ADD SWAP1 JUMPDEST DUP2 DUP2 LT PUSH3 0x89E JUMPI POP PUSH3 0x60E JUMP JUMPDEST PUSH1 0x0 DUP2 SSTORE PUSH1 0x1 ADD PUSH3 0x88F JUMP JUMPDEST SWAP1 SWAP2 POP DUP2 SWAP1 PUSH3 0x886 JUMP JUMPDEST PUSH4 0x4E487B71 PUSH1 0xE0 SHL PUSH1 0x0 MSTORE PUSH1 0x22 PUSH1 0x4 MSTORE PUSH1 0x24 PUSH1 0x0 REVERT JUMPDEST SWAP1 PUSH1 0x7F AND SWAP1 PUSH3 0x5FA JUMP JUMPDEST PUSH4 0x4E487B71 PUSH1 0xE0 SHL PUSH1 0x0 MSTORE PUSH1 0x41 PUSH1 0x4 MSTORE PUSH1 0x24 PUSH1 0x0 REVERT JUMPDEST ADD MLOAD SWAP1 POP CODESIZE DUP1 PUSH3 0x5BB JUMP JUMPDEST PUSH1 0x8 PUSH1 0x0 SWAP1 DUP2 MSTORE SWAP4 POP PUSH1 0x0 DUP1 MLOAD PUSH1 0x20 PUSH3 0x1E02 DUP4 CODECOPY DUP2 MLOAD SWAP2 MSTORE SWAP2 SWAP1 JUMPDEST PUSH1 0x1F NOT DUP5 AND DUP6 LT PUSH3 0x95B JUMPI PUSH1 0x1 SWAP5 POP DUP4 PUSH1 0x1F NOT DUP2 AND LT PUSH3 0x941 JUMPI JUMPDEST POP POP POP DUP2 SHL ADD PUSH1 0x8 SSTORE PUSH3 0x5D1 JUMP JUMPDEST ADD MLOAD PUSH1 0x0 NOT PUSH1 0xF8 DUP5 PUSH1 0x3 SHL AND SHR NOT AND SWAP1 SSTORE CODESIZE DUP1 DUP1 PUSH3 0x932 JUMP JUMPDEST DUP2 DUP2 ADD MLOAD DUP4 SSTORE PUSH1 0x20 SWAP5 DUP6 ADD SWAP5 PUSH1 0x1 SWAP1 SWAP4 ADD SWAP3 SWAP1 SWAP2 ADD SWAP1 PUSH3 0x915 JUMP JUMPDEST PUSH1 0x8 PUSH1 0x0 MSTORE SWAP1 SWAP2 POP PUSH1 0x0 DUP1 MLOAD PUSH1 0x20 PUSH3 0x1E02 DUP4 CODECOPY DUP2 MLOAD SWAP2 MSTORE PUSH1 0x1F DUP5 ADD PUSH1 0x5 SHR DUP2 ADD PUSH1 0x20 DUP6 LT PUSH3 0x9D0 JUMPI JUMPDEST SWAP1 DUP5 SWAP4 SWAP3 SWAP2 JUMPDEST PUSH1 0x1F DUP4 ADD PUSH1 0x5 SHR DUP3 ADD DUP2 LT PUSH3 0x9C0 JUMPI POP POP PUSH3 0x5A2 JUMP JUMPDEST PUSH1 0x0 DUP2 SSTORE DUP6 SWAP5 POP PUSH1 0x1 ADD PUSH3 0x9A8 JUMP JUMPDEST POP DUP1 PUSH3 0x9A2 JUMP JUMPDEST SWAP2 PUSH1 0x7F AND SWAP2 PUSH3 0x58C JUMP JUMPDEST ADD MLOAD SWAP1 POP CODESIZE DUP1 PUSH3 0x54C JUMP JUMPDEST PUSH1 0x7 PUSH1 0x0 SWAP1 DUP2 MSTORE SWAP4 POP PUSH1 0x0 DUP1 MLOAD PUSH1 0x20 PUSH3 0x1DE2 DUP4 CODECOPY DUP2 MLOAD SWAP2 MSTORE SWAP2 SWAP1 JUMPDEST PUSH1 0x1F NOT DUP5 AND DUP6 LT PUSH3 0xA51 JUMPI PUSH1 0x1 SWAP5 POP DUP4 PUSH1 0x1F NOT DUP2 AND LT PUSH3 0xA37 JUMPI JUMPDEST POP POP POP DUP2 SHL ADD PUSH1 0x7 SSTORE PUSH3 0x562 JUMP JUMPDEST ADD MLOAD PUSH1 0x0 NOT PUSH1 0xF8 DUP5 PUSH1 0x3 SHL AND SHR NOT AND SWAP1 SSTORE CODESIZE DUP1 DUP1 PUSH3 0xA28 JUMP JUMPDEST DUP2 DUP2 ADD MLOAD DUP4 SSTORE PUSH1 0x20 SWAP5 DUP6 ADD SWAP5 PUSH1 0x1 SWAP1 SWAP4 ADD SWAP3 SWAP1 SWAP2 ADD SWAP1 PUSH3 0xA0B JUMP JUMPDEST PUSH1 0x7 PUSH1 0x0 MSTORE SWAP1 SWAP2 POP PUSH1 0x0 DUP1 MLOAD PUSH1 0x20 PUSH3 0x1DE2 DUP4 CODECOPY DUP2 MLOAD SWAP2 MSTORE PUSH1 0x1F DUP5 ADD PUSH1 0x5 SHR DUP2 ADD PUSH1 0x20 DUP6 LT PUSH3 0xAC6 JUMPI JUMPDEST SWAP1 DUP5 SWAP4 SWAP3 SWAP2 JUMPDEST PUSH1 0x1F DUP4 ADD PUSH1 0x5 SHR DUP3 ADD DUP2 LT PUSH3 0xAB6 JUMPI POP POP PUSH3 0x533 JUMP JUMPDEST PUSH1 0x0 DUP2 SSTORE DUP6 SWAP5 POP PUSH1 0x1 ADD PUSH3 0xA9E JUMP JUMPDEST POP DUP1 PUSH3 0xA98 JUMP JUMPDEST SWAP2 PUSH1 0x7F AND SWAP2 PUSH3 0x51D JUMP JUMPDEST SWAP1 POP DUP4 ADD MLOAD CODESIZE PUSH3 0x4DE JUMP JUMPDEST PUSH1 0x6 PUSH1 0x0 SWAP1 DUP2 MSTORE SWAP3 POP PUSH1 0x0 DUP1 MLOAD PUSH1 0x20 PUSH3 0x1E42 DUP4 CODECOPY DUP2 MLOAD SWAP2 MSTORE SWAP1 JUMPDEST PUSH1 0x1F NOT DUP4 AND DUP5 LT PUSH3 0xB45 JUMPI PUSH1 0x1 SWAP4 POP DUP3 PUSH1 0x1F NOT DUP2 AND LT PUSH3 0xB2B JUMPI JUMPDEST POP POP DUP2 SHL ADD PUSH1 0x6 SSTORE PUSH3 0x4F3 JUMP JUMPDEST DUP6 ADD MLOAD PUSH1 0x0 NOT PUSH1 0xF8 DUP5 PUSH1 0x3 SHL AND SHR NOT AND SWAP1 SSTORE CODESIZE DUP1 PUSH3 0xB1D JUMP JUMPDEST DUP6 DUP2 ADD MLOAD DUP3 SSTORE PUSH1 0x20 SWAP4 DUP5 ADD SWAP4 PUSH1 0x1 SWAP1 SWAP3 ADD SWAP2 ADD PUSH3 0xB00 JUMP JUMPDEST PUSH1 0x6 PUSH1 0x0 MSTORE PUSH1 0x0 DUP1 MLOAD PUSH1 0x20 PUSH3 0x1E42 DUP4 CODECOPY DUP2 MLOAD SWAP2 MSTORE PUSH1 0x1F DUP4 ADD PUSH1 0x5 SHR DUP2 ADD PUSH1 0x20 DUP5 LT PUSH3 0xBAB JUMPI JUMPDEST PUSH1 0x1F DUP4 ADD PUSH1 0x5 SHR DUP3 ADD DUP2 LT PUSH3 0xB9E JUMPI POP POP PUSH3 0x4C5 JUMP JUMPDEST PUSH1 0x0 DUP2 SSTORE PUSH1 0x1 ADD PUSH3 0xB86 JUMP JUMPDEST POP DUP1 PUSH3 0xB86 JUMP JUMPDEST SWAP1 PUSH1 0x7F AND SWAP1 PUSH3 0x4B1 JUMP JUMPDEST PUSH1 0x40 MLOAD PUSH3 0x461BCD PUSH1 0xE5 SHL DUP2 MSTORE PUSH1 0x20 PUSH1 0x4 DUP3 ADD MSTORE PUSH1 0x1C PUSH1 0x24 DUP3 ADD MSTORE PUSH32 0x5072696365206D7573742062652067726561746572207468616E203000000000 PUSH1 0x44 DUP3 ADD MSTORE PUSH1 0x64 SWAP1 REVERT JUMPDEST PUSH1 0x40 MLOAD PUSH3 0x461BCD PUSH1 0xE5 SHL DUP2 MSTORE PUSH1 0x20 PUSH1 0x4 DUP3 ADD MSTORE PUSH1 0x18 PUSH1 0x24 DUP3 ADD MSTORE PUSH32 0x496E76616C696420696D6167652055524C206C656E6774680000000000000000 PUSH1 0x44 DUP3 ADD MSTORE PUSH1 0x64 SWAP1 REVERT JUMPDEST PUSH1 0x64 SWAP2 POP GT ISZERO CODESIZE PUSH3 0x43E JUMP JUMPDEST PUSH1 0x40 MLOAD PUSH3 0x461BCD PUSH1 0xE5 SHL DUP2 MSTORE PUSH1 0x20 PUSH1 0x4 DUP3 ADD MSTORE PUSH1 0x17 PUSH1 0x24 DUP3 ADD MSTORE PUSH32 0x496E76616C6964206C6F636174696F6E206C656E677468000000000000000000 PUSH1 0x44 DUP3 ADD MSTORE PUSH1 0x64 SWAP1 REVERT JUMPDEST PUSH1 0x14 SWAP2 POP GT ISZERO CODESIZE PUSH3 0x42A JUMP JUMPDEST PUSH1 0x40 MLOAD PUSH3 0x461BCD PUSH1 0xE5 SHL DUP2 MSTORE PUSH1 0x20 PUSH1 0x4 DUP3 ADD MSTORE PUSH1 0x1A PUSH1 0x24 DUP3 ADD MSTORE PUSH32 0x496E76616C6964206465736372697074696F6E206C656E677468000000000000 PUSH1 0x44 DUP3 ADD MSTORE PUSH1 0x64 SWAP1 REVERT JUMPDEST PUSH1 0x32 SWAP2 POP GT ISZERO CODESIZE PUSH3 0x416 JUMP JUMPDEST PUSH1 0x40 MLOAD PUSH3 0x461BCD PUSH1 0xE5 SHL DUP2 MSTORE PUSH1 0x20 PUSH1 0x4 DUP3 ADD MSTORE PUSH1 0x14 PUSH1 0x24 DUP3 ADD MSTORE PUSH32 0x496E76616C6964207469746C65206C656E677468000000000000000000000000 PUSH1 0x44 DUP3 ADD MSTORE PUSH1 0x64 SWAP1 REVERT JUMPDEST PUSH1 0x14 SWAP2 POP GT ISZERO CODESIZE PUSH3 0x402 JUMP JUMPDEST PUSH1 0x40 MLOAD PUSH4 0x1E4FBDF7 PUSH1 0xE0 SHL DUP2 MSTORE PUSH1 0x0 PUSH1 0x4 DUP3 ADD MSTORE PUSH1 0x24 SWAP1 REVERT JUMPDEST ADD MLOAD SWAP1 POP CODESIZE DUP1 PUSH3 0x1DD JUMP JUMPDEST PUSH1 0x4 PUSH1 0x0 SWAP1 DUP2 MSTORE SWAP4 POP PUSH32 0x8A35ACFBC15FF81A39AE7D344FD709F28E8600B4AA8C65C6B64BFE7FE36BD19B SWAP2 SWAP1 JUMPDEST PUSH1 0x1F NOT DUP5 AND DUP6 LT PUSH3 0xDE3 JUMPI PUSH1 0x1 SWAP5 POP DUP4 PUSH1 0x1F NOT DUP2 AND LT PUSH3 0xDC9 JUMPI JUMPDEST POP POP POP DUP2 SHL ADD PUSH1 0x4 SSTORE PUSH3 0x1F3 JUMP JUMPDEST ADD MLOAD PUSH1 0x0 NOT PUSH1 0xF8 DUP5 PUSH1 0x3 SHL AND SHR NOT AND SWAP1 SSTORE CODESIZE DUP1 DUP1 PUSH3 0xDBA JUMP JUMPDEST DUP2 DUP2 ADD MLOAD DUP4 SSTORE PUSH1 0x20 SWAP5 DUP6 ADD SWAP5 PUSH1 0x1 SWAP1 SWAP4 ADD SWAP3 SWAP1 SWAP2 ADD SWAP1 PUSH3 0xD9D JUMP JUMPDEST PUSH1 0x4 PUSH1 0x0 MSTORE SWAP1 SWAP2 POP PUSH32 0x8A35ACFBC15FF81A39AE7D344FD709F28E8600B4AA8C65C6B64BFE7FE36BD19B PUSH1 0x1F DUP5 ADD PUSH1 0x5 SHR DUP2 ADD SWAP2 PUSH1 0x20 DUP6 LT PUSH3 0xE69 JUMPI JUMPDEST SWAP1 PUSH1 0x1F DUP6 SWAP5 SWAP4 SWAP3 ADD PUSH1 0x5 SHR ADD SWAP1 JUMPDEST DUP2 DUP2 LT PUSH3 0xE59 JUMPI POP PUSH3 0x1C4 JUMP JUMPDEST PUSH1 0x0 DUP2 SSTORE DUP5 SWAP4 POP PUSH1 0x1 ADD PUSH3 0xE4A JUMP JUMPDEST SWAP1 SWAP2 POP DUP2 SWAP1 PUSH3 0xE3C JUMP JUMPDEST SWAP2 PUSH1 0x7F AND SWAP2 PUSH3 0x1AE JUMP JUMPDEST ADD MLOAD SWAP1 POP CODESIZE DUP1 PUSH3 0x173 JUMP JUMPDEST PUSH1 0x3 PUSH1 0x0 SWAP1 DUP2 MSTORE PUSH32 0xC2575A0E9E593C00F959F8C92F12DB2869C3395A3B0502D05E2516446F71F85B SWAP4 POP PUSH1 0x1F NOT DUP6 AND SWAP1 JUMPDEST DUP2 DUP2 LT PUSH3 0xEFD JUMPI POP SWAP1 DUP5 PUSH1 0x1 SWAP6 SWAP5 SWAP4 SWAP3 LT PUSH3 0xEE3 JUMPI JUMPDEST POP POP POP DUP2 SHL ADD PUSH1 0x3 SSTORE PUSH3 0x189 JUMP JUMPDEST ADD MLOAD PUSH1 0x0 NOT PUSH1 0xF8 DUP5 PUSH1 0x3 SHL AND SHR NOT AND SWAP1 SSTORE CODESIZE DUP1 DUP1 PUSH3 0xED4 JUMP JUMPDEST SWAP3 SWAP4 PUSH1 0x20 PUSH1 0x1 DUP2 SWAP3 DUP8 DUP7 ADD MLOAD DUP2 SSTORE ADD SWAP6 ADD SWAP4 ADD PUSH3 0xEBC JUMP JUMPDEST PUSH1 0x3 PUSH1 0x0 MSTORE SWAP1 SWAP2 POP PUSH32 0xC2575A0E9E593C00F959F8C92F12DB2869C3395A3B0502D05E2516446F71F85B PUSH1 0x1F DUP5 ADD PUSH1 0x5 SHR DUP2 ADD SWAP2 PUSH1 0x20 DUP6 LT PUSH3 0xF80 JUMPI JUMPDEST SWAP1 PUSH1 0x1F DUP6 SWAP5 SWAP4 SWAP3 ADD PUSH1 0x5 SHR ADD SWAP1 JUMPDEST DUP2 DUP2 LT PUSH3 0xF70 JUMPI POP PUSH3 0x15A JUMP JUMPDEST PUSH1 0x0 DUP2 SSTORE DUP5 SWAP4 POP PUSH1 0x1 ADD PUSH3 0xF61 JUMP JUMPDEST SWAP1 SWAP2 POP DUP2 SWAP1 PUSH3 0xF53 JUMP JUMPDEST SWAP2 PUSH1 0x7F AND SWAP2 PUSH3 0x144 JUMP JUMPDEST PUSH1 0x0 DUP1 REVERT JUMPDEST PUSH1 0x40 DUP2 ADD SWAP1 DUP2 LT PUSH1 0x1 PUSH1 0x1 PUSH1 0x40 SHL SUB DUP3 GT OR PUSH3 0x8D7 JUMPI PUSH1 0x40 MSTORE JUMP JUMPDEST PUSH1 0x60 DUP2 ADD SWAP1 DUP2 LT PUSH1 0x1 PUSH1 0x1 PUSH1 0x40 SHL SUB DUP3 GT OR PUSH3 0x8D7 JUMPI PUSH1 0x40 MSTORE JUMP JUMPDEST PUSH1 0x1F SWAP1 SWAP2 ADD PUSH1 0x1F NOT AND DUP2 ADD SWAP1 PUSH1 0x1 PUSH1 0x1 PUSH1 0x40 SHL SUB DUP3 GT SWAP1 DUP3 LT OR PUSH3 0x8D7 JUMPI PUSH1 0x40 MSTORE JUMP JUMPDEST PUSH1 0x0 JUMPDEST DUP4 DUP2 LT PUSH3 0x100B JUMPI POP POP PUSH1 0x0 SWAP2 ADD MSTORE JUMP JUMPDEST DUP2 DUP2 ADD MLOAD DUP4 DUP3 ADD MSTORE PUSH1 0x20 ADD PUSH3 0xFFA JUMP JUMPDEST DUP2 PUSH1 0x1F DUP3 ADD SLT ISZERO PUSH3 0xF96 JUMPI DUP1 MLOAD PUSH1 0x1 PUSH1 0x1 PUSH1 0x40 SHL SUB DUP2 GT PUSH3 0x8D7 JUMPI PUSH1 0x40 MLOAD SWAP3 PUSH3 0x1053 PUSH1 0x1F DUP4 ADD PUSH1 0x1F NOT AND PUSH1 0x20 ADD DUP6 PUSH3 0xFD3 JUMP JUMPDEST DUP2 DUP5 MSTORE PUSH1 0x20 DUP3 DUP5 ADD ADD GT PUSH3 0xF96 JUMPI PUSH3 0x1074 SWAP2 PUSH1 0x20 DUP1 DUP6 ADD SWAP2 ADD PUSH3 0xFF7 JUMP JUMPDEST SWAP1 JUMP JUMPDEST SWAP1 PUSH1 0x20 SWAP2 PUSH3 0x1092 DUP2 MLOAD DUP1 SWAP3 DUP2 DUP6 MSTORE DUP6 DUP1 DUP7 ADD SWAP2 ADD PUSH3 0xFF7 JUMP JUMPDEST PUSH1 0x1F ADD PUSH1 0x1F NOT AND ADD ADD SWAP1 JUMP INVALID PUSH1 0x40 PUSH1 0x80 DUP2 MSTORE PUSH1 0x4 SWAP1 DUP2 CALLDATASIZE LT ISZERO PUSH2 0x15 JUMPI PUSH1 0x0 DUP1 REVERT JUMPDEST PUSH1 0x0 SWAP2 DUP3 CALLDATALOAD PUSH1 0xE0 SHR DUP1 PUSH3 0x7DC372 EQ PUSH2 0x7A4 JUMPI DUP1 PUSH4 0x6FDDE03 EQ PUSH2 0x6C0 JUMPI DUP1 PUSH4 0x95EA7B3 EQ PUSH2 0x617 JUMPI DUP1 PUSH4 0x18160DDD EQ PUSH2 0x5F8 JUMPI DUP1 PUSH4 0x23B872DD EQ PUSH2 0x505 JUMPI DUP1 PUSH4 0x313CE567 EQ PUSH2 0x4E9 JUMPI DUP1 PUSH4 0x70A08231 EQ PUSH2 0x4B2 JUMPI DUP1 PUSH4 0x715018A6 EQ PUSH2 0x455 JUMPI DUP1 PUSH4 0x8D6CC56D EQ PUSH2 0x3E7 JUMPI DUP1 PUSH4 0x8DA5CB5B EQ PUSH2 0x3BE JUMPI DUP1 PUSH4 0x902D55A5 EQ PUSH2 0x39A JUMPI DUP1 PUSH4 0x95D89B41 EQ PUSH2 0x275 JUMPI DUP1 PUSH4 0xA1BB6170 EQ PUSH2 0x23E JUMPI DUP1 PUSH4 0xA9059CBB EQ PUSH2 0x20D JUMPI DUP1 PUSH4 0xD81BC271 EQ PUSH2 0x1BA JUMPI DUP1 PUSH4 0xDD62ED3E EQ PUSH2 0x16D JUMPI PUSH4 0xF2FDE38B EQ PUSH2 0xDB JUMPI PUSH1 0x0 DUP1 REVERT JUMPDEST CALLVALUE PUSH2 0x169 JUMPI PUSH1 0x20 CALLDATASIZE PUSH1 0x3 NOT ADD SLT PUSH2 0x169 JUMPI PUSH2 0xF4 PUSH2 0xBD2 JUMP JUMPDEST SWAP1 PUSH2 0xFD PUSH2 0xC03 JUMP JUMPDEST PUSH1 0x1 PUSH1 0x1 PUSH1 0xA0 SHL SUB SWAP2 DUP3 AND SWAP3 DUP4 ISZERO PUSH2 0x153 JUMPI POP POP PUSH1 0x5 SLOAD DUP3 PUSH12 0xFFFFFFFFFFFFFFFFFFFFFFFF PUSH1 0xA0 SHL DUP3 AND OR PUSH1 0x5 SSTORE AND PUSH32 0x8BE0079C531659141344CD1FD0A4F28419497F9722A3DAAFE3B4186F6B6457E0 DUP4 DUP1 LOG3 DUP1 RETURN JUMPDEST MLOAD PUSH4 0x1E4FBDF7 PUSH1 0xE0 SHL DUP2 MSTORE SWAP1 DUP2 ADD DUP5 SWAP1 MSTORE PUSH1 0x24 SWAP1 REVERT JUMPDEST DUP3 DUP1 REVERT JUMPDEST POP POP CALLVALUE PUSH2 0x1B6 JUMPI DUP1 PUSH1 0x3 NOT CALLDATASIZE ADD SLT PUSH2 0x1B6 JUMPI DUP1 PUSH1 0x20 SWAP3 PUSH2 0x18B PUSH2 0xBD2 JUMP JUMPDEST PUSH2 0x193 PUSH2 0xBED JUMP JUMPDEST PUSH1 0x1 PUSH1 0x1 PUSH1 0xA0 SHL SUB SWAP2 DUP3 AND DUP4 MSTORE PUSH1 0x1 DUP7 MSTORE DUP4 DUP4 KECCAK256 SWAP2 AND DUP3 MSTORE DUP5 MSTORE KECCAK256 SLOAD SWAP1 MLOAD SWAP1 DUP2 MSTORE RETURN JUMPDEST POP DUP1 REVERT JUMPDEST DUP3 DUP5 CALLVALUE PUSH2 0x20A JUMPI DUP1 PUSH1 0x3 NOT CALLDATASIZE ADD SLT PUSH2 0x20A JUMPI POP PUSH1 0xA SLOAD PUSH2 0x206 PUSH1 0xFF PUSH1 0xB SLOAD AND PUSH2 0x1E1 PUSH2 0x7F0 JUMP JUMPDEST SWAP3 PUSH2 0x1EA PUSH2 0x8F7 JUMP JUMPDEST SWAP5 PUSH2 0x1F3 PUSH2 0x9B7 JUMP JUMPDEST PUSH2 0x1FB PUSH2 0xA77 JUMP JUMPDEST SWAP2 MLOAD SWAP7 DUP8 SWAP7 DUP8 PUSH2 0xB77 JUMP JUMPDEST SUB SWAP1 RETURN JUMPDEST DUP1 REVERT JUMPDEST POP POP CALLVALUE PUSH2 0x1B6 JUMPI DUP1 PUSH1 0x3 NOT CALLDATASIZE ADD SLT PUSH2 0x1B6 JUMPI PUSH1 0x20 SWAP1 PUSH2 0x237 PUSH2 0x22D PUSH2 0xBD2 JUMP JUMPDEST PUSH1 0x24 CALLDATALOAD SWAP1 CALLER PUSH2 0xC2F JUMP JUMPDEST MLOAD PUSH1 0x1 DUP2 MSTORE RETURN JUMPDEST DUP4 DUP3 CALLVALUE PUSH2 0x1B6 JUMPI PUSH1 0x20 CALLDATASIZE PUSH1 0x3 NOT ADD SLT PUSH2 0x1B6 JUMPI CALLDATALOAD DUP1 ISZERO ISZERO DUP1 SWAP2 SUB PUSH2 0x1B6 JUMPI PUSH2 0x264 PUSH2 0xC03 JUMP JUMPDEST PUSH1 0xFF DUP1 NOT PUSH1 0xB SLOAD AND SWAP2 AND OR PUSH1 0xB SSTORE DUP1 RETURN JUMPDEST POP SWAP2 SWAP1 CALLVALUE PUSH2 0x1B6 JUMPI DUP2 PUSH1 0x3 NOT CALLDATASIZE ADD SLT PUSH2 0x1B6 JUMPI DUP1 MLOAD SWAP1 DUP3 SWAP1 DUP5 SLOAD SWAP2 PUSH1 0x1 DUP4 DUP2 SHR SWAP1 DUP1 DUP6 AND SWAP5 DUP6 ISZERO PUSH2 0x390 JUMPI JUMPDEST PUSH1 0x20 SWAP6 DUP7 DUP5 LT DUP2 EQ PUSH2 0x37D JUMPI DUP4 DUP9 MSTORE SWAP1 DUP7 SWAP1 DUP3 ISZERO PUSH2 0x361 JUMPI POP POP PUSH1 0x1 EQ PUSH2 0x30D JUMPI JUMPDEST POP POP DUP4 SWAP1 SUB PUSH1 0x1F ADD PUSH1 0x1F NOT AND DUP4 ADD SWAP4 PUSH8 0xFFFFFFFFFFFFFFFF DUP6 GT DUP5 DUP7 LT OR PUSH2 0x2FA JUMPI POP SWAP2 PUSH2 0x206 SWAP2 DUP5 DUP1 SWAP5 MSTORE DUP1 DUP5 MSTORE DUP4 ADD SWAP1 PUSH2 0xB37 JUMP JUMPDEST PUSH4 0x4E487B71 PUSH1 0xE0 SHL DUP2 MSTORE PUSH1 0x41 DUP7 MSTORE PUSH1 0x24 SWAP1 REVERT JUMPDEST DUP8 DUP8 MSTORE DUP5 SWAP3 POP DUP7 SWAP2 SWAP1 PUSH32 0x8A35ACFBC15FF81A39AE7D344FD709F28E8600B4AA8C65C6B64BFE7FE36BD19B JUMPDEST DUP3 DUP5 LT PUSH2 0x34C JUMPI POP POP POP DUP5 ADD ADD CODESIZE DUP1 PUSH2 0x2C3 JUMP JUMPDEST DUP1 SLOAD DUP9 DUP6 ADD DUP7 ADD MSTORE DUP7 SWAP5 SWAP1 SWAP4 ADD SWAP3 DUP2 ADD PUSH2 0x338 JUMP JUMPDEST SWAP3 POP SWAP4 POP POP PUSH1 0xFF NOT AND DUP3 DUP7 ADD MSTORE ISZERO ISZERO PUSH1 0x5 SHL DUP5 ADD ADD CODESIZE DUP1 PUSH2 0x2C3 JUMP JUMPDEST PUSH4 0x4E487B71 PUSH1 0xE0 SHL DUP10 MSTORE PUSH1 0x22 DUP11 MSTORE PUSH1 0x24 DUP10 REVERT JUMPDEST SWAP2 PUSH1 0x7F AND SWAP2 PUSH2 0x2A1 JUMP JUMPDEST POP POP CALLVALUE PUSH2 0x1B6 JUMPI DUP2 PUSH1 0x3 NOT CALLDATASIZE ADD SLT PUSH2 0x1B6 JUMPI PUSH1 0x20 SWAP1 MLOAD PUSH9 0x3635C9ADC5DEA00000 DUP2 MSTORE RETURN JUMPDEST POP POP CALLVALUE PUSH2 0x1B6 JUMPI DUP2 PUSH1 0x3 NOT CALLDATASIZE ADD SLT PUSH2 0x1B6 JUMPI PUSH1 0x5 SLOAD SWAP1 MLOAD PUSH1 0x1 PUSH1 0x1 PUSH1 0xA0 SHL SUB SWAP1 SWAP2 AND DUP2 MSTORE PUSH1 0x20 SWAP1 RETURN JUMPDEST POP CALLVALUE PUSH2 0x169 JUMPI PUSH1 0x20 CALLDATASIZE PUSH1 0x3 NOT ADD SLT PUSH2 0x169 JUMPI DUP1 CALLDATALOAD SWAP2 PUSH2 0x404 PUSH2 0xC03 JUMP JUMPDEST DUP3 ISZERO PUSH2 0x412 JUMPI POP POP PUSH1 0xA SSTORE DUP1 RETURN JUMPDEST SWAP1 PUSH1 0x20 PUSH1 0x64 SWAP3 MLOAD SWAP2 PUSH3 0x461BCD PUSH1 0xE5 SHL DUP4 MSTORE DUP3 ADD MSTORE PUSH1 0x1C PUSH1 0x24 DUP3 ADD MSTORE PUSH32 0x5072696365206D7573742062652067726561746572207468616E203000000000 PUSH1 0x44 DUP3 ADD MSTORE REVERT JUMPDEST DUP4 CALLVALUE PUSH2 0x20A JUMPI DUP1 PUSH1 0x3 NOT CALLDATASIZE ADD SLT PUSH2 0x20A JUMPI PUSH2 0x46E PUSH2 0xC03 JUMP JUMPDEST PUSH1 0x5 DUP1 SLOAD PUSH1 0x1 PUSH1 0x1 PUSH1 0xA0 SHL SUB NOT DUP2 AND SWAP1 SWAP2 SSTORE DUP2 SWAP1 PUSH1 0x1 PUSH1 0x1 PUSH1 0xA0 SHL SUB AND PUSH32 0x8BE0079C531659141344CD1FD0A4F28419497F9722A3DAAFE3B4186F6B6457E0 DUP3 DUP1 LOG3 DUP1 RETURN JUMPDEST POP POP CALLVALUE PUSH2 0x1B6 JUMPI PUSH1 0x20 CALLDATASIZE PUSH1 0x3 NOT ADD SLT PUSH2 0x1B6 JUMPI PUSH1 0x20 SWAP2 DUP2 SWAP1 PUSH1 0x1 PUSH1 0x1 PUSH1 0xA0 SHL SUB PUSH2 0x4DA PUSH2 0xBD2 JUMP JUMPDEST AND DUP2 MSTORE DUP1 DUP5 MSTORE KECCAK256 SLOAD SWAP1 MLOAD SWAP1 DUP2 MSTORE RETURN JUMPDEST POP POP CALLVALUE PUSH2 0x1B6 JUMPI DUP2 PUSH1 0x3 NOT CALLDATASIZE ADD SLT PUSH2 0x1B6 JUMPI PUSH1 0x20 SWAP1 MLOAD PUSH1 0x12 DUP2 MSTORE RETURN JUMPDEST POP DUP3 CALLVALUE PUSH2 0x20A JUMPI PUSH1 0x60 CALLDATASIZE PUSH1 0x3 NOT ADD SLT PUSH2 0x20A JUMPI PUSH2 0x520 PUSH2 0xBD2 JUMP JUMPDEST PUSH2 0x528 PUSH2 0xBED JUMP JUMPDEST SWAP2 PUSH1 0x44 CALLDATALOAD SWAP4 PUSH1 0x1 DUP1 PUSH1 0xA0 SHL SUB DUP4 AND DUP1 DUP4 MSTORE PUSH1 0x1 PUSH1 0x20 MSTORE DUP7 DUP4 KECCAK256 CALLER DUP5 MSTORE PUSH1 0x20 MSTORE DUP7 DUP4 KECCAK256 SLOAD SWAP2 PUSH1 0x0 NOT DUP4 SUB PUSH2 0x564 JUMPI JUMPDEST PUSH1 0x20 DUP9 PUSH2 0x237 DUP10 DUP10 DUP10 PUSH2 0xC2F JUMP JUMPDEST DUP7 DUP4 LT PUSH2 0x5CC JUMPI DUP2 ISZERO PUSH2 0x5B5 JUMPI CALLER ISZERO PUSH2 0x59E JUMPI POP DUP3 MSTORE PUSH1 0x1 PUSH1 0x20 SWAP1 DUP2 MSTORE DUP7 DUP4 KECCAK256 CALLER DUP5 MSTORE DUP2 MSTORE SWAP2 DUP7 SWAP1 KECCAK256 SWAP1 DUP6 SWAP1 SUB SWAP1 SSTORE DUP3 SWAP1 PUSH2 0x237 DUP8 PUSH2 0x556 JUMP JUMPDEST DUP8 MLOAD PUSH4 0x4A1406B1 PUSH1 0xE1 SHL DUP2 MSTORE SWAP1 DUP2 ADD DUP5 SWAP1 MSTORE PUSH1 0x24 SWAP1 REVERT JUMPDEST DUP8 MLOAD PUSH4 0xE602DF05 PUSH1 0xE0 SHL DUP2 MSTORE SWAP1 DUP2 ADD DUP5 SWAP1 MSTORE PUSH1 0x24 SWAP1 REVERT JUMPDEST DUP8 MLOAD PUSH4 0x7DC7A0D9 PUSH1 0xE1 SHL DUP2 MSTORE CALLER SWAP2 DUP2 ADD SWAP2 DUP3 MSTORE PUSH1 0x20 DUP3 ADD SWAP4 SWAP1 SWAP4 MSTORE PUSH1 0x40 DUP2 ADD DUP8 SWAP1 MSTORE DUP3 SWAP2 POP PUSH1 0x60 ADD SUB SWAP1 REVERT JUMPDEST POP POP CALLVALUE PUSH2 0x1B6 JUMPI DUP2 PUSH1 0x3 NOT CALLDATASIZE ADD SLT PUSH2 0x1B6 JUMPI PUSH1 0x20 SWAP1 PUSH1 0x2 SLOAD SWAP1 MLOAD SWAP1 DUP2 MSTORE RETURN JUMPDEST POP CALLVALUE PUSH2 0x169 JUMPI DUP2 PUSH1 0x3 NOT CALLDATASIZE ADD SLT PUSH2 0x169 JUMPI PUSH2 0x630 PUSH2 0xBD2 JUMP JUMPDEST PUSH1 0x24 CALLDATALOAD SWAP1 CALLER ISZERO PUSH2 0x6A9 JUMPI PUSH1 0x1 PUSH1 0x1 PUSH1 0xA0 SHL SUB AND SWAP2 DUP3 ISZERO PUSH2 0x692 JUMPI POP DUP1 DUP4 PUSH1 0x20 SWAP6 CALLER DUP2 MSTORE PUSH1 0x1 DUP8 MSTORE DUP2 DUP2 KECCAK256 DUP6 DUP3 MSTORE DUP8 MSTORE KECCAK256 SSTORE DUP3 MLOAD SWAP1 DUP2 MSTORE PUSH32 0x8C5BE1E5EBEC7D5BD14F71427D1E84F3DD0314C0F7B2291E5B200AC8C7C3B925 DUP5 CALLER SWAP3 LOG3 MLOAD PUSH1 0x1 DUP2 MSTORE RETURN JUMPDEST DUP4 MLOAD PUSH4 0x4A1406B1 PUSH1 0xE1 SHL DUP2 MSTORE SWAP1 DUP2 ADD DUP6 SWAP1 MSTORE PUSH1 0x24 SWAP1 REVERT JUMPDEST DUP4 MLOAD PUSH4 0xE602DF05 PUSH1 0xE0 SHL DUP2 MSTORE DUP1 DUP5 ADD DUP7 SWAP1 MSTORE PUSH1 0x24 SWAP1 REVERT JUMPDEST POP SWAP2 SWAP1 CALLVALUE PUSH2 0x1B6 JUMPI DUP2 PUSH1 0x3 NOT CALLDATASIZE ADD SLT PUSH2 0x1B6 JUMPI DUP1 MLOAD SWAP1 DUP3 SWAP1 PUSH1 0x3 SLOAD SWAP2 PUSH1 0x1 DUP4 DUP2 SHR SWAP1 DUP1 DUP6 AND SWAP5 DUP6 ISZERO PUSH2 0x79A JUMPI JUMPDEST PUSH1 0x20 SWAP6 DUP7 DUP5 LT DUP2 EQ PUSH2 0x37D JUMPI DUP4 DUP9 MSTORE SWAP1 DUP7 SWAP1 DUP3 ISZERO PUSH2 0x361 JUMPI POP POP PUSH1 0x1 EQ PUSH2 0x745 JUMPI POP POP DUP4 SWAP1 SUB PUSH1 0x1F ADD PUSH1 0x1F NOT AND DUP4 ADD SWAP4 PUSH8 0xFFFFFFFFFFFFFFFF DUP6 GT DUP5 DUP7 LT OR PUSH2 0x2FA JUMPI POP SWAP2 PUSH2 0x206 SWAP2 DUP5 DUP1 SWAP5 MSTORE DUP1 DUP5 MSTORE DUP4 ADD SWAP1 PUSH2 0xB37 JUMP JUMPDEST PUSH1 0x3 DUP8 MSTORE DUP5 SWAP3 POP DUP7 SWAP2 SWAP1 PUSH32 0xC2575A0E9E593C00F959F8C92F12DB2869C3395A3B0502D05E2516446F71F85B JUMPDEST DUP3 DUP5 LT PUSH2 0x785 JUMPI POP POP POP DUP5 ADD ADD CODESIZE DUP1 PUSH2 0x2C3 JUMP JUMPDEST DUP1 SLOAD DUP9 DUP6 ADD DUP7 ADD MSTORE DUP7 SWAP5 SWAP1 SWAP4 ADD SWAP3 DUP2 ADD PUSH2 0x771 JUMP JUMPDEST SWAP2 PUSH1 0x7F AND SWAP2 PUSH2 0x6ED JUMP JUMPDEST DUP3 DUP5 CALLVALUE PUSH2 0x20A JUMPI DUP1 PUSH1 0x3 NOT CALLDATASIZE ADD SLT PUSH2 0x20A JUMPI POP PUSH2 0x7BF PUSH2 0x7F0 JUMP JUMPDEST PUSH2 0x206 PUSH2 0x7CA PUSH2 0x8F7 JUMP JUMPDEST SWAP3 PUSH2 0x7D3 PUSH2 0x9B7 JUMP JUMPDEST PUSH2 0x7DB PUSH2 0xA77 JUMP JUMPDEST PUSH1 0xA SLOAD SWAP2 PUSH1 0xFF PUSH1 0xB SLOAD AND SWAP4 MLOAD SWAP7 DUP8 SWAP7 DUP8 PUSH2 0xB77 JUMP JUMPDEST PUSH1 0x40 MLOAD SWAP1 PUSH1 0x0 PUSH1 0x6 SLOAD PUSH1 0x1 DUP2 DUP2 SHR SWAP1 DUP1 DUP4 AND SWAP3 DUP4 ISZERO PUSH2 0x8ED JUMPI JUMPDEST PUSH1 0x20 SWAP4 DUP5 DUP5 LT DUP2 EQ PUSH2 0x8D9 JUMPI DUP4 DUP9 MSTORE SWAP1 DUP2 ISZERO PUSH2 0x8BD JUMPI POP PUSH1 0x1 EQ PUSH2 0x866 JUMPI JUMPDEST POP POP POP DUP3 SWAP1 SUB PUSH1 0x1F ADD PUSH1 0x1F NOT AND DUP3 ADD PUSH8 0xFFFFFFFFFFFFFFFF DUP2 GT DUP4 DUP3 LT OR PUSH2 0x850 JUMPI PUSH1 0x40 MSTORE JUMP JUMPDEST PUSH4 0x4E487B71 PUSH1 0xE0 SHL PUSH1 0x0 MSTORE PUSH1 0x41 PUSH1 0x4 MSTORE PUSH1 0x24 PUSH1 0x0 REVERT JUMPDEST PUSH1 0x6 PUSH1 0x0 SWAP1 DUP2 MSTORE SWAP3 SWAP4 POP DUP4 PUSH32 0xF652222313E28459528D920B65115C16C04F3EFC82AAEDC97BE59F3F377C0D3F JUMPDEST DUP4 DUP6 LT PUSH2 0x8A9 JUMPI POP POP POP POP DUP4 ADD ADD CODESIZE DUP1 DUP1 PUSH2 0x829 JUMP JUMPDEST DUP1 SLOAD DUP9 DUP7 ADD DUP4 ADD MSTORE SWAP4 ADD SWAP3 DUP5 SWAP1 DUP3 ADD PUSH2 0x893 JUMP JUMPDEST PUSH1 0xFF NOT AND DUP8 DUP6 ADD MSTORE POP POP ISZERO ISZERO PUSH1 0x5 SHL DUP5 ADD ADD SWAP1 POP CODESIZE DUP1 DUP1 PUSH2 0x829 JUMP JUMPDEST PUSH4 0x4E487B71 PUSH1 0xE0 SHL DUP7 MSTORE PUSH1 0x22 PUSH1 0x4 MSTORE PUSH1 0x24 DUP7 REVERT JUMPDEST SWAP2 PUSH1 0x7F AND SWAP2 PUSH2 0x80A JUMP JUMPDEST PUSH1 0x40 MLOAD SWAP1 PUSH1 0x0 PUSH1 0x7 SLOAD PUSH1 0x1 DUP2 DUP2 SHR SWAP1 DUP1 DUP4 AND SWAP3 DUP4 ISZERO PUSH2 0x9AD JUMPI JUMPDEST PUSH1 0x20 SWAP4 DUP5 DUP5 LT DUP2 EQ PUSH2 0x8D9 JUMPI DUP4 DUP9 MSTORE SWAP1 DUP2 ISZERO PUSH2 0x8BD JUMPI POP PUSH1 0x1 EQ PUSH2 0x956 JUMPI POP POP POP DUP3 SWAP1 SUB PUSH1 0x1F ADD PUSH1 0x1F NOT AND DUP3 ADD PUSH8 0xFFFFFFFFFFFFFFFF DUP2 GT DUP4 DUP3 LT OR PUSH2 0x850 JUMPI PUSH1 0x40 MSTORE JUMP JUMPDEST PUSH1 0x7 PUSH1 0x0 SWAP1 DUP2 MSTORE SWAP3 SWAP4 POP DUP4 PUSH32 0xA66CC928B5EDB82AF9BD49922954155AB7B0942694BEA4CE44661D9A8736C688 JUMPDEST DUP4 DUP6 LT PUSH2 0x999 JUMPI POP POP POP POP DUP4 ADD ADD CODESIZE DUP1 DUP1 PUSH2 0x829 JUMP JUMPDEST DUP1 SLOAD DUP9 DUP7 ADD DUP4 ADD MSTORE SWAP4 ADD SWAP3 DUP5 SWAP1 DUP3 ADD PUSH2 0x983 JUMP JUMPDEST SWAP2 PUSH1 0x7F AND SWAP2 PUSH2 0x911 JUMP JUMPDEST PUSH1 0x40 MLOAD SWAP1 PUSH1 0x0 PUSH1 0x8 SLOAD PUSH1 0x1 DUP2 DUP2 SHR SWAP1 DUP1 DUP4 AND SWAP3 DUP4 ISZERO PUSH2 0xA6D JUMPI JUMPDEST PUSH1 0x20 SWAP4 DUP5 DUP5 LT DUP2 EQ PUSH2 0x8D9 JUMPI DUP4 DUP9 MSTORE SWAP1 DUP2 ISZERO PUSH2 0x8BD JUMPI POP PUSH1 0x1 EQ PUSH2 0xA16 JUMPI POP POP POP DUP3 SWAP1 SUB PUSH1 0x1F ADD PUSH1 0x1F NOT AND DUP3 ADD PUSH8 0xFFFFFFFFFFFFFFFF DUP2 GT DUP4 DUP3 LT OR PUSH2 0x850 JUMPI PUSH1 0x40 MSTORE JUMP JUMPDEST PUSH1 0x8 PUSH1 0x0 SWAP1 DUP2 MSTORE SWAP3 SWAP4 POP DUP4 PUSH32 0xF3F7A9FE364FAAB93B216DA50A3214154F22A0A2B415B23A84C8169E8B636EE3 JUMPDEST DUP4 DUP6 LT PUSH2 0xA59 JUMPI POP POP POP POP DUP4 ADD ADD CODESIZE DUP1 DUP1 PUSH2 0x829 JUMP JUMPDEST DUP1 SLOAD DUP9 DUP7 ADD DUP4 ADD MSTORE SWAP4 ADD SWAP3 DUP5 SWAP1 DUP3 ADD PUSH2 0xA43 JUMP JUMPDEST SWAP2 PUSH1 0x7F AND SWAP2 PUSH2 0x9D1 JUMP JUMPDEST PUSH1 0x40 MLOAD SWAP1 PUSH1 0x0 PUSH1 0x9 SLOAD PUSH1 0x1 DUP2 DUP2 SHR SWAP1 DUP1 DUP4 AND SWAP3 DUP4 ISZERO PUSH2 0xB2D JUMPI JUMPDEST PUSH1 0x20 SWAP4 DUP5 DUP5 LT DUP2 EQ PUSH2 0x8D9 JUMPI DUP4 DUP9 MSTORE SWAP1 DUP2 ISZERO PUSH2 0x8BD JUMPI POP PUSH1 0x1 EQ PUSH2 0xAD6 JUMPI POP POP POP DUP3 SWAP1 SUB PUSH1 0x1F ADD PUSH1 0x1F NOT AND DUP3 ADD PUSH8 0xFFFFFFFFFFFFFFFF DUP2 GT DUP4 DUP3 LT OR PUSH2 0x850 JUMPI PUSH1 0x40 MSTORE JUMP JUMPDEST PUSH1 0x9 PUSH1 0x0 SWAP1 DUP2 MSTORE SWAP3 SWAP4 POP DUP4 PUSH32 0x6E1540171B6C0C960B71A7020D9F60077F6AF931A8BBF590DA0223DACF75C7AF JUMPDEST DUP4 DUP6 LT PUSH2 0xB19 JUMPI POP POP POP POP DUP4 ADD ADD CODESIZE DUP1 DUP1 PUSH2 0x829 JUMP JUMPDEST DUP1 SLOAD DUP9 DUP7 ADD DUP4 ADD MSTORE SWAP4 ADD SWAP3 DUP5 SWAP1 DUP3 ADD PUSH2 0xB03 JUMP JUMPDEST SWAP2 PUSH1 0x7F AND SWAP2 PUSH2 0xA91 JUMP JUMPDEST SWAP2 SWAP1 DUP3 MLOAD SWAP3 DUP4 DUP3 MSTORE PUSH1 0x0 JUMPDEST DUP5 DUP2 LT PUSH2 0xB63 JUMPI POP POP DUP3 PUSH1 0x0 PUSH1 0x20 DUP1 SWAP5 SWAP6 DUP5 ADD ADD MSTORE PUSH1 0x1F DUP1 NOT SWAP2 ADD AND ADD ADD SWAP1 JUMP JUMPDEST PUSH1 0x20 DUP2 DUP4 ADD DUP2 ADD MLOAD DUP5 DUP4 ADD DUP3 ADD MSTORE ADD PUSH2 0xB42 JUMP JUMPDEST SWAP5 SWAP7 SWAP6 SWAP3 PUSH2 0xBB7 SWAP1 PUSH2 0xBA9 PUSH2 0xBC5 SWAP5 PUSH2 0xB9B PUSH1 0xA0 SWAP9 SWAP6 PUSH1 0xC0 DUP12 MSTORE PUSH1 0xC0 DUP12 ADD SWAP1 PUSH2 0xB37 JUMP JUMPDEST SWAP1 DUP10 DUP3 SUB PUSH1 0x20 DUP12 ADD MSTORE PUSH2 0xB37 JUMP JUMPDEST SWAP1 DUP8 DUP3 SUB PUSH1 0x40 DUP10 ADD MSTORE PUSH2 0xB37 JUMP JUMPDEST SWAP1 DUP6 DUP3 SUB PUSH1 0x60 DUP8 ADD MSTORE PUSH2 0xB37 JUMP JUMPDEST SWAP5 PUSH1 0x80 DUP5 ADD MSTORE ISZERO ISZERO SWAP2 ADD MSTORE JUMP JUMPDEST PUSH1 0x4 CALLDATALOAD SWAP1 PUSH1 0x1 PUSH1 0x1 PUSH1 0xA0 SHL SUB DUP3 AND DUP3 SUB PUSH2 0xBE8 JUMPI JUMP JUMPDEST PUSH1 0x0 DUP1 REVERT JUMPDEST PUSH1 0x24 CALLDATALOAD SWAP1 PUSH1 0x1 PUSH1 0x1 PUSH1 0xA0 SHL SUB DUP3 AND DUP3 SUB PUSH2 0xBE8 JUMPI JUMP JUMPDEST PUSH1 0x5 SLOAD PUSH1 0x1 PUSH1 0x1 PUSH1 0xA0 SHL SUB AND CALLER SUB PUSH2 0xC17 JUMPI JUMP JUMPDEST PUSH1 0x40 MLOAD PUSH4 0x118CDAA7 PUSH1 0xE0 SHL DUP2 MSTORE CALLER PUSH1 0x4 DUP3 ADD MSTORE PUSH1 0x24 SWAP1 REVERT JUMPDEST SWAP2 PUSH1 0x1 PUSH1 0x1 PUSH1 0xA0 SHL SUB DUP1 DUP5 AND SWAP3 DUP4 ISZERO PUSH2 0xCF4 JUMPI AND SWAP3 DUP4 ISZERO PUSH2 0xCDB JUMPI PUSH1 0x0 SWAP1 DUP4 DUP3 MSTORE DUP2 PUSH1 0x20 MSTORE PUSH1 0x40 DUP3 KECCAK256 SLOAD SWAP1 DUP4 DUP3 LT PUSH2 0xCA9 JUMPI POP SWAP2 PUSH1 0x40 DUP3 DUP3 PUSH32 0xDDF252AD1BE2C89B69C2B068FC378DAA952BA7F163C4A11628F55A4DF523B3EF SWAP6 DUP8 PUSH1 0x20 SWAP7 MSTORE DUP3 DUP7 MSTORE SUB DUP3 DUP3 KECCAK256 SSTORE DUP7 DUP2 MSTORE KECCAK256 DUP2 DUP2 SLOAD ADD SWAP1 SSTORE PUSH1 0x40 MLOAD SWAP1 DUP2 MSTORE LOG3 JUMP JUMPDEST PUSH1 0x40 MLOAD PUSH4 0x391434E3 PUSH1 0xE2 SHL DUP2 MSTORE PUSH1 0x1 PUSH1 0x1 PUSH1 0xA0 SHL SUB SWAP2 SWAP1 SWAP2 AND PUSH1 0x4 DUP3 ADD MSTORE PUSH1 0x24 DUP2 ADD SWAP2 SWAP1 SWAP2 MSTORE PUSH1 0x44 DUP2 ADD DUP4 SWAP1 MSTORE PUSH1 0x64 SWAP1 REVERT JUMPDEST PUSH1 0x40 MLOAD PUSH4 0xEC442F05 PUSH1 0xE0 SHL DUP2 MSTORE PUSH1 0x0 PUSH1 0x4 DUP3 ADD MSTORE PUSH1 0x24 SWAP1 REVERT JUMPDEST PUSH1 0x40 MLOAD PUSH4 0x4B637E8F PUSH1 0xE1 SHL DUP2 MSTORE PUSH1 0x0 PUSH1 0x4 DUP3 ADD MSTORE PUSH1 0x24 SWAP1 REVERT INVALID LOG2 PUSH5 0x6970667358 0x22 SLT KECCAK256 COINBASE ADD 0xBC 0xEF NOT PUSH7 0xA475FD87B9C6D3 0x4A DUP2 JUMPDEST 0xD5 SWAP8 STATICCALL 0x25 0x22 DUP10 0xD2 0x24 0xC2 0xF9 SWAP15 0xAE PUSH10 0xD8EC8564736F6C634300 ADDMOD EQ STOP CALLER 0xA6 PUSH13 0xC928B5EDB82AF9BD4992295415 GAS 0xB7 0xB0 SWAP5 0x26 SWAP5 0xBE LOG4 0xCE PREVRANDAO PUSH7 0x1D9A8736C688F3 0xF7 0xA9 INVALID CALLDATASIZE 0x4F 0xAA 0xB9 EXTCODESIZE 0x21 PUSH14 0xA50A3214154F22A0A2B415B23A84 0xC8 AND SWAP15 DUP12 PUSH4 0x6EE36E15 BLOCKHASH OR SHL PUSH13 0xC960B71A7020D9F60077F6AF9 BALANCE 0xA8 0xBB CREATE2 SWAP1 0xDA MUL 0x23 0xDA 0xCF PUSH22 0xC7AFF652222313E28459528D920B65115C16C04F3EFC DUP3 0xAA 0xED 0xC9 PUSH28 0xE59F3F377C0D3FA2646970667358221220A537B9E6F9B396725588D1 DUP13 0xA7 STOP BLOCKHASH PUSH8 0x73C0984946E6EF2D CREATE2 0xB4 0xC2 CALL 0xBC 0xD 0x5D 0x5D PUSH5 0x736F6C6343 STOP ADDMOD EQ STOP CALLER "},"methodIdentifiers":{"approveProperty(address)":"11798bd1","approvedProperties(address)":"21499e8b","createProperty(string,string,string,string,uint256)":"0604e456","getUserProperties(address)":"060a3e61","isPropertyApproved(address)":"62477b4b","owner()":"8da5cb5b","rejectProperty(address)":"88cbb358","renounceOwnership()":"715018a6","transferOwnership(address)":"f2fde38b","userProperties(address,uint256)":"e2271c9f"}}}}}