{
  "_format": "hh-sol-artifact-1",
  "contractName": "PropertyToken",
  "sourceName": "contracts/PropertyToken.sol",
  "abi": [
    {
      "inputs": [],
      "stateMutability": "nonpayable",
      "type": "constructor"
    },
    {
      "inputs": [],
      "name": "InsufficientBalance",
      "type": "error"
    },
    {
      "inputs": [],
      "name": "InsufficientEURCBalance",
      "type": "error"
    },
    {
      "inputs": [],
      "name": "InsufficientPropertyTokenBalance",
      "type": "error"
    },
    {
      "inputs": [],
      "name": "NotWhitelisted",
      "type": "error"
    },
    {
      "inputs": [],
      "name": "PropertyInactive",
      "type": "error"
    },
    {
      "anonymous": false,
      "inputs": [
        {
          "indexed": false,
          "internalType": "address",
          "name": "previousAdmin",
          "type": "address"
        },
        {
          "indexed": false,
          "internalType": "address",
          "name": "newAdmin",
          "type": "address"
        }
      ],
      "name": "AdminChanged",
      "type": "event"
    },
    {
      "anonymous": false,
      "inputs": [
        {
          "indexed": true,
          "internalType": "address",
          "name": "owner",
          "type": "address"
        },
        {
          "indexed": true,
          "internalType": "address",
          "name": "spender",
          "type": "address"
        },
        {
          "indexed": false,
          "internalType": "uint256",
          "name": "value",
          "type": "uint256"
        }
      ],
      "name": "Approval",
      "type": "event"
    },
    {
      "anonymous": false,
      "inputs": [
        {
          "indexed": true,
          "internalType": "address",
          "name": "beacon",
          "type": "address"
        }
      ],
      "name": "BeaconUpgraded",
      "type": "event"
    },
    {
      "anonymous": false,
      "inputs": [
        {
          "indexed": false,
          "internalType": "uint8",
          "name": "version",
          "type": "uint8"
        }
      ],
      "name": "Initialized",
      "type": "event"
    },
    {
      "anonymous": false,
      "inputs": [
        {
          "indexed": true,
          "internalType": "address",
          "name": "previousOwner",
          "type": "address"
        },
        {
          "indexed": true,
          "internalType": "address",
          "name": "newOwner",
          "type": "address"
        }
      ],
      "name": "OwnershipTransferred",
      "type": "event"
    },
    {
      "anonymous": false,
      "inputs": [
        {
          "indexed": false,
          "internalType": "bool",
          "name": "status",
          "type": "bool"
        }
      ],
      "name": "PropertyStatusUpdated",
      "type": "event"
    },
    {
      "anonymous": false,
      "inputs": [
        {
          "indexed": true,
          "internalType": "address",
          "name": "buyer",
          "type": "address"
        },
        {
          "indexed": false,
          "internalType": "uint256",
          "name": "amount",
          "type": "uint256"
        },
        {
          "indexed": false,
          "internalType": "uint256",
          "name": "eurcAmount",
          "type": "uint256"
        },
        {
          "indexed": false,
          "internalType": "bool",
          "name": "whitelisted",
          "type": "bool"
        },
        {
          "indexed": false,
          "internalType": "bool",
          "name": "active",
          "type": "bool"
        }
      ],
      "name": "PurchaseAttempted",
      "type": "event"
    },
    {
      "anonymous": false,
      "inputs": [
        {
          "indexed": true,
          "internalType": "address",
          "name": "seller",
          "type": "address"
        },
        {
          "indexed": false,
          "internalType": "uint256",
          "name": "amount",
          "type": "uint256"
        },
        {
          "indexed": false,
          "internalType": "uint256",
          "name": "eurcAmount",
          "type": "uint256"
        },
        {
          "indexed": false,
          "internalType": "bool",
          "name": "whitelisted",
          "type": "bool"
        },
        {
          "indexed": false,
          "internalType": "bool",
          "name": "active",
          "type": "bool"
        },
        {
          "indexed": false,
          "internalType": "bool",
          "name": "sufficientBalance",
          "type": "bool"
        }
      ],
      "name": "SaleAttempted",
      "type": "event"
    },
    {
      "anonymous": false,
      "inputs": [
        {
          "indexed": true,
          "internalType": "address",
          "name": "previousHolder",
          "type": "address"
        },
        {
          "indexed": true,
          "internalType": "address",
          "name": "newHolder",
          "type": "address"
        }
      ],
      "name": "TokenHolderUpdated",
      "type": "event"
    },
    {
      "anonymous": false,
      "inputs": [
        {
          "indexed": true,
          "internalType": "address",
          "name": "buyer",
          "type": "address"
        },
        {
          "indexed": false,
          "internalType": "uint256",
          "name": "amount",
          "type": "uint256"
        },
        {
          "indexed": false,
          "internalType": "uint256",
          "name": "eurcAmount",
          "type": "uint256"
        }
      ],
      "name": "TokensPurchased",
      "type": "event"
    },
    {
      "anonymous": false,
      "inputs": [
        {
          "indexed": true,
          "internalType": "address",
          "name": "seller",
          "type": "address"
        },
        {
          "indexed": false,
          "internalType": "uint256",
          "name": "amount",
          "type": "uint256"
        },
        {
          "indexed": false,
          "internalType": "uint256",
          "name": "eurcAmount",
          "type": "uint256"
        }
      ],
      "name": "TokensSold",
      "type": "event"
    },
    {
      "anonymous": false,
      "inputs": [
        {
          "indexed": true,
          "internalType": "address",
          "name": "from",
          "type": "address"
        },
        {
          "indexed": true,
          "internalType": "address",
          "name": "to",
          "type": "address"
        },
        {
          "indexed": false,
          "internalType": "uint256",
          "name": "value",
          "type": "uint256"
        }
      ],
      "name": "Transfer",
      "type": "event"
    },
    {
      "anonymous": false,
      "inputs": [
        {
          "indexed": true,
          "internalType": "address",
          "name": "from",
          "type": "address"
        },
        {
          "indexed": true,
          "internalType": "address",
          "name": "to",
          "type": "address"
        },
        {
          "indexed": false,
          "internalType": "uint256",
          "name": "amount",
          "type": "uint256"
        },
        {
          "indexed": false,
          "internalType": "uint256",
          "name": "eurcAmount",
          "type": "uint256"
        }
      ],
      "name": "TransferAttempted",
      "type": "event"
    },
    {
      "anonymous": false,
      "inputs": [
        {
          "indexed": true,
          "internalType": "address",
          "name": "implementation",
          "type": "address"
        }
      ],
      "name": "Upgraded",
      "type": "event"
    },
    {
      "inputs": [
        {
          "internalType": "address",
          "name": "owner",
          "type": "address"
        },
        {
          "internalType": "address",
          "name": "spender",
          "type": "address"
        }
      ],
      "name": "allowance",
      "outputs": [
        {
          "internalType": "uint256",
          "name": "",
          "type": "uint256"
        }
      ],
      "stateMutability": "view",
      "type": "function"
    },
    {
      "inputs": [
        {
          "internalType": "address",
          "name": "spender",
          "type": "address"
        },
        {
          "internalType": "uint256",
          "name": "amount",
          "type": "uint256"
        }
      ],
      "name": "approve",
      "outputs": [
        {
          "internalType": "bool",
          "name": "",
          "type": "bool"
        }
      ],
      "stateMutability": "nonpayable",
      "type": "function"
    },
    {
      "inputs": [
        {
          "internalType": "address",
          "name": "account",
          "type": "address"
        }
      ],
      "name": "balanceOf",
      "outputs": [
        {
          "internalType": "uint256",
          "name": "",
          "type": "uint256"
        }
      ],
      "stateMutability": "view",
      "type": "function"
    },
    {
      "inputs": [],
      "name": "decimals",
      "outputs": [
        {
          "internalType": "uint8",
          "name": "",
          "type": "uint8"
        }
      ],
      "stateMutability": "view",
      "type": "function"
    },
    {
      "inputs": [
        {
          "internalType": "address",
          "name": "spender",
          "type": "address"
        },
        {
          "internalType": "uint256",
          "name": "subtractedValue",
          "type": "uint256"
        }
      ],
      "name": "decreaseAllowance",
      "outputs": [
        {
          "internalType": "bool",
          "name": "",
          "type": "bool"
        }
      ],
      "stateMutability": "nonpayable",
      "type": "function"
    },
    {
      "inputs": [],
      "name": "eurcToken",
      "outputs": [
        {
          "internalType": "contract IERC20",
          "name": "",
          "type": "address"
        }
      ],
      "stateMutability": "view",
      "type": "function"
    },
    {
      "inputs": [
        {
          "internalType": "address",
          "name": "spender",
          "type": "address"
        },
        {
          "internalType": "uint256",
          "name": "addedValue",
          "type": "uint256"
        }
      ],
      "name": "increaseAllowance",
      "outputs": [
        {
          "internalType": "bool",
          "name": "",
          "type": "bool"
        }
      ],
      "stateMutability": "nonpayable",
      "type": "function"
    },
    {
      "inputs": [
        {
          "components": [
            {
              "internalType": "string",
              "name": "name",
              "type": "string"
            },
            {
              "internalType": "string",
              "name": "symbol",
              "type": "string"
            },
            {
              "internalType": "string",
              "name": "title",
              "type": "string"
            },
            {
              "internalType": "string",
              "name": "description",
              "type": "string"
            },
            {
              "internalType": "string",
              "name": "location",
              "type": "string"
            },
            {
              "internalType": "string",
              "name": "imageUrl",
              "type": "string"
            },
            {
              "internalType": "uint256",
              "name": "price",
              "type": "uint256"
            },
            {
              "internalType": "uint256",
              "name": "totalSupply",
              "type": "uint256"
            },
            {
              "internalType": "address",
              "name": "eurcTokenAddress",
              "type": "address"
            },
            {
              "internalType": "address",
              "name": "whitelistContract",
              "type": "address"
            }
          ],
          "internalType": "struct PropertyToken.InitParams",
          "name": "params",
          "type": "tuple"
        }
      ],
      "name": "initialize",
      "outputs": [],
      "stateMutability": "nonpayable",
      "type": "function"
    },
    {
      "inputs": [],
      "name": "name",
      "outputs": [
        {
          "internalType": "string",
          "name": "",
          "type": "string"
        }
      ],
      "stateMutability": "view",
      "type": "function"
    },
    {
      "inputs": [],
      "name": "owner",
      "outputs": [
        {
          "internalType": "address",
          "name": "",
          "type": "address"
        }
      ],
      "stateMutability": "view",
      "type": "function"
    },
    {
      "inputs": [],
      "name": "propertyDetails",
      "outputs": [
        {
          "internalType": "string",
          "name": "title",
          "type": "string"
        },
        {
          "internalType": "string",
          "name": "description",
          "type": "string"
        },
        {
          "internalType": "string",
          "name": "location",
          "type": "string"
        },
        {
          "internalType": "string",
          "name": "imageUrl",
          "type": "string"
        },
        {
          "internalType": "uint256",
          "name": "price",
          "type": "uint256"
        },
        {
          "internalType": "bool",
          "name": "isActive",
          "type": "bool"
        }
      ],
      "stateMutability": "view",
      "type": "function"
    },
    {
      "inputs": [],
      "name": "proxiableUUID",
      "outputs": [
        {
          "internalType": "bytes32",
          "name": "",
          "type": "bytes32"
        }
      ],
      "stateMutability": "view",
      "type": "function"
    },
    {
      "inputs": [
        {
          "internalType": "uint256",
          "name": "amount",
          "type": "uint256"
        }
      ],
      "name": "purchaseTokens",
      "outputs": [],
      "stateMutability": "nonpayable",
      "type": "function"
    },
    {
      "inputs": [],
      "name": "renounceOwnership",
      "outputs": [],
      "stateMutability": "nonpayable",
      "type": "function"
    },
    {
      "inputs": [
        {
          "internalType": "uint256",
          "name": "amount",
          "type": "uint256"
        }
      ],
      "name": "sellTokens",
      "outputs": [],
      "stateMutability": "nonpayable",
      "type": "function"
    },
    {
      "inputs": [],
      "name": "symbol",
      "outputs": [
        {
          "internalType": "string",
          "name": "",
          "type": "string"
        }
      ],
      "stateMutability": "view",
      "type": "function"
    },
    {
      "inputs": [],
      "name": "tokenHolder",
      "outputs": [
        {
          "internalType": "address",
          "name": "",
          "type": "address"
        }
      ],
      "stateMutability": "view",
      "type": "function"
    },
    {
      "inputs": [],
      "name": "totalSupply",
      "outputs": [
        {
          "internalType": "uint256",
          "name": "",
          "type": "uint256"
        }
      ],
      "stateMutability": "view",
      "type": "function"
    },
    {
      "inputs": [
        {
          "internalType": "address",
          "name": "to",
          "type": "address"
        },
        {
          "internalType": "uint256",
          "name": "amount",
          "type": "uint256"
        }
      ],
      "name": "transfer",
      "outputs": [
        {
          "internalType": "bool",
          "name": "",
          "type": "bool"
        }
      ],
      "stateMutability": "nonpayable",
      "type": "function"
    },
    {
      "inputs": [
        {
          "internalType": "address",
          "name": "from",
          "type": "address"
        },
        {
          "internalType": "address",
          "name": "to",
          "type": "address"
        },
        {
          "internalType": "uint256",
          "name": "amount",
          "type": "uint256"
        }
      ],
      "name": "transferFrom",
      "outputs": [
        {
          "internalType": "bool",
          "name": "",
          "type": "bool"
        }
      ],
      "stateMutability": "nonpayable",
      "type": "function"
    },
    {
      "inputs": [
        {
          "internalType": "address",
          "name": "newOwner",
          "type": "address"
        }
      ],
      "name": "transferOwnership",
      "outputs": [],
      "stateMutability": "nonpayable",
      "type": "function"
    },
    {
      "inputs": [
        {
          "internalType": "bool",
          "name": "status",
          "type": "bool"
        }
      ],
      "name": "updatePropertyStatus",
      "outputs": [],
      "stateMutability": "nonpayable",
      "type": "function"
    },
    {
      "inputs": [
        {
          "internalType": "address",
          "name": "newHolder",
          "type": "address"
        }
      ],
      "name": "updateTokenHolder",
      "outputs": [],
      "stateMutability": "nonpayable",
      "type": "function"
    },
    {
      "inputs": [
        {
          "internalType": "address",
          "name": "newImplementation",
          "type": "address"
        }
      ],
      "name": "upgradeTo",
      "outputs": [],
      "stateMutability": "nonpayable",
      "type": "function"
    },
    {
      "inputs": [
        {
          "internalType": "address",
          "name": "newImplementation",
          "type": "address"
        },
        {
          "internalType": "bytes",
          "name": "data",
          "type": "bytes"
        }
      ],
      "name": "upgradeToAndCall",
      "outputs": [],
      "stateMutability": "payable",
      "type": "function"
    },
    {
      "inputs": [],
      "name": "whitelistContract",
      "outputs": [
        {
          "internalType": "address",
          "name": "",
          "type": "address"
        }
      ],
      "stateMutability": "view",
      "type": "function"
    }
  ],
  "bytecode": "0x60a0604052306080523480156200001557600080fd5b506200002062000026565b620000e7565b600054610100900460ff1615620000935760405162461bcd60e51b815260206004820152602760248201527f496e697469616c697a61626c653a20636f6e747261637420697320696e697469604482015266616c697a696e6760c81b606482015260840160405180910390fd5b60005460ff90811614620000e5576000805460ff191660ff9081179091556040519081527f7f26b83ff96e1f2b6a682f133852f6798a09c465da95921460cefb38474024989060200160405180910390a15b565b608051612caf6200011f600039600081816108df01528181610928015281816109f301528181610a330152610ac60152612caf6000f3fe6080604052600436106101805760003560e01c80636f1a5b72116100d157806395d89b411161008a578063cab668b111610064578063cab668b114610464578063dd62ed3e14610484578063f2fde38b146104a4578063f3b0f3b9146104c457600080fd5b806395d89b411461040f578063a457c2d714610424578063a9059cbb1461044457600080fd5b80636f1a5b721461034557806370a0823114610365578063715018a61461039b5780637b97008d146103b057806384900b04146103d05780638da5cb5b146103f157600080fd5b8063313ce5671161013e578063420a83e711610118578063420a83e7146102c45780634f1ef286146102fd57806352d1902d146103105780636c11bcd31461032557600080fd5b8063313ce567146102685780633659cfe61461028457806339509351146102a457600080fd5b80627dc3721461018557806306fdde03146101b5578063095ea7b3146101d757806318160ddd1461020757806323b872dd1461022657806328ee551b14610246575b600080fd5b34801561019157600080fd5b5061019a6104e5565b6040516101ac96959493929190612568565b60405180910390f35b3480156101c157600080fd5b506101ca610731565b6040516101ac91906125d0565b3480156101e357600080fd5b506101f76101f23660046125ff565b6107c3565b60405190151581526020016101ac565b34801561021357600080fd5b506035545b6040519081526020016101ac565b34801561023257600080fd5b506101f7610241366004612629565b610861565b34801561025257600080fd5b50610266610261366004612673565b610885565b005b34801561027457600080fd5b50604051601281526020016101ac565b34801561029057600080fd5b5061026661029f366004612697565b6108d5565b3480156102b057600080fd5b506101f76102bf3660046125ff565b6109bd565b3480156102d057600080fd5b50610103546102e5906001600160a01b031681565b6040516001600160a01b0390911681526020016101ac565b61026661030b3660046126c8565b6109e9565b34801561031c57600080fd5b50610218610ab9565b34801561033157600080fd5b5061026661034036600461278a565b610b6c565b34801561035157600080fd5b50610266610360366004612697565b610f88565b34801561037157600080fd5b50610218610380366004612697565b6001600160a01b031660009081526033602052604090205490565b3480156103a757600080fd5b50610266611150565b3480156103bc57600080fd5b506102666103cb36600461278a565b611164565b3480156103dc57600080fd5b50610102546102e5906001600160a01b031681565b3480156103fd57600080fd5b506065546001600160a01b03166102e5565b34801561041b57600080fd5b506101ca611542565b34801561043057600080fd5b506101f761043f3660046125ff565b611551565b34801561045057600080fd5b506101f761045f3660046125ff565b6115cc565b34801561047057600080fd5b5061026661047f3660046127a3565b6115da565b34801561049057600080fd5b5061021861049f3660046127df565b6119ac565b3480156104b057600080fd5b506102666104bf366004612697565b6119d7565b3480156104d057600080fd5b50610101546102e5906001600160a01b031681565b60fb805481906104f490612812565b80601f016020809104026020016040519081016040528092919081815260200182805461052090612812565b801561056d5780601f106105425761010080835404028352916020019161056d565b820191906000526020600020905b81548152906001019060200180831161055057829003601f168201915b50505050509080600101805461058290612812565b80601f01602080910402602001604051908101604052809291908181526020018280546105ae90612812565b80156105fb5780601f106105d0576101008083540402835291602001916105fb565b820191906000526020600020905b8154815290600101906020018083116105de57829003601f168201915b50505050509080600201805461061090612812565b80601f016020809104026020016040519081016040528092919081815260200182805461063c90612812565b80156106895780601f1061065e57610100808354040283529160200191610689565b820191906000526020600020905b81548152906001019060200180831161066c57829003601f168201915b50505050509080600301805461069e90612812565b80601f01602080910402602001604051908101604052809291908181526020018280546106ca90612812565b80156107175780601f106106ec57610100808354040283529160200191610717565b820191906000526020600020905b8154815290600101906020018083116106fa57829003601f168201915b50505050600483015460059093015491929160ff16905086565b60606036805461074090612812565b80601f016020809104026020016040519081016040528092919081815260200182805461076c90612812565b80156107b95780601f1061078e576101008083540402835291602001916107b9565b820191906000526020600020905b81548152906001019060200180831161079c57829003601f168201915b5050505050905090565b61010254604051633af32abf60e01b81523360048201526000916001600160a01b031690633af32abf90602401602060405180830381865afa15801561080d573d6000803e3d6000fd5b505050506040513d601f19601f82011682018060405250810190610831919061284c565b61084e57604051630b094f2760e31b815260040160405180910390fd5b6108588383611a4d565b90505b92915050565b60003361086f858285611a5b565b61087a858585611ad5565b506001949350505050565b61088d611c8b565b610100805460ff19168215159081179091556040519081527f1e81423b1603560e005d81cc6a58048ba71561f17405b3de24e1119ffb71b2779060200160405180910390a150565b6001600160a01b037f00000000000000000000000000000000000000000000000000000000000000001630036109265760405162461bcd60e51b815260040161091d90612869565b60405180910390fd5b7f00000000000000000000000000000000000000000000000000000000000000006001600160a01b031661096f600080516020612c33833981519152546001600160a01b031690565b6001600160a01b0316146109955760405162461bcd60e51b815260040161091d906128b5565b61099e81611ce5565b604080516000808252602082019092526109ba91839190611ced565b50565b6000336109df8185856109d083836119ac565b6109da9190612917565b611e5d565b5060019392505050565b6001600160a01b037f0000000000000000000000000000000000000000000000000000000000000000163003610a315760405162461bcd60e51b815260040161091d90612869565b7f00000000000000000000000000000000000000000000000000000000000000006001600160a01b0316610a7a600080516020612c33833981519152546001600160a01b031690565b6001600160a01b031614610aa05760405162461bcd60e51b815260040161091d906128b5565b610aa982611ce5565b610ab582826001611ced565b5050565b6000306001600160a01b037f00000000000000000000000000000000000000000000000000000000000000001614610b595760405162461bcd60e51b815260206004820152603860248201527f555550535570677261646561626c653a206d757374206e6f742062652063616c60448201527f6c6564207468726f7567682064656c656761746563616c6c0000000000000000606482015260840161091d565b50600080516020612c3383398151915290565b337f6120bab160bd7cc9a68d7f1b82cb412a44c3c5a545f63f91f3ae4ef3f13a4a8882610b9b6012600a612a0e565b60ff54610ba89086612a1d565b610bb29190612a34565b61010254604051633af32abf60e01b81523360048201526001600160a01b0390911690633af32abf90602401602060405180830381865afa158015610bfb573d6000803e3d6000fd5b505050506040513d601f19601f82011682018060405250810190610c1f919061284c565b6101005460ff1686610c46336001600160a01b031660009081526033602052604090205490565b60408051968752602087019590955292151585850152901515606085015211156080830152519081900360a00190a233600090815260336020526040902054811115610ca557604051631e9acf1760e31b815260040160405180910390fd5b61010254604051633af32abf60e01b81523360048201526001600160a01b0390911690633af32abf90602401602060405180830381865afa158015610cee573d6000803e3d6000fd5b505050506040513d601f19601f82011682018060405250810190610d12919061284c565b610d2f57604051630b094f2760e31b815260040160405180910390fd5b6000610d3d6012600a612a0e565b60ff54610d4a9084612a1d565b610d549190612a34565b6101015490915081906001600160a01b03166370a08231610d7d6065546001600160a01b031690565b6040516001600160e01b031960e084901b1681526001600160a01b039091166004820152602401602060405180830381865afa158015610dc1573d6000803e3d6000fd5b505050506040513d601f19601f82011682018060405250810190610de59190612a56565b1015610e04576040516342e631cb60e11b815260040160405180910390fd5b60655460408051848152602081018490526001600160a01b039092169133917fdf8b872f7cbe2a6d786781beb327e7b105423de0af9873dfeb9496db719a84cd910160405180910390a3610e6a33610e646065546001600160a01b031690565b84611ad5565b610101546001600160a01b03166323b872dd610e8e6065546001600160a01b031690565b6040516001600160e01b031960e084901b1681526001600160a01b039091166004820152336024820152604481018490526064016020604051808303816000875af1158015610ee1573d6000803e3d6000fd5b505050506040513d601f19601f82011682018060405250810190610f05919061284c565b610f485760405162461bcd60e51b815260206004820152601460248201527311555490c81d1c985b9cd9995c8819985a5b195960621b604482015260640161091d565b604080518381526020810183905233917f2dcf9433d75db0d8b1c172641f85e319ffe4ad22e108a95d1847ceb906e5195d91015b60405180910390a25050565b610103546001600160a01b03163314610fef5760405162461bcd60e51b8152602060048201526024808201527f4f6e6c792063757272656e7420746f6b656e20686f6c6465722063616e2075706044820152636461746560e01b606482015260840161091d565b6001600160a01b0381166110375760405162461bcd60e51b815260206004820152600f60248201526e496e76616c6964206164647265737360881b604482015260640161091d565b61010254604051633af32abf60e01b81526001600160a01b03838116600483015290911690633af32abf90602401602060405180830381865afa158015611082573d6000803e3d6000fd5b505050506040513d601f19601f820116820180604052508101906110a6919061284c565b6110f25760405162461bcd60e51b815260206004820152601e60248201527f4e657720686f6c646572206d7573742062652077686974656c69737465640000604482015260640161091d565b610103546040516001600160a01b038084169216907f32943c5406203270979e0cd5eb8bae47521d78465f5f4a965d9e263bba016e6190600090a361010380546001600160a01b0319166001600160a01b0392909216919091179055565b611158611c8b565b6111626000611f81565b565b337f2118a53821a4279beeaf695dd9ade48c02887d48d69a8a6a60154da73f4dfc28826111936012600a612a0e565b60ff546111a09086612a1d565b6111aa9190612a34565b61010254604051633af32abf60e01b81523360048201526001600160a01b0390911690633af32abf90602401602060405180830381865afa1580156111f3573d6000803e3d6000fd5b505050506040513d601f19601f82011682018060405250810190611217919061284c565b610100546040805194855260208501939093529015158383015260ff1615156060830152519081900360800190a261010254604051633af32abf60e01b81523360048201526001600160a01b0390911690633af32abf90602401602060405180830381865afa15801561128e573d6000803e3d6000fd5b505050506040513d601f19601f820116820180604052508101906112b2919061284c565b6112cf57604051630b094f2760e31b815260040160405180910390fd5b6101005460ff166112f3576040516343e0ae0d60e01b815260040160405180910390fd5b60006113016012600a612a0e565b60ff5461130e9084612a1d565b6113189190612a34565b610101546040516370a0823160e01b815233600482015291925082916001600160a01b03909116906370a0823190602401602060405180830381865afa158015611366573d6000803e3d6000fd5b505050506040513d601f19601f8201168201806040525081019061138a9190612a56565b10156113a957604051631e9acf1760e31b815260040160405180910390fd5b610103546001600160a01b03166000908152603360205260409020548211156113e55760405163e27e7cf360e01b815260040160405180910390fd5b61010354604080518481526020810184905233926001600160a01b0316917fdf8b872f7cbe2a6d786781beb327e7b105423de0af9873dfeb9496db719a84cd910160405180910390a361010154610103546040516323b872dd60e01b81523360048201526001600160a01b039182166024820152604481018490529116906323b872dd906064016020604051808303816000875af115801561148b573d6000803e3d6000fd5b505050506040513d601f19601f820116820180604052508101906114af919061284c565b6114f25760405162461bcd60e51b815260206004820152601460248201527311555490c81d1c985b9cd9995c8819985a5b195960621b604482015260640161091d565b6101035461150a906001600160a01b03163384611ad5565b604080518381526020810183905233917f8fafebcaf9d154343dad25669bfa277f4fbacd7ac6b0c4fed522580e040a0f339101610f7c565b60606037805461074090612812565b6000338161155f82866119ac565b9050838110156115bf5760405162461bcd60e51b815260206004820152602560248201527f45524332303a2064656372656173656420616c6c6f77616e63652062656c6f77604482015264207a65726f60d81b606482015260840161091d565b61087a8286868403611e5d565b6000336109df818585611ad5565b600054610100900460ff16158080156115fa5750600054600160ff909116105b806116145750303b158015611614575060005460ff166001145b6116775760405162461bcd60e51b815260206004820152602e60248201527f496e697469616c697a61626c653a20636f6e747261637420697320616c72656160448201526d191e481a5b9a5d1a585b1a5e995960921b606482015260840161091d565b6000805460ff19166001179055801561169a576000805461ff0019166101001790555b6117236116a78380612a6f565b8080601f0160208091040260200160405190810160405280939291908181526020018383808284376000920191909152506116e9925050506020850185612a6f565b8080601f016020809104026020016040519081016040528093929190818152602001838380828437600092019190915250611fd392505050565b61172b612004565b611733612033565b6040518060c0016040528083806040019061174e9190612a6f565b8080601f0160208091040260200160405190810160405280939291908181526020018383808284376000920191909152505050908252506020016117956060850185612a6f565b8080601f0160208091040260200160405190810160405280939291908181526020018383808284376000920191909152505050908252506020016117dc6080850185612a6f565b8080601f01602080910402602001604051908101604052809392919081815260200183838082843760009201919091525050509082525060200161182360a0850185612a6f565b8080601f01602080910402602001604051908101604052809392919081815260200183838082843760009201919091525050509082525060c084013560208201526001604090910152805160fb90819061187d9082612b0b565b50602082015160018201906118929082612b0b565b50604082015160028201906118a79082612b0b565b50606082015160038201906118bc9082612b0b565b506080820151600482015560a0909101516005909101805460ff19169115159190911790556118f361012083016101008401612697565b61010180546001600160a01b0319166001600160a01b039290921691909117905561192661014083016101208401612697565b61010280546001600160a01b03929092166001600160a01b03199283161790556101038054909116329081179091556119639060e084013561205a565b8015610ab5576000805461ff0019169055604051600181527f7f26b83ff96e1f2b6a682f133852f6798a09c465da95921460cefb38474024989060200160405180910390a15050565b6001600160a01b03918216600090815260346020908152604080832093909416825291909152205490565b6119df611c8b565b6001600160a01b038116611a445760405162461bcd60e51b815260206004820152602660248201527f4f776e61626c653a206e6577206f776e657220697320746865207a65726f206160448201526564647265737360d01b606482015260840161091d565b6109ba81611f81565b6000336109df818585611e5d565b6000611a6784846119ac565b90506000198114611acf5781811015611ac25760405162461bcd60e51b815260206004820152601d60248201527f45524332303a20696e73756666696369656e7420616c6c6f77616e6365000000604482015260640161091d565b611acf8484848403611e5d565b50505050565b6001600160a01b038316611b395760405162461bcd60e51b815260206004820152602560248201527f45524332303a207472616e736665722066726f6d20746865207a65726f206164604482015264647265737360d81b606482015260840161091d565b6001600160a01b038216611b9b5760405162461bcd60e51b815260206004820152602360248201527f45524332303a207472616e7366657220746f20746865207a65726f206164647260448201526265737360e81b606482015260840161091d565b611ba6838383612127565b6001600160a01b03831660009081526033602052604090205481811015611c1e5760405162461bcd60e51b815260206004820152602660248201527f45524332303a207472616e7366657220616d6f756e7420657863656564732062604482015265616c616e636560d01b606482015260840161091d565b6001600160a01b0380851660008181526033602052604080822086860390559286168082529083902080548601905591517fddf252ad1be2c89b69c2b068fc378daa952ba7f163c4a11628f55a4df523b3ef90611c7e9086815260200190565b60405180910390a3611acf565b6065546001600160a01b031633146111625760405162461bcd60e51b815260206004820181905260248201527f4f776e61626c653a2063616c6c6572206973206e6f7420746865206f776e6572604482015260640161091d565b6109ba611c8b565b7f4910fdfa16fed3260ed0e7147f7cc6da11a60208b5b9406d12a635614ffd91435460ff1615611d2557611d2083612264565b505050565b826001600160a01b03166352d1902d6040518163ffffffff1660e01b8152600401602060405180830381865afa925050508015611d7f575060408051601f3d908101601f19168201909252611d7c91810190612a56565b60015b611de25760405162461bcd60e51b815260206004820152602e60248201527f45524331393637557067726164653a206e657720696d706c656d656e7461746960448201526d6f6e206973206e6f74205555505360901b606482015260840161091d565b600080516020612c338339815191528114611e515760405162461bcd60e51b815260206004820152602960248201527f45524331393637557067726164653a20756e737570706f727465642070726f786044820152681a58589b195555525160ba1b606482015260840161091d565b50611d20838383612300565b6001600160a01b038316611ebf5760405162461bcd60e51b8152602060048201526024808201527f45524332303a20617070726f76652066726f6d20746865207a65726f206164646044820152637265737360e01b606482015260840161091d565b6001600160a01b038216611f205760405162461bcd60e51b815260206004820152602260248201527f45524332303a20617070726f766520746f20746865207a65726f206164647265604482015261737360f01b606482015260840161091d565b6001600160a01b0383811660008181526034602090815260408083209487168084529482529182902085905590518481527f8c5be1e5ebec7d5bd14f71427d1e84f3dd0314c0f7b2291e5b200ac8c7c3b925910160405180910390a3505050565b606580546001600160a01b038381166001600160a01b0319831681179093556040519116919082907f8be0079c531659141344cd1fd0a4f28419497f9722a3daafe3b4186f6b6457e090600090a35050565b600054610100900460ff16611ffa5760405162461bcd60e51b815260040161091d90612bcb565b610ab58282612325565b600054610100900460ff1661202b5760405162461bcd60e51b815260040161091d90612bcb565b611162612365565b600054610100900460ff166111625760405162461bcd60e51b815260040161091d90612bcb565b6001600160a01b0382166120b05760405162461bcd60e51b815260206004820152601f60248201527f45524332303a206d696e7420746f20746865207a65726f206164647265737300604482015260640161091d565b6120bc60008383612127565b80603560008282546120ce9190612917565b90915550506001600160a01b0382166000818152603360209081526040808320805486019055518481527fddf252ad1be2c89b69c2b068fc378daa952ba7f163c4a11628f55a4df523b3ef910160405180910390a35050565b6001600160a01b0383161580159061214757506001600160a01b03821615155b15611d205761010254604051633af32abf60e01b81526001600160a01b03858116600483015290911690633af32abf90602401602060405180830381865afa158015612197573d6000803e3d6000fd5b505050506040513d601f19601f820116820180604052508101906121bb919061284c565b6121d857604051630b094f2760e31b815260040160405180910390fd5b61010254604051633af32abf60e01b81526001600160a01b03848116600483015290911690633af32abf90602401602060405180830381865afa158015612223573d6000803e3d6000fd5b505050506040513d601f19601f82011682018060405250810190612247919061284c565b611d2057604051630b094f2760e31b815260040160405180910390fd5b6001600160a01b0381163b6122d15760405162461bcd60e51b815260206004820152602d60248201527f455243313936373a206e657720696d706c656d656e746174696f6e206973206e60448201526c1bdd08184818dbdb9d1c9858dd609a1b606482015260840161091d565b600080516020612c3383398151915280546001600160a01b0319166001600160a01b0392909216919091179055565b61230983612395565b6000825111806123165750805b15611d2057611acf83836123d5565b600054610100900460ff1661234c5760405162461bcd60e51b815260040161091d90612bcb565b60366123588382612b0b565b506037611d208282612b0b565b600054610100900460ff1661238c5760405162461bcd60e51b815260040161091d90612bcb565b61116233611f81565b61239e81612264565b6040516001600160a01b038216907fbc7cd75a20ee27fd9adebab32041f755214dbc6bffa90cc0225b39da2e5c2d3b90600090a250565b60606108588383604051806060016040528060278152602001612c53602791396060600080856001600160a01b0316856040516124129190612c16565b600060405180830381855af49150503d806000811461244d576040519150601f19603f3d011682016040523d82523d6000602084013e612452565b606091505b50915091506124638683838761246d565b9695505050505050565b606083156124dc5782516000036124d5576001600160a01b0385163b6124d55760405162461bcd60e51b815260206004820152601d60248201527f416464726573733a2063616c6c20746f206e6f6e2d636f6e7472616374000000604482015260640161091d565b50816124e6565b6124e683836124ee565b949350505050565b8151156124fe5781518083602001fd5b8060405162461bcd60e51b815260040161091d91906125d0565b60005b8381101561253357818101518382015260200161251b565b50506000910152565b60008151808452612554816020860160208601612518565b601f01601f19169290920160200192915050565b60c08152600061257b60c083018961253c565b828103602084015261258d818961253c565b905082810360408401526125a1818861253c565b905082810360608401526125b5818761253c565b6080840195909552505090151560a090910152949350505050565b602081526000610858602083018461253c565b80356001600160a01b03811681146125fa57600080fd5b919050565b6000806040838503121561261257600080fd5b61261b836125e3565b946020939093013593505050565b60008060006060848603121561263e57600080fd5b612647846125e3565b9250612655602085016125e3565b9150604084013590509250925092565b80151581146109ba57600080fd5b60006020828403121561268557600080fd5b813561269081612665565b9392505050565b6000602082840312156126a957600080fd5b610858826125e3565b634e487b7160e01b600052604160045260246000fd5b600080604083850312156126db57600080fd5b6126e4836125e3565b9150602083013567ffffffffffffffff8082111561270157600080fd5b818501915085601f83011261271557600080fd5b813581811115612727576127276126b2565b604051601f8201601f19908116603f0116810190838211818310171561274f5761274f6126b2565b8160405282815288602084870101111561276857600080fd5b8260208601602083013760006020848301015280955050505050509250929050565b60006020828403121561279c57600080fd5b5035919050565b6000602082840312156127b557600080fd5b813567ffffffffffffffff8111156127cc57600080fd5b8201610140818503121561269057600080fd5b600080604083850312156127f257600080fd5b6127fb836125e3565b9150612809602084016125e3565b90509250929050565b600181811c9082168061282657607f821691505b60208210810361284657634e487b7160e01b600052602260045260246000fd5b50919050565b60006020828403121561285e57600080fd5b815161269081612665565b6020808252602c908201527f46756e6374696f6e206d7573742062652063616c6c6564207468726f7567682060408201526b19195b1959d85d1958d85b1b60a21b606082015260800190565b6020808252602c908201527f46756e6374696f6e206d7573742062652063616c6c6564207468726f7567682060408201526b6163746976652070726f787960a01b606082015260800190565b634e487b7160e01b600052601160045260246000fd5b8082018082111561085b5761085b612901565b600181815b8085111561296557816000190482111561294b5761294b612901565b8085161561295857918102915b93841c939080029061292f565b509250929050565b60008261297c5750600161085b565b816129895750600061085b565b816001811461299f57600281146129a9576129c5565b600191505061085b565b60ff8411156129ba576129ba612901565b50506001821b61085b565b5060208310610133831016604e8410600b84101617156129e8575081810a61085b565b6129f2838361292a565b8060001904821115612a0657612a06612901565b029392505050565b600061085860ff84168361296d565b808202811582820484141761085b5761085b612901565b600082612a5157634e487b7160e01b600052601260045260246000fd5b500490565b600060208284031215612a6857600080fd5b5051919050565b6000808335601e19843603018112612a8657600080fd5b83018035915067ffffffffffffffff821115612aa157600080fd5b602001915036819003821315612ab657600080fd5b9250929050565b601f821115611d2057600081815260208120601f850160051c81016020861015612ae45750805b601f850160051c820191505b81811015612b0357828155600101612af0565b505050505050565b815167ffffffffffffffff811115612b2557612b256126b2565b612b3981612b338454612812565b84612abd565b602080601f831160018114612b6e5760008415612b565750858301515b600019600386901b1c1916600185901b178555612b03565b600085815260208120601f198616915b82811015612b9d57888601518255948401946001909101908401612b7e565b5085821015612bbb5787850151600019600388901b60f8161c191681555b5050505050600190811b01905550565b6020808252602b908201527f496e697469616c697a61626c653a20636f6e7472616374206973206e6f74206960408201526a6e697469616c697a696e6760a81b606082015260800190565b60008251612c28818460208701612518565b919091019291505056fe360894a13ba1a3210667c828492db98dca3e2076cc3735a920a3ca505d382bbc416464726573733a206c6f772d6c6576656c2064656c65676174652063616c6c206661696c6564a2646970667358221220854da07c9ff8b41edf74a68da4e2ad140a4e0d7c2722ff431a0ab6e19c3ce13b64736f6c63430008150033",
  "linkReferences": {},
  "deployedLinkReferences": {}
}