{
  "_format": "hh-sol-artifact-1",
  "contractName": "StakingRewards",
  "sourceName": "contracts/StakingRewards.sol",
  "abi": [
    {
      "inputs": [],
      "stateMutability": "nonpayable",
      "type": "constructor"
    },
    {
      "anonymous": false,
      "inputs": [
        {
          "indexed": false,
          "internalType": "address",
          "name": "previousAdmin",
          "type": "address"
        },
        {
          "indexed": false,
          "internalType": "address",
          "name": "newAdmin",
          "type": "address"
        }
      ],
      "name": "AdminChanged",
      "type": "event"
    },
    {
      "anonymous": false,
      "inputs": [
        {
          "indexed": true,
          "internalType": "address",
          "name": "beacon",
          "type": "address"
        }
      ],
      "name": "BeaconUpgraded",
      "type": "event"
    },
    {
      "anonymous": false,
      "inputs": [
        {
          "indexed": false,
          "internalType": "uint8",
          "name": "version",
          "type": "uint8"
        }
      ],
      "name": "Initialized",
      "type": "event"
    },
    {
      "anonymous": false,
      "inputs": [
        {
          "indexed": true,
          "internalType": "address",
          "name": "previousOwner",
          "type": "address"
        },
        {
          "indexed": true,
          "internalType": "address",
          "name": "newOwner",
          "type": "address"
        }
      ],
      "name": "OwnershipTransferred",
      "type": "event"
    },
    {
      "anonymous": false,
      "inputs": [
        {
          "indexed": false,
          "internalType": "uint256",
          "name": "reward",
          "type": "uint256"
        }
      ],
      "name": "RewardAdded",
      "type": "event"
    },
    {
      "anonymous": false,
      "inputs": [
        {
          "indexed": true,
          "internalType": "address",
          "name": "user",
          "type": "address"
        },
        {
          "indexed": false,
          "internalType": "uint256",
          "name": "reward",
          "type": "uint256"
        }
      ],
      "name": "RewardPaid",
      "type": "event"
    },
    {
      "anonymous": false,
      "inputs": [
        {
          "indexed": true,
          "internalType": "address",
          "name": "user",
          "type": "address"
        },
        {
          "indexed": false,
          "internalType": "uint256",
          "name": "amount",
          "type": "uint256"
        }
      ],
      "name": "Staked",
      "type": "event"
    },
    {
      "anonymous": false,
      "inputs": [
        {
          "indexed": true,
          "internalType": "address",
          "name": "implementation",
          "type": "address"
        }
      ],
      "name": "Upgraded",
      "type": "event"
    },
    {
      "anonymous": false,
      "inputs": [
        {
          "indexed": true,
          "internalType": "address",
          "name": "user",
          "type": "address"
        },
        {
          "indexed": false,
          "internalType": "uint256",
          "name": "amount",
          "type": "uint256"
        }
      ],
      "name": "Withdrawn",
      "type": "event"
    },
    {
      "inputs": [
        {
          "internalType": "address",
          "name": "account",
          "type": "address"
        }
      ],
      "name": "balanceOf",
      "outputs": [
        {
          "internalType": "uint256",
          "name": "",
          "type": "uint256"
        }
      ],
      "stateMutability": "view",
      "type": "function"
    },
    {
      "inputs": [],
      "name": "duration",
      "outputs": [
        {
          "internalType": "uint256",
          "name": "",
          "type": "uint256"
        }
      ],
      "stateMutability": "view",
      "type": "function"
    },
    {
      "inputs": [
        {
          "internalType": "address",
          "name": "account",
          "type": "address"
        }
      ],
      "name": "earned",
      "outputs": [
        {
          "internalType": "uint256",
          "name": "",
          "type": "uint256"
        }
      ],
      "stateMutability": "view",
      "type": "function"
    },
    {
      "inputs": [],
      "name": "exit",
      "outputs": [],
      "stateMutability": "nonpayable",
      "type": "function"
    },
    {
      "inputs": [],
      "name": "finishAt",
      "outputs": [
        {
          "internalType": "uint256",
          "name": "",
          "type": "uint256"
        }
      ],
      "stateMutability": "view",
      "type": "function"
    },
    {
      "inputs": [],
      "name": "getReward",
      "outputs": [],
      "stateMutability": "nonpayable",
      "type": "function"
    },
    {
      "inputs": [
        {
          "internalType": "address",
          "name": "_stakingToken",
          "type": "address"
        },
        {
          "internalType": "address",
          "name": "_rewardToken",
          "type": "address"
        },
        {
          "internalType": "uint256",
          "name": "_rewardRate",
          "type": "uint256"
        },
        {
          "internalType": "uint256",
          "name": "_duration",
          "type": "uint256"
        }
      ],
      "name": "initialize",
      "outputs": [],
      "stateMutability": "nonpayable",
      "type": "function"
    },
    {
      "inputs": [],
      "name": "lastTimeRewardApplicable",
      "outputs": [
        {
          "internalType": "uint256",
          "name": "",
          "type": "uint256"
        }
      ],
      "stateMutability": "view",
      "type": "function"
    },
    {
      "inputs": [
        {
          "internalType": "uint256",
          "name": "reward",
          "type": "uint256"
        }
      ],
      "name": "notifyRewardAmount",
      "outputs": [],
      "stateMutability": "nonpayable",
      "type": "function"
    },
    {
      "inputs": [],
      "name": "owner",
      "outputs": [
        {
          "internalType": "address",
          "name": "",
          "type": "address"
        }
      ],
      "stateMutability": "view",
      "type": "function"
    },
    {
      "inputs": [],
      "name": "proxiableUUID",
      "outputs": [
        {
          "internalType": "bytes32",
          "name": "",
          "type": "bytes32"
        }
      ],
      "stateMutability": "view",
      "type": "function"
    },
    {
      "inputs": [],
      "name": "renounceOwnership",
      "outputs": [],
      "stateMutability": "nonpayable",
      "type": "function"
    },
    {
      "inputs": [],
      "name": "rewardPerToken",
      "outputs": [
        {
          "internalType": "uint256",
          "name": "",
          "type": "uint256"
        }
      ],
      "stateMutability": "view",
      "type": "function"
    },
    {
      "inputs": [],
      "name": "rewardPerTokenStored",
      "outputs": [
        {
          "internalType": "uint256",
          "name": "",
          "type": "uint256"
        }
      ],
      "stateMutability": "view",
      "type": "function"
    },
    {
      "inputs": [],
      "name": "rewardRate",
      "outputs": [
        {
          "internalType": "uint256",
          "name": "",
          "type": "uint256"
        }
      ],
      "stateMutability": "view",
      "type": "function"
    },
    {
      "inputs": [],
      "name": "rewardToken",
      "outputs": [
        {
          "internalType": "contract IERC20",
          "name": "",
          "type": "address"
        }
      ],
      "stateMutability": "view",
      "type": "function"
    },
    {
      "inputs": [
        {
          "internalType": "address",
          "name": "",
          "type": "address"
        }
      ],
      "name": "rewards",
      "outputs": [
        {
          "internalType": "uint256",
          "name": "",
          "type": "uint256"
        }
      ],
      "stateMutability": "view",
      "type": "function"
    },
    {
      "inputs": [
        {
          "internalType": "uint256",
          "name": "amount",
          "type": "uint256"
        }
      ],
      "name": "stake",
      "outputs": [],
      "stateMutability": "nonpayable",
      "type": "function"
    },
    {
      "inputs": [],
      "name": "stakingToken",
      "outputs": [
        {
          "internalType": "contract IERC20",
          "name": "",
          "type": "address"
        }
      ],
      "stateMutability": "view",
      "type": "function"
    },
    {
      "inputs": [],
      "name": "totalSupply",
      "outputs": [
        {
          "internalType": "uint256",
          "name": "",
          "type": "uint256"
        }
      ],
      "stateMutability": "view",
      "type": "function"
    },
    {
      "inputs": [
        {
          "internalType": "address",
          "name": "newOwner",
          "type": "address"
        }
      ],
      "name": "transferOwnership",
      "outputs": [],
      "stateMutability": "nonpayable",
      "type": "function"
    },
    {
      "inputs": [],
      "name": "updatedAt",
      "outputs": [
        {
          "internalType": "uint256",
          "name": "",
          "type": "uint256"
        }
      ],
      "stateMutability": "view",
      "type": "function"
    },
    {
      "inputs": [
        {
          "internalType": "address",
          "name": "newImplementation",
          "type": "address"
        }
      ],
      "name": "upgradeTo",
      "outputs": [],
      "stateMutability": "nonpayable",
      "type": "function"
    },
    {
      "inputs": [
        {
          "internalType": "address",
          "name": "newImplementation",
          "type": "address"
        },
        {
          "internalType": "bytes",
          "name": "data",
          "type": "bytes"
        }
      ],
      "name": "upgradeToAndCall",
      "outputs": [],
      "stateMutability": "payable",
      "type": "function"
    },
    {
      "inputs": [
        {
          "internalType": "address",
          "name": "",
          "type": "address"
        }
      ],
      "name": "userRewardPerTokenPaid",
      "outputs": [
        {
          "internalType": "uint256",
          "name": "",
          "type": "uint256"
        }
      ],
      "stateMutability": "view",
      "type": "function"
    },
    {
      "inputs": [
        {
          "internalType": "uint256",
          "name": "amount",
          "type": "uint256"
        }
      ],
      "name": "withdraw",
      "outputs": [],
      "stateMutability": "nonpayable",
      "type": "function"
    }
  ],
  "bytecode": "0x60a06040523073ffffffffffffffffffffffffffffffffffffffff1660809073ffffffffffffffffffffffffffffffffffffffff168152503480156200004457600080fd5b506200006167754831ceda803f4560c01b620000af60201b60201c565b6200007d679568d90b99a0ddcb60c01b620000af60201b60201c565b62000099671ebe2aabacd75a0660c01b620000af60201b60201c565b620000a9620000b260201b60201c565b6200025c565b50565b600060019054906101000a900460ff161562000105576040517f08c379a0000000000000000000000000000000000000000000000000000000008152600401620000fc90620001ff565b60405180910390fd5b60ff801660008054906101000a900460ff1660ff1614620001765760ff6000806101000a81548160ff021916908360ff1602179055507f7f26b83ff96e1f2b6a682f133852f6798a09c465da95921460cefb384740249860ff6040516200016d91906200023f565b60405180910390a15b565b600082825260208201905092915050565b7f496e697469616c697a61626c653a20636f6e747261637420697320696e69746960008201527f616c697a696e6700000000000000000000000000000000000000000000000000602082015250565b6000620001e760278362000178565b9150620001f48262000189565b604082019050919050565b600060208201905081810360008301526200021a81620001d8565b9050919050565b600060ff82169050919050565b620002398162000221565b82525050565b60006020820190506200025660008301846200022e565b92915050565b6080516142d46200029460003960008181610c0d01528181610c9b0152818161161c015281816116aa015261175a01526142d46000f3fe6080604052600436106101805760003560e01c806372f702f3116100d1578063a694fc3a1161008a578063e9fad8ee11610064578063e9fad8ee14610540578063eb990c5914610557578063f2fde38b14610580578063f7c618c1146105a957610180565b8063a694fc3a146104c1578063cd3daf9d146104ea578063df136d651461051557610180565b806372f702f3146103ad5780637519ab50146103d85780637b0a47ee1461040357806380faa57d1461042e5780638b876347146104595780638da5cb5b1461049657610180565b80633c6b16ab1161013e57806352d1902d1161011857806352d1902d1461030357806367d3b4881461032e57806370a0823114610359578063715018a61461039657610180565b80633c6b16ab146102a75780633d18b912146102d05780634f1ef286146102e757610180565b80628cc262146101855780630700037d146101c25780630fb5a6b4146101ff57806318160ddd1461022a5780632e1a7d4d146102555780633659cfe61461027e575b600080fd5b34801561019157600080fd5b506101ac60048036038101906101a79190613177565b6105d4565b6040516101b991906131bd565b60405180910390f35b3480156101ce57600080fd5b506101e960048036038101906101e49190613177565b6107a1565b6040516101f691906131bd565b60405180910390f35b34801561020b57600080fd5b506102146107b9565b60405161022191906131bd565b60405180910390f35b34801561023657600080fd5b5061023f6107bf565b60405161024c91906131bd565b60405180910390f35b34801561026157600080fd5b5061027c60048036038101906102779190613204565b610805565b005b34801561028a57600080fd5b506102a560048036038101906102a09190613177565b610c0b565b005b3480156102b357600080fd5b506102ce60048036038101906102c99190613204565b610d93565b005b3480156102dc57600080fd5b506102e561121a565b005b61030160048036038101906102fc9190613377565b61161a565b005b34801561030f57600080fd5b50610318611756565b60405161032591906133ec565b60405180910390f35b34801561033a57600080fd5b5061034361180f565b60405161035091906131bd565b60405180910390f35b34801561036557600080fd5b50610380600480360381019061037b9190613177565b611815565b60405161038d91906131bd565b60405180910390f35b3480156103a257600080fd5b506103ab61189a565b005b3480156103b957600080fd5b506103c26118ae565b6040516103cf9190613466565b60405180910390f35b3480156103e457600080fd5b506103ed6118d4565b6040516103fa91906131bd565b60405180910390f35b34801561040f57600080fd5b506104186118da565b60405161042591906131bd565b60405180910390f35b34801561043a57600080fd5b506104436118e0565b60405161045091906131bd565b60405180910390f35b34801561046557600080fd5b50610480600480360381019061047b9190613177565b6119b1565b60405161048d91906131bd565b60405180910390f35b3480156104a257600080fd5b506104ab6119c9565b6040516104b89190613490565b60405180910390f35b3480156104cd57600080fd5b506104e860048036038101906104e39190613204565b6119f3565b005b3480156104f657600080fd5b506104ff611dfb565b60405161050c91906131bd565b60405180910390f35b34801561052157600080fd5b5061052a611fa9565b60405161053791906131bd565b60405180910390f35b34801561054c57600080fd5b50610555611faf565b005b34801561056357600080fd5b5061057e600480360381019061057991906134ab565b612065565b005b34801561058c57600080fd5b506105a760048036038101906105a29190613177565b61256f565b005b3480156105b557600080fd5b506105be6125f2565b6040516105cb9190613466565b60405180910390f35b60006105ea6749685fa318f9c36860c01b612618565b6105fe67ca88796efb242cb760c01b612618565b610612671741f6b414b97ab760c01b612618565b600061061c611dfb565b9050610632675f3eb255c2688e4660c01b612618565b61064667134045b75087178860c01b612618565b600060d060008573ffffffffffffffffffffffffffffffffffffffff1673ffffffffffffffffffffffffffffffffffffffff16815260200190815260200160002054826106939190613541565b90506106a9671cba2221f790f94660c01b612618565b6106bd67fdc0d527be8f81a260c01b612618565b60006c0c9f2c9cd04674edea400000008260d360008873ffffffffffffffffffffffffffffffffffffffff1673ffffffffffffffffffffffffffffffffffffffff168152602001908152602001600020546107189190613575565b61072291906135e6565b90506107386780d29d682686cf9960c01b612618565b61074c67b79df748b8774c5060c01b612618565b8060d160008773ffffffffffffffffffffffffffffffffffffffff1673ffffffffffffffffffffffffffffffffffffffff168152602001908152602001600020546107979190613617565b9350505050919050565b60d16020528060005260406000206000915090505481565b60cb5481565b60006107d567f78ee222f56c982660c01b612618565b6107e96751f537505d5290f260c01b612618565b6107fd67183436ac2868afc260c01b612618565b60d254905090565b61081967d165560c1df8f54960c01b612618565b3361082e676b891dc1790b3f8e60c01b612618565b61084267a61339d3f441ab2c60c01b612618565b61084a611dfb565b60cf81905550610864670eab4f9a9db831c460c01b612618565b61086c6118e0565b60cd8190555061088667132008f34c78122d60c01b612618565b61089a67813ded252492fa0d60c01b612618565b600073ffffffffffffffffffffffffffffffffffffffff168173ffffffffffffffffffffffffffffffffffffffff16146109a1576108e26793c0369b3f33568f60c01b612618565b6108f66715dacce0c924cba760c01b612618565b6108ff816105d4565b60d160008373ffffffffffffffffffffffffffffffffffffffff1673ffffffffffffffffffffffffffffffffffffffff16815260200190815260200160002081905550610956673fd0490a2af16f1160c01b612618565b60cf5460d060008373ffffffffffffffffffffffffffffffffffffffff1673ffffffffffffffffffffffffffffffffffffffff168152602001908152602001600020819055506109b6565b6109b5673c34a1957bfd97b260c01b612618565b5b6109ca67f8dd564b11496e6f60c01b612618565b6109de6718121d19a3f6f5c460c01b612618565b6109f2675821c35e634dd3a860c01b612618565b610a066797d698f3dca3b4f560c01b612618565b610a1a6717e41d4ed261afb360c01b612618565b610a2e67b0766ead7644ab0160c01b612618565b60008211610a71576040517f08c379a0000000000000000000000000000000000000000000000000000000008152600401610a68906136a8565b60405180910390fd5b610a8567967fba007999f41160c01b612618565b610a9967c04d2c4a3f04ed6960c01b612618565b8160d26000828254610aab9190613541565b92505081905550610ac6674dd401b2d89e2c8060c01b612618565b8160d360003373ffffffffffffffffffffffffffffffffffffffff1673ffffffffffffffffffffffffffffffffffffffff1681526020019081526020016000206000828254610b159190613541565b92505081905550610b3067a65905379db3deb060c01b612618565b610b4467e5882ad4a8e3cc8d60c01b612618565b610b91338360c960009054906101000a900473ffffffffffffffffffffffffffffffffffffffff1673ffffffffffffffffffffffffffffffffffffffff1661261b9092919063ffffffff16565b610ba567df7f1480fbb9032860c01b612618565b610bb967a2fcf7be8037cb4b60c01b612618565b3373ffffffffffffffffffffffffffffffffffffffff167f7084f5476618d8e60b11ef0d7d3f06914655adb8793e28ff7f018d4c76d505d583604051610bff91906131bd565b60405180910390a25050565b7f000000000000000000000000000000000000000000000000000000000000000073ffffffffffffffffffffffffffffffffffffffff163073ffffffffffffffffffffffffffffffffffffffff1603610c99576040517f08c379a0000000000000000000000000000000000000000000000000000000008152600401610c909061373a565b60405180910390fd5b7f000000000000000000000000000000000000000000000000000000000000000073ffffffffffffffffffffffffffffffffffffffff16610cd86126a1565b73ffffffffffffffffffffffffffffffffffffffff1614610d2e576040517f08c379a0000000000000000000000000000000000000000000000000000000008152600401610d25906137cc565b60405180910390fd5b610d37816126f8565b610d9081600067ffffffffffffffff811115610d5657610d5561324c565b5b6040519080825280601f01601f191660200182016040528015610d885781602001600182028036833780820191505090505b50600061273f565b50565b610da76705d7b834c577fb5060c01b612618565b610daf6128ad565b610dc3672a2cad7d3ca48c5660c01b612618565b610dd76798d3b1c4378ff19860c01b612618565b6000610ded676b891dc1790b3f8e60c01b612618565b610e0167a61339d3f441ab2c60c01b612618565b610e09611dfb565b60cf81905550610e23670eab4f9a9db831c460c01b612618565b610e2b6118e0565b60cd81905550610e4567132008f34c78122d60c01b612618565b610e5967813ded252492fa0d60c01b612618565b600073ffffffffffffffffffffffffffffffffffffffff168173ffffffffffffffffffffffffffffffffffffffff1614610f6057610ea16793c0369b3f33568f60c01b612618565b610eb56715dacce0c924cba760c01b612618565b610ebe816105d4565b60d160008373ffffffffffffffffffffffffffffffffffffffff1673ffffffffffffffffffffffffffffffffffffffff16815260200190815260200160002081905550610f15673fd0490a2af16f1160c01b612618565b60cf5460d060008373ffffffffffffffffffffffffffffffffffffffff1673ffffffffffffffffffffffffffffffffffffffff16815260200190815260200160002081905550610f75565b610f74673c34a1957bfd97b260c01b612618565b5b610f8967f8dd564b11496e6f60c01b612618565b610f9d67ab62eed41950353460c01b612618565b610fb167f6ec09457675ec2260c01b612618565b610fc567200ed7cb72f5546560c01b612618565b610fd967bec1b1a9e5db540e60c01b612618565b610fed670f13794d48303b4260c01b612618565b60008211611030576040517f08c379a000000000000000000000000000000000000000000000000000000000815260040161102790613838565b60405180910390fd5b61104467a2cb87269df153d960c01b612618565b61105867fa261ab180f09bf360c01b612618565b61106c678104967a721bf55360c01b612618565b60cc5442106110b65761108967dbd55869eb2b5a3160c01b612618565b61109d67e0fd30e029d5336c60c01b612618565b60cb54826110ab91906135e6565b60ce81905550611174565b6110ca67fdfb248cea04e3ba60c01b612618565b6110de67f227a613592d8d2c60c01b612618565b6110f267b2a81a1e643abbc760c01b612618565b60004260cc546111029190613541565b9050611118678dcc4b2195bf052160c01b612618565b61112c675a7eaec9c58462b260c01b612618565b600060ce548261113c9190613575565b90506111526782cc084a94eaadff60c01b612618565b60cb5481856111619190613617565b61116b91906135e6565b60ce8190555050505b611188678308d8ec21330d2860c01b612618565b60cb54426111969190613617565b60cc819055506111b0674ff093cad724d69b60c01b612618565b4260cd819055506111cb679b0103b615e77a4260c01b612618565b6111df67693fb4f4d21537d960c01b612618565b7fde88a922e0d3b88b24e9623efeb464919c6bf9f66857a65e2bfcf2ce87a9433d8260405161120e91906131bd565b60405180910390a15050565b61122e67edba9b9967f4c6a460c01b612618565b33611243676b891dc1790b3f8e60c01b612618565b61125767a61339d3f441ab2c60c01b612618565b61125f611dfb565b60cf81905550611279670eab4f9a9db831c460c01b612618565b6112816118e0565b60cd8190555061129b67132008f34c78122d60c01b612618565b6112af67813ded252492fa0d60c01b612618565b600073ffffffffffffffffffffffffffffffffffffffff168173ffffffffffffffffffffffffffffffffffffffff16146113b6576112f76793c0369b3f33568f60c01b612618565b61130b6715dacce0c924cba760c01b612618565b611314816105d4565b60d160008373ffffffffffffffffffffffffffffffffffffffff1673ffffffffffffffffffffffffffffffffffffffff1681526020019081526020016000208190555061136b673fd0490a2af16f1160c01b612618565b60cf5460d060008373ffffffffffffffffffffffffffffffffffffffff1673ffffffffffffffffffffffffffffffffffffffff168152602001908152602001600020819055506113cb565b6113ca673c34a1957bfd97b260c01b612618565b5b6113df67f8dd564b11496e6f60c01b612618565b6113f367788665cb30a333ab60c01b612618565b6114076716b86d10c214f52760c01b612618565b61141b67921d1e9407ff9f4f60c01b612618565b61142f670eefeba571e5704f60c01b612618565b600060d160003373ffffffffffffffffffffffffffffffffffffffff1673ffffffffffffffffffffffffffffffffffffffff168152602001908152602001600020549050611487675dc4863f72a77d8c60c01b612618565b61149b67abc55843318def6760c01b612618565b6000811115611601576114b867d119c38dc29320eb60c01b612618565b6114cc6745f00a8b8496d44c60c01b612618565b600060d160003373ffffffffffffffffffffffffffffffffffffffff1673ffffffffffffffffffffffffffffffffffffffff1681526020019081526020016000208190555061152567de5d2d8a52010a7760c01b612618565b61153967abe93b481852168460c01b612618565b611586338260ca60009054906101000a900473ffffffffffffffffffffffffffffffffffffffff1673ffffffffffffffffffffffffffffffffffffffff1661261b9092919063ffffffff16565b61159a673009b9817293feca60c01b612618565b6115ae678da7ae6cdd6deb5660c01b612618565b3373ffffffffffffffffffffffffffffffffffffffff167fe2403640ba68fed3a2f88b7557551d1993f84b99bb10ff833f0cf8db0c5e0486826040516115f491906131bd565b60405180910390a2611616565b61161567edd1491f582d6aa560c01b612618565b5b5050565b7f000000000000000000000000000000000000000000000000000000000000000073ffffffffffffffffffffffffffffffffffffffff163073ffffffffffffffffffffffffffffffffffffffff16036116a8576040517f08c379a000000000000000000000000000000000000000000000000000000000815260040161169f9061373a565b60405180910390fd5b7f000000000000000000000000000000000000000000000000000000000000000073ffffffffffffffffffffffffffffffffffffffff166116e76126a1565b73ffffffffffffffffffffffffffffffffffffffff161461173d576040517f08c379a0000000000000000000000000000000000000000000000000000000008152600401611734906137cc565b60405180910390fd5b611746826126f8565b6117528282600161273f565b5050565b60007f000000000000000000000000000000000000000000000000000000000000000073ffffffffffffffffffffffffffffffffffffffff163073ffffffffffffffffffffffffffffffffffffffff16146117e6576040517f08c379a00000000000000000000000000000000000000000000000000000000081526004016117dd906138ca565b60405180910390fd5b7f360894a13ba1a3210667c828492db98dca3e2076cc3735a920a3ca505d382bbc60001b905090565b60cc5481565b600061182b67312dd9b64f3a020460c01b612618565b61183f67044e9d2c42f1538760c01b612618565b611853670668f6fe4964c5a260c01b612618565b60d360008373ffffffffffffffffffffffffffffffffffffffff1673ffffffffffffffffffffffffffffffffffffffff168152602001908152602001600020549050919050565b6118a26128ad565b6118ac600061292b565b565b60c960009054906101000a900473ffffffffffffffffffffffffffffffffffffffff1681565b60cd5481565b60ce5481565b60006118f6672daff33af245338c60c01b612618565b61190a671b48c8ed76e1600560c01b612618565b61191e671f1640e31186f71d60c01b612618565b60cc5442111561196e5761193c67d27787b8a6dd992d60c01b612618565b61195067ce438f4ccf215fde60c01b612618565b611964679acc8882ac38ef1e60c01b612618565b60cc5490506119ae565b61198267453ec6b9e4b71ca160c01b612618565b61199667bbab327e0e5a571e60c01b612618565b6119aa6799923ddda298988a60c01b612618565b4290505b90565b60d06020528060005260406000206000915090505481565b6000603360009054906101000a900473ffffffffffffffffffffffffffffffffffffffff16905090565b611a076721ed72cbd5cbfa9160c01b612618565b33611a1c676b891dc1790b3f8e60c01b612618565b611a3067a61339d3f441ab2c60c01b612618565b611a38611dfb565b60cf81905550611a52670eab4f9a9db831c460c01b612618565b611a5a6118e0565b60cd81905550611a7467132008f34c78122d60c01b612618565b611a8867813ded252492fa0d60c01b612618565b600073ffffffffffffffffffffffffffffffffffffffff168173ffffffffffffffffffffffffffffffffffffffff1614611b8f57611ad06793c0369b3f33568f60c01b612618565b611ae46715dacce0c924cba760c01b612618565b611aed816105d4565b60d160008373ffffffffffffffffffffffffffffffffffffffff1673ffffffffffffffffffffffffffffffffffffffff16815260200190815260200160002081905550611b44673fd0490a2af16f1160c01b612618565b60cf5460d060008373ffffffffffffffffffffffffffffffffffffffff1673ffffffffffffffffffffffffffffffffffffffff16815260200190815260200160002081905550611ba4565b611ba3673c34a1957bfd97b260c01b612618565b5b611bb867f8dd564b11496e6f60c01b612618565b611bcc670d46cbb0a720966760c01b612618565b611be06778921fa91bfe82cd60c01b612618565b611bf4671b7b82f8bbe6c39760c01b612618565b611c086751e0ccbe09c00fd660c01b612618565b611c1c67b4153804eda9015260c01b612618565b60008211611c5f576040517f08c379a0000000000000000000000000000000000000000000000000000000008152600401611c56906136a8565b60405180910390fd5b611c73670469dce3e7b1a3b960c01b612618565b611c8767f7099df2015d049060c01b612618565b8160d26000828254611c999190613617565b92505081905550611cb467a23f6cdb50193b1760c01b612618565b8160d360003373ffffffffffffffffffffffffffffffffffffffff1673ffffffffffffffffffffffffffffffffffffffff1681526020019081526020016000206000828254611d039190613617565b92505081905550611d1e6752370bb734a3bfbb60c01b612618565b611d32676223c70be387231660c01b612618565b611d8133308460c960009054906101000a900473ffffffffffffffffffffffffffffffffffffffff1673ffffffffffffffffffffffffffffffffffffffff166129f1909392919063ffffffff16565b611d95670d551b76f1026fe360c01b612618565b611da967543a5a6d82aecb1460c01b612618565b3373ffffffffffffffffffffffffffffffffffffffff167f9e71bc8eea02a63969f509818f2dafb9254532904319f9dbda79b67bd34a5f3d83604051611def91906131bd565b60405180910390a25050565b6000611e116754293ab6a34e7ac460c01b612618565b611e25672ba73ac37db0c13a60c01b612618565b611e3967f002eebb12580a9560c01b612618565b600060d25403611e8957611e57677d43efdda4a6373960c01b612618565b611e6b676dd5c485784cab3e60c01b612618565b611e7f67fbeb857c9634510160c01b612618565b60cf549050611fa6565b611e9d67a611b1f821ae989f60c01b612618565b611eb167c443e7df546726b060c01b612618565b611ec5672a2405d1aec2d5d460c01b612618565b600060cd54611ed26118e0565b611edc9190613541565b9050611ef26751334d85955a0bbe60c01b612618565b611f066786898e270993554e60c01b612618565b60006c0c9f2c9cd04674edea4000000060ce5483611f249190613575565b611f2e9190613575565b9050611f4467e8b2315f7354904160c01b612618565b611f5867c0e0c16f6120e9b760c01b612618565b600060d25482611f6891906135e6565b9050611f7e67fe0a58b4bf0603ec60c01b612618565b611f92673abe8868f989b69860c01b612618565b8060cf54611fa09190613617565b93505050505b90565b60cf5481565b611fc3676c6d4fd17f0c12ed60c01b612618565b611fd7679eda1dadba0b053360c01b612618565b611feb67991a0244fde44a4860c01b612618565b61203360d360003373ffffffffffffffffffffffffffffffffffffffff1673ffffffffffffffffffffffffffffffffffffffff16815260200190815260200160002054610805565b6120476736d8d4fa4bee276460c01b612618565b61205b67adbf8a357fa2c65360c01b612618565b61206361121a565b565b61207967cb7b6035d171b9c660c01b612618565b60008060019054906101000a900460ff161590508080156120aa5750600160008054906101000a900460ff1660ff16105b806120d757506120b930612a7a565b1580156120d65750600160008054906101000a900460ff1660ff16145b5b612116576040517f08c379a000000000000000000000000000000000000000000000000000000000815260040161210d9061395c565b60405180910390fd5b60016000806101000a81548160ff021916908360ff1602179055508015612153576001600060016101000a81548160ff0219169083151502179055505b6121676710a87386fc59640260c01b612618565b61217b67f93a6e1a6888452960c01b612618565b61218f678d0f098447df6d6860c01b612618565b6121a367a6f1cefc8e46bde460c01b612618565b6121b767b5f2994121321b8960c01b612618565b600073ffffffffffffffffffffffffffffffffffffffff168573ffffffffffffffffffffffffffffffffffffffff1603612226576040517f08c379a000000000000000000000000000000000000000000000000000000000815260040161221d906139ee565b60405180910390fd5b61223a67e13c2b15d367ce4060c01b612618565b61224e674b2e7dcb225c030960c01b612618565b61226267655d4cb684e2c79a60c01b612618565b61227667b6129e1d1ed8aba960c01b612618565b600073ffffffffffffffffffffffffffffffffffffffff168473ffffffffffffffffffffffffffffffffffffffff16036122e5576040517f08c379a00000000000000000000000000000000000000000000000000000000081526004016122dc90613a80565b60405180910390fd5b6122f9677886796296e767cc60c01b612618565b61230d67cf646df7708567bb60c01b612618565b612321671179793bdb6d7e6260c01b612618565b61233567ff944459e65c903d60c01b612618565b60008211612378576040517f08c379a000000000000000000000000000000000000000000000000000000000815260040161236f90613b12565b60405180910390fd5b61238c6735bf26a56a7db88160c01b612618565b6123a067b496854dfb3c95c460c01b612618565b6123b4672ea98281a7e1a41260c01b612618565b6123bc612a9d565b6123d0670c3104de6087c55960c01b612618565b6123e467b69a78452e930e8c60c01b612618565b6123ec612af6565b6124006711520d6ad9c607c660c01b612618565b8460c960006101000a81548173ffffffffffffffffffffffffffffffffffffffff021916908373ffffffffffffffffffffffffffffffffffffffff16021790555061245567e4e481e74c158a8360c01b612618565b8360ca60006101000a81548173ffffffffffffffffffffffffffffffffffffffff021916908373ffffffffffffffffffffffffffffffffffffffff1602179055506124aa67887a7d5d9e209a3160c01b612618565b8260ce819055506124c5676f6d4ad4dcdc2cf460c01b612618565b8160cb819055506124e067f5133d2170f4f9e660c01b612618565b60cb54426124ee9190613617565b60cc819055506125086712bfd86972d7a97d60c01b612618565b4260cd8190555080156125685760008060016101000a81548160ff0219169083151502179055507f7f26b83ff96e1f2b6a682f133852f6798a09c465da95921460cefb3847402498600160405161255f9190613b7a565b60405180910390a15b5050505050565b6125776128ad565b600073ffffffffffffffffffffffffffffffffffffffff168173ffffffffffffffffffffffffffffffffffffffff16036125e6576040517f08c379a00000000000000000000000000000000000000000000000000000000081526004016125dd90613c07565b60405180910390fd5b6125ef8161292b565b50565b60ca60009054906101000a900473ffffffffffffffffffffffffffffffffffffffff1681565b50565b61269c8363a9059cbb60e01b848460405160240161263a929190613c27565b604051602081830303815290604052907bffffffffffffffffffffffffffffffffffffffffffffffffffffffff19166020820180517bffffffffffffffffffffffffffffffffffffffffffffffffffffffff8381831617835250505050612b47565b505050565b60006126cf7f360894a13ba1a3210667c828492db98dca3e2076cc3735a920a3ca505d382bbc60001b612c0f565b60000160009054906101000a900473ffffffffffffffffffffffffffffffffffffffff16905090565b61270c6716982a30e763217a60c01b612618565b6127146128ad565b61272867ce5549f4b9bade3260c01b612618565b61273c67fae4d551b577f52860c01b612618565b50565b61276b7f4910fdfa16fed3260ed0e7147f7cc6da11a60208b5b9406d12a635614ffd914360001b612c19565b60000160009054906101000a900460ff161561278f5761278a83612c23565b6128a8565b8273ffffffffffffffffffffffffffffffffffffffff166352d1902d6040518163ffffffff1660e01b8152600401602060405180830381865afa9250505080156127f757506040513d601f19601f820116820180604052508101906127f49190613c7c565b60015b612836576040517f08c379a000000000000000000000000000000000000000000000000000000000815260040161282d90613d1b565b60405180910390fd5b7f360894a13ba1a3210667c828492db98dca3e2076cc3735a920a3ca505d382bbc60001b811461289b576040517f08c379a000000000000000000000000000000000000000000000000000000000815260040161289290613dad565b60405180910390fd5b506128a7838383612cdc565b5b505050565b6128b5612d08565b73ffffffffffffffffffffffffffffffffffffffff166128d36119c9565b73ffffffffffffffffffffffffffffffffffffffff1614612929576040517f08c379a000000000000000000000000000000000000000000000000000000000815260040161292090613e19565b60405180910390fd5b565b6000603360009054906101000a900473ffffffffffffffffffffffffffffffffffffffff16905081603360006101000a81548173ffffffffffffffffffffffffffffffffffffffff021916908373ffffffffffffffffffffffffffffffffffffffff1602179055508173ffffffffffffffffffffffffffffffffffffffff168173ffffffffffffffffffffffffffffffffffffffff167f8be0079c531659141344cd1fd0a4f28419497f9722a3daafe3b4186f6b6457e060405160405180910390a35050565b612a74846323b872dd60e01b858585604051602401612a1293929190613e39565b604051602081830303815290604052907bffffffffffffffffffffffffffffffffffffffffffffffffffffffff19166020820180517bffffffffffffffffffffffffffffffffffffffffffffffffffffffff8381831617835250505050612b47565b50505050565b6000808273ffffffffffffffffffffffffffffffffffffffff163b119050919050565b600060019054906101000a900460ff16612aec576040517f08c379a0000000000000000000000000000000000000000000000000000000008152600401612ae390613ee2565b60405180910390fd5b612af4612d10565b565b600060019054906101000a900460ff16612b45576040517f08c379a0000000000000000000000000000000000000000000000000000000008152600401612b3c90613ee2565b60405180910390fd5b565b6000612ba9826040518060400160405280602081526020017f5361666545524332303a206c6f772d6c6576656c2063616c6c206661696c65648152508573ffffffffffffffffffffffffffffffffffffffff16612d719092919063ffffffff16565b9050600081511480612bcb575080806020019051810190612bca9190613f3a565b5b612c0a576040517f08c379a0000000000000000000000000000000000000000000000000000000008152600401612c0190613fd9565b60405180910390fd5b505050565b6000819050919050565b6000819050919050565b612c2c81612a7a565b612c6b576040517f08c379a0000000000000000000000000000000000000000000000000000000008152600401612c629061406b565b60405180910390fd5b80612c987f360894a13ba1a3210667c828492db98dca3e2076cc3735a920a3ca505d382bbc60001b612c0f565b60000160006101000a81548173ffffffffffffffffffffffffffffffffffffffff021916908373ffffffffffffffffffffffffffffffffffffffff16021790555050565b612ce583612d89565b600082511180612cf25750805b15612d0357612d018383612dd8565b505b505050565b600033905090565b600060019054906101000a900460ff16612d5f576040517f08c379a0000000000000000000000000000000000000000000000000000000008152600401612d5690613ee2565b60405180910390fd5b612d6f612d6a612d08565b61292b565b565b6060612d808484600085612e05565b90509392505050565b612d9281612c23565b8073ffffffffffffffffffffffffffffffffffffffff167fbc7cd75a20ee27fd9adebab32041f755214dbc6bffa90cc0225b39da2e5c2d3b60405160405180910390a250565b6060612dfd838360405180606001604052806027815260200161427860279139612ed2565b905092915050565b606082471015612e4a576040517f08c379a0000000000000000000000000000000000000000000000000000000008152600401612e41906140fd565b60405180910390fd5b6000808673ffffffffffffffffffffffffffffffffffffffff168587604051612e73919061418e565b60006040518083038185875af1925050503d8060008114612eb0576040519150601f19603f3d011682016040523d82523d6000602084013e612eb5565b606091505b5091509150612ec687838387612f58565b92505050949350505050565b60606000808573ffffffffffffffffffffffffffffffffffffffff1685604051612efc919061418e565b600060405180830381855af49150503d8060008114612f37576040519150601f19603f3d011682016040523d82523d6000602084013e612f3c565b606091505b5091509150612f4d86838387612fcd565b925050509392505050565b60608315612fba576000835103612fb257612f7285613042565b612fb1576040517f08c379a0000000000000000000000000000000000000000000000000000000008152600401612fa8906141f1565b60405180910390fd5b5b829050612fc5565b612fc48383613065565b5b949350505050565b6060831561302f57600083510361302757612fe785612a7a565b613026576040517f08c379a000000000000000000000000000000000000000000000000000000000815260040161301d906141f1565b60405180910390fd5b5b82905061303a565b61303983836130b5565b5b949350505050565b6000808273ffffffffffffffffffffffffffffffffffffffff163b119050919050565b6000825111156130785781518083602001fd5b806040517f08c379a00000000000000000000000000000000000000000000000000000000081526004016130ac9190614255565b60405180910390fd5b6000825111156130c85781518083602001fd5b806040517f08c379a00000000000000000000000000000000000000000000000000000000081526004016130fc9190614255565b60405180910390fd5b6000604051905090565b600080fd5b600080fd5b600073ffffffffffffffffffffffffffffffffffffffff82169050919050565b600061314482613119565b9050919050565b61315481613139565b811461315f57600080fd5b50565b6000813590506131718161314b565b92915050565b60006020828403121561318d5761318c61310f565b5b600061319b84828501613162565b91505092915050565b6000819050919050565b6131b7816131a4565b82525050565b60006020820190506131d260008301846131ae565b92915050565b6131e1816131a4565b81146131ec57600080fd5b50565b6000813590506131fe816131d8565b92915050565b60006020828403121561321a5761321961310f565b5b6000613228848285016131ef565b91505092915050565b600080fd5b600080fd5b6000601f19601f8301169050919050565b7f4e487b7100000000000000000000000000000000000000000000000000000000600052604160045260246000fd5b6132848261323b565b810181811067ffffffffffffffff821117156132a3576132a261324c565b5b80604052505050565b60006132b6613105565b90506132c2828261327b565b919050565b600067ffffffffffffffff8211156132e2576132e161324c565b5b6132eb8261323b565b9050602081019050919050565b82818337600083830152505050565b600061331a613315846132c7565b6132ac565b90508281526020810184848401111561333657613335613236565b5b6133418482856132f8565b509392505050565b600082601f83011261335e5761335d613231565b5b813561336e848260208601613307565b91505092915050565b6000806040838503121561338e5761338d61310f565b5b600061339c85828601613162565b925050602083013567ffffffffffffffff8111156133bd576133bc613114565b5b6133c985828601613349565b9150509250929050565b6000819050919050565b6133e6816133d3565b82525050565b600060208201905061340160008301846133dd565b92915050565b6000819050919050565b600061342c61342761342284613119565b613407565b613119565b9050919050565b600061343e82613411565b9050919050565b600061345082613433565b9050919050565b61346081613445565b82525050565b600060208201905061347b6000830184613457565b92915050565b61348a81613139565b82525050565b60006020820190506134a56000830184613481565b92915050565b600080600080608085870312156134c5576134c461310f565b5b60006134d387828801613162565b94505060206134e487828801613162565b93505060406134f5878288016131ef565b9250506060613506878288016131ef565b91505092959194509250565b7f4e487b7100000000000000000000000000000000000000000000000000000000600052601160045260246000fd5b600061354c826131a4565b9150613557836131a4565b925082820390508181111561356f5761356e613512565b5b92915050565b6000613580826131a4565b915061358b836131a4565b9250828202613599816131a4565b915082820484148315176135b0576135af613512565b5b5092915050565b7f4e487b7100000000000000000000000000000000000000000000000000000000600052601260045260246000fd5b60006135f1826131a4565b91506135fc836131a4565b92508261360c5761360b6135b7565b5b828204905092915050565b6000613622826131a4565b915061362d836131a4565b925082820190508082111561364557613644613512565b5b92915050565b600082825260208201905092915050565b7f5374616b696e67526577617264733a20616d6f756e74203d2030000000000000600082015250565b6000613692601a8361364b565b915061369d8261365c565b602082019050919050565b600060208201905081810360008301526136c181613685565b9050919050565b7f46756e6374696f6e206d7573742062652063616c6c6564207468726f7567682060008201527f64656c656761746563616c6c0000000000000000000000000000000000000000602082015250565b6000613724602c8361364b565b915061372f826136c8565b604082019050919050565b6000602082019050818103600083015261375381613717565b9050919050565b7f46756e6374696f6e206d7573742062652063616c6c6564207468726f7567682060008201527f6163746976652070726f78790000000000000000000000000000000000000000602082015250565b60006137b6602c8361364b565b91506137c18261375a565b604082019050919050565b600060208201905081810360008301526137e5816137a9565b9050919050565b7f5374616b696e67526577617264733a20726577617264203d2030000000000000600082015250565b6000613822601a8361364b565b915061382d826137ec565b602082019050919050565b6000602082019050818103600083015261385181613815565b9050919050565b7f555550535570677261646561626c653a206d757374206e6f742062652063616c60008201527f6c6564207468726f7567682064656c656761746563616c6c0000000000000000602082015250565b60006138b460388361364b565b91506138bf82613858565b604082019050919050565b600060208201905081810360008301526138e3816138a7565b9050919050565b7f496e697469616c697a61626c653a20636f6e747261637420697320616c72656160008201527f647920696e697469616c697a6564000000000000000000000000000000000000602082015250565b6000613946602e8361364b565b9150613951826138ea565b604082019050919050565b6000602082019050818103600083015261397581613939565b9050919050565b7f5374616b696e67526577617264733a207374616b696e6720746f6b656e20697360008201527f207a65726f206164647265737300000000000000000000000000000000000000602082015250565b60006139d8602d8361364b565b91506139e38261397c565b604082019050919050565b60006020820190508181036000830152613a07816139cb565b9050919050565b7f5374616b696e67526577617264733a2072657761726420746f6b656e2069732060008201527f7a65726f20616464726573730000000000000000000000000000000000000000602082015250565b6000613a6a602c8361364b565b9150613a7582613a0e565b604082019050919050565b60006020820190508181036000830152613a9981613a5d565b9050919050565b7f5374616b696e67526577617264733a206475726174696f6e206d75737420626560008201527f2067726561746572207468616e207a65726f0000000000000000000000000000602082015250565b6000613afc60328361364b565b9150613b0782613aa0565b604082019050919050565b60006020820190508181036000830152613b2b81613aef565b9050919050565b6000819050919050565b600060ff82169050919050565b6000613b64613b5f613b5a84613b32565b613407565b613b3c565b9050919050565b613b7481613b49565b82525050565b6000602082019050613b8f6000830184613b6b565b92915050565b7f4f776e61626c653a206e6577206f776e657220697320746865207a65726f206160008201527f6464726573730000000000000000000000000000000000000000000000000000602082015250565b6000613bf160268361364b565b9150613bfc82613b95565b604082019050919050565b60006020820190508181036000830152613c2081613be4565b9050919050565b6000604082019050613c3c6000830185613481565b613c4960208301846131ae565b9392505050565b613c59816133d3565b8114613c6457600080fd5b50565b600081519050613c7681613c50565b92915050565b600060208284031215613c9257613c9161310f565b5b6000613ca084828501613c67565b91505092915050565b7f45524331393637557067726164653a206e657720696d706c656d656e7461746960008201527f6f6e206973206e6f742055555053000000000000000000000000000000000000602082015250565b6000613d05602e8361364b565b9150613d1082613ca9565b604082019050919050565b60006020820190508181036000830152613d3481613cf8565b9050919050565b7f45524331393637557067726164653a20756e737570706f727465642070726f7860008201527f6961626c65555549440000000000000000000000000000000000000000000000602082015250565b6000613d9760298361364b565b9150613da282613d3b565b604082019050919050565b60006020820190508181036000830152613dc681613d8a565b9050919050565b7f4f776e61626c653a2063616c6c6572206973206e6f7420746865206f776e6572600082015250565b6000613e0360208361364b565b9150613e0e82613dcd565b602082019050919050565b60006020820190508181036000830152613e3281613df6565b9050919050565b6000606082019050613e4e6000830186613481565b613e5b6020830185613481565b613e6860408301846131ae565b949350505050565b7f496e697469616c697a61626c653a20636f6e7472616374206973206e6f74206960008201527f6e697469616c697a696e67000000000000000000000000000000000000000000602082015250565b6000613ecc602b8361364b565b9150613ed782613e70565b604082019050919050565b60006020820190508181036000830152613efb81613ebf565b9050919050565b60008115159050919050565b613f1781613f02565b8114613f2257600080fd5b50565b600081519050613f3481613f0e565b92915050565b600060208284031215613f5057613f4f61310f565b5b6000613f5e84828501613f25565b91505092915050565b7f5361666545524332303a204552433230206f7065726174696f6e20646964206e60008201527f6f74207375636365656400000000000000000000000000000000000000000000602082015250565b6000613fc3602a8361364b565b9150613fce82613f67565b604082019050919050565b60006020820190508181036000830152613ff281613fb6565b9050919050565b7f455243313936373a206e657720696d706c656d656e746174696f6e206973206e60008201527f6f74206120636f6e747261637400000000000000000000000000000000000000602082015250565b6000614055602d8361364b565b915061406082613ff9565b604082019050919050565b6000602082019050818103600083015261408481614048565b9050919050565b7f416464726573733a20696e73756666696369656e742062616c616e636520666f60008201527f722063616c6c0000000000000000000000000000000000000000000000000000602082015250565b60006140e760268361364b565b91506140f28261408b565b604082019050919050565b60006020820190508181036000830152614116816140da565b9050919050565b600081519050919050565b600081905092915050565b60005b83811015614151578082015181840152602081019050614136565b60008484015250505050565b60006141688261411d565b6141728185614128565b9350614182818560208601614133565b80840191505092915050565b600061419a828461415d565b915081905092915050565b7f416464726573733a2063616c6c20746f206e6f6e2d636f6e7472616374000000600082015250565b60006141db601d8361364b565b91506141e6826141a5565b602082019050919050565b6000602082019050818103600083015261420a816141ce565b9050919050565b600081519050919050565b600061422782614211565b614231818561364b565b9350614241818560208601614133565b61424a8161323b565b840191505092915050565b6000602082019050818103600083015261426f818461421c565b90509291505056fe416464726573733a206c6f772d6c6576656c2064656c65676174652063616c6c206661696c6564a26469706673582212203bfba9828bc25f80d4db021175e8a9073ccab9af17db0043ac585f4583c9423464736f6c63430008150033",
  "linkReferences": {},
  "deployedLinkReferences": {}
}