{
  "_format": "hh-sol-artifact-1",
  "contractName": "StakingRewards",
  "sourceName": "contracts/StakingRewards.sol",
  "abi": [
    {
      "inputs": [],
      "stateMutability": "nonpayable",
      "type": "constructor"
    },
    {
      "anonymous": false,
      "inputs": [
        {
          "indexed": false,
          "internalType": "address",
          "name": "previousAdmin",
          "type": "address"
        },
        {
          "indexed": false,
          "internalType": "address",
          "name": "newAdmin",
          "type": "address"
        }
      ],
      "name": "AdminChanged",
      "type": "event"
    },
    {
      "anonymous": false,
      "inputs": [
        {
          "indexed": true,
          "internalType": "address",
          "name": "beacon",
          "type": "address"
        }
      ],
      "name": "BeaconUpgraded",
      "type": "event"
    },
    {
      "anonymous": false,
      "inputs": [
        {
          "indexed": false,
          "internalType": "uint8",
          "name": "version",
          "type": "uint8"
        }
      ],
      "name": "Initialized",
      "type": "event"
    },
    {
      "anonymous": false,
      "inputs": [
        {
          "indexed": true,
          "internalType": "address",
          "name": "previousOwner",
          "type": "address"
        },
        {
          "indexed": true,
          "internalType": "address",
          "name": "newOwner",
          "type": "address"
        }
      ],
      "name": "OwnershipTransferred",
      "type": "event"
    },
    {
      "anonymous": false,
      "inputs": [
        {
          "indexed": false,
          "internalType": "uint256",
          "name": "reward",
          "type": "uint256"
        }
      ],
      "name": "RewardAdded",
      "type": "event"
    },
    {
      "anonymous": false,
      "inputs": [
        {
          "indexed": true,
          "internalType": "address",
          "name": "user",
          "type": "address"
        },
        {
          "indexed": false,
          "internalType": "uint256",
          "name": "reward",
          "type": "uint256"
        }
      ],
      "name": "RewardPaid",
      "type": "event"
    },
    {
      "anonymous": false,
      "inputs": [
        {
          "indexed": true,
          "internalType": "address",
          "name": "user",
          "type": "address"
        },
        {
          "indexed": false,
          "internalType": "uint256",
          "name": "amount",
          "type": "uint256"
        }
      ],
      "name": "Staked",
      "type": "event"
    },
    {
      "anonymous": false,
      "inputs": [
        {
          "indexed": true,
          "internalType": "address",
          "name": "implementation",
          "type": "address"
        }
      ],
      "name": "Upgraded",
      "type": "event"
    },
    {
      "anonymous": false,
      "inputs": [
        {
          "indexed": true,
          "internalType": "address",
          "name": "user",
          "type": "address"
        },
        {
          "indexed": false,
          "internalType": "uint256",
          "name": "amount",
          "type": "uint256"
        }
      ],
      "name": "Withdrawn",
      "type": "event"
    },
    {
      "inputs": [
        {
          "internalType": "address",
          "name": "account",
          "type": "address"
        }
      ],
      "name": "balanceOf",
      "outputs": [
        {
          "internalType": "uint256",
          "name": "",
          "type": "uint256"
        }
      ],
      "stateMutability": "view",
      "type": "function"
    },
    {
      "inputs": [],
      "name": "duration",
      "outputs": [
        {
          "internalType": "uint256",
          "name": "",
          "type": "uint256"
        }
      ],
      "stateMutability": "view",
      "type": "function"
    },
    {
      "inputs": [
        {
          "internalType": "address",
          "name": "account",
          "type": "address"
        }
      ],
      "name": "earned",
      "outputs": [
        {
          "internalType": "uint256",
          "name": "",
          "type": "uint256"
        }
      ],
      "stateMutability": "view",
      "type": "function"
    },
    {
      "inputs": [],
      "name": "exit",
      "outputs": [],
      "stateMutability": "nonpayable",
      "type": "function"
    },
    {
      "inputs": [],
      "name": "finishAt",
      "outputs": [
        {
          "internalType": "uint256",
          "name": "",
          "type": "uint256"
        }
      ],
      "stateMutability": "view",
      "type": "function"
    },
    {
      "inputs": [],
      "name": "getReward",
      "outputs": [],
      "stateMutability": "nonpayable",
      "type": "function"
    },
    {
      "inputs": [
        {
          "internalType": "address",
          "name": "_stakingToken",
          "type": "address"
        },
        {
          "internalType": "address",
          "name": "_rewardToken",
          "type": "address"
        },
        {
          "internalType": "uint256",
          "name": "_rewardRate",
          "type": "uint256"
        },
        {
          "internalType": "uint256",
          "name": "_duration",
          "type": "uint256"
        }
      ],
      "name": "initialize",
      "outputs": [],
      "stateMutability": "nonpayable",
      "type": "function"
    },
    {
      "inputs": [],
      "name": "lastTimeRewardApplicable",
      "outputs": [
        {
          "internalType": "uint256",
          "name": "",
          "type": "uint256"
        }
      ],
      "stateMutability": "view",
      "type": "function"
    },
    {
      "inputs": [
        {
          "internalType": "uint256",
          "name": "reward",
          "type": "uint256"
        }
      ],
      "name": "notifyRewardAmount",
      "outputs": [],
      "stateMutability": "nonpayable",
      "type": "function"
    },
    {
      "inputs": [],
      "name": "owner",
      "outputs": [
        {
          "internalType": "address",
          "name": "",
          "type": "address"
        }
      ],
      "stateMutability": "view",
      "type": "function"
    },
    {
      "inputs": [],
      "name": "proxiableUUID",
      "outputs": [
        {
          "internalType": "bytes32",
          "name": "",
          "type": "bytes32"
        }
      ],
      "stateMutability": "view",
      "type": "function"
    },
    {
      "inputs": [],
      "name": "renounceOwnership",
      "outputs": [],
      "stateMutability": "nonpayable",
      "type": "function"
    },
    {
      "inputs": [],
      "name": "rewardPerToken",
      "outputs": [
        {
          "internalType": "uint256",
          "name": "",
          "type": "uint256"
        }
      ],
      "stateMutability": "view",
      "type": "function"
    },
    {
      "inputs": [],
      "name": "rewardPerTokenStored",
      "outputs": [
        {
          "internalType": "uint256",
          "name": "",
          "type": "uint256"
        }
      ],
      "stateMutability": "view",
      "type": "function"
    },
    {
      "inputs": [],
      "name": "rewardRate",
      "outputs": [
        {
          "internalType": "uint256",
          "name": "",
          "type": "uint256"
        }
      ],
      "stateMutability": "view",
      "type": "function"
    },
    {
      "inputs": [],
      "name": "rewardToken",
      "outputs": [
        {
          "internalType": "contract IERC20",
          "name": "",
          "type": "address"
        }
      ],
      "stateMutability": "view",
      "type": "function"
    },
    {
      "inputs": [
        {
          "internalType": "address",
          "name": "",
          "type": "address"
        }
      ],
      "name": "rewards",
      "outputs": [
        {
          "internalType": "uint256",
          "name": "",
          "type": "uint256"
        }
      ],
      "stateMutability": "view",
      "type": "function"
    },
    {
      "inputs": [
        {
          "internalType": "uint256",
          "name": "amount",
          "type": "uint256"
        }
      ],
      "name": "stake",
      "outputs": [],
      "stateMutability": "nonpayable",
      "type": "function"
    },
    {
      "inputs": [],
      "name": "stakingToken",
      "outputs": [
        {
          "internalType": "contract IERC20",
          "name": "",
          "type": "address"
        }
      ],
      "stateMutability": "view",
      "type": "function"
    },
    {
      "inputs": [],
      "name": "totalSupply",
      "outputs": [
        {
          "internalType": "uint256",
          "name": "",
          "type": "uint256"
        }
      ],
      "stateMutability": "view",
      "type": "function"
    },
    {
      "inputs": [
        {
          "internalType": "address",
          "name": "newOwner",
          "type": "address"
        }
      ],
      "name": "transferOwnership",
      "outputs": [],
      "stateMutability": "nonpayable",
      "type": "function"
    },
    {
      "inputs": [],
      "name": "updatedAt",
      "outputs": [
        {
          "internalType": "uint256",
          "name": "",
          "type": "uint256"
        }
      ],
      "stateMutability": "view",
      "type": "function"
    },
    {
      "inputs": [
        {
          "internalType": "address",
          "name": "newImplementation",
          "type": "address"
        }
      ],
      "name": "upgradeTo",
      "outputs": [],
      "stateMutability": "nonpayable",
      "type": "function"
    },
    {
      "inputs": [
        {
          "internalType": "address",
          "name": "newImplementation",
          "type": "address"
        },
        {
          "internalType": "bytes",
          "name": "data",
          "type": "bytes"
        }
      ],
      "name": "upgradeToAndCall",
      "outputs": [],
      "stateMutability": "payable",
      "type": "function"
    },
    {
      "inputs": [
        {
          "internalType": "address",
          "name": "",
          "type": "address"
        }
      ],
      "name": "userRewardPerTokenPaid",
      "outputs": [
        {
          "internalType": "uint256",
          "name": "",
          "type": "uint256"
        }
      ],
      "stateMutability": "view",
      "type": "function"
    },
    {
      "inputs": [
        {
          "internalType": "uint256",
          "name": "amount",
          "type": "uint256"
        }
      ],
      "name": "withdraw",
      "outputs": [],
      "stateMutability": "nonpayable",
      "type": "function"
    }
  ],
  "bytecode": "0x60a06040523060805234801561001457600080fd5b5061001d610022565b6100e1565b600054610100900460ff161561008e5760405162461bcd60e51b815260206004820152602760248201527f496e697469616c697a61626c653a20636f6e747261637420697320696e697469604482015266616c697a696e6760c81b606482015260840160405180910390fd5b60005460ff908116146100df576000805460ff191660ff9081179091556040519081527f7f26b83ff96e1f2b6a682f133852f6798a09c465da95921460cefb38474024989060200160405180910390a15b565b608051611b656101186000396000818161067d015281816106bd0152818161098b015281816109cb0152610a5a0152611b656000f3fe6080604052600436106101805760003560e01c806372f702f3116100d1578063a694fc3a1161008a578063e9fad8ee11610064578063e9fad8ee1461041f578063eb990c5914610434578063f2fde38b14610454578063f7c618c11461047457600080fd5b8063a694fc3a146103d4578063cd3daf9d146103f4578063df136d651461040957600080fd5b806372f702f3146103105780637519ab50146103485780637b0a47ee1461035e57806380faa57d146103745780638b876347146103895780638da5cb5b146103b657600080fd5b80633c6b16ab1161013e57806352d1902d1161011857806352d1902d1461029a57806367d3b488146102af57806370a08231146102c5578063715018a6146102fb57600080fd5b80633c6b16ab146102525780633d18b912146102725780634f1ef2861461028757600080fd5b80628cc262146101855780630700037d146101b85780630fb5a6b4146101e557806318160ddd146101fb5780632e1a7d4d146102105780633659cfe614610232575b600080fd5b34801561019157600080fd5b506101a56101a036600461178d565b610494565b6040519081526020015b60405180910390f35b3480156101c457600080fd5b506101a56101d336600461178d565b60d16020526000908152604090205481565b3480156101f157600080fd5b506101a560cb5481565b34801561020757600080fd5b5060d2546101a5565b34801561021c57600080fd5b5061023061022b3660046117a8565b610537565b005b34801561023e57600080fd5b5061023061024d36600461178d565b610673565b34801561025e57600080fd5b5061023061026d3660046117a8565b610752565b34801561027e57600080fd5b506102306108b1565b6102306102953660046117d7565b610981565b3480156102a657600080fd5b506101a5610a4d565b3480156102bb57600080fd5b506101a560cc5481565b3480156102d157600080fd5b506101a56102e036600461178d565b6001600160a01b0316600090815260d3602052604090205490565b34801561030757600080fd5b50610230610b00565b34801561031c57600080fd5b5060c954610330906001600160a01b031681565b6040516001600160a01b0390911681526020016101af565b34801561035457600080fd5b506101a560cd5481565b34801561036a57600080fd5b506101a560ce5481565b34801561038057600080fd5b506101a5610b14565b34801561039557600080fd5b506101a56103a436600461178d565b60d06020526000908152604090205481565b3480156103c257600080fd5b506033546001600160a01b0316610330565b3480156103e057600080fd5b506102306103ef3660046117a8565b610b2c565b34801561040057600080fd5b506101a5610c5c565b34801561041557600080fd5b506101a560cf5481565b34801561042b57600080fd5b50610230610cd9565b34801561044057600080fd5b5061023061044f366004611899565b610cfa565b34801561046057600080fd5b5061023061046f36600461178d565b610fa4565b34801561048057600080fd5b5060ca54610330906001600160a01b031681565b60008061049f610c5c565b6001600160a01b038416600090815260d06020526040812054919250906104c690836118f1565b6001600160a01b038516600090815260d36020526040812054919250906c0c9f2c9cd04674edea40000000906104fd908490611904565b610507919061191b565b6001600160a01b038616600090815260d1602052604090205490915061052e90829061193d565b95945050505050565b33610540610c5c565b60cf5561054b610b14565b60cd556001600160a01b038116156105925761056681610494565b6001600160a01b038216600090815260d1602090815260408083209390935560cf5460d0909152919020555b600082116105e75760405162461bcd60e51b815260206004820152601a60248201527f5374616b696e67526577617264733a20616d6f756e74203d203000000000000060448201526064015b60405180910390fd5b8160d260008282546105f991906118f1565b909155505033600090815260d360205260408120805484929061061d9084906118f1565b909155505060c954610639906001600160a01b0316338461101a565b60405182815233907f7084f5476618d8e60b11ef0d7d3f06914655adb8793e28ff7f018d4c76d505d5906020015b60405180910390a25050565b6001600160a01b037f00000000000000000000000000000000000000000000000000000000000000001630036106bb5760405162461bcd60e51b81526004016105de90611950565b7f00000000000000000000000000000000000000000000000000000000000000006001600160a01b0316610704600080516020611ae9833981519152546001600160a01b031690565b6001600160a01b03161461072a5760405162461bcd60e51b81526004016105de9061199c565b61073381611082565b6040805160008082526020820190925261074f9183919061108a565b50565b61075a6111f5565b6000610764610c5c565b60cf5561076f610b14565b60cd556001600160a01b038116156107b65761078a81610494565b6001600160a01b038216600090815260d1602090815260408083209390935560cf5460d0909152919020555b600082116108065760405162461bcd60e51b815260206004820152601a60248201527f5374616b696e67526577617264733a20726577617264203d203000000000000060448201526064016105de565b60cc5442106108245760cb5461081c908361191b565b60ce55610866565b60004260cc5461083491906118f1565b9050600060ce54826108469190611904565b60cb54909150610856828661193d565b610860919061191b565b60ce5550505b60cb54610873904261193d565b60cc554260cd556040518281527fde88a922e0d3b88b24e9623efeb464919c6bf9f66857a65e2bfcf2ce87a9433d9060200160405180910390a15050565b336108ba610c5c565b60cf556108c5610b14565b60cd556001600160a01b0381161561090c576108e081610494565b6001600160a01b038216600090815260d1602090815260408083209390935560cf5460d0909152919020555b33600090815260d16020526040902054801561097d5733600081815260d1602052604081205560ca5461094b916001600160a01b03909116908361101a565b60405181815233907fe2403640ba68fed3a2f88b7557551d1993f84b99bb10ff833f0cf8db0c5e048690602001610667565b5050565b6001600160a01b037f00000000000000000000000000000000000000000000000000000000000000001630036109c95760405162461bcd60e51b81526004016105de90611950565b7f00000000000000000000000000000000000000000000000000000000000000006001600160a01b0316610a12600080516020611ae9833981519152546001600160a01b031690565b6001600160a01b031614610a385760405162461bcd60e51b81526004016105de9061199c565b610a4182611082565b61097d8282600161108a565b6000306001600160a01b037f00000000000000000000000000000000000000000000000000000000000000001614610aed5760405162461bcd60e51b815260206004820152603860248201527f555550535570677261646561626c653a206d757374206e6f742062652063616c60448201527f6c6564207468726f7567682064656c656761746563616c6c000000000000000060648201526084016105de565b50600080516020611ae983398151915290565b610b086111f5565b610b12600061124f565b565b600060cc54421115610b27575060cc5490565b504290565b33610b35610c5c565b60cf55610b40610b14565b60cd556001600160a01b03811615610b8757610b5b81610494565b6001600160a01b038216600090815260d1602090815260408083209390935560cf5460d0909152919020555b60008211610bd75760405162461bcd60e51b815260206004820152601a60248201527f5374616b696e67526577617264733a20616d6f756e74203d203000000000000060448201526064016105de565b8160d26000828254610be9919061193d565b909155505033600090815260d3602052604081208054849290610c0d90849061193d565b909155505060c954610c2a906001600160a01b03163330856112a1565b60405182815233907f9e71bc8eea02a63969f509818f2dafb9254532904319f9dbda79b67bd34a5f3d90602001610667565b600060d254600003610c6f575060cf5490565b600060cd54610c7c610b14565b610c8691906118f1565b9050600060ce5482610c989190611904565b610caf906c0c9f2c9cd04674edea40000000611904565b9050600060d25482610cc1919061191b565b90508060cf54610cd1919061193d565b935050505090565b33600090815260d36020526040902054610cf290610537565b610b126108b1565b600054610100900460ff1615808015610d1a5750600054600160ff909116105b80610d345750303b158015610d34575060005460ff166001145b610d975760405162461bcd60e51b815260206004820152602e60248201527f496e697469616c697a61626c653a20636f6e747261637420697320616c72656160448201526d191e481a5b9a5d1a585b1a5e995960921b60648201526084016105de565b6000805460ff191660011790558015610dba576000805461ff0019166101001790555b6001600160a01b038516610e265760405162461bcd60e51b815260206004820152602d60248201527f5374616b696e67526577617264733a207374616b696e6720746f6b656e20697360448201526c207a65726f206164647265737360981b60648201526084016105de565b6001600160a01b038416610e915760405162461bcd60e51b815260206004820152602c60248201527f5374616b696e67526577617264733a2072657761726420746f6b656e2069732060448201526b7a65726f206164647265737360a01b60648201526084016105de565b60008211610efc5760405162461bcd60e51b815260206004820152603260248201527f5374616b696e67526577617264733a206475726174696f6e206d7573742062656044820152712067726561746572207468616e207a65726f60701b60648201526084016105de565b610f046112df565b610f0c61130e565b60c980546001600160a01b038088166001600160a01b03199283161790925560ca80549287169290911691909117905560ce83905560cb829055610f50824261193d565b60cc554260cd558015610f9d576000805461ff0019169055604051600181527f7f26b83ff96e1f2b6a682f133852f6798a09c465da95921460cefb38474024989060200160405180910390a15b5050505050565b610fac6111f5565b6001600160a01b0381166110115760405162461bcd60e51b815260206004820152602660248201527f4f776e61626c653a206e6577206f776e657220697320746865207a65726f206160448201526564647265737360d01b60648201526084016105de565b61074f8161124f565b6040516001600160a01b03831660248201526044810182905261107d90849063a9059cbb60e01b906064015b60408051601f198184030181529190526020810180516001600160e01b03166001600160e01b031990931692909217909152611335565b505050565b61074f6111f5565b7f4910fdfa16fed3260ed0e7147f7cc6da11a60208b5b9406d12a635614ffd91435460ff16156110bd5761107d8361140a565b826001600160a01b03166352d1902d6040518163ffffffff1660e01b8152600401602060405180830381865afa925050508015611117575060408051601f3d908101601f19168201909252611114918101906119e8565b60015b61117a5760405162461bcd60e51b815260206004820152602e60248201527f45524331393637557067726164653a206e657720696d706c656d656e7461746960448201526d6f6e206973206e6f74205555505360901b60648201526084016105de565b600080516020611ae983398151915281146111e95760405162461bcd60e51b815260206004820152602960248201527f45524331393637557067726164653a20756e737570706f727465642070726f786044820152681a58589b195555525160ba1b60648201526084016105de565b5061107d8383836114a6565b6033546001600160a01b03163314610b125760405162461bcd60e51b815260206004820181905260248201527f4f776e61626c653a2063616c6c6572206973206e6f7420746865206f776e657260448201526064016105de565b603380546001600160a01b038381166001600160a01b0319831681179093556040519116919082907f8be0079c531659141344cd1fd0a4f28419497f9722a3daafe3b4186f6b6457e090600090a35050565b6040516001600160a01b03808516602483015283166044820152606481018290526112d99085906323b872dd60e01b90608401611046565b50505050565b600054610100900460ff166113065760405162461bcd60e51b81526004016105de90611a01565b610b126114cb565b600054610100900460ff16610b125760405162461bcd60e51b81526004016105de90611a01565b600061138a826040518060400160405280602081526020017f5361666545524332303a206c6f772d6c6576656c2063616c6c206661696c6564815250856001600160a01b03166114fb9092919063ffffffff16565b90508051600014806113ab5750808060200190518101906113ab9190611a4c565b61107d5760405162461bcd60e51b815260206004820152602a60248201527f5361666545524332303a204552433230206f7065726174696f6e20646964206e6044820152691bdd081cdd58d8d9595960b21b60648201526084016105de565b6001600160a01b0381163b6114775760405162461bcd60e51b815260206004820152602d60248201527f455243313936373a206e657720696d706c656d656e746174696f6e206973206e60448201526c1bdd08184818dbdb9d1c9858dd609a1b60648201526084016105de565b600080516020611ae983398151915280546001600160a01b0319166001600160a01b0392909216919091179055565b6114af83611512565b6000825111806114bc5750805b1561107d576112d98383611552565b600054610100900460ff166114f25760405162461bcd60e51b81526004016105de90611a01565b610b123361124f565b606061150a8484600085611580565b949350505050565b61151b8161140a565b6040516001600160a01b038216907fbc7cd75a20ee27fd9adebab32041f755214dbc6bffa90cc0225b39da2e5c2d3b90600090a250565b60606115778383604051806060016040528060278152602001611b096027913961165b565b90505b92915050565b6060824710156115e15760405162461bcd60e51b815260206004820152602660248201527f416464726573733a20696e73756666696369656e742062616c616e636520666f6044820152651c8818d85b1b60d21b60648201526084016105de565b600080866001600160a01b031685876040516115fd9190611a99565b60006040518083038185875af1925050503d806000811461163a576040519150601f19603f3d011682016040523d82523d6000602084013e61163f565b606091505b5091509150611650878383876116d3565b979650505050505050565b6060600080856001600160a01b0316856040516116789190611a99565b600060405180830381855af49150503d80600081146116b3576040519150601f19603f3d011682016040523d82523d6000602084013e6116b8565b606091505b50915091506116c9868383876116d3565b9695505050505050565b6060831561174257825160000361173b576001600160a01b0385163b61173b5760405162461bcd60e51b815260206004820152601d60248201527f416464726573733a2063616c6c20746f206e6f6e2d636f6e747261637400000060448201526064016105de565b508161150a565b61150a83838151156117575781518083602001fd5b8060405162461bcd60e51b81526004016105de9190611ab5565b80356001600160a01b038116811461178857600080fd5b919050565b60006020828403121561179f57600080fd5b61157782611771565b6000602082840312156117ba57600080fd5b5035919050565b634e487b7160e01b600052604160045260246000fd5b600080604083850312156117ea57600080fd5b6117f383611771565b9150602083013567ffffffffffffffff8082111561181057600080fd5b818501915085601f83011261182457600080fd5b813581811115611836576118366117c1565b604051601f8201601f19908116603f0116810190838211818310171561185e5761185e6117c1565b8160405282815288602084870101111561187757600080fd5b8260208601602083013760006020848301015280955050505050509250929050565b600080600080608085870312156118af57600080fd5b6118b885611771565b93506118c660208601611771565b93969395505050506040820135916060013590565b634e487b7160e01b600052601160045260246000fd5b8181038181111561157a5761157a6118db565b808202811582820484141761157a5761157a6118db565b60008261193857634e487b7160e01b600052601260045260246000fd5b500490565b8082018082111561157a5761157a6118db565b6020808252602c908201527f46756e6374696f6e206d7573742062652063616c6c6564207468726f7567682060408201526b19195b1959d85d1958d85b1b60a21b606082015260800190565b6020808252602c908201527f46756e6374696f6e206d7573742062652063616c6c6564207468726f7567682060408201526b6163746976652070726f787960a01b606082015260800190565b6000602082840312156119fa57600080fd5b5051919050565b6020808252602b908201527f496e697469616c697a61626c653a20636f6e7472616374206973206e6f74206960408201526a6e697469616c697a696e6760a81b606082015260800190565b600060208284031215611a5e57600080fd5b81518015158114611a6e57600080fd5b9392505050565b60005b83811015611a90578181015183820152602001611a78565b50506000910152565b60008251611aab818460208701611a75565b9190910192915050565b6020815260008251806020840152611ad4816040850160208701611a75565b601f01601f1916919091016040019291505056fe360894a13ba1a3210667c828492db98dca3e2076cc3735a920a3ca505d382bbc416464726573733a206c6f772d6c6576656c2064656c65676174652063616c6c206661696c6564a264697066735822122084c57ed7ab24c0edc3dd687461a7f69dc1aed88d7c97ab5f732b02326d3d0d6864736f6c63430008150033",
  "linkReferences": {},
  "deployedLinkReferences": {}
}