{
  "_format": "hh-sol-artifact-1",
  "contractName": "MockEURCUpgradeable",
  "sourceName": "contracts/MockEURCUpgradeable.sol",
  "abi": [
    {
      "inputs": [],
      "stateMutability": "nonpayable",
      "type": "constructor"
    },
    {
      "anonymous": false,
      "inputs": [
        {
          "indexed": false,
          "internalType": "address",
          "name": "previousAdmin",
          "type": "address"
        },
        {
          "indexed": false,
          "internalType": "address",
          "name": "newAdmin",
          "type": "address"
        }
      ],
      "name": "AdminChanged",
      "type": "event"
    },
    {
      "anonymous": false,
      "inputs": [
        {
          "indexed": true,
          "internalType": "address",
          "name": "owner",
          "type": "address"
        },
        {
          "indexed": true,
          "internalType": "address",
          "name": "spender",
          "type": "address"
        },
        {
          "indexed": false,
          "internalType": "uint256",
          "name": "value",
          "type": "uint256"
        }
      ],
      "name": "Approval",
      "type": "event"
    },
    {
      "anonymous": false,
      "inputs": [
        {
          "indexed": true,
          "internalType": "address",
          "name": "beacon",
          "type": "address"
        }
      ],
      "name": "BeaconUpgraded",
      "type": "event"
    },
    {
      "anonymous": false,
      "inputs": [
        {
          "indexed": false,
          "internalType": "uint8",
          "name": "version",
          "type": "uint8"
        }
      ],
      "name": "Initialized",
      "type": "event"
    },
    {
      "anonymous": false,
      "inputs": [
        {
          "indexed": true,
          "internalType": "address",
          "name": "previousOwner",
          "type": "address"
        },
        {
          "indexed": true,
          "internalType": "address",
          "name": "newOwner",
          "type": "address"
        }
      ],
      "name": "OwnershipTransferred",
      "type": "event"
    },
    {
      "anonymous": false,
      "inputs": [
        {
          "indexed": true,
          "internalType": "address",
          "name": "from",
          "type": "address"
        },
        {
          "indexed": true,
          "internalType": "address",
          "name": "to",
          "type": "address"
        },
        {
          "indexed": false,
          "internalType": "uint256",
          "name": "value",
          "type": "uint256"
        }
      ],
      "name": "Transfer",
      "type": "event"
    },
    {
      "anonymous": false,
      "inputs": [
        {
          "indexed": true,
          "internalType": "address",
          "name": "implementation",
          "type": "address"
        }
      ],
      "name": "Upgraded",
      "type": "event"
    },
    {
      "inputs": [
        {
          "internalType": "address",
          "name": "owner",
          "type": "address"
        },
        {
          "internalType": "address",
          "name": "spender",
          "type": "address"
        }
      ],
      "name": "allowance",
      "outputs": [
        {
          "internalType": "uint256",
          "name": "",
          "type": "uint256"
        }
      ],
      "stateMutability": "view",
      "type": "function"
    },
    {
      "inputs": [
        {
          "internalType": "address",
          "name": "spender",
          "type": "address"
        },
        {
          "internalType": "uint256",
          "name": "amount",
          "type": "uint256"
        }
      ],
      "name": "approve",
      "outputs": [
        {
          "internalType": "bool",
          "name": "",
          "type": "bool"
        }
      ],
      "stateMutability": "nonpayable",
      "type": "function"
    },
    {
      "inputs": [
        {
          "internalType": "address",
          "name": "account",
          "type": "address"
        }
      ],
      "name": "balanceOf",
      "outputs": [
        {
          "internalType": "uint256",
          "name": "",
          "type": "uint256"
        }
      ],
      "stateMutability": "view",
      "type": "function"
    },
    {
      "inputs": [],
      "name": "decimals",
      "outputs": [
        {
          "internalType": "uint8",
          "name": "",
          "type": "uint8"
        }
      ],
      "stateMutability": "pure",
      "type": "function"
    },
    {
      "inputs": [
        {
          "internalType": "address",
          "name": "spender",
          "type": "address"
        },
        {
          "internalType": "uint256",
          "name": "subtractedValue",
          "type": "uint256"
        }
      ],
      "name": "decreaseAllowance",
      "outputs": [
        {
          "internalType": "bool",
          "name": "",
          "type": "bool"
        }
      ],
      "stateMutability": "nonpayable",
      "type": "function"
    },
    {
      "inputs": [
        {
          "internalType": "address",
          "name": "spender",
          "type": "address"
        },
        {
          "internalType": "uint256",
          "name": "addedValue",
          "type": "uint256"
        }
      ],
      "name": "increaseAllowance",
      "outputs": [
        {
          "internalType": "bool",
          "name": "",
          "type": "bool"
        }
      ],
      "stateMutability": "nonpayable",
      "type": "function"
    },
    {
      "inputs": [
        {
          "internalType": "address",
          "name": "initialOwner",
          "type": "address"
        }
      ],
      "name": "initialize",
      "outputs": [],
      "stateMutability": "nonpayable",
      "type": "function"
    },
    {
      "inputs": [
        {
          "internalType": "address",
          "name": "to",
          "type": "address"
        },
        {
          "internalType": "uint256",
          "name": "amount",
          "type": "uint256"
        }
      ],
      "name": "mint",
      "outputs": [],
      "stateMutability": "nonpayable",
      "type": "function"
    },
    {
      "inputs": [],
      "name": "name",
      "outputs": [
        {
          "internalType": "string",
          "name": "",
          "type": "string"
        }
      ],
      "stateMutability": "view",
      "type": "function"
    },
    {
      "inputs": [],
      "name": "owner",
      "outputs": [
        {
          "internalType": "address",
          "name": "",
          "type": "address"
        }
      ],
      "stateMutability": "view",
      "type": "function"
    },
    {
      "inputs": [],
      "name": "proxiableUUID",
      "outputs": [
        {
          "internalType": "bytes32",
          "name": "",
          "type": "bytes32"
        }
      ],
      "stateMutability": "view",
      "type": "function"
    },
    {
      "inputs": [],
      "name": "renounceOwnership",
      "outputs": [],
      "stateMutability": "nonpayable",
      "type": "function"
    },
    {
      "inputs": [],
      "name": "symbol",
      "outputs": [
        {
          "internalType": "string",
          "name": "",
          "type": "string"
        }
      ],
      "stateMutability": "view",
      "type": "function"
    },
    {
      "inputs": [],
      "name": "totalSupply",
      "outputs": [
        {
          "internalType": "uint256",
          "name": "",
          "type": "uint256"
        }
      ],
      "stateMutability": "view",
      "type": "function"
    },
    {
      "inputs": [
        {
          "internalType": "address",
          "name": "to",
          "type": "address"
        },
        {
          "internalType": "uint256",
          "name": "amount",
          "type": "uint256"
        }
      ],
      "name": "transfer",
      "outputs": [
        {
          "internalType": "bool",
          "name": "",
          "type": "bool"
        }
      ],
      "stateMutability": "nonpayable",
      "type": "function"
    },
    {
      "inputs": [
        {
          "internalType": "address",
          "name": "from",
          "type": "address"
        },
        {
          "internalType": "address",
          "name": "to",
          "type": "address"
        },
        {
          "internalType": "uint256",
          "name": "amount",
          "type": "uint256"
        }
      ],
      "name": "transferFrom",
      "outputs": [
        {
          "internalType": "bool",
          "name": "",
          "type": "bool"
        }
      ],
      "stateMutability": "nonpayable",
      "type": "function"
    },
    {
      "inputs": [
        {
          "internalType": "address",
          "name": "newOwner",
          "type": "address"
        }
      ],
      "name": "transferOwnership",
      "outputs": [],
      "stateMutability": "nonpayable",
      "type": "function"
    },
    {
      "inputs": [
        {
          "internalType": "address",
          "name": "newImplementation",
          "type": "address"
        }
      ],
      "name": "upgradeTo",
      "outputs": [],
      "stateMutability": "nonpayable",
      "type": "function"
    },
    {
      "inputs": [
        {
          "internalType": "address",
          "name": "newImplementation",
          "type": "address"
        },
        {
          "internalType": "bytes",
          "name": "data",
          "type": "bytes"
        }
      ],
      "name": "upgradeToAndCall",
      "outputs": [],
      "stateMutability": "payable",
      "type": "function"
    }
  ],
  "bytecode": "0x60a06040523073ffffffffffffffffffffffffffffffffffffffff1660809073ffffffffffffffffffffffffffffffffffffffff168152503480156200004457600080fd5b5062000061678b32c694dd8f394b60c01b620000af60201b60201c565b6200007d67b04d14da1cbd0d7c60c01b620000af60201b60201c565b6200009967bb7eef9a93c4381d60c01b620000af60201b60201c565b620000a9620000b260201b60201c565b6200025c565b50565b600060019054906101000a900460ff161562000105576040517f08c379a0000000000000000000000000000000000000000000000000000000008152600401620000fc90620001ff565b60405180910390fd5b60ff801660008054906101000a900460ff1660ff1614620001765760ff6000806101000a81548160ff021916908360ff1602179055507f7f26b83ff96e1f2b6a682f133852f6798a09c465da95921460cefb384740249860ff6040516200016d91906200023f565b60405180910390a15b565b600082825260208201905092915050565b7f496e697469616c697a61626c653a20636f6e747261637420697320696e69746960008201527f616c697a696e6700000000000000000000000000000000000000000000000000602082015250565b6000620001e760278362000178565b9150620001f48262000189565b604082019050919050565b600060208201905081810360008301526200021a81620001d8565b9050919050565b600060ff82169050919050565b620002398162000221565b82525050565b60006020820190506200025660008301846200022e565b92915050565b60805161337f62000294600039600081816105d2015281816106600152818161080b015281816108990152610949015261337f6000f3fe6080604052600436106101145760003560e01c806352d1902d116100a0578063a457c2d711610064578063a457c2d714610394578063a9059cbb146103d1578063c4d66de81461040e578063dd62ed3e14610437578063f2fde38b1461047457610114565b806352d1902d146102bf57806370a08231146102ea578063715018a6146103275780638da5cb5b1461033e57806395d89b411461036957610114565b8063313ce567116100e7578063313ce567146101e95780633659cfe614610214578063395093511461023d57806340c10f191461027a5780634f1ef286146102a357610114565b806306fdde0314610119578063095ea7b31461014457806318160ddd1461018157806323b872dd146101ac575b600080fd5b34801561012557600080fd5b5061012e61049d565b60405161013b9190611e86565b60405180910390f35b34801561015057600080fd5b5061016b60048036038101906101669190611f50565b61052f565b6040516101789190611fab565b60405180910390f35b34801561018d57600080fd5b50610196610552565b6040516101a39190611fd5565b60405180910390f35b3480156101b857600080fd5b506101d360048036038101906101ce9190611ff0565b61055c565b6040516101e09190611fab565b60405180910390f35b3480156101f557600080fd5b506101fe61058b565b60405161020b919061205f565b60405180910390f35b34801561022057600080fd5b5061023b6004803603810190610236919061207a565b6105d0565b005b34801561024957600080fd5b50610264600480360381019061025f9190611f50565b610758565b6040516102719190611fab565b60405180910390f35b34801561028657600080fd5b506102a1600480360381019061029c9190611f50565b61078f565b005b6102bd60048036038101906102b891906121dc565b610809565b005b3480156102cb57600080fd5b506102d4610945565b6040516102e19190612251565b60405180910390f35b3480156102f657600080fd5b50610311600480360381019061030c919061207a565b6109fe565b60405161031e9190611fd5565b60405180910390f35b34801561033357600080fd5b5061033c610a47565b005b34801561034a57600080fd5b50610353610a5b565b604051610360919061227b565b60405180910390f35b34801561037557600080fd5b5061037e610a85565b60405161038b9190611e86565b60405180910390f35b3480156103a057600080fd5b506103bb60048036038101906103b69190611f50565b610b17565b6040516103c89190611fab565b60405180910390f35b3480156103dd57600080fd5b506103f860048036038101906103f39190611f50565b610b8e565b6040516104059190611fab565b60405180910390f35b34801561041a57600080fd5b506104356004803603810190610430919061207a565b610bb1565b005b34801561044357600080fd5b5061045e60048036038101906104599190612296565b610ea4565b60405161046b9190611fd5565b60405180910390f35b34801561048057600080fd5b5061049b6004803603810190610496919061207a565b610f2b565b005b6060603680546104ac90612305565b80601f01602080910402602001604051908101604052809291908181526020018280546104d890612305565b80156105255780601f106104fa57610100808354040283529160200191610525565b820191906000526020600020905b81548152906001019060200180831161050857829003601f168201915b5050505050905090565b60008061053a610fae565b9050610547818585610fb6565b600191505092915050565b6000603554905090565b600080610567610fae565b905061057485828561117f565b61057f85858561120b565b60019150509392505050565b60006105a167df293c7f88bd823060c01b611484565b6105b5673c282aa7c00beedc60c01b611484565b6105c96783c6bfdf5148ec9260c01b611484565b6006905090565b7f000000000000000000000000000000000000000000000000000000000000000073ffffffffffffffffffffffffffffffffffffffff163073ffffffffffffffffffffffffffffffffffffffff160361065e576040517f08c379a0000000000000000000000000000000000000000000000000000000008152600401610655906123a8565b60405180910390fd5b7f000000000000000000000000000000000000000000000000000000000000000073ffffffffffffffffffffffffffffffffffffffff1661069d611487565b73ffffffffffffffffffffffffffffffffffffffff16146106f3576040517f08c379a00000000000000000000000000000000000000000000000000000000081526004016106ea9061243a565b60405180910390fd5b6106fc816114de565b61075581600067ffffffffffffffff81111561071b5761071a6120b1565b5b6040519080825280601f01601f19166020018201604052801561074d5781602001600182028036833780820191505090505b506000611525565b50565b600080610763610fae565b90506107848185856107758589610ea4565b61077f9190612489565b610fb6565b600191505092915050565b6107a36740482bc134df1a2560c01b611484565b6107ab611693565b6107bf679458ec7acb2f023e60c01b611484565b6107d3675f45c0d3f9ddbd5a60c01b611484565b6107e7674cba3619e9b43cb260c01b611484565b6107fb6703d552c1ba1ec32260c01b611484565b6108058282611711565b5050565b7f000000000000000000000000000000000000000000000000000000000000000073ffffffffffffffffffffffffffffffffffffffff163073ffffffffffffffffffffffffffffffffffffffff1603610897576040517f08c379a000000000000000000000000000000000000000000000000000000000815260040161088e906123a8565b60405180910390fd5b7f000000000000000000000000000000000000000000000000000000000000000073ffffffffffffffffffffffffffffffffffffffff166108d6611487565b73ffffffffffffffffffffffffffffffffffffffff161461092c576040517f08c379a00000000000000000000000000000000000000000000000000000000081526004016109239061243a565b60405180910390fd5b610935826114de565b61094182826001611525565b5050565b60007f000000000000000000000000000000000000000000000000000000000000000073ffffffffffffffffffffffffffffffffffffffff163073ffffffffffffffffffffffffffffffffffffffff16146109d5576040517f08c379a00000000000000000000000000000000000000000000000000000000081526004016109cc9061252f565b60405180910390fd5b7f360894a13ba1a3210667c828492db98dca3e2076cc3735a920a3ca505d382bbc60001b905090565b6000603360008373ffffffffffffffffffffffffffffffffffffffff1673ffffffffffffffffffffffffffffffffffffffff168152602001908152602001600020549050919050565b610a4f611693565b610a596000611868565b565b6000606560009054906101000a900473ffffffffffffffffffffffffffffffffffffffff16905090565b606060378054610a9490612305565b80601f0160208091040260200160405190810160405280929190818152602001828054610ac090612305565b8015610b0d5780601f10610ae257610100808354040283529160200191610b0d565b820191906000526020600020905b815481529060010190602001808311610af057829003601f168201915b5050505050905090565b600080610b22610fae565b90506000610b308286610ea4565b905083811015610b75576040517f08c379a0000000000000000000000000000000000000000000000000000000008152600401610b6c906125c1565b60405180910390fd5b610b828286868403610fb6565b60019250505092915050565b600080610b99610fae565b9050610ba681858561120b565b600191505092915050565b610bc567b7acc6a2ef57587860c01b611484565b60008060019054906101000a900460ff16159050808015610bf65750600160008054906101000a900460ff1660ff16105b80610c235750610c053061192e565b158015610c225750600160008054906101000a900460ff1660ff16145b5b610c62576040517f08c379a0000000000000000000000000000000000000000000000000000000008152600401610c5990612653565b60405180910390fd5b60016000806101000a81548160ff021916908360ff1602179055508015610c9f576001600060016101000a81548160ff0219169083151502179055505b610cb367d31101be229080b360c01b611484565b610cc76730a3478e69270dd460c01b611484565b610cdb672fa45a3c05acfa6960c01b611484565b610cef6703f96a2a15db952660c01b611484565b610d636040518060400160405280600981526020017f4d6f636b204555524300000000000000000000000000000000000000000000008152506040518060400160405280600481526020017f4555524300000000000000000000000000000000000000000000000000000000815250611951565b610d776729e22f8ad95a7b8c60c01b611484565b610d8b671a7583a6cc530fd160c01b611484565b610d936119ae565b610da76789ad996df69a9e0060c01b611484565b610dbb67c9504685c4019f7a60c01b611484565b610dc3611a07565b610dd76730e4acbb1038df9d60c01b611484565b610deb6737a4af6fecd2122e60c01b611484565b610df482611868565b610e086723e6510c279d343260c01b611484565b610e1c674a1c4a0df7326fd460c01b611484565b610e4782610e2861058b565b600a610e3491906127a6565b620f4240610e4291906127f1565b611711565b8015610ea05760008060016101000a81548160ff0219169083151502179055507f7f26b83ff96e1f2b6a682f133852f6798a09c465da95921460cefb38474024986001604051610e979190612878565b60405180910390a15b5050565b6000603460008473ffffffffffffffffffffffffffffffffffffffff1673ffffffffffffffffffffffffffffffffffffffff16815260200190815260200160002060008373ffffffffffffffffffffffffffffffffffffffff1673ffffffffffffffffffffffffffffffffffffffff16815260200190815260200160002054905092915050565b610f33611693565b600073ffffffffffffffffffffffffffffffffffffffff168173ffffffffffffffffffffffffffffffffffffffff1603610fa2576040517f08c379a0000000000000000000000000000000000000000000000000000000008152600401610f9990612905565b60405180910390fd5b610fab81611868565b50565b600033905090565b600073ffffffffffffffffffffffffffffffffffffffff168373ffffffffffffffffffffffffffffffffffffffff1603611025576040517f08c379a000000000000000000000000000000000000000000000000000000000815260040161101c90612997565b60405180910390fd5b600073ffffffffffffffffffffffffffffffffffffffff168273ffffffffffffffffffffffffffffffffffffffff1603611094576040517f08c379a000000000000000000000000000000000000000000000000000000000815260040161108b90612a29565b60405180910390fd5b80603460008573ffffffffffffffffffffffffffffffffffffffff1673ffffffffffffffffffffffffffffffffffffffff16815260200190815260200160002060008473ffffffffffffffffffffffffffffffffffffffff1673ffffffffffffffffffffffffffffffffffffffff168152602001908152602001600020819055508173ffffffffffffffffffffffffffffffffffffffff168373ffffffffffffffffffffffffffffffffffffffff167f8c5be1e5ebec7d5bd14f71427d1e84f3dd0314c0f7b2291e5b200ac8c7c3b925836040516111729190611fd5565b60405180910390a3505050565b600061118b8484610ea4565b90507fffffffffffffffffffffffffffffffffffffffffffffffffffffffffffffffff811461120557818110156111f7576040517f08c379a00000000000000000000000000000000000000000000000000000000081526004016111ee90612a95565b60405180910390fd5b6112048484848403610fb6565b5b50505050565b600073ffffffffffffffffffffffffffffffffffffffff168373ffffffffffffffffffffffffffffffffffffffff160361127a576040517f08c379a000000000000000000000000000000000000000000000000000000000815260040161127190612b27565b60405180910390fd5b600073ffffffffffffffffffffffffffffffffffffffff168273ffffffffffffffffffffffffffffffffffffffff16036112e9576040517f08c379a00000000000000000000000000000000000000000000000000000000081526004016112e090612bb9565b60405180910390fd5b6112f4838383611a58565b6000603360008573ffffffffffffffffffffffffffffffffffffffff1673ffffffffffffffffffffffffffffffffffffffff1681526020019081526020016000205490508181101561137b576040517f08c379a000000000000000000000000000000000000000000000000000000000815260040161137290612c4b565b60405180910390fd5b818103603360008673ffffffffffffffffffffffffffffffffffffffff1673ffffffffffffffffffffffffffffffffffffffff1681526020019081526020016000208190555081603360008573ffffffffffffffffffffffffffffffffffffffff1673ffffffffffffffffffffffffffffffffffffffff168152602001908152602001600020600082825401925050819055508273ffffffffffffffffffffffffffffffffffffffff168473ffffffffffffffffffffffffffffffffffffffff167fddf252ad1be2c89b69c2b068fc378daa952ba7f163c4a11628f55a4df523b3ef8460405161146b9190611fd5565b60405180910390a361147e848484611a5d565b50505050565b50565b60006114b57f360894a13ba1a3210667c828492db98dca3e2076cc3735a920a3ca505d382bbc60001b611a62565b60000160009054906101000a900473ffffffffffffffffffffffffffffffffffffffff16905090565b6114f2675f23396a683074c160c01b611484565b6114fa611693565b61150e67475ad746f776bf9960c01b611484565b61152267d108fc99de68d31c60c01b611484565b50565b6115517f4910fdfa16fed3260ed0e7147f7cc6da11a60208b5b9406d12a635614ffd914360001b611a6c565b60000160009054906101000a900460ff16156115755761157083611a76565b61168e565b8273ffffffffffffffffffffffffffffffffffffffff166352d1902d6040518163ffffffff1660e01b8152600401602060405180830381865afa9250505080156115dd57506040513d601f19601f820116820180604052508101906115da9190612c97565b60015b61161c576040517f08c379a000000000000000000000000000000000000000000000000000000000815260040161161390612d36565b60405180910390fd5b7f360894a13ba1a3210667c828492db98dca3e2076cc3735a920a3ca505d382bbc60001b8114611681576040517f08c379a000000000000000000000000000000000000000000000000000000000815260040161167890612dc8565b60405180910390fd5b5061168d838383611b2f565b5b505050565b61169b610fae565b73ffffffffffffffffffffffffffffffffffffffff166116b9610a5b565b73ffffffffffffffffffffffffffffffffffffffff161461170f576040517f08c379a000000000000000000000000000000000000000000000000000000000815260040161170690612e34565b60405180910390fd5b565b600073ffffffffffffffffffffffffffffffffffffffff168273ffffffffffffffffffffffffffffffffffffffff1603611780576040517f08c379a000000000000000000000000000000000000000000000000000000000815260040161177790612ea0565b60405180910390fd5b61178c60008383611a58565b806035600082825461179e9190612489565b9250508190555080603360008473ffffffffffffffffffffffffffffffffffffffff1673ffffffffffffffffffffffffffffffffffffffff168152602001908152602001600020600082825401925050819055508173ffffffffffffffffffffffffffffffffffffffff16600073ffffffffffffffffffffffffffffffffffffffff167fddf252ad1be2c89b69c2b068fc378daa952ba7f163c4a11628f55a4df523b3ef836040516118509190611fd5565b60405180910390a361186460008383611a5d565b5050565b6000606560009054906101000a900473ffffffffffffffffffffffffffffffffffffffff16905081606560006101000a81548173ffffffffffffffffffffffffffffffffffffffff021916908373ffffffffffffffffffffffffffffffffffffffff1602179055508173ffffffffffffffffffffffffffffffffffffffff168173ffffffffffffffffffffffffffffffffffffffff167f8be0079c531659141344cd1fd0a4f28419497f9722a3daafe3b4186f6b6457e060405160405180910390a35050565b6000808273ffffffffffffffffffffffffffffffffffffffff163b119050919050565b600060019054906101000a900460ff166119a0576040517f08c379a000000000000000000000000000000000000000000000000000000000815260040161199790612f32565b60405180910390fd5b6119aa8282611b5b565b5050565b600060019054906101000a900460ff166119fd576040517f08c379a00000000000000000000000000000000000000000000000000000000081526004016119f490612f32565b60405180910390fd5b611a05611bce565b565b600060019054906101000a900460ff16611a56576040517f08c379a0000000000000000000000000000000000000000000000000000000008152600401611a4d90612f32565b60405180910390fd5b565b505050565b505050565b6000819050919050565b6000819050919050565b611a7f8161192e565b611abe576040517f08c379a0000000000000000000000000000000000000000000000000000000008152600401611ab590612fc4565b60405180910390fd5b80611aeb7f360894a13ba1a3210667c828492db98dca3e2076cc3735a920a3ca505d382bbc60001b611a62565b60000160006101000a81548173ffffffffffffffffffffffffffffffffffffffff021916908373ffffffffffffffffffffffffffffffffffffffff16021790555050565b611b3883611c2f565b600082511180611b455750805b15611b5657611b548383611c7e565b505b505050565b600060019054906101000a900460ff16611baa576040517f08c379a0000000000000000000000000000000000000000000000000000000008152600401611ba190612f32565b60405180910390fd5b8160369081611bb99190613186565b508060379081611bc99190613186565b505050565b600060019054906101000a900460ff16611c1d576040517f08c379a0000000000000000000000000000000000000000000000000000000008152600401611c1490612f32565b60405180910390fd5b611c2d611c28610fae565b611868565b565b611c3881611a76565b8073ffffffffffffffffffffffffffffffffffffffff167fbc7cd75a20ee27fd9adebab32041f755214dbc6bffa90cc0225b39da2e5c2d3b60405160405180910390a250565b6060611ca3838360405180606001604052806027815260200161332360279139611cab565b905092915050565b60606000808573ffffffffffffffffffffffffffffffffffffffff1685604051611cd5919061329f565b600060405180830381855af49150503d8060008114611d10576040519150601f19603f3d011682016040523d82523d6000602084013e611d15565b606091505b5091509150611d2686838387611d31565b925050509392505050565b60608315611d93576000835103611d8b57611d4b8561192e565b611d8a576040517f08c379a0000000000000000000000000000000000000000000000000000000008152600401611d8190613302565b60405180910390fd5b5b829050611d9e565b611d9d8383611da6565b5b949350505050565b600082511115611db95781518083602001fd5b806040517f08c379a0000000000000000000000000000000000000000000000000000000008152600401611ded9190611e86565b60405180910390fd5b600081519050919050565b600082825260208201905092915050565b60005b83811015611e30578082015181840152602081019050611e15565b60008484015250505050565b6000601f19601f8301169050919050565b6000611e5882611df6565b611e628185611e01565b9350611e72818560208601611e12565b611e7b81611e3c565b840191505092915050565b60006020820190508181036000830152611ea08184611e4d565b905092915050565b6000604051905090565b600080fd5b600080fd5b600073ffffffffffffffffffffffffffffffffffffffff82169050919050565b6000611ee782611ebc565b9050919050565b611ef781611edc565b8114611f0257600080fd5b50565b600081359050611f1481611eee565b92915050565b6000819050919050565b611f2d81611f1a565b8114611f3857600080fd5b50565b600081359050611f4a81611f24565b92915050565b60008060408385031215611f6757611f66611eb2565b5b6000611f7585828601611f05565b9250506020611f8685828601611f3b565b9150509250929050565b60008115159050919050565b611fa581611f90565b82525050565b6000602082019050611fc06000830184611f9c565b92915050565b611fcf81611f1a565b82525050565b6000602082019050611fea6000830184611fc6565b92915050565b60008060006060848603121561200957612008611eb2565b5b600061201786828701611f05565b935050602061202886828701611f05565b925050604061203986828701611f3b565b9150509250925092565b600060ff82169050919050565b61205981612043565b82525050565b60006020820190506120746000830184612050565b92915050565b6000602082840312156120905761208f611eb2565b5b600061209e84828501611f05565b91505092915050565b600080fd5b600080fd5b7f4e487b7100000000000000000000000000000000000000000000000000000000600052604160045260246000fd5b6120e982611e3c565b810181811067ffffffffffffffff82111715612108576121076120b1565b5b80604052505050565b600061211b611ea8565b905061212782826120e0565b919050565b600067ffffffffffffffff821115612147576121466120b1565b5b61215082611e3c565b9050602081019050919050565b82818337600083830152505050565b600061217f61217a8461212c565b612111565b90508281526020810184848401111561219b5761219a6120ac565b5b6121a684828561215d565b509392505050565b600082601f8301126121c3576121c26120a7565b5b81356121d384826020860161216c565b91505092915050565b600080604083850312156121f3576121f2611eb2565b5b600061220185828601611f05565b925050602083013567ffffffffffffffff81111561222257612221611eb7565b5b61222e858286016121ae565b9150509250929050565b6000819050919050565b61224b81612238565b82525050565b60006020820190506122666000830184612242565b92915050565b61227581611edc565b82525050565b6000602082019050612290600083018461226c565b92915050565b600080604083850312156122ad576122ac611eb2565b5b60006122bb85828601611f05565b92505060206122cc85828601611f05565b9150509250929050565b7f4e487b7100000000000000000000000000000000000000000000000000000000600052602260045260246000fd5b6000600282049050600182168061231d57607f821691505b6020821081036123305761232f6122d6565b5b50919050565b7f46756e6374696f6e206d7573742062652063616c6c6564207468726f7567682060008201527f64656c656761746563616c6c0000000000000000000000000000000000000000602082015250565b6000612392602c83611e01565b915061239d82612336565b604082019050919050565b600060208201905081810360008301526123c181612385565b9050919050565b7f46756e6374696f6e206d7573742062652063616c6c6564207468726f7567682060008201527f6163746976652070726f78790000000000000000000000000000000000000000602082015250565b6000612424602c83611e01565b915061242f826123c8565b604082019050919050565b6000602082019050818103600083015261245381612417565b9050919050565b7f4e487b7100000000000000000000000000000000000000000000000000000000600052601160045260246000fd5b600061249482611f1a565b915061249f83611f1a565b92508282019050808211156124b7576124b661245a565b5b92915050565b7f555550535570677261646561626c653a206d757374206e6f742062652063616c60008201527f6c6564207468726f7567682064656c656761746563616c6c0000000000000000602082015250565b6000612519603883611e01565b9150612524826124bd565b604082019050919050565b600060208201905081810360008301526125488161250c565b9050919050565b7f45524332303a2064656372656173656420616c6c6f77616e63652062656c6f7760008201527f207a65726f000000000000000000000000000000000000000000000000000000602082015250565b60006125ab602583611e01565b91506125b68261254f565b604082019050919050565b600060208201905081810360008301526125da8161259e565b9050919050565b7f496e697469616c697a61626c653a20636f6e747261637420697320616c72656160008201527f647920696e697469616c697a6564000000000000000000000000000000000000602082015250565b600061263d602e83611e01565b9150612648826125e1565b604082019050919050565b6000602082019050818103600083015261266c81612630565b9050919050565b60008160011c9050919050565b6000808291508390505b60018511156126ca578086048111156126a6576126a561245a565b5b60018516156126b55780820291505b80810290506126c385612673565b945061268a565b94509492505050565b6000826126e3576001905061279f565b816126f1576000905061279f565b8160018114612707576002811461271157612740565b600191505061279f565b60ff8411156127235761272261245a565b5b8360020a91508482111561273a5761273961245a565b5b5061279f565b5060208310610133831016604e8410600b84101617156127755782820a9050838111156127705761276f61245a565b5b61279f565b6127828484846001612680565b925090508184048111156127995761279861245a565b5b81810290505b9392505050565b60006127b182611f1a565b91506127bc83612043565b92506127e97fffffffffffffffffffffffffffffffffffffffffffffffffffffffffffffffff84846126d3565b905092915050565b60006127fc82611f1a565b915061280783611f1a565b925082820261281581611f1a565b9150828204841483151761282c5761282b61245a565b5b5092915050565b6000819050919050565b6000819050919050565b600061286261285d61285884612833565b61283d565b612043565b9050919050565b61287281612847565b82525050565b600060208201905061288d6000830184612869565b92915050565b7f4f776e61626c653a206e6577206f776e657220697320746865207a65726f206160008201527f6464726573730000000000000000000000000000000000000000000000000000602082015250565b60006128ef602683611e01565b91506128fa82612893565b604082019050919050565b6000602082019050818103600083015261291e816128e2565b9050919050565b7f45524332303a20617070726f76652066726f6d20746865207a65726f2061646460008201527f7265737300000000000000000000000000000000000000000000000000000000602082015250565b6000612981602483611e01565b915061298c82612925565b604082019050919050565b600060208201905081810360008301526129b081612974565b9050919050565b7f45524332303a20617070726f766520746f20746865207a65726f20616464726560008201527f7373000000000000000000000000000000000000000000000000000000000000602082015250565b6000612a13602283611e01565b9150612a1e826129b7565b604082019050919050565b60006020820190508181036000830152612a4281612a06565b9050919050565b7f45524332303a20696e73756666696369656e7420616c6c6f77616e6365000000600082015250565b6000612a7f601d83611e01565b9150612a8a82612a49565b602082019050919050565b60006020820190508181036000830152612aae81612a72565b9050919050565b7f45524332303a207472616e736665722066726f6d20746865207a65726f20616460008201527f6472657373000000000000000000000000000000000000000000000000000000602082015250565b6000612b11602583611e01565b9150612b1c82612ab5565b604082019050919050565b60006020820190508181036000830152612b4081612b04565b9050919050565b7f45524332303a207472616e7366657220746f20746865207a65726f206164647260008201527f6573730000000000000000000000000000000000000000000000000000000000602082015250565b6000612ba3602383611e01565b9150612bae82612b47565b604082019050919050565b60006020820190508181036000830152612bd281612b96565b9050919050565b7f45524332303a207472616e7366657220616d6f756e742065786365656473206260008201527f616c616e63650000000000000000000000000000000000000000000000000000602082015250565b6000612c35602683611e01565b9150612c4082612bd9565b604082019050919050565b60006020820190508181036000830152612c6481612c28565b9050919050565b612c7481612238565b8114612c7f57600080fd5b50565b600081519050612c9181612c6b565b92915050565b600060208284031215612cad57612cac611eb2565b5b6000612cbb84828501612c82565b91505092915050565b7f45524331393637557067726164653a206e657720696d706c656d656e7461746960008201527f6f6e206973206e6f742055555053000000000000000000000000000000000000602082015250565b6000612d20602e83611e01565b9150612d2b82612cc4565b604082019050919050565b60006020820190508181036000830152612d4f81612d13565b9050919050565b7f45524331393637557067726164653a20756e737570706f727465642070726f7860008201527f6961626c65555549440000000000000000000000000000000000000000000000602082015250565b6000612db2602983611e01565b9150612dbd82612d56565b604082019050919050565b60006020820190508181036000830152612de181612da5565b9050919050565b7f4f776e61626c653a2063616c6c6572206973206e6f7420746865206f776e6572600082015250565b6000612e1e602083611e01565b9150612e2982612de8565b602082019050919050565b60006020820190508181036000830152612e4d81612e11565b9050919050565b7f45524332303a206d696e7420746f20746865207a65726f206164647265737300600082015250565b6000612e8a601f83611e01565b9150612e9582612e54565b602082019050919050565b60006020820190508181036000830152612eb981612e7d565b9050919050565b7f496e697469616c697a61626c653a20636f6e7472616374206973206e6f74206960008201527f6e697469616c697a696e67000000000000000000000000000000000000000000602082015250565b6000612f1c602b83611e01565b9150612f2782612ec0565b604082019050919050565b60006020820190508181036000830152612f4b81612f0f565b9050919050565b7f455243313936373a206e657720696d706c656d656e746174696f6e206973206e60008201527f6f74206120636f6e747261637400000000000000000000000000000000000000602082015250565b6000612fae602d83611e01565b9150612fb982612f52565b604082019050919050565b60006020820190508181036000830152612fdd81612fa1565b9050919050565b60008190508160005260206000209050919050565b60006020601f8301049050919050565b600082821b905092915050565b6000600883026130467fffffffffffffffffffffffffffffffffffffffffffffffffffffffffffffffff82613009565b6130508683613009565b95508019841693508086168417925050509392505050565b600061308361307e61307984611f1a565b61283d565b611f1a565b9050919050565b6000819050919050565b61309d83613068565b6130b16130a98261308a565b848454613016565b825550505050565b600090565b6130c66130b9565b6130d1818484613094565b505050565b5b818110156130f5576130ea6000826130be565b6001810190506130d7565b5050565b601f82111561313a5761310b81612fe4565b61311484612ff9565b81016020851015613123578190505b61313761312f85612ff9565b8301826130d6565b50505b505050565b600082821c905092915050565b600061315d6000198460080261313f565b1980831691505092915050565b6000613176838361314c565b9150826002028217905092915050565b61318f82611df6565b67ffffffffffffffff8111156131a8576131a76120b1565b5b6131b28254612305565b6131bd8282856130f9565b600060209050601f8311600181146131f057600084156131de578287015190505b6131e8858261316a565b865550613250565b601f1984166131fe86612fe4565b60005b8281101561322657848901518255600182019150602085019450602081019050613201565b86831015613243578489015161323f601f89168261314c565b8355505b6001600288020188555050505b505050505050565b600081519050919050565b600081905092915050565b600061327982613258565b6132838185613263565b9350613293818560208601611e12565b80840191505092915050565b60006132ab828461326e565b915081905092915050565b7f416464726573733a2063616c6c20746f206e6f6e2d636f6e7472616374000000600082015250565b60006132ec601d83611e01565b91506132f7826132b6565b602082019050919050565b6000602082019050818103600083015261331b816132df565b905091905056fe416464726573733a206c6f772d6c6576656c2064656c65676174652063616c6c206661696c6564a264697066735822122079505ae9c9cdaed715e7e3c8e2f5d80e430206b1b6b54334e51ec5774af79be864736f6c63430008150033",
  "linkReferences": {},
  "deployedLinkReferences": {}
}