{
  "_format": "hh-sol-artifact-1",
  "contractName": "MockEURCUpgradeable",
  "sourceName": "contracts/MockEURCUpgradeable.sol",
  "abi": [
    {
      "inputs": [],
      "stateMutability": "nonpayable",
      "type": "constructor"
    },
    {
      "anonymous": false,
      "inputs": [
        {
          "indexed": false,
          "internalType": "address",
          "name": "previousAdmin",
          "type": "address"
        },
        {
          "indexed": false,
          "internalType": "address",
          "name": "newAdmin",
          "type": "address"
        }
      ],
      "name": "AdminChanged",
      "type": "event"
    },
    {
      "anonymous": false,
      "inputs": [
        {
          "indexed": true,
          "internalType": "address",
          "name": "owner",
          "type": "address"
        },
        {
          "indexed": true,
          "internalType": "address",
          "name": "spender",
          "type": "address"
        },
        {
          "indexed": false,
          "internalType": "uint256",
          "name": "value",
          "type": "uint256"
        }
      ],
      "name": "Approval",
      "type": "event"
    },
    {
      "anonymous": false,
      "inputs": [
        {
          "indexed": true,
          "internalType": "address",
          "name": "beacon",
          "type": "address"
        }
      ],
      "name": "BeaconUpgraded",
      "type": "event"
    },
    {
      "anonymous": false,
      "inputs": [
        {
          "indexed": false,
          "internalType": "uint8",
          "name": "version",
          "type": "uint8"
        }
      ],
      "name": "Initialized",
      "type": "event"
    },
    {
      "anonymous": false,
      "inputs": [
        {
          "indexed": true,
          "internalType": "address",
          "name": "previousOwner",
          "type": "address"
        },
        {
          "indexed": true,
          "internalType": "address",
          "name": "newOwner",
          "type": "address"
        }
      ],
      "name": "OwnershipTransferred",
      "type": "event"
    },
    {
      "anonymous": false,
      "inputs": [
        {
          "indexed": true,
          "internalType": "address",
          "name": "from",
          "type": "address"
        },
        {
          "indexed": true,
          "internalType": "address",
          "name": "to",
          "type": "address"
        },
        {
          "indexed": false,
          "internalType": "uint256",
          "name": "value",
          "type": "uint256"
        }
      ],
      "name": "Transfer",
      "type": "event"
    },
    {
      "anonymous": false,
      "inputs": [
        {
          "indexed": true,
          "internalType": "address",
          "name": "implementation",
          "type": "address"
        }
      ],
      "name": "Upgraded",
      "type": "event"
    },
    {
      "inputs": [
        {
          "internalType": "address",
          "name": "owner",
          "type": "address"
        },
        {
          "internalType": "address",
          "name": "spender",
          "type": "address"
        }
      ],
      "name": "allowance",
      "outputs": [
        {
          "internalType": "uint256",
          "name": "",
          "type": "uint256"
        }
      ],
      "stateMutability": "view",
      "type": "function"
    },
    {
      "inputs": [
        {
          "internalType": "address",
          "name": "spender",
          "type": "address"
        },
        {
          "internalType": "uint256",
          "name": "amount",
          "type": "uint256"
        }
      ],
      "name": "approve",
      "outputs": [
        {
          "internalType": "bool",
          "name": "",
          "type": "bool"
        }
      ],
      "stateMutability": "nonpayable",
      "type": "function"
    },
    {
      "inputs": [
        {
          "internalType": "address",
          "name": "account",
          "type": "address"
        }
      ],
      "name": "balanceOf",
      "outputs": [
        {
          "internalType": "uint256",
          "name": "",
          "type": "uint256"
        }
      ],
      "stateMutability": "view",
      "type": "function"
    },
    {
      "inputs": [],
      "name": "decimals",
      "outputs": [
        {
          "internalType": "uint8",
          "name": "",
          "type": "uint8"
        }
      ],
      "stateMutability": "pure",
      "type": "function"
    },
    {
      "inputs": [
        {
          "internalType": "address",
          "name": "spender",
          "type": "address"
        },
        {
          "internalType": "uint256",
          "name": "subtractedValue",
          "type": "uint256"
        }
      ],
      "name": "decreaseAllowance",
      "outputs": [
        {
          "internalType": "bool",
          "name": "",
          "type": "bool"
        }
      ],
      "stateMutability": "nonpayable",
      "type": "function"
    },
    {
      "inputs": [
        {
          "internalType": "address",
          "name": "spender",
          "type": "address"
        },
        {
          "internalType": "uint256",
          "name": "addedValue",
          "type": "uint256"
        }
      ],
      "name": "increaseAllowance",
      "outputs": [
        {
          "internalType": "bool",
          "name": "",
          "type": "bool"
        }
      ],
      "stateMutability": "nonpayable",
      "type": "function"
    },
    {
      "inputs": [
        {
          "internalType": "address",
          "name": "initialOwner",
          "type": "address"
        }
      ],
      "name": "initialize",
      "outputs": [],
      "stateMutability": "nonpayable",
      "type": "function"
    },
    {
      "inputs": [
        {
          "internalType": "address",
          "name": "to",
          "type": "address"
        },
        {
          "internalType": "uint256",
          "name": "amount",
          "type": "uint256"
        }
      ],
      "name": "mint",
      "outputs": [],
      "stateMutability": "nonpayable",
      "type": "function"
    },
    {
      "inputs": [],
      "name": "name",
      "outputs": [
        {
          "internalType": "string",
          "name": "",
          "type": "string"
        }
      ],
      "stateMutability": "view",
      "type": "function"
    },
    {
      "inputs": [],
      "name": "owner",
      "outputs": [
        {
          "internalType": "address",
          "name": "",
          "type": "address"
        }
      ],
      "stateMutability": "view",
      "type": "function"
    },
    {
      "inputs": [],
      "name": "proxiableUUID",
      "outputs": [
        {
          "internalType": "bytes32",
          "name": "",
          "type": "bytes32"
        }
      ],
      "stateMutability": "view",
      "type": "function"
    },
    {
      "inputs": [],
      "name": "renounceOwnership",
      "outputs": [],
      "stateMutability": "nonpayable",
      "type": "function"
    },
    {
      "inputs": [],
      "name": "symbol",
      "outputs": [
        {
          "internalType": "string",
          "name": "",
          "type": "string"
        }
      ],
      "stateMutability": "view",
      "type": "function"
    },
    {
      "inputs": [],
      "name": "totalSupply",
      "outputs": [
        {
          "internalType": "uint256",
          "name": "",
          "type": "uint256"
        }
      ],
      "stateMutability": "view",
      "type": "function"
    },
    {
      "inputs": [
        {
          "internalType": "address",
          "name": "to",
          "type": "address"
        },
        {
          "internalType": "uint256",
          "name": "amount",
          "type": "uint256"
        }
      ],
      "name": "transfer",
      "outputs": [
        {
          "internalType": "bool",
          "name": "",
          "type": "bool"
        }
      ],
      "stateMutability": "nonpayable",
      "type": "function"
    },
    {
      "inputs": [
        {
          "internalType": "address",
          "name": "from",
          "type": "address"
        },
        {
          "internalType": "address",
          "name": "to",
          "type": "address"
        },
        {
          "internalType": "uint256",
          "name": "amount",
          "type": "uint256"
        }
      ],
      "name": "transferFrom",
      "outputs": [
        {
          "internalType": "bool",
          "name": "",
          "type": "bool"
        }
      ],
      "stateMutability": "nonpayable",
      "type": "function"
    },
    {
      "inputs": [
        {
          "internalType": "address",
          "name": "newOwner",
          "type": "address"
        }
      ],
      "name": "transferOwnership",
      "outputs": [],
      "stateMutability": "nonpayable",
      "type": "function"
    },
    {
      "inputs": [
        {
          "internalType": "address",
          "name": "newImplementation",
          "type": "address"
        }
      ],
      "name": "upgradeTo",
      "outputs": [],
      "stateMutability": "nonpayable",
      "type": "function"
    },
    {
      "inputs": [
        {
          "internalType": "address",
          "name": "newImplementation",
          "type": "address"
        },
        {
          "internalType": "bytes",
          "name": "data",
          "type": "bytes"
        }
      ],
      "name": "upgradeToAndCall",
      "outputs": [],
      "stateMutability": "payable",
      "type": "function"
    }
  ],
  "bytecode": "0x60a06040523060805234801561001457600080fd5b5061001d610022565b6100e1565b600054610100900460ff161561008e5760405162461bcd60e51b815260206004820152602760248201527f496e697469616c697a61626c653a20636f6e747261637420697320696e697469604482015266616c697a696e6760c81b606482015260840160405180910390fd5b60005460ff908116146100df576000805460ff191660ff9081179091556040519081527f7f26b83ff96e1f2b6a682f133852f6798a09c465da95921460cefb38474024989060200160405180910390a15b565b60805161194c6101186000396000818161045b015281816104a40152818161057b015281816105bb015261064a015261194c6000f3fe6080604052600436106101145760003560e01c806352d1902d116100a0578063a457c2d711610064578063a457c2d7146102e1578063a9059cbb14610301578063c4d66de814610321578063dd62ed3e14610341578063f2fde38b1461036157600080fd5b806352d1902d1461024457806370a0823114610259578063715018a61461028f5780638da5cb5b146102a457806395d89b41146102cc57600080fd5b8063313ce567116100e7578063313ce567146101b35780633659cfe6146101cf57806339509351146101f157806340c10f19146102115780634f1ef2861461023157600080fd5b806306fdde0314610119578063095ea7b31461014457806318160ddd1461017457806323b872dd14610193575b600080fd5b34801561012557600080fd5b5061012e610381565b60405161013b9190611361565b60405180910390f35b34801561015057600080fd5b5061016461015f3660046113b0565b610413565b604051901515815260200161013b565b34801561018057600080fd5b506035545b60405190815260200161013b565b34801561019f57600080fd5b506101646101ae3660046113da565b61042d565b3480156101bf57600080fd5b506040516006815260200161013b565b3480156101db57600080fd5b506101ef6101ea366004611416565b610451565b005b3480156101fd57600080fd5b5061016461020c3660046113b0565b610539565b34801561021d57600080fd5b506101ef61022c3660046113b0565b61055b565b6101ef61023f366004611447565b610571565b34801561025057600080fd5b5061018561063d565b34801561026557600080fd5b50610185610274366004611416565b6001600160a01b031660009081526033602052604090205490565b34801561029b57600080fd5b506101ef6106f0565b3480156102b057600080fd5b506065546040516001600160a01b03909116815260200161013b565b3480156102d857600080fd5b5061012e610704565b3480156102ed57600080fd5b506101646102fc3660046113b0565b610713565b34801561030d57600080fd5b5061016461031c3660046113b0565b61078e565b34801561032d57600080fd5b506101ef61033c366004611416565b61079c565b34801561034d57600080fd5b5061018561035c366004611509565b610927565b34801561036d57600080fd5b506101ef61037c366004611416565b610952565b6060603680546103909061153c565b80601f01602080910402602001604051908101604052809291908181526020018280546103bc9061153c565b80156104095780601f106103de57610100808354040283529160200191610409565b820191906000526020600020905b8154815290600101906020018083116103ec57829003601f168201915b5050505050905090565b6000336104218185856109c8565b60019150505b92915050565b60003361043b858285610aec565b610446858585610b66565b506001949350505050565b6001600160a01b037f00000000000000000000000000000000000000000000000000000000000000001630036104a25760405162461bcd60e51b815260040161049990611576565b60405180910390fd5b7f00000000000000000000000000000000000000000000000000000000000000006001600160a01b03166104eb6000805160206118d0833981519152546001600160a01b031690565b6001600160a01b0316146105115760405162461bcd60e51b8152600401610499906115c2565b61051a81610d11565b6040805160008082526020820190925261053691839190610d19565b50565b60003361042181858561054c8383610927565b6105569190611624565b6109c8565b610563610e89565b61056d8282610ee3565b5050565b6001600160a01b037f00000000000000000000000000000000000000000000000000000000000000001630036105b95760405162461bcd60e51b815260040161049990611576565b7f00000000000000000000000000000000000000000000000000000000000000006001600160a01b03166106026000805160206118d0833981519152546001600160a01b031690565b6001600160a01b0316146106285760405162461bcd60e51b8152600401610499906115c2565b61063182610d11565b61056d82826001610d19565b6000306001600160a01b037f000000000000000000000000000000000000000000000000000000000000000016146106dd5760405162461bcd60e51b815260206004820152603860248201527f555550535570677261646561626c653a206d757374206e6f742062652063616c60448201527f6c6564207468726f7567682064656c656761746563616c6c00000000000000006064820152608401610499565b506000805160206118d083398151915290565b6106f8610e89565b6107026000610fa4565b565b6060603780546103909061153c565b600033816107218286610927565b9050838110156107815760405162461bcd60e51b815260206004820152602560248201527f45524332303a2064656372656173656420616c6c6f77616e63652062656c6f77604482015264207a65726f60d81b6064820152608401610499565b61044682868684036109c8565b600033610421818585610b66565b600054610100900460ff16158080156107bc5750600054600160ff909116105b806107d65750303b1580156107d6575060005460ff166001145b6108395760405162461bcd60e51b815260206004820152602e60248201527f496e697469616c697a61626c653a20636f6e747261637420697320616c72656160448201526d191e481a5b9a5d1a585b1a5e995960921b6064820152608401610499565b6000805460ff19166001179055801561085c576000805461ff0019166101001790555b6108a3604051806040016040528060098152602001684d6f636b204555524360b81b815250604051806040016040528060048152602001634555524360e01b815250610ff6565b6108ab611027565b6108b3611056565b6108bc82610fa4565b6108de826108cc6006600a61171b565b6108d990620f424061172a565b610ee3565b801561056d576000805461ff0019169055604051600181527f7f26b83ff96e1f2b6a682f133852f6798a09c465da95921460cefb38474024989060200160405180910390a15050565b6001600160a01b03918216600090815260346020908152604080832093909416825291909152205490565b61095a610e89565b6001600160a01b0381166109bf5760405162461bcd60e51b815260206004820152602660248201527f4f776e61626c653a206e6577206f776e657220697320746865207a65726f206160448201526564647265737360d01b6064820152608401610499565b61053681610fa4565b6001600160a01b038316610a2a5760405162461bcd60e51b8152602060048201526024808201527f45524332303a20617070726f76652066726f6d20746865207a65726f206164646044820152637265737360e01b6064820152608401610499565b6001600160a01b038216610a8b5760405162461bcd60e51b815260206004820152602260248201527f45524332303a20617070726f766520746f20746865207a65726f206164647265604482015261737360f01b6064820152608401610499565b6001600160a01b0383811660008181526034602090815260408083209487168084529482529182902085905590518481527f8c5be1e5ebec7d5bd14f71427d1e84f3dd0314c0f7b2291e5b200ac8c7c3b925910160405180910390a3505050565b6000610af88484610927565b90506000198114610b605781811015610b535760405162461bcd60e51b815260206004820152601d60248201527f45524332303a20696e73756666696369656e7420616c6c6f77616e63650000006044820152606401610499565b610b6084848484036109c8565b50505050565b6001600160a01b038316610bca5760405162461bcd60e51b815260206004820152602560248201527f45524332303a207472616e736665722066726f6d20746865207a65726f206164604482015264647265737360d81b6064820152608401610499565b6001600160a01b038216610c2c5760405162461bcd60e51b815260206004820152602360248201527f45524332303a207472616e7366657220746f20746865207a65726f206164647260448201526265737360e81b6064820152608401610499565b6001600160a01b03831660009081526033602052604090205481811015610ca45760405162461bcd60e51b815260206004820152602660248201527f45524332303a207472616e7366657220616d6f756e7420657863656564732062604482015265616c616e636560d01b6064820152608401610499565b6001600160a01b0380851660008181526033602052604080822086860390559286168082529083902080548601905591517fddf252ad1be2c89b69c2b068fc378daa952ba7f163c4a11628f55a4df523b3ef90610d049086815260200190565b60405180910390a3610b60565b610536610e89565b7f4910fdfa16fed3260ed0e7147f7cc6da11a60208b5b9406d12a635614ffd91435460ff1615610d5157610d4c8361107d565b505050565b826001600160a01b03166352d1902d6040518163ffffffff1660e01b8152600401602060405180830381865afa925050508015610dab575060408051601f3d908101601f19168201909252610da891810190611741565b60015b610e0e5760405162461bcd60e51b815260206004820152602e60248201527f45524331393637557067726164653a206e657720696d706c656d656e7461746960448201526d6f6e206973206e6f74205555505360901b6064820152608401610499565b6000805160206118d08339815191528114610e7d5760405162461bcd60e51b815260206004820152602960248201527f45524331393637557067726164653a20756e737570706f727465642070726f786044820152681a58589b195555525160ba1b6064820152608401610499565b50610d4c838383611119565b6065546001600160a01b031633146107025760405162461bcd60e51b815260206004820181905260248201527f4f776e61626c653a2063616c6c6572206973206e6f7420746865206f776e65726044820152606401610499565b6001600160a01b038216610f395760405162461bcd60e51b815260206004820152601f60248201527f45524332303a206d696e7420746f20746865207a65726f2061646472657373006044820152606401610499565b8060356000828254610f4b9190611624565b90915550506001600160a01b0382166000818152603360209081526040808320805486019055518481527fddf252ad1be2c89b69c2b068fc378daa952ba7f163c4a11628f55a4df523b3ef910160405180910390a35050565b606580546001600160a01b038381166001600160a01b0319831681179093556040519116919082907f8be0079c531659141344cd1fd0a4f28419497f9722a3daafe3b4186f6b6457e090600090a35050565b600054610100900460ff1661101d5760405162461bcd60e51b81526004016104999061175a565b61056d828261113e565b600054610100900460ff1661104e5760405162461bcd60e51b81526004016104999061175a565b61070261117e565b600054610100900460ff166107025760405162461bcd60e51b81526004016104999061175a565b6001600160a01b0381163b6110ea5760405162461bcd60e51b815260206004820152602d60248201527f455243313936373a206e657720696d706c656d656e746174696f6e206973206e60448201526c1bdd08184818dbdb9d1c9858dd609a1b6064820152608401610499565b6000805160206118d083398151915280546001600160a01b0319166001600160a01b0392909216919091179055565b611122836111ae565b60008251118061112f5750805b15610d4c57610b6083836111ee565b600054610100900460ff166111655760405162461bcd60e51b81526004016104999061175a565b603661117183826117f3565b506037610d4c82826117f3565b600054610100900460ff166111a55760405162461bcd60e51b81526004016104999061175a565b61070233610fa4565b6111b78161107d565b6040516001600160a01b038216907fbc7cd75a20ee27fd9adebab32041f755214dbc6bffa90cc0225b39da2e5c2d3b90600090a250565b606061121383836040518060600160405280602781526020016118f06027913961121a565b9392505050565b6060600080856001600160a01b03168560405161123791906118b3565b600060405180830381855af49150503d8060008114611272576040519150601f19603f3d011682016040523d82523d6000602084013e611277565b606091505b509150915061128886838387611292565b9695505050505050565b606083156113015782516000036112fa576001600160a01b0385163b6112fa5760405162461bcd60e51b815260206004820152601d60248201527f416464726573733a2063616c6c20746f206e6f6e2d636f6e74726163740000006044820152606401610499565b508161130b565b61130b8383611313565b949350505050565b8151156113235781518083602001fd5b8060405162461bcd60e51b81526004016104999190611361565b60005b83811015611358578181015183820152602001611340565b50506000910152565b602081526000825180602084015261138081604085016020870161133d565b601f01601f19169190910160400192915050565b80356001600160a01b03811681146113ab57600080fd5b919050565b600080604083850312156113c357600080fd5b6113cc83611394565b946020939093013593505050565b6000806000606084860312156113ef57600080fd5b6113f884611394565b925061140660208501611394565b9150604084013590509250925092565b60006020828403121561142857600080fd5b61121382611394565b634e487b7160e01b600052604160045260246000fd5b6000806040838503121561145a57600080fd5b61146383611394565b9150602083013567ffffffffffffffff8082111561148057600080fd5b818501915085601f83011261149457600080fd5b8135818111156114a6576114a6611431565b604051601f8201601f19908116603f011681019083821181831017156114ce576114ce611431565b816040528281528860208487010111156114e757600080fd5b8260208601602083013760006020848301015280955050505050509250929050565b6000806040838503121561151c57600080fd5b61152583611394565b915061153360208401611394565b90509250929050565b600181811c9082168061155057607f821691505b60208210810361157057634e487b7160e01b600052602260045260246000fd5b50919050565b6020808252602c908201527f46756e6374696f6e206d7573742062652063616c6c6564207468726f7567682060408201526b19195b1959d85d1958d85b1b60a21b606082015260800190565b6020808252602c908201527f46756e6374696f6e206d7573742062652063616c6c6564207468726f7567682060408201526b6163746976652070726f787960a01b606082015260800190565b634e487b7160e01b600052601160045260246000fd5b808201808211156104275761042761160e565b600181815b808511156116725781600019048211156116585761165861160e565b8085161561166557918102915b93841c939080029061163c565b509250929050565b60008261168957506001610427565b8161169657506000610427565b81600181146116ac57600281146116b6576116d2565b6001915050610427565b60ff8411156116c7576116c761160e565b50506001821b610427565b5060208310610133831016604e8410600b84101617156116f5575081810a610427565b6116ff8383611637565b80600019048211156117135761171361160e565b029392505050565b600061121360ff84168361167a565b80820281158282048414176104275761042761160e565b60006020828403121561175357600080fd5b5051919050565b6020808252602b908201527f496e697469616c697a61626c653a20636f6e7472616374206973206e6f74206960408201526a6e697469616c697a696e6760a81b606082015260800190565b601f821115610d4c57600081815260208120601f850160051c810160208610156117cc5750805b601f850160051c820191505b818110156117eb578281556001016117d8565b505050505050565b815167ffffffffffffffff81111561180d5761180d611431565b6118218161181b845461153c565b846117a5565b602080601f831160018114611856576000841561183e5750858301515b600019600386901b1c1916600185901b1785556117eb565b600085815260208120601f198616915b8281101561188557888601518255948401946001909101908401611866565b50858210156118a35787850151600019600388901b60f8161c191681555b5050505050600190811b01905550565b600082516118c581846020870161133d565b919091019291505056fe360894a13ba1a3210667c828492db98dca3e2076cc3735a920a3ca505d382bbc416464726573733a206c6f772d6c6576656c2064656c65676174652063616c6c206661696c6564a2646970667358221220ace917faf566b7d9581996491ab225f5960571fa41b33fb26ff63e85af7fef8c64736f6c63430008150033",
  "linkReferences": {},
  "deployedLinkReferences": {}
}