{
  "_format": "hh-sol-artifact-1",
  "contractName": "StakingRewardsV2",
  "sourceName": "contracts/StakingRewardsV2.sol",
  "abi": [
    {
      "inputs": [],
      "stateMutability": "nonpayable",
      "type": "constructor"
    },
    {
      "inputs": [],
      "name": "InvalidAmount",
      "type": "error"
    },
    {
      "inputs": [],
      "name": "OnlyFactory",
      "type": "error"
    },
    {
      "inputs": [],
      "name": "ReentrancyGuard",
      "type": "error"
    },
    {
      "inputs": [],
      "name": "RewardRateNotSet",
      "type": "error"
    },
    {
      "inputs": [],
      "name": "StakingPeriodEnded",
      "type": "error"
    },
    {
      "inputs": [],
      "name": "StakingPeriodNotStarted",
      "type": "error"
    },
    {
      "anonymous": false,
      "inputs": [
        {
          "indexed": false,
          "internalType": "address",
          "name": "previousAdmin",
          "type": "address"
        },
        {
          "indexed": false,
          "internalType": "address",
          "name": "newAdmin",
          "type": "address"
        }
      ],
      "name": "AdminChanged",
      "type": "event"
    },
    {
      "anonymous": false,
      "inputs": [
        {
          "indexed": true,
          "internalType": "address",
          "name": "beacon",
          "type": "address"
        }
      ],
      "name": "BeaconUpgraded",
      "type": "event"
    },
    {
      "anonymous": false,
      "inputs": [
        {
          "indexed": false,
          "internalType": "uint8",
          "name": "version",
          "type": "uint8"
        }
      ],
      "name": "Initialized",
      "type": "event"
    },
    {
      "anonymous": false,
      "inputs": [
        {
          "indexed": true,
          "internalType": "address",
          "name": "previousOwner",
          "type": "address"
        },
        {
          "indexed": true,
          "internalType": "address",
          "name": "newOwner",
          "type": "address"
        }
      ],
      "name": "OwnershipTransferred",
      "type": "event"
    },
    {
      "anonymous": false,
      "inputs": [
        {
          "indexed": false,
          "internalType": "uint256",
          "name": "reward",
          "type": "uint256"
        }
      ],
      "name": "RewardAdded",
      "type": "event"
    },
    {
      "anonymous": false,
      "inputs": [
        {
          "indexed": true,
          "internalType": "address",
          "name": "user",
          "type": "address"
        },
        {
          "indexed": false,
          "internalType": "uint256",
          "name": "reward",
          "type": "uint256"
        }
      ],
      "name": "RewardPaid",
      "type": "event"
    },
    {
      "anonymous": false,
      "inputs": [
        {
          "indexed": false,
          "internalType": "uint256",
          "name": "newRate",
          "type": "uint256"
        }
      ],
      "name": "RewardRateUpdated",
      "type": "event"
    },
    {
      "anonymous": false,
      "inputs": [
        {
          "indexed": true,
          "internalType": "address",
          "name": "user",
          "type": "address"
        },
        {
          "indexed": false,
          "internalType": "uint256",
          "name": "amount",
          "type": "uint256"
        }
      ],
      "name": "Staked",
      "type": "event"
    },
    {
      "anonymous": false,
      "inputs": [
        {
          "indexed": true,
          "internalType": "address",
          "name": "implementation",
          "type": "address"
        }
      ],
      "name": "Upgraded",
      "type": "event"
    },
    {
      "anonymous": false,
      "inputs": [
        {
          "indexed": true,
          "internalType": "address",
          "name": "user",
          "type": "address"
        },
        {
          "indexed": false,
          "internalType": "uint256",
          "name": "amount",
          "type": "uint256"
        }
      ],
      "name": "Withdrawn",
      "type": "event"
    },
    {
      "inputs": [
        {
          "internalType": "address",
          "name": "account",
          "type": "address"
        }
      ],
      "name": "balanceOf",
      "outputs": [
        {
          "internalType": "uint256",
          "name": "",
          "type": "uint256"
        }
      ],
      "stateMutability": "view",
      "type": "function"
    },
    {
      "inputs": [],
      "name": "duration",
      "outputs": [
        {
          "internalType": "uint256",
          "name": "",
          "type": "uint256"
        }
      ],
      "stateMutability": "view",
      "type": "function"
    },
    {
      "inputs": [
        {
          "internalType": "address",
          "name": "account",
          "type": "address"
        }
      ],
      "name": "earned",
      "outputs": [
        {
          "internalType": "uint256",
          "name": "",
          "type": "uint256"
        }
      ],
      "stateMutability": "view",
      "type": "function"
    },
    {
      "inputs": [],
      "name": "factory",
      "outputs": [
        {
          "internalType": "address",
          "name": "",
          "type": "address"
        }
      ],
      "stateMutability": "view",
      "type": "function"
    },
    {
      "inputs": [],
      "name": "finishAt",
      "outputs": [
        {
          "internalType": "uint256",
          "name": "",
          "type": "uint256"
        }
      ],
      "stateMutability": "view",
      "type": "function"
    },
    {
      "inputs": [],
      "name": "getReward",
      "outputs": [],
      "stateMutability": "nonpayable",
      "type": "function"
    },
    {
      "inputs": [
        {
          "internalType": "address",
          "name": "_stakingToken",
          "type": "address"
        },
        {
          "internalType": "address",
          "name": "_rewardToken",
          "type": "address"
        },
        {
          "internalType": "uint256",
          "name": "_duration",
          "type": "uint256"
        }
      ],
      "name": "initialize",
      "outputs": [],
      "stateMutability": "nonpayable",
      "type": "function"
    },
    {
      "inputs": [],
      "name": "lastTimeRewardApplicable",
      "outputs": [
        {
          "internalType": "uint256",
          "name": "",
          "type": "uint256"
        }
      ],
      "stateMutability": "view",
      "type": "function"
    },
    {
      "inputs": [
        {
          "internalType": "uint256",
          "name": "rate",
          "type": "uint256"
        }
      ],
      "name": "notifyRewardRate",
      "outputs": [],
      "stateMutability": "nonpayable",
      "type": "function"
    },
    {
      "inputs": [],
      "name": "owner",
      "outputs": [
        {
          "internalType": "address",
          "name": "",
          "type": "address"
        }
      ],
      "stateMutability": "view",
      "type": "function"
    },
    {
      "inputs": [],
      "name": "proxiableUUID",
      "outputs": [
        {
          "internalType": "bytes32",
          "name": "",
          "type": "bytes32"
        }
      ],
      "stateMutability": "view",
      "type": "function"
    },
    {
      "inputs": [],
      "name": "renounceOwnership",
      "outputs": [],
      "stateMutability": "nonpayable",
      "type": "function"
    },
    {
      "inputs": [],
      "name": "rewardPerToken",
      "outputs": [
        {
          "internalType": "uint256",
          "name": "",
          "type": "uint256"
        }
      ],
      "stateMutability": "view",
      "type": "function"
    },
    {
      "inputs": [],
      "name": "rewardPerTokenStored",
      "outputs": [
        {
          "internalType": "uint256",
          "name": "",
          "type": "uint256"
        }
      ],
      "stateMutability": "view",
      "type": "function"
    },
    {
      "inputs": [],
      "name": "rewardRate",
      "outputs": [
        {
          "internalType": "uint256",
          "name": "",
          "type": "uint256"
        }
      ],
      "stateMutability": "view",
      "type": "function"
    },
    {
      "inputs": [],
      "name": "rewardToken",
      "outputs": [
        {
          "internalType": "contract IERC20",
          "name": "",
          "type": "address"
        }
      ],
      "stateMutability": "view",
      "type": "function"
    },
    {
      "inputs": [
        {
          "internalType": "address",
          "name": "",
          "type": "address"
        }
      ],
      "name": "rewards",
      "outputs": [
        {
          "internalType": "uint256",
          "name": "",
          "type": "uint256"
        }
      ],
      "stateMutability": "view",
      "type": "function"
    },
    {
      "inputs": [
        {
          "internalType": "uint256",
          "name": "_duration",
          "type": "uint256"
        }
      ],
      "name": "setDuration",
      "outputs": [],
      "stateMutability": "nonpayable",
      "type": "function"
    },
    {
      "inputs": [
        {
          "internalType": "uint256",
          "name": "amount",
          "type": "uint256"
        }
      ],
      "name": "stake",
      "outputs": [],
      "stateMutability": "nonpayable",
      "type": "function"
    },
    {
      "inputs": [],
      "name": "stakingToken",
      "outputs": [
        {
          "internalType": "contract IERC20",
          "name": "",
          "type": "address"
        }
      ],
      "stateMutability": "view",
      "type": "function"
    },
    {
      "inputs": [],
      "name": "totalSupply",
      "outputs": [
        {
          "internalType": "uint256",
          "name": "",
          "type": "uint256"
        }
      ],
      "stateMutability": "view",
      "type": "function"
    },
    {
      "inputs": [
        {
          "internalType": "address",
          "name": "newOwner",
          "type": "address"
        }
      ],
      "name": "transferOwnership",
      "outputs": [],
      "stateMutability": "nonpayable",
      "type": "function"
    },
    {
      "inputs": [],
      "name": "updatedAt",
      "outputs": [
        {
          "internalType": "uint256",
          "name": "",
          "type": "uint256"
        }
      ],
      "stateMutability": "view",
      "type": "function"
    },
    {
      "inputs": [
        {
          "internalType": "address",
          "name": "newImplementation",
          "type": "address"
        }
      ],
      "name": "upgradeTo",
      "outputs": [],
      "stateMutability": "nonpayable",
      "type": "function"
    },
    {
      "inputs": [
        {
          "internalType": "address",
          "name": "newImplementation",
          "type": "address"
        },
        {
          "internalType": "bytes",
          "name": "data",
          "type": "bytes"
        }
      ],
      "name": "upgradeToAndCall",
      "outputs": [],
      "stateMutability": "payable",
      "type": "function"
    },
    {
      "inputs": [
        {
          "internalType": "address",
          "name": "",
          "type": "address"
        }
      ],
      "name": "userRewardPerTokenPaid",
      "outputs": [
        {
          "internalType": "uint256",
          "name": "",
          "type": "uint256"
        }
      ],
      "stateMutability": "view",
      "type": "function"
    },
    {
      "inputs": [
        {
          "internalType": "uint256",
          "name": "amount",
          "type": "uint256"
        }
      ],
      "name": "withdraw",
      "outputs": [],
      "stateMutability": "nonpayable",
      "type": "function"
    }
  ],
  "bytecode": "0x60a06040523060805234801561001457600080fd5b5061001d610022565b6100e1565b600054610100900460ff161561008e5760405162461bcd60e51b815260206004820152602760248201527f496e697469616c697a61626c653a20636f6e747261637420697320696e697469604482015266616c697a696e6760c81b606482015260840160405180910390fd5b60005460ff908116146100df576000805460ff191660ff9081179091556040519081527f7f26b83ff96e1f2b6a682f133852f6798a09c465da95921460cefb38474024989060200160405180910390a15b565b608051611c11610118600039600081816109180152818161095801528181610c3a01528181610c7a0152610d0d0152611c116000f3fe60806040526004361061019b5760003560e01c8063715018a6116100ec578063a694fc3a1161008a578063df136d6511610064578063df136d6514610464578063f2fde38b1461047a578063f6be71d11461049a578063f7c618c1146104ba57600080fd5b8063a694fc3a1461040f578063c45a01551461042f578063cd3daf9d1461044f57600080fd5b80637b0a47ee116100c65780637b0a47ee1461039957806380faa57d146103af5780638b876347146103c45780638da5cb5b146103f157600080fd5b8063715018a61461033657806372f702f31461034b5780637519ab501461038357600080fd5b80633659cfe6116101595780634f1ef286116101335780634f1ef286146102c257806352d1902d146102d557806367d3b488146102ea57806370a082311461030057600080fd5b80633659cfe61461026d5780633d18b9121461028d5780634041ef41146102a257600080fd5b80628cc262146101a05780630700037d146101d35780630fb5a6b4146102005780631794bb3c1461021657806318160ddd146102385780632e1a7d4d1461024d575b600080fd5b3480156101ac57600080fd5b506101c06101bb366004611846565b6104da565b6040519081526020015b60405180910390f35b3480156101df57600080fd5b506101c06101ee366004611846565b60d26020526000908152604090205481565b34801561020c57600080fd5b506101c060cc5481565b34801561022257600080fd5b50610236610231366004611861565b610557565b005b34801561024457600080fd5b5060d3546101c0565b34801561025957600080fd5b5061023661026836600461189d565b6107c9565b34801561027957600080fd5b50610236610288366004611846565b61090e565b34801561029957600080fd5b506102366109ed565b3480156102ae57600080fd5b506102366102bd36600461189d565b610af8565b6102366102d03660046118cc565b610c30565b3480156102e157600080fd5b506101c0610d00565b3480156102f657600080fd5b506101c060cd5481565b34801561030c57600080fd5b506101c061031b366004611846565b6001600160a01b0316600090815260d4602052604090205490565b34801561034257600080fd5b50610236610db3565b34801561035757600080fd5b5060c95461036b906001600160a01b031681565b6040516001600160a01b0390911681526020016101ca565b34801561038f57600080fd5b506101c060ce5481565b3480156103a557600080fd5b506101c060cf5481565b3480156103bb57600080fd5b506101c0610dc7565b3480156103d057600080fd5b506101c06103df366004611846565b60d16020526000908152604090205481565b3480156103fd57600080fd5b506033546001600160a01b031661036b565b34801561041b57600080fd5b5061023661042a36600461189d565b610dda565b34801561043b57600080fd5b5060cb5461036b906001600160a01b031681565b34801561045b57600080fd5b506101c0610f54565b34801561047057600080fd5b506101c060d05481565b34801561048657600080fd5b50610236610495366004611846565b610fb5565b3480156104a657600080fd5b506102366104b536600461189d565b61102b565b3480156104c657600080fd5b5060ca5461036b906001600160a01b031681565b6001600160a01b038116600090815260d2602090815260408083205460d1909252822054670de0b6b3a764000090610510610f54565b61051a91906119a4565b6001600160a01b038516600090815260d4602052604090205461053d91906119b7565b61054791906119ce565b61055191906119f0565b92915050565b600054610100900460ff16158080156105775750600054600160ff909116105b806105915750303b158015610591575060005460ff166001145b6105f95760405162461bcd60e51b815260206004820152602e60248201527f496e697469616c697a61626c653a20636f6e747261637420697320616c72656160448201526d191e481a5b9a5d1a585b1a5e995960921b60648201526084015b60405180910390fd5b6000805460ff19166001179055801561061c576000805461ff0019166101001790555b6001600160a01b03841661067c5760405162461bcd60e51b815260206004820152602160248201527f5374616b696e6720746f6b656e20616464726573732063616e6e6f74206265206044820152600360fc1b60648201526084016105f0565b6001600160a01b0383166106d25760405162461bcd60e51b815260206004820181905260248201527f52657761726420746f6b656e20616464726573732063616e6e6f74206265203060448201526064016105f0565b600082116107195760405162461bcd60e51b815260206004820152601460248201527304475726174696f6e206d757374206265203e20360641b60448201526064016105f0565b61072161109e565b6107296110cd565b60c980546001600160a01b038087166001600160a01b03199283161790925560ca80549286169282169290921790915560cc83905560cb8054909116331790554260ce81905561077a9083906119f0565b60cd5580156107c3576000805461ff0019169055604051600181527f7f26b83ff96e1f2b6a682f133852f6798a09c465da95921460cefb38474024989060200160405180910390a15b50505050565b60d55460ff16156107ed576040516345f5ce8b60e11b815260040160405180910390fd5b60d5805460ff1916600117905533610803610f54565b60d05561080e610dc7565b60ce556001600160a01b0381161561085557610829816104da565b6001600160a01b038216600090815260d2602090815260408083209390935560d05460d1909152919020555b816000036108765760405163162908e360e11b815260040160405180910390fd5b33600090815260d46020526040812080548492906108959084906119a4565b925050819055508160d360008282546108ae91906119a4565b909155505060c9546108ca906001600160a01b031633846110f4565b60405182815233907f7084f5476618d8e60b11ef0d7d3f06914655adb8793e28ff7f018d4c76d505d5906020015b60405180910390a2505060d5805460ff19169055565b6001600160a01b037f00000000000000000000000000000000000000000000000000000000000000001630036109565760405162461bcd60e51b81526004016105f090611a03565b7f00000000000000000000000000000000000000000000000000000000000000006001600160a01b031661099f600080516020611b95833981519152546001600160a01b031690565b6001600160a01b0316146109c55760405162461bcd60e51b81526004016105f090611a4f565b6109ce8161115c565b604080516000808252602082019092526109ea9183919061118f565b50565b60d55460ff1615610a11576040516345f5ce8b60e11b815260040160405180910390fd5b60d5805460ff1916600117905533610a27610f54565b60d055610a32610dc7565b60ce556001600160a01b03811615610a7957610a4d816104da565b6001600160a01b038216600090815260d2602090815260408083209390935560d05460d1909152919020555b33600090815260d260205260409020548015610aea5733600081815260d2602052604081205560ca54610ab8916001600160a01b0390911690836110f4565b60405181815233907fe2403640ba68fed3a2f88b7557551d1993f84b99bb10ff833f0cf8db0c5e0486906020016108f8565b505060d5805460ff19169055565b60cb546001600160a01b03163314610b2357604051630636a15760e11b815260040160405180910390fd5b6000610b2d610f54565b60d055610b38610dc7565b60ce556001600160a01b03811615610b7f57610b53816104da565b6001600160a01b038216600090815260d2602090815260408083209390935560d05460d1909152919020555b81600003610ba05760405163162908e360e11b815260040160405180910390fd5b60cf82905560cc54610bb290426119f0565b60cd554260ce556040518281527f41d466ebd06fb97e7786086ac8b69b7eb7da798592036251291d34e9791cde019060200160405180910390a17fde88a922e0d3b88b24e9623efeb464919c6bf9f66857a65e2bfcf2ce87a9433d60cc5483610c1b91906119b7565b60405190815260200160405180910390a15050565b6001600160a01b037f0000000000000000000000000000000000000000000000000000000000000000163003610c785760405162461bcd60e51b81526004016105f090611a03565b7f00000000000000000000000000000000000000000000000000000000000000006001600160a01b0316610cc1600080516020611b95833981519152546001600160a01b031690565b6001600160a01b031614610ce75760405162461bcd60e51b81526004016105f090611a4f565b610cf08261115c565b610cfc8282600161118f565b5050565b6000306001600160a01b037f00000000000000000000000000000000000000000000000000000000000000001614610da05760405162461bcd60e51b815260206004820152603860248201527f555550535570677261646561626c653a206d757374206e6f742062652063616c60448201527f6c6564207468726f7567682064656c656761746563616c6c000000000000000060648201526084016105f0565b50600080516020611b9583398151915290565b610dbb6112fa565b610dc56000611354565b565b6000610dd560cd54426113a6565b905090565b60d55460ff1615610dfe576040516345f5ce8b60e11b815260040160405180910390fd5b60d5805460ff1916600117905533610e14610f54565b60d055610e1f610dc7565b60ce556001600160a01b03811615610e6657610e3a816104da565b6001600160a01b038216600090815260d2602090815260408083209390935560d05460d1909152919020555b60cd54421115610e89576040516326e904fb60e21b815260040160405180910390fd5b60cf54600003610eac576040516333afbfa160e11b815260040160405180910390fd5b81600003610ecd5760405163162908e360e11b815260040160405180910390fd5b60c954610ee5906001600160a01b03163330856113bf565b33600090815260d4602052604081208054849290610f049084906119f0565b925050819055508160d36000828254610f1d91906119f0565b909155505060405182815233907f9e71bc8eea02a63969f509818f2dafb9254532904319f9dbda79b67bd34a5f3d906020016108f8565b600060d354600003610f67575060d05490565b60d35460cf5460ce54610f78610dc7565b610f8291906119a4565b610f8c91906119b7565b610f9e90670de0b6b3a76400006119b7565b610fa891906119ce565b60d054610dd591906119f0565b610fbd6112fa565b6001600160a01b0381166110225760405162461bcd60e51b815260206004820152602660248201527f4f776e61626c653a206e6577206f776e657220697320746865207a65726f206160448201526564647265737360d01b60648201526084016105f0565b6109ea81611354565b60cb546001600160a01b0316331461105657604051630636a15760e11b815260040160405180910390fd5b806000036110775760405163162908e360e11b815260040160405180910390fd5b4260cd54106110995760405163db44346960e01b815260040160405180910390fd5b60cc55565b600054610100900460ff166110c55760405162461bcd60e51b81526004016105f090611a9b565b610dc56113f7565b600054610100900460ff16610dc55760405162461bcd60e51b81526004016105f090611a9b565b6040516001600160a01b03831660248201526044810182905261115790849063a9059cbb60e01b906064015b60408051601f198184030181529190526020810180516001600160e01b03166001600160e01b031990931692909217909152611427565b505050565b6111646112fa565b60cb546001600160a01b031633146109ea57604051630636a15760e11b815260040160405180910390fd5b7f4910fdfa16fed3260ed0e7147f7cc6da11a60208b5b9406d12a635614ffd91435460ff16156111c257611157836114fc565b826001600160a01b03166352d1902d6040518163ffffffff1660e01b8152600401602060405180830381865afa92505050801561121c575060408051601f3d908101601f1916820190925261121991810190611ae6565b60015b61127f5760405162461bcd60e51b815260206004820152602e60248201527f45524331393637557067726164653a206e657720696d706c656d656e7461746960448201526d6f6e206973206e6f74205555505360901b60648201526084016105f0565b600080516020611b9583398151915281146112ee5760405162461bcd60e51b815260206004820152602960248201527f45524331393637557067726164653a20756e737570706f727465642070726f786044820152681a58589b195555525160ba1b60648201526084016105f0565b50611157838383611598565b6033546001600160a01b03163314610dc55760405162461bcd60e51b815260206004820181905260248201527f4f776e61626c653a2063616c6c6572206973206e6f7420746865206f776e657260448201526064016105f0565b603380546001600160a01b038381166001600160a01b0319831681179093556040519116919082907f8be0079c531659141344cd1fd0a4f28419497f9722a3daafe3b4186f6b6457e090600090a35050565b6000818311156113b657816113b8565b825b9392505050565b6040516001600160a01b03808516602483015283166044820152606481018290526107c39085906323b872dd60e01b90608401611120565b600054610100900460ff1661141e5760405162461bcd60e51b81526004016105f090611a9b565b610dc533611354565b600061147c826040518060400160405280602081526020017f5361666545524332303a206c6f772d6c6576656c2063616c6c206661696c6564815250856001600160a01b03166115bd9092919063ffffffff16565b905080516000148061149d57508080602001905181019061149d9190611aff565b6111575760405162461bcd60e51b815260206004820152602a60248201527f5361666545524332303a204552433230206f7065726174696f6e20646964206e6044820152691bdd081cdd58d8d9595960b21b60648201526084016105f0565b6001600160a01b0381163b6115695760405162461bcd60e51b815260206004820152602d60248201527f455243313936373a206e657720696d706c656d656e746174696f6e206973206e60448201526c1bdd08184818dbdb9d1c9858dd609a1b60648201526084016105f0565b600080516020611b9583398151915280546001600160a01b0319166001600160a01b0392909216919091179055565b6115a1836115d4565b6000825111806115ae5750805b15611157576107c38383611614565b60606115cc8484600085611639565b949350505050565b6115dd816114fc565b6040516001600160a01b038216907fbc7cd75a20ee27fd9adebab32041f755214dbc6bffa90cc0225b39da2e5c2d3b90600090a250565b60606113b88383604051806060016040528060278152602001611bb560279139611714565b60608247101561169a5760405162461bcd60e51b815260206004820152602660248201527f416464726573733a20696e73756666696369656e742062616c616e636520666f6044820152651c8818d85b1b60d21b60648201526084016105f0565b600080866001600160a01b031685876040516116b69190611b45565b60006040518083038185875af1925050503d80600081146116f3576040519150601f19603f3d011682016040523d82523d6000602084013e6116f8565b606091505b50915091506117098783838761178c565b979650505050505050565b6060600080856001600160a01b0316856040516117319190611b45565b600060405180830381855af49150503d806000811461176c576040519150601f19603f3d011682016040523d82523d6000602084013e611771565b606091505b50915091506117828683838761178c565b9695505050505050565b606083156117fb5782516000036117f4576001600160a01b0385163b6117f45760405162461bcd60e51b815260206004820152601d60248201527f416464726573733a2063616c6c20746f206e6f6e2d636f6e747261637400000060448201526064016105f0565b50816115cc565b6115cc83838151156118105781518083602001fd5b8060405162461bcd60e51b81526004016105f09190611b61565b80356001600160a01b038116811461184157600080fd5b919050565b60006020828403121561185857600080fd5b6113b88261182a565b60008060006060848603121561187657600080fd5b61187f8461182a565b925061188d6020850161182a565b9150604084013590509250925092565b6000602082840312156118af57600080fd5b5035919050565b634e487b7160e01b600052604160045260246000fd5b600080604083850312156118df57600080fd5b6118e88361182a565b9150602083013567ffffffffffffffff8082111561190557600080fd5b818501915085601f83011261191957600080fd5b81358181111561192b5761192b6118b6565b604051601f8201601f19908116603f01168101908382118183101715611953576119536118b6565b8160405282815288602084870101111561196c57600080fd5b8260208601602083013760006020848301015280955050505050509250929050565b634e487b7160e01b600052601160045260246000fd5b818103818111156105515761055161198e565b80820281158282048414176105515761055161198e565b6000826119eb57634e487b7160e01b600052601260045260246000fd5b500490565b808201808211156105515761055161198e565b6020808252602c908201527f46756e6374696f6e206d7573742062652063616c6c6564207468726f7567682060408201526b19195b1959d85d1958d85b1b60a21b606082015260800190565b6020808252602c908201527f46756e6374696f6e206d7573742062652063616c6c6564207468726f7567682060408201526b6163746976652070726f787960a01b606082015260800190565b6020808252602b908201527f496e697469616c697a61626c653a20636f6e7472616374206973206e6f74206960408201526a6e697469616c697a696e6760a81b606082015260800190565b600060208284031215611af857600080fd5b5051919050565b600060208284031215611b1157600080fd5b815180151581146113b857600080fd5b60005b83811015611b3c578181015183820152602001611b24565b50506000910152565b60008251611b57818460208701611b21565b9190910192915050565b6020815260008251806020840152611b80816040850160208701611b21565b601f01601f1916919091016040019291505056fe360894a13ba1a3210667c828492db98dca3e2076cc3735a920a3ca505d382bbc416464726573733a206c6f772d6c6576656c2064656c65676174652063616c6c206661696c6564a2646970667358221220dad814a24a8ec6ffbd44ce62ca6e3a3690137126e97ad66fd6c4abcce37260ce64736f6c63430008150033",
  "linkReferences": {},
  "deployedLinkReferences": {}
}