{
  "_format": "hh-sol-artifact-1",
  "contractName": "StakingRewardsV2",
  "sourceName": "contracts/StakingRewardsV2.sol",
  "abi": [
    {
      "inputs": [],
      "stateMutability": "nonpayable",
      "type": "constructor"
    },
    {
      "inputs": [],
      "name": "InvalidAmount",
      "type": "error"
    },
    {
      "inputs": [],
      "name": "OnlyFactory",
      "type": "error"
    },
    {
      "inputs": [],
      "name": "ReentrancyGuard",
      "type": "error"
    },
    {
      "inputs": [],
      "name": "RewardRateNotSet",
      "type": "error"
    },
    {
      "inputs": [],
      "name": "StakingPeriodEnded",
      "type": "error"
    },
    {
      "inputs": [],
      "name": "StakingPeriodNotStarted",
      "type": "error"
    },
    {
      "anonymous": false,
      "inputs": [
        {
          "indexed": false,
          "internalType": "address",
          "name": "previousAdmin",
          "type": "address"
        },
        {
          "indexed": false,
          "internalType": "address",
          "name": "newAdmin",
          "type": "address"
        }
      ],
      "name": "AdminChanged",
      "type": "event"
    },
    {
      "anonymous": false,
      "inputs": [
        {
          "indexed": true,
          "internalType": "address",
          "name": "beacon",
          "type": "address"
        }
      ],
      "name": "BeaconUpgraded",
      "type": "event"
    },
    {
      "anonymous": false,
      "inputs": [
        {
          "indexed": false,
          "internalType": "uint8",
          "name": "version",
          "type": "uint8"
        }
      ],
      "name": "Initialized",
      "type": "event"
    },
    {
      "anonymous": false,
      "inputs": [
        {
          "indexed": true,
          "internalType": "address",
          "name": "previousOwner",
          "type": "address"
        },
        {
          "indexed": true,
          "internalType": "address",
          "name": "newOwner",
          "type": "address"
        }
      ],
      "name": "OwnershipTransferred",
      "type": "event"
    },
    {
      "anonymous": false,
      "inputs": [
        {
          "indexed": false,
          "internalType": "uint256",
          "name": "reward",
          "type": "uint256"
        }
      ],
      "name": "RewardAdded",
      "type": "event"
    },
    {
      "anonymous": false,
      "inputs": [
        {
          "indexed": true,
          "internalType": "address",
          "name": "user",
          "type": "address"
        },
        {
          "indexed": false,
          "internalType": "uint256",
          "name": "reward",
          "type": "uint256"
        }
      ],
      "name": "RewardPaid",
      "type": "event"
    },
    {
      "anonymous": false,
      "inputs": [
        {
          "indexed": false,
          "internalType": "uint256",
          "name": "newRate",
          "type": "uint256"
        }
      ],
      "name": "RewardRateUpdated",
      "type": "event"
    },
    {
      "anonymous": false,
      "inputs": [
        {
          "indexed": true,
          "internalType": "address",
          "name": "user",
          "type": "address"
        },
        {
          "indexed": false,
          "internalType": "uint256",
          "name": "amount",
          "type": "uint256"
        }
      ],
      "name": "Staked",
      "type": "event"
    },
    {
      "anonymous": false,
      "inputs": [
        {
          "indexed": true,
          "internalType": "address",
          "name": "implementation",
          "type": "address"
        }
      ],
      "name": "Upgraded",
      "type": "event"
    },
    {
      "anonymous": false,
      "inputs": [
        {
          "indexed": true,
          "internalType": "address",
          "name": "user",
          "type": "address"
        },
        {
          "indexed": false,
          "internalType": "uint256",
          "name": "amount",
          "type": "uint256"
        }
      ],
      "name": "Withdrawn",
      "type": "event"
    },
    {
      "inputs": [
        {
          "internalType": "address",
          "name": "account",
          "type": "address"
        }
      ],
      "name": "balanceOf",
      "outputs": [
        {
          "internalType": "uint256",
          "name": "",
          "type": "uint256"
        }
      ],
      "stateMutability": "view",
      "type": "function"
    },
    {
      "inputs": [],
      "name": "duration",
      "outputs": [
        {
          "internalType": "uint256",
          "name": "",
          "type": "uint256"
        }
      ],
      "stateMutability": "view",
      "type": "function"
    },
    {
      "inputs": [
        {
          "internalType": "address",
          "name": "account",
          "type": "address"
        }
      ],
      "name": "earned",
      "outputs": [
        {
          "internalType": "uint256",
          "name": "",
          "type": "uint256"
        }
      ],
      "stateMutability": "view",
      "type": "function"
    },
    {
      "inputs": [],
      "name": "factory",
      "outputs": [
        {
          "internalType": "address",
          "name": "",
          "type": "address"
        }
      ],
      "stateMutability": "view",
      "type": "function"
    },
    {
      "inputs": [],
      "name": "finishAt",
      "outputs": [
        {
          "internalType": "uint256",
          "name": "",
          "type": "uint256"
        }
      ],
      "stateMutability": "view",
      "type": "function"
    },
    {
      "inputs": [],
      "name": "getReward",
      "outputs": [],
      "stateMutability": "nonpayable",
      "type": "function"
    },
    {
      "inputs": [
        {
          "internalType": "address",
          "name": "_stakingToken",
          "type": "address"
        },
        {
          "internalType": "address",
          "name": "_rewardToken",
          "type": "address"
        },
        {
          "internalType": "uint256",
          "name": "_duration",
          "type": "uint256"
        }
      ],
      "name": "initialize",
      "outputs": [],
      "stateMutability": "nonpayable",
      "type": "function"
    },
    {
      "inputs": [],
      "name": "lastTimeRewardApplicable",
      "outputs": [
        {
          "internalType": "uint256",
          "name": "",
          "type": "uint256"
        }
      ],
      "stateMutability": "view",
      "type": "function"
    },
    {
      "inputs": [
        {
          "internalType": "uint256",
          "name": "rate",
          "type": "uint256"
        }
      ],
      "name": "notifyRewardRate",
      "outputs": [],
      "stateMutability": "nonpayable",
      "type": "function"
    },
    {
      "inputs": [],
      "name": "owner",
      "outputs": [
        {
          "internalType": "address",
          "name": "",
          "type": "address"
        }
      ],
      "stateMutability": "view",
      "type": "function"
    },
    {
      "inputs": [],
      "name": "proxiableUUID",
      "outputs": [
        {
          "internalType": "bytes32",
          "name": "",
          "type": "bytes32"
        }
      ],
      "stateMutability": "view",
      "type": "function"
    },
    {
      "inputs": [],
      "name": "renounceOwnership",
      "outputs": [],
      "stateMutability": "nonpayable",
      "type": "function"
    },
    {
      "inputs": [],
      "name": "rewardPerToken",
      "outputs": [
        {
          "internalType": "uint256",
          "name": "",
          "type": "uint256"
        }
      ],
      "stateMutability": "view",
      "type": "function"
    },
    {
      "inputs": [],
      "name": "rewardPerTokenStored",
      "outputs": [
        {
          "internalType": "uint256",
          "name": "",
          "type": "uint256"
        }
      ],
      "stateMutability": "view",
      "type": "function"
    },
    {
      "inputs": [],
      "name": "rewardRate",
      "outputs": [
        {
          "internalType": "uint256",
          "name": "",
          "type": "uint256"
        }
      ],
      "stateMutability": "view",
      "type": "function"
    },
    {
      "inputs": [],
      "name": "rewardToken",
      "outputs": [
        {
          "internalType": "contract IERC20",
          "name": "",
          "type": "address"
        }
      ],
      "stateMutability": "view",
      "type": "function"
    },
    {
      "inputs": [
        {
          "internalType": "address",
          "name": "",
          "type": "address"
        }
      ],
      "name": "rewards",
      "outputs": [
        {
          "internalType": "uint256",
          "name": "",
          "type": "uint256"
        }
      ],
      "stateMutability": "view",
      "type": "function"
    },
    {
      "inputs": [
        {
          "internalType": "uint256",
          "name": "_duration",
          "type": "uint256"
        }
      ],
      "name": "setDuration",
      "outputs": [],
      "stateMutability": "nonpayable",
      "type": "function"
    },
    {
      "inputs": [
        {
          "internalType": "uint256",
          "name": "amount",
          "type": "uint256"
        }
      ],
      "name": "stake",
      "outputs": [],
      "stateMutability": "nonpayable",
      "type": "function"
    },
    {
      "inputs": [],
      "name": "stakingToken",
      "outputs": [
        {
          "internalType": "contract IERC20",
          "name": "",
          "type": "address"
        }
      ],
      "stateMutability": "view",
      "type": "function"
    },
    {
      "inputs": [],
      "name": "totalSupply",
      "outputs": [
        {
          "internalType": "uint256",
          "name": "",
          "type": "uint256"
        }
      ],
      "stateMutability": "view",
      "type": "function"
    },
    {
      "inputs": [
        {
          "internalType": "address",
          "name": "newOwner",
          "type": "address"
        }
      ],
      "name": "transferOwnership",
      "outputs": [],
      "stateMutability": "nonpayable",
      "type": "function"
    },
    {
      "inputs": [],
      "name": "updatedAt",
      "outputs": [
        {
          "internalType": "uint256",
          "name": "",
          "type": "uint256"
        }
      ],
      "stateMutability": "view",
      "type": "function"
    },
    {
      "inputs": [
        {
          "internalType": "address",
          "name": "newImplementation",
          "type": "address"
        }
      ],
      "name": "upgradeTo",
      "outputs": [],
      "stateMutability": "nonpayable",
      "type": "function"
    },
    {
      "inputs": [
        {
          "internalType": "address",
          "name": "newImplementation",
          "type": "address"
        },
        {
          "internalType": "bytes",
          "name": "data",
          "type": "bytes"
        }
      ],
      "name": "upgradeToAndCall",
      "outputs": [],
      "stateMutability": "payable",
      "type": "function"
    },
    {
      "inputs": [
        {
          "internalType": "address",
          "name": "",
          "type": "address"
        }
      ],
      "name": "userRewardPerTokenPaid",
      "outputs": [
        {
          "internalType": "uint256",
          "name": "",
          "type": "uint256"
        }
      ],
      "stateMutability": "view",
      "type": "function"
    },
    {
      "inputs": [
        {
          "internalType": "uint256",
          "name": "amount",
          "type": "uint256"
        }
      ],
      "name": "withdraw",
      "outputs": [],
      "stateMutability": "nonpayable",
      "type": "function"
    }
  ],
  "bytecode": "0x60a06040523073ffffffffffffffffffffffffffffffffffffffff1660809073ffffffffffffffffffffffffffffffffffffffff168152503480156200004457600080fd5b5062000061676b94a8733e3d2f3360c01b620000af60201b60201c565b6200007d67a1483836f79adeb060c01b620000af60201b60201c565b6200009967b94517298fce8cd860c01b620000af60201b60201c565b620000a9620000b260201b60201c565b6200025c565b50565b600060019054906101000a900460ff161562000105576040517f08c379a0000000000000000000000000000000000000000000000000000000008152600401620000fc90620001ff565b60405180910390fd5b60ff801660008054906101000a900460ff1660ff1614620001765760ff6000806101000a81548160ff021916908360ff1602179055507f7f26b83ff96e1f2b6a682f133852f6798a09c465da95921460cefb384740249860ff6040516200016d91906200023f565b60405180910390a15b565b600082825260208201905092915050565b7f496e697469616c697a61626c653a20636f6e747261637420697320696e69746960008201527f616c697a696e6700000000000000000000000000000000000000000000000000602082015250565b6000620001e760278362000178565b9150620001f48262000189565b604082019050919050565b600060208201905081810360008301526200021a81620001d8565b9050919050565b600060ff82169050919050565b620002398162000221565b82525050565b60006020820190506200025660008301846200022e565b92915050565b6080516149466200029460003960008181611251015281816112df01528181611de901528181611e770152611f2701526149466000f3fe60806040526004361061019b5760003560e01c8063715018a6116100ec578063a694fc3a1161008a578063df136d6511610064578063df136d6514610584578063f2fde38b146105af578063f6be71d1146105d8578063f7c618c1146106015761019b565b8063a694fc3a14610505578063c45a01551461052e578063cd3daf9d146105595761019b565b80637b0a47ee116100c65780637b0a47ee1461044757806380faa57d146104725780638b8763471461049d5780638da5cb5b146104da5761019b565b8063715018a6146103da57806372f702f3146103f15780637519ab501461041c5761019b565b80633659cfe6116101595780634f1ef286116101335780634f1ef2861461032b57806352d1902d1461034757806367d3b4881461037257806370a082311461039d5761019b565b80633659cfe6146102c25780633d18b912146102eb5780634041ef41146103025761019b565b80628cc262146101a05780630700037d146101dd5780630fb5a6b41461021a5780631794bb3c1461024557806318160ddd1461026e5780632e1a7d4d14610299575b600080fd5b3480156101ac57600080fd5b506101c760048036038101906101c29190613921565b61062c565b6040516101d49190613967565b60405180910390f35b3480156101e957600080fd5b5061020460048036038101906101ff9190613921565b61076a565b6040516102119190613967565b60405180910390f35b34801561022657600080fd5b5061022f610782565b60405161023c9190613967565b60405180910390f35b34801561025157600080fd5b5061026c600480360381019061026791906139ae565b610788565b005b34801561027a57600080fd5b50610283610cc8565b6040516102909190613967565b60405180910390f35b3480156102a557600080fd5b506102c060048036038101906102bb9190613a01565b610d0e565b005b3480156102ce57600080fd5b506102e960048036038101906102e49190613921565b61124f565b005b3480156102f757600080fd5b506103006113d7565b005b34801561030e57600080fd5b5061032960048036038101906103249190613a01565b61191b565b005b61034560048036038101906103409190613b74565b611de7565b005b34801561035357600080fd5b5061035c611f23565b6040516103699190613be9565b60405180910390f35b34801561037e57600080fd5b50610387611fdc565b6040516103949190613967565b60405180910390f35b3480156103a957600080fd5b506103c460048036038101906103bf9190613921565b611fe2565b6040516103d19190613967565b60405180910390f35b3480156103e657600080fd5b506103ef612067565b005b3480156103fd57600080fd5b5061040661207b565b6040516104139190613c63565b60405180910390f35b34801561042857600080fd5b506104316120a1565b60405161043e9190613967565b60405180910390f35b34801561045357600080fd5b5061045c6120a7565b6040516104699190613967565b60405180910390f35b34801561047e57600080fd5b506104876120ad565b6040516104949190613967565b60405180910390f35b3480156104a957600080fd5b506104c460048036038101906104bf9190613921565b6120fc565b6040516104d19190613967565b60405180910390f35b3480156104e657600080fd5b506104ef612114565b6040516104fc9190613c8d565b60405180910390f35b34801561051157600080fd5b5061052c60048036038101906105279190613a01565b61213e565b005b34801561053a57600080fd5b506105436127ea565b6040516105509190613c8d565b60405180910390f35b34801561056557600080fd5b5061056e612810565b60405161057b9190613967565b60405180910390f35b34801561059057600080fd5b5061059961292f565b6040516105a69190613967565b60405180910390f35b3480156105bb57600080fd5b506105d660048036038101906105d19190613921565b612935565b005b3480156105e457600080fd5b506105ff60048036038101906105fa9190613a01565b6129b8565b005b34801561060d57600080fd5b50610616612c26565b6040516106239190613c63565b60405180910390f35b600061064267ab73d9386f3be09460c01b612c4c565b61065667df5f6fbd5868384560c01b612c4c565b61066a67ab4ff89688ee737760c01b612c4c565b60d260008373ffffffffffffffffffffffffffffffffffffffff1673ffffffffffffffffffffffffffffffffffffffff16815260200190815260200160002054670de0b6b3a764000060d160008573ffffffffffffffffffffffffffffffffffffffff1673ffffffffffffffffffffffffffffffffffffffff168152602001908152602001600020546106fb612810565b6107059190613cd7565b60d460008673ffffffffffffffffffffffffffffffffffffffff1673ffffffffffffffffffffffffffffffffffffffff1681526020019081526020016000205461074f9190613d0b565b6107599190613d7c565b6107639190613dad565b9050919050565b60d26020528060005260406000206000915090505481565b60cc5481565b61079c6781ebf1b427174fac60c01b612c4c565b60008060019054906101000a900460ff161590508080156107cd5750600160008054906101000a900460ff1660ff16105b806107fa57506107dc30612c4f565b1580156107f95750600160008054906101000a900460ff1660ff16145b5b610839576040517f08c379a000000000000000000000000000000000000000000000000000000000815260040161083090613e64565b60405180910390fd5b60016000806101000a81548160ff021916908360ff1602179055508015610876576001600060016101000a81548160ff0219169083151502179055505b61088a67821edc691da505d160c01b612c4c565b61089e67571df27fb9e47eda60c01b612c4c565b6108b26760ec14aab0ce638d60c01b612c4c565b6108c66763e47a22554663e960c01b612c4c565b6108da67ff885cfa9e18f22560c01b612c4c565b600073ffffffffffffffffffffffffffffffffffffffff168473ffffffffffffffffffffffffffffffffffffffff1603610949576040517f08c379a000000000000000000000000000000000000000000000000000000000815260040161094090613ef6565b60405180910390fd5b61095d673dbc14e5c7f9608960c01b612c4c565b61097167494a59e099b5fca660c01b612c4c565b61098567b71f384389caf02760c01b612c4c565b61099967e026f3a430b72c2e60c01b612c4c565b600073ffffffffffffffffffffffffffffffffffffffff168373ffffffffffffffffffffffffffffffffffffffff1603610a08576040517f08c379a00000000000000000000000000000000000000000000000000000000081526004016109ff90613f62565b60405180910390fd5b610a1c67eb221249d7a2e2af60c01b612c4c565b610a30676357291f3d78048260c01b612c4c565b610a44677067def90f182b3360c01b612c4c565b610a586756000a32659469cb60c01b612c4c565b60008211610a9b576040517f08c379a0000000000000000000000000000000000000000000000000000000008152600401610a9290613fce565b60405180910390fd5b610aaf67577ff698ed60cb7a60c01b612c4c565b610ac367e603ae65c40abc3260c01b612c4c565b610ad7677bd5887b43d7186160c01b612c4c565b610adf612c72565b610af367b5a5ede0879b4f6e60c01b612c4c565b610b0767121079629a21fb4260c01b612c4c565b610b0f612ccb565b610b236763454c4be390a51260c01b612c4c565b8360c960006101000a81548173ffffffffffffffffffffffffffffffffffffffff021916908373ffffffffffffffffffffffffffffffffffffffff160217905550610b7867dd4bf2deba7b04e260c01b612c4c565b8260ca60006101000a81548173ffffffffffffffffffffffffffffffffffffffff021916908373ffffffffffffffffffffffffffffffffffffffff160217905550610bcc660213f089c78efb60c01b612c4c565b8160cc81905550610be767a9f634693bb400b560c01b612c4c565b3360cb60006101000a81548173ffffffffffffffffffffffffffffffffffffffff021916908373ffffffffffffffffffffffffffffffffffffffff160217905550610c3c67c72dd0bd93c9047a60c01b612c4c565b4260ce81905550610c5767b33e74cbcce58bf860c01b612c4c565b8142610c639190613dad565b60cd819055508015610cc25760008060016101000a81548160ff0219169083151502179055507f7f26b83ff96e1f2b6a682f133852f6798a09c465da95921460cefb38474024986001604051610cb99190614036565b60405180910390a15b50505050565b6000610cde674c64f7742cada24960c01b612c4c565b610cf267d27352705243f9b460c01b612c4c565b610d06675df9763944a0fcfd60c01b612c4c565b60d354905090565b610d226726902f2030c72b5f60c01b612c4c565b610d36670da7778779ac391e60c01b612c4c565b610d4a67f45de3b1f7351af360c01b612c4c565b610d5e672ef065d8ba05a8fb60c01b612c4c565b60d560009054906101000a900460ff1615610db957610d8767e53d8be27d74fe2860c01b612c4c565b6040517f8beb9d1600000000000000000000000000000000000000000000000000000000815260040160405180910390fd5b610dcd67e9d17c9385d8ebde60c01b612c4c565b610de167446cb23a116c46a460c01b612c4c565b600160d560006101000a81548160ff021916908315150217905550610e106768f2228bfbd2253c60c01b612c4c565b610e24673c4bd3ae0bb482c260c01b612c4c565b610e3766c5b7a11db00d6160c01b612c4c565b33610e4c67c1ecf75ed2ec052d60c01b612c4c565b610e60675e30c08f1bfbf94560c01b612c4c565b610e68612810565b60d081905550610e8267083c9fc56d40e32560c01b612c4c565b610e8a6120ad565b60ce81905550610ea4675f9b5db8c2afa63260c01b612c4c565b610eb867a79037592a6bc81760c01b612c4c565b600073ffffffffffffffffffffffffffffffffffffffff168173ffffffffffffffffffffffffffffffffffffffff1614610fbf57610f006738550b87f7c4532b60c01b612c4c565b610f146745fe954fc5d91d8160c01b612c4c565b610f1d8161062c565b60d260008373ffffffffffffffffffffffffffffffffffffffff1673ffffffffffffffffffffffffffffffffffffffff16815260200190815260200160002081905550610f74679652322a63385da860c01b612c4c565b60d05460d160008373ffffffffffffffffffffffffffffffffffffffff1673ffffffffffffffffffffffffffffffffffffffff16815260200190815260200160002081905550610fd4565b610fd367afe071fb02576bd560c01b612c4c565b5b610fe867643e92195435bca360c01b612c4c565b610ffc67ae2397c54c384e3560c01b612c4c565b61101067a1ee97e5992a12e560c01b612c4c565b611024670c7241c6dc74b86960c01b612c4c565b611038670291ba8756efcae160c01b612c4c565b6000820361108657611054676aafd12e435fa72560c01b612c4c565b6040517f2c5211c600000000000000000000000000000000000000000000000000000000815260040160405180910390fd5b61109a67c2128abb0beb4be960c01b612c4c565b6110ae6789a287637604ab8260c01b612c4c565b8160d460003373ffffffffffffffffffffffffffffffffffffffff1673ffffffffffffffffffffffffffffffffffffffff16815260200190815260200160002060008282546110fd9190613cd7565b92505081905550611118676ff32949f14f72ee60c01b612c4c565b8160d3600082825461112a9190613cd7565b9250508190555061114567bf62b602d0d11e0c60c01b612c4c565b611159677458c9ef96cefe6a60c01b612c4c565b6111a6338360c960009054906101000a900473ffffffffffffffffffffffffffffffffffffffff1673ffffffffffffffffffffffffffffffffffffffff16612d1c9092919063ffffffff16565b6111ba6758bb8c61aeb9277c60c01b612c4c565b6111ce671e4f4339bec4d7bd60c01b612c4c565b3373ffffffffffffffffffffffffffffffffffffffff167f7084f5476618d8e60b11ef0d7d3f06914655adb8793e28ff7f018d4c76d505d5836040516112149190613967565b60405180910390a25061123167098f81d26823119a60c01b612c4c565b600060d560006101000a81548160ff02191690831515021790555050565b7f000000000000000000000000000000000000000000000000000000000000000073ffffffffffffffffffffffffffffffffffffffff163073ffffffffffffffffffffffffffffffffffffffff16036112dd576040517f08c379a00000000000000000000000000000000000000000000000000000000081526004016112d4906140c3565b60405180910390fd5b7f000000000000000000000000000000000000000000000000000000000000000073ffffffffffffffffffffffffffffffffffffffff1661131c612da2565b73ffffffffffffffffffffffffffffffffffffffff1614611372576040517f08c379a000000000000000000000000000000000000000000000000000000000815260040161136990614155565b60405180910390fd5b61137b81612df9565b6113d481600067ffffffffffffffff81111561139a57611399613a49565b5b6040519080825280601f01601f1916602001820160405280156113cc5781602001600182028036833780820191505090505b506000612f17565b50565b6113eb673f2a7fdd8692b4e560c01b612c4c565b6113ff670da7778779ac391e60c01b612c4c565b61141367f45de3b1f7351af360c01b612c4c565b611427672ef065d8ba05a8fb60c01b612c4c565b60d560009054906101000a900460ff16156114825761145067e53d8be27d74fe2860c01b612c4c565b6040517f8beb9d1600000000000000000000000000000000000000000000000000000000815260040160405180910390fd5b61149667e9d17c9385d8ebde60c01b612c4c565b6114aa67446cb23a116c46a460c01b612c4c565b600160d560006101000a81548160ff0219169083151502179055506114d96768f2228bfbd2253c60c01b612c4c565b6114ed6795f236467aace73760c01b612c4c565b611500663888c192db64d460c01b612c4c565b3361151567c1ecf75ed2ec052d60c01b612c4c565b611529675e30c08f1bfbf94560c01b612c4c565b611531612810565b60d08190555061154b67083c9fc56d40e32560c01b612c4c565b6115536120ad565b60ce8190555061156d675f9b5db8c2afa63260c01b612c4c565b61158167a79037592a6bc81760c01b612c4c565b600073ffffffffffffffffffffffffffffffffffffffff168173ffffffffffffffffffffffffffffffffffffffff1614611688576115c96738550b87f7c4532b60c01b612c4c565b6115dd6745fe954fc5d91d8160c01b612c4c565b6115e68161062c565b60d260008373ffffffffffffffffffffffffffffffffffffffff1673ffffffffffffffffffffffffffffffffffffffff1681526020019081526020016000208190555061163d679652322a63385da860c01b612c4c565b60d05460d160008373ffffffffffffffffffffffffffffffffffffffff1673ffffffffffffffffffffffffffffffffffffffff1681526020019081526020016000208190555061169d565b61169c67afe071fb02576bd560c01b612c4c565b5b6116b167643e92195435bca360c01b612c4c565b6116c567c0149a48334a446f60c01b612c4c565b6116d96753ca5de24b8abced60c01b612c4c565b6116ed672a0db9ad40af51fe60c01b612c4c565b61170167a483e26f331f41f360c01b612c4c565b600060d260003373ffffffffffffffffffffffffffffffffffffffff1673ffffffffffffffffffffffffffffffffffffffff16815260200190815260200160002054905061175967c8b116ed870580a860c01b612c4c565b61176d67b40786b6572f8d4360c01b612c4c565b60008111156118d35761178a67f9ce1ac22de4c30e60c01b612c4c565b61179e674f1c902e0360e47060c01b612c4c565b600060d260003373ffffffffffffffffffffffffffffffffffffffff1673ffffffffffffffffffffffffffffffffffffffff168152602001908152602001600020819055506117f7671eed5a05e00c4eea60c01b612c4c565b61180b67fc3cd45b755a5a6560c01b612c4c565b611858338260ca60009054906101000a900473ffffffffffffffffffffffffffffffffffffffff1673ffffffffffffffffffffffffffffffffffffffff16612d1c9092919063ffffffff16565b61186c673e5f555c181dc7b460c01b612c4c565b61188067468b468a4ad2f0e360c01b612c4c565b3373ffffffffffffffffffffffffffffffffffffffff167fe2403640ba68fed3a2f88b7557551d1993f84b99bb10ff833f0cf8db0c5e0486826040516118c69190613967565b60405180910390a26118e8565b6118e767d9f4bc085dd9061760c01b612c4c565b5b50506118fe67098f81d26823119a60c01b612c4c565b600060d560006101000a81548160ff021916908315150217905550565b61192f67395c256e52125a7960c01b612c4c565b611943678bc2848ba4ff73fa60c01b612c4c565b611957674e333cf951bf3ed760c01b612c4c565b61196b67cff61c344f00ff4c60c01b612c4c565b60cb60009054906101000a900473ffffffffffffffffffffffffffffffffffffffff1673ffffffffffffffffffffffffffffffffffffffff163373ffffffffffffffffffffffffffffffffffffffff1614611a06576119d4678c085bb43efbcd0260c01b612c4c565b6040517f0c6d42ae00000000000000000000000000000000000000000000000000000000815260040160405180910390fd5b611a1a674a848eef0f0d8cd860c01b612c4c565b611a2e67a631a1238cf9bff860c01b612c4c565b611a426781851797b82bdbcc60c01b612c4c565b611a566773fe7acadbe5f54160c01b612c4c565b6000611a6c67c1ecf75ed2ec052d60c01b612c4c565b611a80675e30c08f1bfbf94560c01b612c4c565b611a88612810565b60d081905550611aa267083c9fc56d40e32560c01b612c4c565b611aaa6120ad565b60ce81905550611ac4675f9b5db8c2afa63260c01b612c4c565b611ad867a79037592a6bc81760c01b612c4c565b600073ffffffffffffffffffffffffffffffffffffffff168173ffffffffffffffffffffffffffffffffffffffff1614611bdf57611b206738550b87f7c4532b60c01b612c4c565b611b346745fe954fc5d91d8160c01b612c4c565b611b3d8161062c565b60d260008373ffffffffffffffffffffffffffffffffffffffff1673ffffffffffffffffffffffffffffffffffffffff16815260200190815260200160002081905550611b94679652322a63385da860c01b612c4c565b60d05460d160008373ffffffffffffffffffffffffffffffffffffffff1673ffffffffffffffffffffffffffffffffffffffff16815260200190815260200160002081905550611bf4565b611bf367afe071fb02576bd560c01b612c4c565b5b611c0867643e92195435bca360c01b612c4c565b611c1c67e3b06a791269090260c01b612c4c565b611c30673e78bac6f341e33f60c01b612c4c565b611c4467ea82144ffeddf9e760c01b612c4c565b611c5867a3deb845933c5b0f60c01b612c4c565b60008203611ca657611c74679d3c268ae7728bd260c01b612c4c565b6040517f2c5211c600000000000000000000000000000000000000000000000000000000815260040160405180910390fd5b611cba67b987e85200d7e56560c01b612c4c565b611cce676b8f9f2b9eec05ca60c01b612c4c565b8160cf81905550611ce9671dfce4ae818d7df060c01b612c4c565b60cc5442611cf79190613dad565b60cd81905550611d116727d247fcde53dc3e60c01b612c4c565b4260ce81905550611d2c67d7fad9e0b755425360c01b612c4c565b611d4067a6da77b59a80286660c01b612c4c565b7f41d466ebd06fb97e7786086ac8b69b7eb7da798592036251291d34e9791cde0182604051611d6f9190613967565b60405180910390a1611d8b678b854c0caadb370260c01b612c4c565b611d9f67258e62400522a40860c01b612c4c565b7fde88a922e0d3b88b24e9623efeb464919c6bf9f66857a65e2bfcf2ce87a9433d60cc5483611dce9190613d0b565b604051611ddb9190613967565b60405180910390a15050565b7f000000000000000000000000000000000000000000000000000000000000000073ffffffffffffffffffffffffffffffffffffffff163073ffffffffffffffffffffffffffffffffffffffff1603611e75576040517f08c379a0000000000000000000000000000000000000000000000000000000008152600401611e6c906140c3565b60405180910390fd5b7f000000000000000000000000000000000000000000000000000000000000000073ffffffffffffffffffffffffffffffffffffffff16611eb4612da2565b73ffffffffffffffffffffffffffffffffffffffff1614611f0a576040517f08c379a0000000000000000000000000000000000000000000000000000000008152600401611f0190614155565b60405180910390fd5b611f1382612df9565b611f1f82826001612f17565b5050565b60007f000000000000000000000000000000000000000000000000000000000000000073ffffffffffffffffffffffffffffffffffffffff163073ffffffffffffffffffffffffffffffffffffffff1614611fb3576040517f08c379a0000000000000000000000000000000000000000000000000000000008152600401611faa906141e7565b60405180910390fd5b7f360894a13ba1a3210667c828492db98dca3e2076cc3735a920a3ca505d382bbc60001b905090565b60cd5481565b6000611ff8671f67aa4fc353e08c60c01b612c4c565b61200c674c667fb277c6104e60c01b612c4c565b612020675571d413d9e9c7c560c01b612c4c565b60d460008373ffffffffffffffffffffffffffffffffffffffff1673ffffffffffffffffffffffffffffffffffffffff168152602001908152602001600020549050919050565b61206f613085565b6120796000613103565b565b60c960009054906101000a900473ffffffffffffffffffffffffffffffffffffffff1681565b60ce5481565b60cf5481565b60006120c367301ac713188b484c60c01b612c4c565b6120d76781edff20efb2e8c060c01b612c4c565b6120eb67e7ac38db88a943b960c01b612c4c565b6120f760cd54426131c9565b905090565b60d16020528060005260406000206000915090505481565b6000603360009054906101000a900473ffffffffffffffffffffffffffffffffffffffff16905090565b61215267379d880ac51ef85260c01b612c4c565b612166670da7778779ac391e60c01b612c4c565b61217a67f45de3b1f7351af360c01b612c4c565b61218e672ef065d8ba05a8fb60c01b612c4c565b60d560009054906101000a900460ff16156121e9576121b767e53d8be27d74fe2860c01b612c4c565b6040517f8beb9d1600000000000000000000000000000000000000000000000000000000815260040160405180910390fd5b6121fd67e9d17c9385d8ebde60c01b612c4c565b61221167446cb23a116c46a460c01b612c4c565b600160d560006101000a81548160ff0219169083151502179055506122406768f2228bfbd2253c60c01b612c4c565b61225467d56c805168b9c31860c01b612c4c565b612268675e2cdf7419bb380960c01b612c4c565b3361227d67c1ecf75ed2ec052d60c01b612c4c565b612291675e30c08f1bfbf94560c01b612c4c565b612299612810565b60d0819055506122b367083c9fc56d40e32560c01b612c4c565b6122bb6120ad565b60ce819055506122d5675f9b5db8c2afa63260c01b612c4c565b6122e967a79037592a6bc81760c01b612c4c565b600073ffffffffffffffffffffffffffffffffffffffff168173ffffffffffffffffffffffffffffffffffffffff16146123f0576123316738550b87f7c4532b60c01b612c4c565b6123456745fe954fc5d91d8160c01b612c4c565b61234e8161062c565b60d260008373ffffffffffffffffffffffffffffffffffffffff1673ffffffffffffffffffffffffffffffffffffffff168152602001908152602001600020819055506123a5679652322a63385da860c01b612c4c565b60d05460d160008373ffffffffffffffffffffffffffffffffffffffff1673ffffffffffffffffffffffffffffffffffffffff16815260200190815260200160002081905550612405565b61240467afe071fb02576bd560c01b612c4c565b5b61241967643e92195435bca360c01b612c4c565b61242d67823b153c7a90993e60c01b612c4c565b61244167ad18aa5e880261bd60c01b612c4c565b61245567bb422bddc57af0a160c01b612c4c565b61246967d9299ec77b5681c760c01b612c4c565b61247d670ca6440b98ce89d760c01b612c4c565b60cd544211156124cd5761249b67c6d92c981521f1df60c01b612c4c565b6040517f9ba413ec00000000000000000000000000000000000000000000000000000000815260040160405180910390fd5b6124e167b7d25b7a32731cc060c01b612c4c565b6124f5672c0afef5f5aabaf860c01b612c4c565b61250967e53a142b26e2cfe160c01b612c4c565b600060cf54036125595761252767950bf1e23bcac6d060c01b612c4c565b6040517f675f7f4200000000000000000000000000000000000000000000000000000000815260040160405180910390fd5b61256d676f49647e1501e1ba60c01b612c4c565b612581673f583ad09a027ca660c01b612c4c565b61259567913aa795cb7dd99d60c01b612c4c565b6125a967878df9bd01be08c360c01b612c4c565b6125bd67879afd55930725cc60c01b612c4c565b6125d167d028397f48c8e58f60c01b612c4c565b6000820361261f576125ed671edbd6e310ef732e60c01b612c4c565b6040517f2c5211c600000000000000000000000000000000000000000000000000000000815260040160405180910390fd5b61263367bd6d3b8d4a87555e60c01b612c4c565b612647672b8fcf0ad23ec57560c01b612c4c565b61265b671c624a0d4572d4a460c01b612c4c565b6126aa33308460c960009054906101000a900473ffffffffffffffffffffffffffffffffffffffff1673ffffffffffffffffffffffffffffffffffffffff16613256909392919063ffffffff16565b6126be670a6cc2148f21eacd60c01b612c4c565b8160d460003373ffffffffffffffffffffffffffffffffffffffff1673ffffffffffffffffffffffffffffffffffffffff168152602001908152602001600020600082825461270d9190613dad565b92505081905550612728670e59e7cdc31b1c1760c01b612c4c565b8160d3600082825461273a9190613dad565b92505081905550612755676c84d55c858f602560c01b612c4c565b61276967140da93bc1b0510460c01b612c4c565b3373ffffffffffffffffffffffffffffffffffffffff167f9e71bc8eea02a63969f509818f2dafb9254532904319f9dbda79b67bd34a5f3d836040516127af9190613967565b60405180910390a2506127cc67098f81d26823119a60c01b612c4c565b600060d560006101000a81548160ff02191690831515021790555050565b60cb60009054906101000a900473ffffffffffffffffffffffffffffffffffffffff1681565b6000612826670b2d3d993e21f87460c01b612c4c565b61283a6733572351ade8850c60c01b612c4c565b61284e67c623197ac5363de960c01b612c4c565b600060d3540361289e5761286c677dafe88ee39df29160c01b612c4c565b61288067cdac7ea870fadbcd60c01b612c4c565b6128946748baf9fdf0f6136a60c01b612c4c565b60d054905061292c565b6128b2672ee728d3ef3d3f9060c01b612c4c565b6128c66771fd13cac13e4bda60c01b612c4c565b6128da676c5647e51023acb760c01b612c4c565b60d354670de0b6b3a764000060cf5460ce546128f46120ad565b6128fe9190613cd7565b6129089190613d0b565b6129129190613d0b565b61291c9190613d7c565b60d0546129299190613dad565b90505b90565b60d05481565b61293d613085565b600073ffffffffffffffffffffffffffffffffffffffff168173ffffffffffffffffffffffffffffffffffffffff16036129ac576040517f08c379a00000000000000000000000000000000000000000000000000000000081526004016129a390614279565b60405180910390fd5b6129b581613103565b50565b6129cc67a831c542a0087d8a60c01b612c4c565b6129e0678bc2848ba4ff73fa60c01b612c4c565b6129f4674e333cf951bf3ed760c01b612c4c565b612a0867cff61c344f00ff4c60c01b612c4c565b60cb60009054906101000a900473ffffffffffffffffffffffffffffffffffffffff1673ffffffffffffffffffffffffffffffffffffffff163373ffffffffffffffffffffffffffffffffffffffff1614612aa357612a71678c085bb43efbcd0260c01b612c4c565b6040517f0c6d42ae00000000000000000000000000000000000000000000000000000000815260040160405180910390fd5b612ab7674a848eef0f0d8cd860c01b612c4c565b612acb67a631a1238cf9bff860c01b612c4c565b612adf67f3735ea8620c0bf060c01b612c4c565b612af3678ba163334e0e15d860c01b612c4c565b612b076730e6b5c9b8ca23c360c01b612c4c565b612b1b676d618e64c4f2729160c01b612c4c565b60008103612b6957612b3767581f5742c401b75960c01b612c4c565b6040517f2c5211c600000000000000000000000000000000000000000000000000000000815260040160405180910390fd5b612b7d6734c639c2d179d5e260c01b612c4c565b612b91678190ab5bfd05c3c260c01b612c4c565b612ba5678eefa17c334a3a6e60c01b612c4c565b4260cd5410612bf457612bc267205413352e67e47c60c01b612c4c565b6040517fdb44346900000000000000000000000000000000000000000000000000000000815260040160405180910390fd5b612c0867be3fc4bd9f3fba4a60c01b612c4c565b612c1c677813333afae4ed4a60c01b612c4c565b8060cc8190555050565b60ca60009054906101000a900473ffffffffffffffffffffffffffffffffffffffff1681565b50565b6000808273ffffffffffffffffffffffffffffffffffffffff163b119050919050565b600060019054906101000a900460ff16612cc1576040517f08c379a0000000000000000000000000000000000000000000000000000000008152600401612cb89061430b565b60405180910390fd5b612cc96132df565b565b600060019054906101000a900460ff16612d1a576040517f08c379a0000000000000000000000000000000000000000000000000000000008152600401612d119061430b565b60405180910390fd5b565b612d9d8363a9059cbb60e01b8484604051602401612d3b92919061432b565b604051602081830303815290604052907bffffffffffffffffffffffffffffffffffffffffffffffffffffffff19166020820180517bffffffffffffffffffffffffffffffffffffffffffffffffffffffff8381831617835250505050613340565b505050565b6000612dd07f360894a13ba1a3210667c828492db98dca3e2076cc3735a920a3ca505d382bbc60001b613408565b60000160009054906101000a900473ffffffffffffffffffffffffffffffffffffffff16905090565b612e0d67781926a3fb23e37060c01b612c4c565b612e15613085565b612e29670b3bd4a5df874c7960c01b612c4c565b612e3d676b7518a588f7ebd660c01b612c4c565b612e5167cc733590eb69fa2160c01b612c4c565b612e6567695a4bc7eabdeb4160c01b612c4c565b60cb60009054906101000a900473ffffffffffffffffffffffffffffffffffffffff1673ffffffffffffffffffffffffffffffffffffffff163373ffffffffffffffffffffffffffffffffffffffff1614612f0057612ece67f873d6f40ac1659e60c01b612c4c565b6040517f0c6d42ae00000000000000000000000000000000000000000000000000000000815260040160405180910390fd5b612f14671ec89c4f71c9543760c01b612c4c565b50565b612f437f4910fdfa16fed3260ed0e7147f7cc6da11a60208b5b9406d12a635614ffd914360001b613412565b60000160009054906101000a900460ff1615612f6757612f628361341c565b613080565b8273ffffffffffffffffffffffffffffffffffffffff166352d1902d6040518163ffffffff1660e01b8152600401602060405180830381865afa925050508015612fcf57506040513d601f19601f82011682018060405250810190612fcc9190614380565b60015b61300e576040517f08c379a00000000000000000000000000000000000000000000000000000000081526004016130059061441f565b60405180910390fd5b7f360894a13ba1a3210667c828492db98dca3e2076cc3735a920a3ca505d382bbc60001b8114613073576040517f08c379a000000000000000000000000000000000000000000000000000000000815260040161306a906144b1565b60405180910390fd5b5061307f8383836134d5565b5b505050565b61308d613501565b73ffffffffffffffffffffffffffffffffffffffff166130ab612114565b73ffffffffffffffffffffffffffffffffffffffff1614613101576040517f08c379a00000000000000000000000000000000000000000000000000000000081526004016130f89061451d565b60405180910390fd5b565b6000603360009054906101000a900473ffffffffffffffffffffffffffffffffffffffff16905081603360006101000a81548173ffffffffffffffffffffffffffffffffffffffff021916908373ffffffffffffffffffffffffffffffffffffffff1602179055508173ffffffffffffffffffffffffffffffffffffffff168173ffffffffffffffffffffffffffffffffffffffff167f8be0079c531659141344cd1fd0a4f28419497f9722a3daafe3b4186f6b6457e060405160405180910390a35050565b60006131df671d690ebcd0a79da060c01b612c4c565b6131f3679ca269f613c1a47960c01b612c4c565b61320767df8ee8aa4f4424f360c01b612c4c565b818311158061322657506132256731de7826184e17a860c01b613509565b5b8015613242575061324167f0dbba8fd9946d5f60c01b613510565b5b61324c578161324e565b825b905092915050565b6132d9846323b872dd60e01b8585856040516024016132779392919061453d565b604051602081830303815290604052907bffffffffffffffffffffffffffffffffffffffffffffffffffffffff19166020820180517bffffffffffffffffffffffffffffffffffffffffffffffffffffffff8381831617835250505050613340565b50505050565b600060019054906101000a900460ff1661332e576040517f08c379a00000000000000000000000000000000000000000000000000000000081526004016133259061430b565b60405180910390fd5b61333e613339613501565b613103565b565b60006133a2826040518060400160405280602081526020017f5361666545524332303a206c6f772d6c6576656c2063616c6c206661696c65648152508573ffffffffffffffffffffffffffffffffffffffff1661351b9092919063ffffffff16565b90506000815114806133c45750808060200190518101906133c391906145ac565b5b613403576040517f08c379a00000000000000000000000000000000000000000000000000000000081526004016133fa9061464b565b60405180910390fd5b505050565b6000819050919050565b6000819050919050565b61342581612c4f565b613464576040517f08c379a000000000000000000000000000000000000000000000000000000000815260040161345b906146dd565b60405180910390fd5b806134917f360894a13ba1a3210667c828492db98dca3e2076cc3735a920a3ca505d382bbc60001b613408565b60000160006101000a81548173ffffffffffffffffffffffffffffffffffffffff021916908373ffffffffffffffffffffffffffffffffffffffff16021790555050565b6134de83613533565b6000825111806134eb5750805b156134fc576134fa8383613582565b505b505050565b600033905090565b6000919050565b600060019050919050565b606061352a84846000856135af565b90509392505050565b61353c8161341c565b8073ffffffffffffffffffffffffffffffffffffffff167fbc7cd75a20ee27fd9adebab32041f755214dbc6bffa90cc0225b39da2e5c2d3b60405160405180910390a250565b60606135a783836040518060600160405280602781526020016148ea6027913961367c565b905092915050565b6060824710156135f4576040517f08c379a00000000000000000000000000000000000000000000000000000000081526004016135eb9061476f565b60405180910390fd5b6000808673ffffffffffffffffffffffffffffffffffffffff16858760405161361d9190614800565b60006040518083038185875af1925050503d806000811461365a576040519150601f19603f3d011682016040523d82523d6000602084013e61365f565b606091505b509150915061367087838387613702565b92505050949350505050565b60606000808573ffffffffffffffffffffffffffffffffffffffff16856040516136a69190614800565b600060405180830381855af49150503d80600081146136e1576040519150601f19603f3d011682016040523d82523d6000602084013e6136e6565b606091505b50915091506136f786838387613777565b925050509392505050565b6060831561376457600083510361375c5761371c856137ec565b61375b576040517f08c379a000000000000000000000000000000000000000000000000000000000815260040161375290614863565b60405180910390fd5b5b82905061376f565b61376e838361380f565b5b949350505050565b606083156137d95760008351036137d15761379185612c4f565b6137d0576040517f08c379a00000000000000000000000000000000000000000000000000000000081526004016137c790614863565b60405180910390fd5b5b8290506137e4565b6137e3838361385f565b5b949350505050565b6000808273ffffffffffffffffffffffffffffffffffffffff163b119050919050565b6000825111156138225781518083602001fd5b806040517f08c379a000000000000000000000000000000000000000000000000000000000815260040161385691906148c7565b60405180910390fd5b6000825111156138725781518083602001fd5b806040517f08c379a00000000000000000000000000000000000000000000000000000000081526004016138a691906148c7565b60405180910390fd5b6000604051905090565b600080fd5b600080fd5b600073ffffffffffffffffffffffffffffffffffffffff82169050919050565b60006138ee826138c3565b9050919050565b6138fe816138e3565b811461390957600080fd5b50565b60008135905061391b816138f5565b92915050565b600060208284031215613937576139366138b9565b5b60006139458482850161390c565b91505092915050565b6000819050919050565b6139618161394e565b82525050565b600060208201905061397c6000830184613958565b92915050565b61398b8161394e565b811461399657600080fd5b50565b6000813590506139a881613982565b92915050565b6000806000606084860312156139c7576139c66138b9565b5b60006139d58682870161390c565b93505060206139e68682870161390c565b92505060406139f786828701613999565b9150509250925092565b600060208284031215613a1757613a166138b9565b5b6000613a2584828501613999565b91505092915050565b600080fd5b600080fd5b6000601f19601f8301169050919050565b7f4e487b7100000000000000000000000000000000000000000000000000000000600052604160045260246000fd5b613a8182613a38565b810181811067ffffffffffffffff82111715613aa057613a9f613a49565b5b80604052505050565b6000613ab36138af565b9050613abf8282613a78565b919050565b600067ffffffffffffffff821115613adf57613ade613a49565b5b613ae882613a38565b9050602081019050919050565b82818337600083830152505050565b6000613b17613b1284613ac4565b613aa9565b905082815260208101848484011115613b3357613b32613a33565b5b613b3e848285613af5565b509392505050565b600082601f830112613b5b57613b5a613a2e565b5b8135613b6b848260208601613b04565b91505092915050565b60008060408385031215613b8b57613b8a6138b9565b5b6000613b998582860161390c565b925050602083013567ffffffffffffffff811115613bba57613bb96138be565b5b613bc685828601613b46565b9150509250929050565b6000819050919050565b613be381613bd0565b82525050565b6000602082019050613bfe6000830184613bda565b92915050565b6000819050919050565b6000613c29613c24613c1f846138c3565b613c04565b6138c3565b9050919050565b6000613c3b82613c0e565b9050919050565b6000613c4d82613c30565b9050919050565b613c5d81613c42565b82525050565b6000602082019050613c786000830184613c54565b92915050565b613c87816138e3565b82525050565b6000602082019050613ca26000830184613c7e565b92915050565b7f4e487b7100000000000000000000000000000000000000000000000000000000600052601160045260246000fd5b6000613ce28261394e565b9150613ced8361394e565b9250828203905081811115613d0557613d04613ca8565b5b92915050565b6000613d168261394e565b9150613d218361394e565b9250828202613d2f8161394e565b91508282048414831517613d4657613d45613ca8565b5b5092915050565b7f4e487b7100000000000000000000000000000000000000000000000000000000600052601260045260246000fd5b6000613d878261394e565b9150613d928361394e565b925082613da257613da1613d4d565b5b828204905092915050565b6000613db88261394e565b9150613dc38361394e565b9250828201905080821115613ddb57613dda613ca8565b5b92915050565b600082825260208201905092915050565b7f496e697469616c697a61626c653a20636f6e747261637420697320616c72656160008201527f647920696e697469616c697a6564000000000000000000000000000000000000602082015250565b6000613e4e602e83613de1565b9150613e5982613df2565b604082019050919050565b60006020820190508181036000830152613e7d81613e41565b9050919050565b7f5374616b696e6720746f6b656e20616464726573732063616e6e6f742062652060008201527f3000000000000000000000000000000000000000000000000000000000000000602082015250565b6000613ee0602183613de1565b9150613eeb82613e84565b604082019050919050565b60006020820190508181036000830152613f0f81613ed3565b9050919050565b7f52657761726420746f6b656e20616464726573732063616e6e6f742062652030600082015250565b6000613f4c602083613de1565b9150613f5782613f16565b602082019050919050565b60006020820190508181036000830152613f7b81613f3f565b9050919050565b7f4475726174696f6e206d757374206265203e2030000000000000000000000000600082015250565b6000613fb8601483613de1565b9150613fc382613f82565b602082019050919050565b60006020820190508181036000830152613fe781613fab565b9050919050565b6000819050919050565b600060ff82169050919050565b600061402061401b61401684613fee565b613c04565b613ff8565b9050919050565b61403081614005565b82525050565b600060208201905061404b6000830184614027565b92915050565b7f46756e6374696f6e206d7573742062652063616c6c6564207468726f7567682060008201527f64656c656761746563616c6c0000000000000000000000000000000000000000602082015250565b60006140ad602c83613de1565b91506140b882614051565b604082019050919050565b600060208201905081810360008301526140dc816140a0565b9050919050565b7f46756e6374696f6e206d7573742062652063616c6c6564207468726f7567682060008201527f6163746976652070726f78790000000000000000000000000000000000000000602082015250565b600061413f602c83613de1565b915061414a826140e3565b604082019050919050565b6000602082019050818103600083015261416e81614132565b9050919050565b7f555550535570677261646561626c653a206d757374206e6f742062652063616c60008201527f6c6564207468726f7567682064656c656761746563616c6c0000000000000000602082015250565b60006141d1603883613de1565b91506141dc82614175565b604082019050919050565b60006020820190508181036000830152614200816141c4565b9050919050565b7f4f776e61626c653a206e6577206f776e657220697320746865207a65726f206160008201527f6464726573730000000000000000000000000000000000000000000000000000602082015250565b6000614263602683613de1565b915061426e82614207565b604082019050919050565b6000602082019050818103600083015261429281614256565b9050919050565b7f496e697469616c697a61626c653a20636f6e7472616374206973206e6f74206960008201527f6e697469616c697a696e67000000000000000000000000000000000000000000602082015250565b60006142f5602b83613de1565b915061430082614299565b604082019050919050565b60006020820190508181036000830152614324816142e8565b9050919050565b60006040820190506143406000830185613c7e565b61434d6020830184613958565b9392505050565b61435d81613bd0565b811461436857600080fd5b50565b60008151905061437a81614354565b92915050565b600060208284031215614396576143956138b9565b5b60006143a48482850161436b565b91505092915050565b7f45524331393637557067726164653a206e657720696d706c656d656e7461746960008201527f6f6e206973206e6f742055555053000000000000000000000000000000000000602082015250565b6000614409602e83613de1565b9150614414826143ad565b604082019050919050565b60006020820190508181036000830152614438816143fc565b9050919050565b7f45524331393637557067726164653a20756e737570706f727465642070726f7860008201527f6961626c65555549440000000000000000000000000000000000000000000000602082015250565b600061449b602983613de1565b91506144a68261443f565b604082019050919050565b600060208201905081810360008301526144ca8161448e565b9050919050565b7f4f776e61626c653a2063616c6c6572206973206e6f7420746865206f776e6572600082015250565b6000614507602083613de1565b9150614512826144d1565b602082019050919050565b60006020820190508181036000830152614536816144fa565b9050919050565b60006060820190506145526000830186613c7e565b61455f6020830185613c7e565b61456c6040830184613958565b949350505050565b60008115159050919050565b61458981614574565b811461459457600080fd5b50565b6000815190506145a681614580565b92915050565b6000602082840312156145c2576145c16138b9565b5b60006145d084828501614597565b91505092915050565b7f5361666545524332303a204552433230206f7065726174696f6e20646964206e60008201527f6f74207375636365656400000000000000000000000000000000000000000000602082015250565b6000614635602a83613de1565b9150614640826145d9565b604082019050919050565b6000602082019050818103600083015261466481614628565b9050919050565b7f455243313936373a206e657720696d706c656d656e746174696f6e206973206e60008201527f6f74206120636f6e747261637400000000000000000000000000000000000000602082015250565b60006146c7602d83613de1565b91506146d28261466b565b604082019050919050565b600060208201905081810360008301526146f6816146ba565b9050919050565b7f416464726573733a20696e73756666696369656e742062616c616e636520666f60008201527f722063616c6c0000000000000000000000000000000000000000000000000000602082015250565b6000614759602683613de1565b9150614764826146fd565b604082019050919050565b600060208201905081810360008301526147888161474c565b9050919050565b600081519050919050565b600081905092915050565b60005b838110156147c35780820151818401526020810190506147a8565b60008484015250505050565b60006147da8261478f565b6147e4818561479a565b93506147f48185602086016147a5565b80840191505092915050565b600061480c82846147cf565b915081905092915050565b7f416464726573733a2063616c6c20746f206e6f6e2d636f6e7472616374000000600082015250565b600061484d601d83613de1565b915061485882614817565b602082019050919050565b6000602082019050818103600083015261487c81614840565b9050919050565b600081519050919050565b600061489982614883565b6148a38185613de1565b93506148b38185602086016147a5565b6148bc81613a38565b840191505092915050565b600060208201905081810360008301526148e1818461488e565b90509291505056fe416464726573733a206c6f772d6c6576656c2064656c65676174652063616c6c206661696c6564a2646970667358221220ea9537eedfc6df137842d3862dd82b1151d78d78c7ed15efa2f8c4f5829b283b64736f6c63430008150033",
  "linkReferences": {},
  "deployedLinkReferences": {}
}